{
	"contracts/Activity4_Day6.sol": {
		"Struct": {
			"abi": [
				{
					"inputs": [
						{
							"internalType": "string",
							"name": "_name",
							"type": "string"
						},
						{
							"internalType": "uint256",
							"name": "_age",
							"type": "uint256"
						},
						{
							"internalType": "bool",
							"name": "_enrolled",
							"type": "bool"
						}
					],
					"name": "addStudent",
					"outputs": [],
					"stateMutability": "nonpayable",
					"type": "function"
				},
				{
					"inputs": [
						{
							"internalType": "uint256",
							"name": "index",
							"type": "uint256"
						}
					],
					"name": "getStudent",
					"outputs": [
						{
							"internalType": "string",
							"name": "",
							"type": "string"
						},
						{
							"internalType": "uint256",
							"name": "",
							"type": "uint256"
						},
						{
							"internalType": "address",
							"name": "",
							"type": "address"
						},
						{
							"internalType": "bool",
							"name": "",
							"type": "bool"
						}
					],
					"stateMutability": "view",
					"type": "function"
				},
				{
					"inputs": [],
					"name": "getTotalStudents",
					"outputs": [
						{
							"internalType": "uint256",
							"name": "",
							"type": "uint256"
						}
					],
					"stateMutability": "view",
					"type": "function"
				}
			],
			"devdoc": {
				"kind": "dev",
				"methods": {},
				"version": 1
			},
			"evm": {
				"assembly": "    /* \"contracts/Activity4_Day6.sol\":61:880  contract Struct {... */\n  mstore(0x40, 0x80)\n  callvalue\n  dup1\n  iszero\n  tag_1\n  jumpi\n  revert(0x00, 0x00)\ntag_1:\n  pop\n  dataSize(sub_0)\n  dup1\n  dataOffset(sub_0)\n  0x00\n  codecopy\n  0x00\n  return\nstop\n\nsub_0: assembly {\n        /* \"contracts/Activity4_Day6.sol\":61:880  contract Struct {... */\n      mstore(0x40, 0x80)\n      callvalue\n      dup1\n      iszero\n      tag_1\n      jumpi\n      revert(0x00, 0x00)\n    tag_1:\n      pop\n      jumpi(tag_2, lt(calldatasize, 0x04))\n      shr(0xe0, calldataload(0x00))\n      dup1\n      0x1dfc2962\n      eq\n      tag_3\n      jumpi\n      dup1\n      0x28bcb51a\n      eq\n      tag_4\n      jumpi\n      dup1\n      0x642f9163\n      eq\n      tag_5\n      jumpi\n    tag_2:\n      revert(0x00, 0x00)\n        /* \"contracts/Activity4_Day6.sol\":240:488  function addStudent(string memory _name, uint _age, bool _enrolled) external {... */\n    tag_3:\n      tag_6\n      0x04\n      dup1\n      calldatasize\n      sub\n      dup2\n      add\n      swap1\n      tag_7\n      swap2\n      swap1\n      tag_8\n      jump\t// in\n    tag_7:\n      tag_9\n      jump\t// in\n    tag_6:\n      stop\n        /* \"contracts/Activity4_Day6.sol\":779:877  function getTotalStudents() external view returns (uint) {... */\n    tag_4:\n      tag_10\n      tag_11\n      jump\t// in\n    tag_10:\n      mload(0x40)\n      tag_12\n      swap2\n      swap1\n      tag_13\n      jump\t// in\n    tag_12:\n      mload(0x40)\n      dup1\n      swap2\n      sub\n      swap1\n      return\n        /* \"contracts/Activity4_Day6.sol\":496:771  function getStudent(uint index) external view returns(string memory, uint, address, bool){... */\n    tag_5:\n      tag_14\n      0x04\n      dup1\n      calldatasize\n      sub\n      dup2\n      add\n      swap1\n      tag_15\n      swap2\n      swap1\n      tag_16\n      jump\t// in\n    tag_15:\n      tag_17\n      jump\t// in\n    tag_14:\n      mload(0x40)\n      tag_18\n      swap5\n      swap4\n      swap3\n      swap2\n      swap1\n      tag_19\n      jump\t// in\n    tag_18:\n      mload(0x40)\n      dup1\n      swap2\n      sub\n      swap1\n      return\n        /* \"contracts/Activity4_Day6.sol\":240:488  function addStudent(string memory _name, uint _age, bool _enrolled) external {... */\n    tag_9:\n        /* \"contracts/Activity4_Day6.sol\":328:336  students */\n      0x00\n        /* \"contracts/Activity4_Day6.sol\":342:479  Student({... */\n      mload(0x40)\n      dup1\n      0x80\n      add\n      0x40\n      mstore\n      dup1\n        /* \"contracts/Activity4_Day6.sol\":371:376  _name */\n      dup6\n        /* \"contracts/Activity4_Day6.sol\":342:479  Student({... */\n      dup2\n      mstore\n      0x20\n      add\n        /* \"contracts/Activity4_Day6.sol\":396:400  _age */\n      dup5\n        /* \"contracts/Activity4_Day6.sol\":342:479  Student({... */\n      dup2\n      mstore\n      0x20\n      add\n        /* \"contracts/Activity4_Day6.sol\":423:433  msg.sender */\n      caller\n        /* \"contracts/Activity4_Day6.sol\":342:479  Student({... */\n      0xffffffffffffffffffffffffffffffffffffffff\n      and\n      dup2\n      mstore\n      0x20\n      add\n        /* \"contracts/Activity4_Day6.sol\":458:467  _enrolled */\n      dup4\n        /* \"contracts/Activity4_Day6.sol\":342:479  Student({... */\n      iszero\n      iszero\n      dup2\n      mstore\n      pop\n        /* \"contracts/Activity4_Day6.sol\":328:480  students.push(Student({... */\n      swap1\n      dup1\n      0x01\n      dup2\n      sload\n      add\n      dup1\n      dup3\n      sstore\n      dup1\n      swap2\n      pop\n      pop\n      0x01\n      swap1\n      sub\n      swap1\n      0x00\n      mstore\n      keccak256(0x00, 0x20)\n      swap1\n      0x03\n      mul\n      add\n      0x00\n      swap1\n      swap2\n      swap1\n      swap2\n      swap1\n      swap2\n      pop\n      0x00\n      dup3\n      add\n      mload\n      dup2\n      0x00\n      add\n      swap1\n      dup2\n      tag_22\n      swap2\n      swap1\n      tag_23\n      jump\t// in\n    tag_22:\n      pop\n      0x20\n      dup3\n      add\n      mload\n      dup2\n      0x01\n      add\n      sstore\n      0x40\n      dup3\n      add\n      mload\n      dup2\n      0x02\n      add\n      exp(0x0100, 0x00)\n      dup2\n      sload\n      dup2\n      0xffffffffffffffffffffffffffffffffffffffff\n      mul\n      not\n      and\n      swap1\n      dup4\n      0xffffffffffffffffffffffffffffffffffffffff\n      and\n      mul\n      or\n      swap1\n      sstore\n      pop\n      0x60\n      dup3\n      add\n      mload\n      dup2\n      0x02\n      add\n      exp(0x0100, 0x14)\n      dup2\n      sload\n      dup2\n      0xff\n      mul\n      not\n      and\n      swap1\n      dup4\n      iszero\n      iszero\n      mul\n      or\n      swap1\n      sstore\n      pop\n      pop\n      pop\n        /* \"contracts/Activity4_Day6.sol\":240:488  function addStudent(string memory _name, uint _age, bool _enrolled) external {... */\n      pop\n      pop\n      pop\n      jump\t// out\n        /* \"contracts/Activity4_Day6.sol\":779:877  function getTotalStudents() external view returns (uint) {... */\n    tag_11:\n        /* \"contracts/Activity4_Day6.sol\":830:834  uint */\n      0x00\n        /* \"contracts/Activity4_Day6.sol\":854:862  students */\n      0x00\n        /* \"contracts/Activity4_Day6.sol\":854:869  students.length */\n      dup1\n      sload\n      swap1\n      pop\n        /* \"contracts/Activity4_Day6.sol\":847:869  return students.length */\n      swap1\n      pop\n        /* \"contracts/Activity4_Day6.sol\":779:877  function getTotalStudents() external view returns (uint) {... */\n      swap1\n      jump\t// out\n        /* \"contracts/Activity4_Day6.sol\":496:771  function getStudent(uint index) external view returns(string memory, uint, address, bool){... */\n    tag_17:\n        /* \"contracts/Activity4_Day6.sol\":550:563  string memory */\n      0x60\n        /* \"contracts/Activity4_Day6.sol\":565:569  uint */\n      0x00\n        /* \"contracts/Activity4_Day6.sol\":571:578  address */\n      0x00\n        /* \"contracts/Activity4_Day6.sol\":580:584  bool */\n      0x00\n        /* \"contracts/Activity4_Day6.sol\":618:626  students */\n      0x00\n        /* \"contracts/Activity4_Day6.sol\":627:632  index */\n      dup6\n        /* \"contracts/Activity4_Day6.sol\":618:633  students[index] */\n      dup2\n      sload\n      dup2\n      lt\n      tag_26\n      jumpi\n      tag_27\n      tag_28\n      jump\t// in\n    tag_27:\n    tag_26:\n      swap1\n      0x00\n      mstore\n      keccak256(0x00, 0x20)\n      swap1\n      0x03\n      mul\n      add\n        /* \"contracts/Activity4_Day6.sol\":618:638  students[index].name */\n      0x00\n      add\n        /* \"contracts/Activity4_Day6.sol\":653:661  students */\n      0x00\n        /* \"contracts/Activity4_Day6.sol\":662:667  index */\n      dup7\n        /* \"contracts/Activity4_Day6.sol\":653:668  students[index] */\n      dup2\n      sload\n      dup2\n      lt\n      tag_30\n      jumpi\n      tag_31\n      tag_28\n      jump\t// in\n    tag_31:\n    tag_30:\n      swap1\n      0x00\n      mstore\n      keccak256(0x00, 0x20)\n      swap1\n      0x03\n      mul\n      add\n        /* \"contracts/Activity4_Day6.sol\":653:672  students[index].age */\n      0x01\n      add\n      sload\n        /* \"contracts/Activity4_Day6.sol\":687:695  students */\n      0x00\n        /* \"contracts/Activity4_Day6.sol\":696:701  index */\n      dup8\n        /* \"contracts/Activity4_Day6.sol\":687:702  students[index] */\n      dup2\n      sload\n      dup2\n      lt\n      tag_33\n      jumpi\n      tag_34\n      tag_28\n      jump\t// in\n    tag_34:\n    tag_33:\n      swap1\n      0x00\n      mstore\n      keccak256(0x00, 0x20)\n      swap1\n      0x03\n      mul\n      add\n        /* \"contracts/Activity4_Day6.sol\":687:709  students[index].wallet */\n      0x02\n      add\n      0x00\n      swap1\n      sload\n      swap1\n      0x0100\n      exp\n      swap1\n      div\n      0xffffffffffffffffffffffffffffffffffffffff\n      and\n        /* \"contracts/Activity4_Day6.sol\":724:732  students */\n      0x00\n        /* \"contracts/Activity4_Day6.sol\":733:738  index */\n      dup9\n        /* \"contracts/Activity4_Day6.sol\":724:739  students[index] */\n      dup2\n      sload\n      dup2\n      lt\n      tag_36\n      jumpi\n      tag_37\n      tag_28\n      jump\t// in\n    tag_37:\n    tag_36:\n      swap1\n      0x00\n      mstore\n      keccak256(0x00, 0x20)\n      swap1\n      0x03\n      mul\n      add\n        /* \"contracts/Activity4_Day6.sol\":724:748  students[index].enrolled */\n      0x02\n      add\n      0x14\n      swap1\n      sload\n      swap1\n      0x0100\n      exp\n      swap1\n      div\n      0xff\n      and\n        /* \"contracts/Activity4_Day6.sol\":596:763  return (... */\n      dup4\n      dup1\n      sload\n      tag_39\n      swap1\n      tag_40\n      jump\t// in\n    tag_39:\n      dup1\n      0x1f\n      add\n      0x20\n      dup1\n      swap2\n      div\n      mul\n      0x20\n      add\n      mload(0x40)\n      swap1\n      dup2\n      add\n      0x40\n      mstore\n      dup1\n      swap3\n      swap2\n      swap1\n      dup2\n      dup2\n      mstore\n      0x20\n      add\n      dup3\n      dup1\n      sload\n      tag_41\n      swap1\n      tag_40\n      jump\t// in\n    tag_41:\n      dup1\n      iszero\n      tag_42\n      jumpi\n      dup1\n      0x1f\n      lt\n      tag_43\n      jumpi\n      0x0100\n      dup1\n      dup4\n      sload\n      div\n      mul\n      dup4\n      mstore\n      swap2\n      0x20\n      add\n      swap2\n      jump(tag_42)\n    tag_43:\n      dup3\n      add\n      swap2\n      swap1\n      0x00\n      mstore\n      keccak256(0x00, 0x20)\n      swap1\n    tag_44:\n      dup2\n      sload\n      dup2\n      mstore\n      swap1\n      0x01\n      add\n      swap1\n      0x20\n      add\n      dup1\n      dup4\n      gt\n      tag_44\n      jumpi\n      dup3\n      swap1\n      sub\n      0x1f\n      and\n      dup3\n      add\n      swap2\n    tag_42:\n      pop\n      pop\n      pop\n      pop\n      pop\n      swap4\n      pop\n      swap4\n      pop\n      swap4\n      pop\n      swap4\n      pop\n      swap4\n      pop\n        /* \"contracts/Activity4_Day6.sol\":496:771  function getStudent(uint index) external view returns(string memory, uint, address, bool){... */\n      swap2\n      swap4\n      pop\n      swap2\n      swap4\n      jump\t// out\n        /* \"#utility.yul\":7:82   */\n    tag_45:\n        /* \"#utility.yul\":40:46   */\n      0x00\n        /* \"#utility.yul\":73:75   */\n      0x40\n        /* \"#utility.yul\":67:76   */\n      mload\n        /* \"#utility.yul\":57:76   */\n      swap1\n      pop\n        /* \"#utility.yul\":7:82   */\n      swap1\n      jump\t// out\n        /* \"#utility.yul\":88:205   */\n    tag_46:\n        /* \"#utility.yul\":197:198   */\n      0x00\n        /* \"#utility.yul\":194:195   */\n      0x00\n        /* \"#utility.yul\":187:199   */\n      revert\n        /* \"#utility.yul\":211:328   */\n    tag_47:\n        /* \"#utility.yul\":320:321   */\n      0x00\n        /* \"#utility.yul\":317:318   */\n      0x00\n        /* \"#utility.yul\":310:322   */\n      revert\n        /* \"#utility.yul\":334:451   */\n    tag_48:\n        /* \"#utility.yul\":443:444   */\n      0x00\n        /* \"#utility.yul\":440:441   */\n      0x00\n        /* \"#utility.yul\":433:445   */\n      revert\n        /* \"#utility.yul\":457:574   */\n    tag_49:\n        /* \"#utility.yul\":566:567   */\n      0x00\n        /* \"#utility.yul\":563:564   */\n      0x00\n        /* \"#utility.yul\":556:568   */\n      revert\n        /* \"#utility.yul\":580:682   */\n    tag_50:\n        /* \"#utility.yul\":621:627   */\n      0x00\n        /* \"#utility.yul\":672:674   */\n      0x1f\n        /* \"#utility.yul\":668:675   */\n      not\n        /* \"#utility.yul\":663:665   */\n      0x1f\n        /* \"#utility.yul\":656:661   */\n      dup4\n        /* \"#utility.yul\":652:666   */\n      add\n        /* \"#utility.yul\":648:676   */\n      and\n        /* \"#utility.yul\":638:676   */\n      swap1\n      pop\n        /* \"#utility.yul\":580:682   */\n      swap2\n      swap1\n      pop\n      jump\t// out\n        /* \"#utility.yul\":688:868   */\n    tag_51:\n        /* \"#utility.yul\":736:813   */\n      0x4e487b7100000000000000000000000000000000000000000000000000000000\n        /* \"#utility.yul\":733:734   */\n      0x00\n        /* \"#utility.yul\":726:814   */\n      mstore\n        /* \"#utility.yul\":833:837   */\n      0x41\n        /* \"#utility.yul\":830:831   */\n      0x04\n        /* \"#utility.yul\":823:838   */\n      mstore\n        /* \"#utility.yul\":857:861   */\n      0x24\n        /* \"#utility.yul\":854:855   */\n      0x00\n        /* \"#utility.yul\":847:862   */\n      revert\n        /* \"#utility.yul\":874:1155   */\n    tag_52:\n        /* \"#utility.yul\":957:984   */\n      tag_98\n        /* \"#utility.yul\":979:983   */\n      dup3\n        /* \"#utility.yul\":957:984   */\n      tag_50\n      jump\t// in\n    tag_98:\n        /* \"#utility.yul\":949:955   */\n      dup2\n        /* \"#utility.yul\":945:985   */\n      add\n        /* \"#utility.yul\":1087:1093   */\n      dup2\n        /* \"#utility.yul\":1075:1085   */\n      dup2\n        /* \"#utility.yul\":1072:1094   */\n      lt\n        /* \"#utility.yul\":1051:1069   */\n      0xffffffffffffffff\n        /* \"#utility.yul\":1039:1049   */\n      dup3\n        /* \"#utility.yul\":1036:1070   */\n      gt\n        /* \"#utility.yul\":1033:1095   */\n      or\n        /* \"#utility.yul\":1030:1118   */\n      iszero\n      tag_99\n      jumpi\n        /* \"#utility.yul\":1098:1116   */\n      tag_100\n      tag_51\n      jump\t// in\n    tag_100:\n        /* \"#utility.yul\":1030:1118   */\n    tag_99:\n        /* \"#utility.yul\":1138:1148   */\n      dup1\n        /* \"#utility.yul\":1134:1136   */\n      0x40\n        /* \"#utility.yul\":1127:1149   */\n      mstore\n        /* \"#utility.yul\":917:1155   */\n      pop\n        /* \"#utility.yul\":874:1155   */\n      pop\n      pop\n      jump\t// out\n        /* \"#utility.yul\":1161:1290   */\n    tag_53:\n        /* \"#utility.yul\":1195:1201   */\n      0x00\n        /* \"#utility.yul\":1222:1242   */\n      tag_102\n      tag_45\n      jump\t// in\n    tag_102:\n        /* \"#utility.yul\":1212:1242   */\n      swap1\n      pop\n        /* \"#utility.yul\":1251:1284   */\n      tag_103\n        /* \"#utility.yul\":1279:1283   */\n      dup3\n        /* \"#utility.yul\":1271:1277   */\n      dup3\n        /* \"#utility.yul\":1251:1284   */\n      tag_52\n      jump\t// in\n    tag_103:\n        /* \"#utility.yul\":1161:1290   */\n      swap2\n      swap1\n      pop\n      jump\t// out\n        /* \"#utility.yul\":1296:1604   */\n    tag_54:\n        /* \"#utility.yul\":1358:1362   */\n      0x00\n        /* \"#utility.yul\":1448:1466   */\n      0xffffffffffffffff\n        /* \"#utility.yul\":1440:1446   */\n      dup3\n        /* \"#utility.yul\":1437:1467   */\n      gt\n        /* \"#utility.yul\":1434:1490   */\n      iszero\n      tag_105\n      jumpi\n        /* \"#utility.yul\":1470:1488   */\n      tag_106\n      tag_51\n      jump\t// in\n    tag_106:\n        /* \"#utility.yul\":1434:1490   */\n    tag_105:\n        /* \"#utility.yul\":1508:1537   */\n      tag_107\n        /* \"#utility.yul\":1530:1536   */\n      dup3\n        /* \"#utility.yul\":1508:1537   */\n      tag_50\n      jump\t// in\n    tag_107:\n        /* \"#utility.yul\":1500:1537   */\n      swap1\n      pop\n        /* \"#utility.yul\":1592:1596   */\n      0x20\n        /* \"#utility.yul\":1586:1590   */\n      dup2\n        /* \"#utility.yul\":1582:1597   */\n      add\n        /* \"#utility.yul\":1574:1597   */\n      swap1\n      pop\n        /* \"#utility.yul\":1296:1604   */\n      swap2\n      swap1\n      pop\n      jump\t// out\n        /* \"#utility.yul\":1610:1758   */\n    tag_55:\n        /* \"#utility.yul\":1708:1714   */\n      dup3\n        /* \"#utility.yul\":1703:1706   */\n      dup2\n        /* \"#utility.yul\":1698:1701   */\n      dup4\n        /* \"#utility.yul\":1685:1715   */\n      calldatacopy\n        /* \"#utility.yul\":1749:1750   */\n      0x00\n        /* \"#utility.yul\":1740:1746   */\n      dup4\n        /* \"#utility.yul\":1735:1738   */\n      dup4\n        /* \"#utility.yul\":1731:1747   */\n      add\n        /* \"#utility.yul\":1724:1751   */\n      mstore\n        /* \"#utility.yul\":1610:1758   */\n      pop\n      pop\n      pop\n      jump\t// out\n        /* \"#utility.yul\":1764:2189   */\n    tag_56:\n        /* \"#utility.yul\":1842:1847   */\n      0x00\n        /* \"#utility.yul\":1867:1933   */\n      tag_110\n        /* \"#utility.yul\":1883:1932   */\n      tag_111\n        /* \"#utility.yul\":1925:1931   */\n      dup5\n        /* \"#utility.yul\":1883:1932   */\n      tag_54\n      jump\t// in\n    tag_111:\n        /* \"#utility.yul\":1867:1933   */\n      tag_53\n      jump\t// in\n    tag_110:\n        /* \"#utility.yul\":1858:1933   */\n      swap1\n      pop\n        /* \"#utility.yul\":1956:1962   */\n      dup3\n        /* \"#utility.yul\":1949:1954   */\n      dup2\n        /* \"#utility.yul\":1942:1963   */\n      mstore\n        /* \"#utility.yul\":1994:1998   */\n      0x20\n        /* \"#utility.yul\":1987:1992   */\n      dup2\n        /* \"#utility.yul\":1983:1999   */\n      add\n        /* \"#utility.yul\":2032:2035   */\n      dup5\n        /* \"#utility.yul\":2023:2029   */\n      dup5\n        /* \"#utility.yul\":2018:2021   */\n      dup5\n        /* \"#utility.yul\":2014:2030   */\n      add\n        /* \"#utility.yul\":2011:2036   */\n      gt\n        /* \"#utility.yul\":2008:2120   */\n      iszero\n      tag_112\n      jumpi\n        /* \"#utility.yul\":2039:2118   */\n      tag_113\n      tag_49\n      jump\t// in\n    tag_113:\n        /* \"#utility.yul\":2008:2120   */\n    tag_112:\n        /* \"#utility.yul\":2129:2183   */\n      tag_114\n        /* \"#utility.yul\":2176:2182   */\n      dup5\n        /* \"#utility.yul\":2171:2174   */\n      dup3\n        /* \"#utility.yul\":2166:2169   */\n      dup6\n        /* \"#utility.yul\":2129:2183   */\n      tag_55\n      jump\t// in\n    tag_114:\n        /* \"#utility.yul\":1848:2189   */\n      pop\n        /* \"#utility.yul\":1764:2189   */\n      swap4\n      swap3\n      pop\n      pop\n      pop\n      jump\t// out\n        /* \"#utility.yul\":2209:2549   */\n    tag_57:\n        /* \"#utility.yul\":2265:2270   */\n      0x00\n        /* \"#utility.yul\":2314:2317   */\n      dup3\n        /* \"#utility.yul\":2307:2311   */\n      0x1f\n        /* \"#utility.yul\":2299:2305   */\n      dup4\n        /* \"#utility.yul\":2295:2312   */\n      add\n        /* \"#utility.yul\":2291:2318   */\n      slt\n        /* \"#utility.yul\":2281:2403   */\n      tag_116\n      jumpi\n        /* \"#utility.yul\":2322:2401   */\n      tag_117\n      tag_48\n      jump\t// in\n    tag_117:\n        /* \"#utility.yul\":2281:2403   */\n    tag_116:\n        /* \"#utility.yul\":2439:2445   */\n      dup2\n        /* \"#utility.yul\":2426:2446   */\n      calldataload\n        /* \"#utility.yul\":2464:2543   */\n      tag_118\n        /* \"#utility.yul\":2539:2542   */\n      dup5\n        /* \"#utility.yul\":2531:2537   */\n      dup3\n        /* \"#utility.yul\":2524:2528   */\n      0x20\n        /* \"#utility.yul\":2516:2522   */\n      dup7\n        /* \"#utility.yul\":2512:2529   */\n      add\n        /* \"#utility.yul\":2464:2543   */\n      tag_56\n      jump\t// in\n    tag_118:\n        /* \"#utility.yul\":2455:2543   */\n      swap2\n      pop\n        /* \"#utility.yul\":2271:2549   */\n      pop\n        /* \"#utility.yul\":2209:2549   */\n      swap3\n      swap2\n      pop\n      pop\n      jump\t// out\n        /* \"#utility.yul\":2555:2632   */\n    tag_58:\n        /* \"#utility.yul\":2592:2599   */\n      0x00\n        /* \"#utility.yul\":2621:2626   */\n      dup2\n        /* \"#utility.yul\":2610:2626   */\n      swap1\n      pop\n        /* \"#utility.yul\":2555:2632   */\n      swap2\n      swap1\n      pop\n      jump\t// out\n        /* \"#utility.yul\":2638:2760   */\n    tag_59:\n        /* \"#utility.yul\":2711:2735   */\n      tag_121\n        /* \"#utility.yul\":2729:2734   */\n      dup2\n        /* \"#utility.yul\":2711:2735   */\n      tag_58\n      jump\t// in\n    tag_121:\n        /* \"#utility.yul\":2704:2709   */\n      dup2\n        /* \"#utility.yul\":2701:2736   */\n      eq\n        /* \"#utility.yul\":2691:2754   */\n      tag_122\n      jumpi\n        /* \"#utility.yul\":2750:2751   */\n      0x00\n        /* \"#utility.yul\":2747:2748   */\n      0x00\n        /* \"#utility.yul\":2740:2752   */\n      revert\n        /* \"#utility.yul\":2691:2754   */\n    tag_122:\n        /* \"#utility.yul\":2638:2760   */\n      pop\n      jump\t// out\n        /* \"#utility.yul\":2766:2905   */\n    tag_60:\n        /* \"#utility.yul\":2812:2817   */\n      0x00\n        /* \"#utility.yul\":2850:2856   */\n      dup2\n        /* \"#utility.yul\":2837:2857   */\n      calldataload\n        /* \"#utility.yul\":2828:2857   */\n      swap1\n      pop\n        /* \"#utility.yul\":2866:2899   */\n      tag_124\n        /* \"#utility.yul\":2893:2898   */\n      dup2\n        /* \"#utility.yul\":2866:2899   */\n      tag_59\n      jump\t// in\n    tag_124:\n        /* \"#utility.yul\":2766:2905   */\n      swap3\n      swap2\n      pop\n      pop\n      jump\t// out\n        /* \"#utility.yul\":2911:3001   */\n    tag_61:\n        /* \"#utility.yul\":2945:2952   */\n      0x00\n        /* \"#utility.yul\":2988:2993   */\n      dup2\n        /* \"#utility.yul\":2981:2994   */\n      iszero\n        /* \"#utility.yul\":2974:2995   */\n      iszero\n        /* \"#utility.yul\":2963:2995   */\n      swap1\n      pop\n        /* \"#utility.yul\":2911:3001   */\n      swap2\n      swap1\n      pop\n      jump\t// out\n        /* \"#utility.yul\":3007:3123   */\n    tag_62:\n        /* \"#utility.yul\":3077:3098   */\n      tag_127\n        /* \"#utility.yul\":3092:3097   */\n      dup2\n        /* \"#utility.yul\":3077:3098   */\n      tag_61\n      jump\t// in\n    tag_127:\n        /* \"#utility.yul\":3070:3075   */\n      dup2\n        /* \"#utility.yul\":3067:3099   */\n      eq\n        /* \"#utility.yul\":3057:3117   */\n      tag_128\n      jumpi\n        /* \"#utility.yul\":3113:3114   */\n      0x00\n        /* \"#utility.yul\":3110:3111   */\n      0x00\n        /* \"#utility.yul\":3103:3115   */\n      revert\n        /* \"#utility.yul\":3057:3117   */\n    tag_128:\n        /* \"#utility.yul\":3007:3123   */\n      pop\n      jump\t// out\n        /* \"#utility.yul\":3129:3262   */\n    tag_63:\n        /* \"#utility.yul\":3172:3177   */\n      0x00\n        /* \"#utility.yul\":3210:3216   */\n      dup2\n        /* \"#utility.yul\":3197:3217   */\n      calldataload\n        /* \"#utility.yul\":3188:3217   */\n      swap1\n      pop\n        /* \"#utility.yul\":3226:3256   */\n      tag_130\n        /* \"#utility.yul\":3250:3255   */\n      dup2\n        /* \"#utility.yul\":3226:3256   */\n      tag_62\n      jump\t// in\n    tag_130:\n        /* \"#utility.yul\":3129:3262   */\n      swap3\n      swap2\n      pop\n      pop\n      jump\t// out\n        /* \"#utility.yul\":3268:4061   */\n    tag_8:\n        /* \"#utility.yul\":3352:3358   */\n      0x00\n        /* \"#utility.yul\":3360:3366   */\n      0x00\n        /* \"#utility.yul\":3368:3374   */\n      0x00\n        /* \"#utility.yul\":3417:3419   */\n      0x60\n        /* \"#utility.yul\":3405:3414   */\n      dup5\n        /* \"#utility.yul\":3396:3403   */\n      dup7\n        /* \"#utility.yul\":3392:3415   */\n      sub\n        /* \"#utility.yul\":3388:3420   */\n      slt\n        /* \"#utility.yul\":3385:3504   */\n      iszero\n      tag_132\n      jumpi\n        /* \"#utility.yul\":3423:3502   */\n      tag_133\n      tag_46\n      jump\t// in\n    tag_133:\n        /* \"#utility.yul\":3385:3504   */\n    tag_132:\n        /* \"#utility.yul\":3571:3572   */\n      0x00\n        /* \"#utility.yul\":3560:3569   */\n      dup5\n        /* \"#utility.yul\":3556:3573   */\n      add\n        /* \"#utility.yul\":3543:3574   */\n      calldataload\n        /* \"#utility.yul\":3601:3619   */\n      0xffffffffffffffff\n        /* \"#utility.yul\":3593:3599   */\n      dup2\n        /* \"#utility.yul\":3590:3620   */\n      gt\n        /* \"#utility.yul\":3587:3704   */\n      iszero\n      tag_134\n      jumpi\n        /* \"#utility.yul\":3623:3702   */\n      tag_135\n      tag_47\n      jump\t// in\n    tag_135:\n        /* \"#utility.yul\":3587:3704   */\n    tag_134:\n        /* \"#utility.yul\":3728:3791   */\n      tag_136\n        /* \"#utility.yul\":3783:3790   */\n      dup7\n        /* \"#utility.yul\":3774:3780   */\n      dup3\n        /* \"#utility.yul\":3763:3772   */\n      dup8\n        /* \"#utility.yul\":3759:3781   */\n      add\n        /* \"#utility.yul\":3728:3791   */\n      tag_57\n      jump\t// in\n    tag_136:\n        /* \"#utility.yul\":3718:3791   */\n      swap4\n      pop\n        /* \"#utility.yul\":3514:3801   */\n      pop\n        /* \"#utility.yul\":3840:3842   */\n      0x20\n        /* \"#utility.yul\":3866:3919   */\n      tag_137\n        /* \"#utility.yul\":3911:3918   */\n      dup7\n        /* \"#utility.yul\":3902:3908   */\n      dup3\n        /* \"#utility.yul\":3891:3900   */\n      dup8\n        /* \"#utility.yul\":3887:3909   */\n      add\n        /* \"#utility.yul\":3866:3919   */\n      tag_60\n      jump\t// in\n    tag_137:\n        /* \"#utility.yul\":3856:3919   */\n      swap3\n      pop\n        /* \"#utility.yul\":3811:3929   */\n      pop\n        /* \"#utility.yul\":3968:3970   */\n      0x40\n        /* \"#utility.yul\":3994:4044   */\n      tag_138\n        /* \"#utility.yul\":4036:4043   */\n      dup7\n        /* \"#utility.yul\":4027:4033   */\n      dup3\n        /* \"#utility.yul\":4016:4025   */\n      dup8\n        /* \"#utility.yul\":4012:4034   */\n      add\n        /* \"#utility.yul\":3994:4044   */\n      tag_63\n      jump\t// in\n    tag_138:\n        /* \"#utility.yul\":3984:4044   */\n      swap2\n      pop\n        /* \"#utility.yul\":3939:4054   */\n      pop\n        /* \"#utility.yul\":3268:4061   */\n      swap3\n      pop\n      swap3\n      pop\n      swap3\n      jump\t// out\n        /* \"#utility.yul\":4067:4185   */\n    tag_64:\n        /* \"#utility.yul\":4154:4178   */\n      tag_140\n        /* \"#utility.yul\":4172:4177   */\n      dup2\n        /* \"#utility.yul\":4154:4178   */\n      tag_58\n      jump\t// in\n    tag_140:\n        /* \"#utility.yul\":4149:4152   */\n      dup3\n        /* \"#utility.yul\":4142:4179   */\n      mstore\n        /* \"#utility.yul\":4067:4185   */\n      pop\n      pop\n      jump\t// out\n        /* \"#utility.yul\":4191:4413   */\n    tag_13:\n        /* \"#utility.yul\":4284:4288   */\n      0x00\n        /* \"#utility.yul\":4322:4324   */\n      0x20\n        /* \"#utility.yul\":4311:4320   */\n      dup3\n        /* \"#utility.yul\":4307:4325   */\n      add\n        /* \"#utility.yul\":4299:4325   */\n      swap1\n      pop\n        /* \"#utility.yul\":4335:4406   */\n      tag_142\n        /* \"#utility.yul\":4403:4404   */\n      0x00\n        /* \"#utility.yul\":4392:4401   */\n      dup4\n        /* \"#utility.yul\":4388:4405   */\n      add\n        /* \"#utility.yul\":4379:4385   */\n      dup5\n        /* \"#utility.yul\":4335:4406   */\n      tag_64\n      jump\t// in\n    tag_142:\n        /* \"#utility.yul\":4191:4413   */\n      swap3\n      swap2\n      pop\n      pop\n      jump\t// out\n        /* \"#utility.yul\":4419:4748   */\n    tag_16:\n        /* \"#utility.yul\":4478:4484   */\n      0x00\n        /* \"#utility.yul\":4527:4529   */\n      0x20\n        /* \"#utility.yul\":4515:4524   */\n      dup3\n        /* \"#utility.yul\":4506:4513   */\n      dup5\n        /* \"#utility.yul\":4502:4525   */\n      sub\n        /* \"#utility.yul\":4498:4530   */\n      slt\n        /* \"#utility.yul\":4495:4614   */\n      iszero\n      tag_144\n      jumpi\n        /* \"#utility.yul\":4533:4612   */\n      tag_145\n      tag_46\n      jump\t// in\n    tag_145:\n        /* \"#utility.yul\":4495:4614   */\n    tag_144:\n        /* \"#utility.yul\":4653:4654   */\n      0x00\n        /* \"#utility.yul\":4678:4731   */\n      tag_146\n        /* \"#utility.yul\":4723:4730   */\n      dup5\n        /* \"#utility.yul\":4714:4720   */\n      dup3\n        /* \"#utility.yul\":4703:4712   */\n      dup6\n        /* \"#utility.yul\":4699:4721   */\n      add\n        /* \"#utility.yul\":4678:4731   */\n      tag_60\n      jump\t// in\n    tag_146:\n        /* \"#utility.yul\":4668:4731   */\n      swap2\n      pop\n        /* \"#utility.yul\":4624:4741   */\n      pop\n        /* \"#utility.yul\":4419:4748   */\n      swap3\n      swap2\n      pop\n      pop\n      jump\t// out\n        /* \"#utility.yul\":4754:4853   */\n    tag_65:\n        /* \"#utility.yul\":4806:4812   */\n      0x00\n        /* \"#utility.yul\":4840:4845   */\n      dup2\n        /* \"#utility.yul\":4834:4846   */\n      mload\n        /* \"#utility.yul\":4824:4846   */\n      swap1\n      pop\n        /* \"#utility.yul\":4754:4853   */\n      swap2\n      swap1\n      pop\n      jump\t// out\n        /* \"#utility.yul\":4859:5028   */\n    tag_66:\n        /* \"#utility.yul\":4943:4954   */\n      0x00\n        /* \"#utility.yul\":4977:4983   */\n      dup3\n        /* \"#utility.yul\":4972:4975   */\n      dup3\n        /* \"#utility.yul\":4965:4984   */\n      mstore\n        /* \"#utility.yul\":5017:5021   */\n      0x20\n        /* \"#utility.yul\":5012:5015   */\n      dup3\n        /* \"#utility.yul\":5008:5022   */\n      add\n        /* \"#utility.yul\":4993:5022   */\n      swap1\n      pop\n        /* \"#utility.yul\":4859:5028   */\n      swap3\n      swap2\n      pop\n      pop\n      jump\t// out\n        /* \"#utility.yul\":5034:5173   */\n    tag_67:\n        /* \"#utility.yul\":5123:5129   */\n      dup3\n        /* \"#utility.yul\":5118:5121   */\n      dup2\n        /* \"#utility.yul\":5113:5116   */\n      dup4\n        /* \"#utility.yul\":5107:5130   */\n      mcopy\n        /* \"#utility.yul\":5164:5165   */\n      0x00\n        /* \"#utility.yul\":5155:5161   */\n      dup4\n        /* \"#utility.yul\":5150:5153   */\n      dup4\n        /* \"#utility.yul\":5146:5162   */\n      add\n        /* \"#utility.yul\":5139:5166   */\n      mstore\n        /* \"#utility.yul\":5034:5173   */\n      pop\n      pop\n      pop\n      jump\t// out\n        /* \"#utility.yul\":5179:5556   */\n    tag_68:\n        /* \"#utility.yul\":5267:5270   */\n      0x00\n        /* \"#utility.yul\":5295:5334   */\n      tag_151\n        /* \"#utility.yul\":5328:5333   */\n      dup3\n        /* \"#utility.yul\":5295:5334   */\n      tag_65\n      jump\t// in\n    tag_151:\n        /* \"#utility.yul\":5350:5421   */\n      tag_152\n        /* \"#utility.yul\":5414:5420   */\n      dup2\n        /* \"#utility.yul\":5409:5412   */\n      dup6\n        /* \"#utility.yul\":5350:5421   */\n      tag_66\n      jump\t// in\n    tag_152:\n        /* \"#utility.yul\":5343:5421   */\n      swap4\n      pop\n        /* \"#utility.yul\":5430:5495   */\n      tag_153\n        /* \"#utility.yul\":5488:5494   */\n      dup2\n        /* \"#utility.yul\":5483:5486   */\n      dup6\n        /* \"#utility.yul\":5476:5480   */\n      0x20\n        /* \"#utility.yul\":5469:5474   */\n      dup7\n        /* \"#utility.yul\":5465:5481   */\n      add\n        /* \"#utility.yul\":5430:5495   */\n      tag_67\n      jump\t// in\n    tag_153:\n        /* \"#utility.yul\":5520:5549   */\n      tag_154\n        /* \"#utility.yul\":5542:5548   */\n      dup2\n        /* \"#utility.yul\":5520:5549   */\n      tag_50\n      jump\t// in\n    tag_154:\n        /* \"#utility.yul\":5515:5518   */\n      dup5\n        /* \"#utility.yul\":5511:5550   */\n      add\n        /* \"#utility.yul\":5504:5550   */\n      swap2\n      pop\n        /* \"#utility.yul\":5271:5556   */\n      pop\n        /* \"#utility.yul\":5179:5556   */\n      swap3\n      swap2\n      pop\n      pop\n      jump\t// out\n        /* \"#utility.yul\":5562:5688   */\n    tag_69:\n        /* \"#utility.yul\":5599:5606   */\n      0x00\n        /* \"#utility.yul\":5639:5681   */\n      0xffffffffffffffffffffffffffffffffffffffff\n        /* \"#utility.yul\":5632:5637   */\n      dup3\n        /* \"#utility.yul\":5628:5682   */\n      and\n        /* \"#utility.yul\":5617:5682   */\n      swap1\n      pop\n        /* \"#utility.yul\":5562:5688   */\n      swap2\n      swap1\n      pop\n      jump\t// out\n        /* \"#utility.yul\":5694:5790   */\n    tag_70:\n        /* \"#utility.yul\":5731:5738   */\n      0x00\n        /* \"#utility.yul\":5760:5784   */\n      tag_157\n        /* \"#utility.yul\":5778:5783   */\n      dup3\n        /* \"#utility.yul\":5760:5784   */\n      tag_69\n      jump\t// in\n    tag_157:\n        /* \"#utility.yul\":5749:5784   */\n      swap1\n      pop\n        /* \"#utility.yul\":5694:5790   */\n      swap2\n      swap1\n      pop\n      jump\t// out\n        /* \"#utility.yul\":5796:5914   */\n    tag_71:\n        /* \"#utility.yul\":5883:5907   */\n      tag_159\n        /* \"#utility.yul\":5901:5906   */\n      dup2\n        /* \"#utility.yul\":5883:5907   */\n      tag_70\n      jump\t// in\n    tag_159:\n        /* \"#utility.yul\":5878:5881   */\n      dup3\n        /* \"#utility.yul\":5871:5908   */\n      mstore\n        /* \"#utility.yul\":5796:5914   */\n      pop\n      pop\n      jump\t// out\n        /* \"#utility.yul\":5920:6029   */\n    tag_72:\n        /* \"#utility.yul\":6001:6022   */\n      tag_161\n        /* \"#utility.yul\":6016:6021   */\n      dup2\n        /* \"#utility.yul\":6001:6022   */\n      tag_61\n      jump\t// in\n    tag_161:\n        /* \"#utility.yul\":5996:5999   */\n      dup3\n        /* \"#utility.yul\":5989:6023   */\n      mstore\n        /* \"#utility.yul\":5920:6029   */\n      pop\n      pop\n      jump\t// out\n        /* \"#utility.yul\":6035:6667   */\n    tag_19:\n        /* \"#utility.yul\":6226:6230   */\n      0x00\n        /* \"#utility.yul\":6264:6267   */\n      0x80\n        /* \"#utility.yul\":6253:6262   */\n      dup3\n        /* \"#utility.yul\":6249:6268   */\n      add\n        /* \"#utility.yul\":6241:6268   */\n      swap1\n      pop\n        /* \"#utility.yul\":6314:6323   */\n      dup2\n        /* \"#utility.yul\":6308:6312   */\n      dup2\n        /* \"#utility.yul\":6304:6324   */\n      sub\n        /* \"#utility.yul\":6300:6301   */\n      0x00\n        /* \"#utility.yul\":6289:6298   */\n      dup4\n        /* \"#utility.yul\":6285:6302   */\n      add\n        /* \"#utility.yul\":6278:6325   */\n      mstore\n        /* \"#utility.yul\":6342:6420   */\n      tag_163\n        /* \"#utility.yul\":6415:6419   */\n      dup2\n        /* \"#utility.yul\":6406:6412   */\n      dup8\n        /* \"#utility.yul\":6342:6420   */\n      tag_68\n      jump\t// in\n    tag_163:\n        /* \"#utility.yul\":6334:6420   */\n      swap1\n      pop\n        /* \"#utility.yul\":6430:6502   */\n      tag_164\n        /* \"#utility.yul\":6498:6500   */\n      0x20\n        /* \"#utility.yul\":6487:6496   */\n      dup4\n        /* \"#utility.yul\":6483:6501   */\n      add\n        /* \"#utility.yul\":6474:6480   */\n      dup7\n        /* \"#utility.yul\":6430:6502   */\n      tag_64\n      jump\t// in\n    tag_164:\n        /* \"#utility.yul\":6512:6584   */\n      tag_165\n        /* \"#utility.yul\":6580:6582   */\n      0x40\n        /* \"#utility.yul\":6569:6578   */\n      dup4\n        /* \"#utility.yul\":6565:6583   */\n      add\n        /* \"#utility.yul\":6556:6562   */\n      dup6\n        /* \"#utility.yul\":6512:6584   */\n      tag_71\n      jump\t// in\n    tag_165:\n        /* \"#utility.yul\":6594:6660   */\n      tag_166\n        /* \"#utility.yul\":6656:6658   */\n      0x60\n        /* \"#utility.yul\":6645:6654   */\n      dup4\n        /* \"#utility.yul\":6641:6659   */\n      add\n        /* \"#utility.yul\":6632:6638   */\n      dup5\n        /* \"#utility.yul\":6594:6660   */\n      tag_72\n      jump\t// in\n    tag_166:\n        /* \"#utility.yul\":6035:6667   */\n      swap6\n      swap5\n      pop\n      pop\n      pop\n      pop\n      pop\n      jump\t// out\n        /* \"#utility.yul\":6673:6853   */\n    tag_73:\n        /* \"#utility.yul\":6721:6798   */\n      0x4e487b7100000000000000000000000000000000000000000000000000000000\n        /* \"#utility.yul\":6718:6719   */\n      0x00\n        /* \"#utility.yul\":6711:6799   */\n      mstore\n        /* \"#utility.yul\":6818:6822   */\n      0x22\n        /* \"#utility.yul\":6815:6816   */\n      0x04\n        /* \"#utility.yul\":6808:6823   */\n      mstore\n        /* \"#utility.yul\":6842:6846   */\n      0x24\n        /* \"#utility.yul\":6839:6840   */\n      0x00\n        /* \"#utility.yul\":6832:6847   */\n      revert\n        /* \"#utility.yul\":6859:7179   */\n    tag_40:\n        /* \"#utility.yul\":6903:6909   */\n      0x00\n        /* \"#utility.yul\":6940:6941   */\n      0x02\n        /* \"#utility.yul\":6934:6938   */\n      dup3\n        /* \"#utility.yul\":6930:6942   */\n      div\n        /* \"#utility.yul\":6920:6942   */\n      swap1\n      pop\n        /* \"#utility.yul\":6987:6988   */\n      0x01\n        /* \"#utility.yul\":6981:6985   */\n      dup3\n        /* \"#utility.yul\":6977:6989   */\n      and\n        /* \"#utility.yul\":7008:7026   */\n      dup1\n        /* \"#utility.yul\":6998:7079   */\n      tag_169\n      jumpi\n        /* \"#utility.yul\":7064:7068   */\n      0x7f\n        /* \"#utility.yul\":7056:7062   */\n      dup3\n        /* \"#utility.yul\":7052:7069   */\n      and\n        /* \"#utility.yul\":7042:7069   */\n      swap2\n      pop\n        /* \"#utility.yul\":6998:7079   */\n    tag_169:\n        /* \"#utility.yul\":7126:7128   */\n      0x20\n        /* \"#utility.yul\":7118:7124   */\n      dup3\n        /* \"#utility.yul\":7115:7129   */\n      lt\n        /* \"#utility.yul\":7095:7113   */\n      dup2\n        /* \"#utility.yul\":7092:7130   */\n      sub\n        /* \"#utility.yul\":7089:7173   */\n      tag_170\n      jumpi\n        /* \"#utility.yul\":7145:7163   */\n      tag_171\n      tag_73\n      jump\t// in\n    tag_171:\n        /* \"#utility.yul\":7089:7173   */\n    tag_170:\n        /* \"#utility.yul\":6910:7179   */\n      pop\n        /* \"#utility.yul\":6859:7179   */\n      swap2\n      swap1\n      pop\n      jump\t// out\n        /* \"#utility.yul\":7185:7326   */\n    tag_74:\n        /* \"#utility.yul\":7234:7238   */\n      0x00\n        /* \"#utility.yul\":7257:7260   */\n      dup2\n        /* \"#utility.yul\":7249:7260   */\n      swap1\n      pop\n        /* \"#utility.yul\":7280:7283   */\n      dup2\n        /* \"#utility.yul\":7277:7278   */\n      0x00\n        /* \"#utility.yul\":7270:7284   */\n      mstore\n        /* \"#utility.yul\":7314:7318   */\n      0x20\n        /* \"#utility.yul\":7311:7312   */\n      0x00\n        /* \"#utility.yul\":7301:7319   */\n      keccak256\n        /* \"#utility.yul\":7293:7319   */\n      swap1\n      pop\n        /* \"#utility.yul\":7185:7326   */\n      swap2\n      swap1\n      pop\n      jump\t// out\n        /* \"#utility.yul\":7332:7425   */\n    tag_75:\n        /* \"#utility.yul\":7369:7375   */\n      0x00\n        /* \"#utility.yul\":7416:7418   */\n      0x20\n        /* \"#utility.yul\":7411:7413   */\n      0x1f\n        /* \"#utility.yul\":7404:7409   */\n      dup4\n        /* \"#utility.yul\":7400:7414   */\n      add\n        /* \"#utility.yul\":7396:7419   */\n      div\n        /* \"#utility.yul\":7386:7419   */\n      swap1\n      pop\n        /* \"#utility.yul\":7332:7425   */\n      swap2\n      swap1\n      pop\n      jump\t// out\n        /* \"#utility.yul\":7431:7538   */\n    tag_76:\n        /* \"#utility.yul\":7475:7483   */\n      0x00\n        /* \"#utility.yul\":7525:7530   */\n      dup3\n        /* \"#utility.yul\":7519:7523   */\n      dup3\n        /* \"#utility.yul\":7515:7531   */\n      shl\n        /* \"#utility.yul\":7494:7531   */\n      swap1\n      pop\n        /* \"#utility.yul\":7431:7538   */\n      swap3\n      swap2\n      pop\n      pop\n      jump\t// out\n        /* \"#utility.yul\":7544:7937   */\n    tag_77:\n        /* \"#utility.yul\":7613:7619   */\n      0x00\n        /* \"#utility.yul\":7663:7664   */\n      0x08\n        /* \"#utility.yul\":7651:7661   */\n      dup4\n        /* \"#utility.yul\":7647:7665   */\n      mul\n        /* \"#utility.yul\":7686:7783   */\n      tag_176\n        /* \"#utility.yul\":7716:7782   */\n      0xffffffffffffffffffffffffffffffffffffffffffffffffffffffffffffffff\n        /* \"#utility.yul\":7705:7714   */\n      dup3\n        /* \"#utility.yul\":7686:7783   */\n      tag_76\n      jump\t// in\n    tag_176:\n        /* \"#utility.yul\":7804:7843   */\n      tag_177\n        /* \"#utility.yul\":7834:7842   */\n      dup7\n        /* \"#utility.yul\":7823:7832   */\n      dup4\n        /* \"#utility.yul\":7804:7843   */\n      tag_76\n      jump\t// in\n    tag_177:\n        /* \"#utility.yul\":7792:7843   */\n      swap6\n      pop\n        /* \"#utility.yul\":7876:7880   */\n      dup1\n        /* \"#utility.yul\":7872:7881   */\n      not\n        /* \"#utility.yul\":7865:7870   */\n      dup5\n        /* \"#utility.yul\":7861:7882   */\n      and\n        /* \"#utility.yul\":7852:7882   */\n      swap4\n      pop\n        /* \"#utility.yul\":7925:7929   */\n      dup1\n        /* \"#utility.yul\":7915:7923   */\n      dup7\n        /* \"#utility.yul\":7911:7930   */\n      and\n        /* \"#utility.yul\":7904:7909   */\n      dup5\n        /* \"#utility.yul\":7901:7931   */\n      or\n        /* \"#utility.yul\":7891:7931   */\n      swap3\n      pop\n        /* \"#utility.yul\":7620:7937   */\n      pop\n      pop\n        /* \"#utility.yul\":7544:7937   */\n      swap4\n      swap3\n      pop\n      pop\n      pop\n      jump\t// out\n        /* \"#utility.yul\":7943:8003   */\n    tag_78:\n        /* \"#utility.yul\":7971:7974   */\n      0x00\n        /* \"#utility.yul\":7992:7997   */\n      dup2\n        /* \"#utility.yul\":7985:7997   */\n      swap1\n      pop\n        /* \"#utility.yul\":7943:8003   */\n      swap2\n      swap1\n      pop\n      jump\t// out\n        /* \"#utility.yul\":8009:8151   */\n    tag_79:\n        /* \"#utility.yul\":8059:8068   */\n      0x00\n        /* \"#utility.yul\":8092:8145   */\n      tag_180\n        /* \"#utility.yul\":8110:8144   */\n      tag_181\n        /* \"#utility.yul\":8119:8143   */\n      tag_182\n        /* \"#utility.yul\":8137:8142   */\n      dup5\n        /* \"#utility.yul\":8119:8143   */\n      tag_58\n      jump\t// in\n    tag_182:\n        /* \"#utility.yul\":8110:8144   */\n      tag_78\n      jump\t// in\n    tag_181:\n        /* \"#utility.yul\":8092:8145   */\n      tag_58\n      jump\t// in\n    tag_180:\n        /* \"#utility.yul\":8079:8145   */\n      swap1\n      pop\n        /* \"#utility.yul\":8009:8151   */\n      swap2\n      swap1\n      pop\n      jump\t// out\n        /* \"#utility.yul\":8157:8232   */\n    tag_80:\n        /* \"#utility.yul\":8200:8203   */\n      0x00\n        /* \"#utility.yul\":8221:8226   */\n      dup2\n        /* \"#utility.yul\":8214:8226   */\n      swap1\n      pop\n        /* \"#utility.yul\":8157:8232   */\n      swap2\n      swap1\n      pop\n      jump\t// out\n        /* \"#utility.yul\":8238:8507   */\n    tag_81:\n        /* \"#utility.yul\":8348:8387   */\n      tag_185\n        /* \"#utility.yul\":8379:8386   */\n      dup4\n        /* \"#utility.yul\":8348:8387   */\n      tag_79\n      jump\t// in\n    tag_185:\n        /* \"#utility.yul\":8409:8500   */\n      tag_186\n        /* \"#utility.yul\":8458:8499   */\n      tag_187\n        /* \"#utility.yul\":8482:8498   */\n      dup3\n        /* \"#utility.yul\":8458:8499   */\n      tag_80\n      jump\t// in\n    tag_187:\n        /* \"#utility.yul\":8450:8456   */\n      dup5\n        /* \"#utility.yul\":8443:8447   */\n      dup5\n        /* \"#utility.yul\":8437:8448   */\n      sload\n        /* \"#utility.yul\":8409:8500   */\n      tag_77\n      jump\t// in\n    tag_186:\n        /* \"#utility.yul\":8403:8407   */\n      dup3\n        /* \"#utility.yul\":8396:8501   */\n      sstore\n        /* \"#utility.yul\":8314:8507   */\n      pop\n        /* \"#utility.yul\":8238:8507   */\n      pop\n      pop\n      pop\n      jump\t// out\n        /* \"#utility.yul\":8513:8586   */\n    tag_82:\n        /* \"#utility.yul\":8558:8561   */\n      0x00\n        /* \"#utility.yul\":8579:8580   */\n      0x00\n        /* \"#utility.yul\":8572:8580   */\n      swap1\n      pop\n        /* \"#utility.yul\":8513:8586   */\n      swap1\n      jump\t// out\n        /* \"#utility.yul\":8592:8781   */\n    tag_83:\n        /* \"#utility.yul\":8669:8701   */\n      tag_190\n      tag_82\n      jump\t// in\n    tag_190:\n        /* \"#utility.yul\":8710:8775   */\n      tag_191\n        /* \"#utility.yul\":8768:8774   */\n      dup2\n        /* \"#utility.yul\":8760:8766   */\n      dup5\n        /* \"#utility.yul\":8754:8758   */\n      dup5\n        /* \"#utility.yul\":8710:8775   */\n      tag_81\n      jump\t// in\n    tag_191:\n        /* \"#utility.yul\":8645:8781   */\n      pop\n        /* \"#utility.yul\":8592:8781   */\n      pop\n      pop\n      jump\t// out\n        /* \"#utility.yul\":8787:8973   */\n    tag_84:\n        /* \"#utility.yul\":8847:8967   */\n    tag_193:\n        /* \"#utility.yul\":8864:8867   */\n      dup2\n        /* \"#utility.yul\":8857:8862   */\n      dup2\n        /* \"#utility.yul\":8854:8868   */\n      lt\n        /* \"#utility.yul\":8847:8967   */\n      iszero\n      tag_195\n      jumpi\n        /* \"#utility.yul\":8918:8957   */\n      tag_196\n        /* \"#utility.yul\":8955:8956   */\n      0x00\n        /* \"#utility.yul\":8948:8953   */\n      dup3\n        /* \"#utility.yul\":8918:8957   */\n      tag_83\n      jump\t// in\n    tag_196:\n        /* \"#utility.yul\":8891:8892   */\n      0x01\n        /* \"#utility.yul\":8884:8889   */\n      dup2\n        /* \"#utility.yul\":8880:8893   */\n      add\n        /* \"#utility.yul\":8871:8893   */\n      swap1\n      pop\n        /* \"#utility.yul\":8847:8967   */\n      jump(tag_193)\n    tag_195:\n        /* \"#utility.yul\":8787:8973   */\n      pop\n      pop\n      jump\t// out\n        /* \"#utility.yul\":8979:9522   */\n    tag_85:\n        /* \"#utility.yul\":9080:9082   */\n      0x1f\n        /* \"#utility.yul\":9075:9078   */\n      dup3\n        /* \"#utility.yul\":9072:9083   */\n      gt\n        /* \"#utility.yul\":9069:9515   */\n      iszero\n      tag_198\n      jumpi\n        /* \"#utility.yul\":9114:9152   */\n      tag_199\n        /* \"#utility.yul\":9146:9151   */\n      dup2\n        /* \"#utility.yul\":9114:9152   */\n      tag_74\n      jump\t// in\n    tag_199:\n        /* \"#utility.yul\":9198:9227   */\n      tag_200\n        /* \"#utility.yul\":9216:9226   */\n      dup5\n        /* \"#utility.yul\":9198:9227   */\n      tag_75\n      jump\t// in\n    tag_200:\n        /* \"#utility.yul\":9188:9196   */\n      dup2\n        /* \"#utility.yul\":9184:9228   */\n      add\n        /* \"#utility.yul\":9381:9383   */\n      0x20\n        /* \"#utility.yul\":9369:9379   */\n      dup6\n        /* \"#utility.yul\":9366:9384   */\n      lt\n        /* \"#utility.yul\":9363:9412   */\n      iszero\n      tag_201\n      jumpi\n        /* \"#utility.yul\":9402:9410   */\n      dup2\n        /* \"#utility.yul\":9387:9410   */\n      swap1\n      pop\n        /* \"#utility.yul\":9363:9412   */\n    tag_201:\n        /* \"#utility.yul\":9425:9505   */\n      tag_202\n        /* \"#utility.yul\":9481:9503   */\n      tag_203\n        /* \"#utility.yul\":9499:9502   */\n      dup6\n        /* \"#utility.yul\":9481:9503   */\n      tag_75\n      jump\t// in\n    tag_203:\n        /* \"#utility.yul\":9471:9479   */\n      dup4\n        /* \"#utility.yul\":9467:9504   */\n      add\n        /* \"#utility.yul\":9454:9465   */\n      dup3\n        /* \"#utility.yul\":9425:9505   */\n      tag_84\n      jump\t// in\n    tag_202:\n        /* \"#utility.yul\":9084:9515   */\n      pop\n      pop\n        /* \"#utility.yul\":9069:9515   */\n    tag_198:\n        /* \"#utility.yul\":8979:9522   */\n      pop\n      pop\n      pop\n      jump\t// out\n        /* \"#utility.yul\":9528:9645   */\n    tag_86:\n        /* \"#utility.yul\":9582:9590   */\n      0x00\n        /* \"#utility.yul\":9632:9637   */\n      dup3\n        /* \"#utility.yul\":9626:9630   */\n      dup3\n        /* \"#utility.yul\":9622:9638   */\n      shr\n        /* \"#utility.yul\":9601:9638   */\n      swap1\n      pop\n        /* \"#utility.yul\":9528:9645   */\n      swap3\n      swap2\n      pop\n      pop\n      jump\t// out\n        /* \"#utility.yul\":9651:9820   */\n    tag_87:\n        /* \"#utility.yul\":9695:9701   */\n      0x00\n        /* \"#utility.yul\":9728:9779   */\n      tag_206\n        /* \"#utility.yul\":9776:9777   */\n      0x00\n        /* \"#utility.yul\":9772:9778   */\n      not\n        /* \"#utility.yul\":9764:9769   */\n      dup5\n        /* \"#utility.yul\":9761:9762   */\n      0x08\n        /* \"#utility.yul\":9757:9770   */\n      mul\n        /* \"#utility.yul\":9728:9779   */\n      tag_86\n      jump\t// in\n    tag_206:\n        /* \"#utility.yul\":9724:9780   */\n      not\n        /* \"#utility.yul\":9809:9813   */\n      dup1\n        /* \"#utility.yul\":9803:9807   */\n      dup4\n        /* \"#utility.yul\":9799:9814   */\n      and\n        /* \"#utility.yul\":9789:9814   */\n      swap2\n      pop\n        /* \"#utility.yul\":9702:9820   */\n      pop\n        /* \"#utility.yul\":9651:9820   */\n      swap3\n      swap2\n      pop\n      pop\n      jump\t// out\n        /* \"#utility.yul\":9825:10120   */\n    tag_88:\n        /* \"#utility.yul\":9901:9905   */\n      0x00\n        /* \"#utility.yul\":10047:10076   */\n      tag_208\n        /* \"#utility.yul\":10072:10075   */\n      dup4\n        /* \"#utility.yul\":10066:10070   */\n      dup4\n        /* \"#utility.yul\":10047:10076   */\n      tag_87\n      jump\t// in\n    tag_208:\n        /* \"#utility.yul\":10039:10076   */\n      swap2\n      pop\n        /* \"#utility.yul\":10109:10112   */\n      dup3\n        /* \"#utility.yul\":10106:10107   */\n      0x02\n        /* \"#utility.yul\":10102:10113   */\n      mul\n        /* \"#utility.yul\":10096:10100   */\n      dup3\n        /* \"#utility.yul\":10093:10114   */\n      or\n        /* \"#utility.yul\":10085:10114   */\n      swap1\n      pop\n        /* \"#utility.yul\":9825:10120   */\n      swap3\n      swap2\n      pop\n      pop\n      jump\t// out\n        /* \"#utility.yul\":10125:11520   */\n    tag_23:\n        /* \"#utility.yul\":10242:10279   */\n      tag_210\n        /* \"#utility.yul\":10275:10278   */\n      dup3\n        /* \"#utility.yul\":10242:10279   */\n      tag_65\n      jump\t// in\n    tag_210:\n        /* \"#utility.yul\":10344:10362   */\n      0xffffffffffffffff\n        /* \"#utility.yul\":10336:10342   */\n      dup2\n        /* \"#utility.yul\":10333:10363   */\n      gt\n        /* \"#utility.yul\":10330:10386   */\n      iszero\n      tag_211\n      jumpi\n        /* \"#utility.yul\":10366:10384   */\n      tag_212\n      tag_51\n      jump\t// in\n    tag_212:\n        /* \"#utility.yul\":10330:10386   */\n    tag_211:\n        /* \"#utility.yul\":10410:10448   */\n      tag_213\n        /* \"#utility.yul\":10442:10446   */\n      dup3\n        /* \"#utility.yul\":10436:10447   */\n      sload\n        /* \"#utility.yul\":10410:10448   */\n      tag_40\n      jump\t// in\n    tag_213:\n        /* \"#utility.yul\":10495:10562   */\n      tag_214\n        /* \"#utility.yul\":10555:10561   */\n      dup3\n        /* \"#utility.yul\":10547:10553   */\n      dup3\n        /* \"#utility.yul\":10541:10545   */\n      dup6\n        /* \"#utility.yul\":10495:10562   */\n      tag_85\n      jump\t// in\n    tag_214:\n        /* \"#utility.yul\":10589:10590   */\n      0x00\n        /* \"#utility.yul\":10613:10617   */\n      0x20\n        /* \"#utility.yul\":10600:10617   */\n      swap1\n      pop\n        /* \"#utility.yul\":10645:10647   */\n      0x1f\n        /* \"#utility.yul\":10637:10643   */\n      dup4\n        /* \"#utility.yul\":10634:10648   */\n      gt\n        /* \"#utility.yul\":10662:10663   */\n      0x01\n        /* \"#utility.yul\":10657:11275   */\n      dup2\n      eq\n      tag_216\n      jumpi\n        /* \"#utility.yul\":11319:11320   */\n      0x00\n        /* \"#utility.yul\":11336:11342   */\n      dup5\n        /* \"#utility.yul\":11333:11410   */\n      iszero\n      tag_217\n      jumpi\n        /* \"#utility.yul\":11385:11394   */\n      dup3\n        /* \"#utility.yul\":11380:11383   */\n      dup8\n        /* \"#utility.yul\":11376:11395   */\n      add\n        /* \"#utility.yul\":11370:11396   */\n      mload\n        /* \"#utility.yul\":11361:11396   */\n      swap1\n      pop\n        /* \"#utility.yul\":11333:11410   */\n    tag_217:\n        /* \"#utility.yul\":11436:11503   */\n      tag_218\n        /* \"#utility.yul\":11496:11502   */\n      dup6\n        /* \"#utility.yul\":11489:11494   */\n      dup3\n        /* \"#utility.yul\":11436:11503   */\n      tag_88\n      jump\t// in\n    tag_218:\n        /* \"#utility.yul\":11430:11434   */\n      dup7\n        /* \"#utility.yul\":11423:11504   */\n      sstore\n        /* \"#utility.yul\":11292:11514   */\n      pop\n        /* \"#utility.yul\":10627:11514   */\n      jump(tag_215)\n        /* \"#utility.yul\":10657:11275   */\n    tag_216:\n        /* \"#utility.yul\":10709:10713   */\n      0x1f\n        /* \"#utility.yul\":10705:10714   */\n      not\n        /* \"#utility.yul\":10697:10703   */\n      dup5\n        /* \"#utility.yul\":10693:10715   */\n      and\n        /* \"#utility.yul\":10743:10780   */\n      tag_219\n        /* \"#utility.yul\":10775:10779   */\n      dup7\n        /* \"#utility.yul\":10743:10780   */\n      tag_74\n      jump\t// in\n    tag_219:\n        /* \"#utility.yul\":10802:10803   */\n      0x00\n        /* \"#utility.yul\":10816:11024   */\n    tag_220:\n        /* \"#utility.yul\":10830:10837   */\n      dup3\n        /* \"#utility.yul\":10827:10828   */\n      dup2\n        /* \"#utility.yul\":10824:10838   */\n      lt\n        /* \"#utility.yul\":10816:11024   */\n      iszero\n      tag_222\n      jumpi\n        /* \"#utility.yul\":10909:10918   */\n      dup5\n        /* \"#utility.yul\":10904:10907   */\n      dup10\n        /* \"#utility.yul\":10900:10919   */\n      add\n        /* \"#utility.yul\":10894:10920   */\n      mload\n        /* \"#utility.yul\":10886:10892   */\n      dup3\n        /* \"#utility.yul\":10879:10921   */\n      sstore\n        /* \"#utility.yul\":10960:10961   */\n      0x01\n        /* \"#utility.yul\":10952:10958   */\n      dup3\n        /* \"#utility.yul\":10948:10962   */\n      add\n        /* \"#utility.yul\":10938:10962   */\n      swap2\n      pop\n        /* \"#utility.yul\":11007:11009   */\n      0x20\n        /* \"#utility.yul\":10996:11005   */\n      dup6\n        /* \"#utility.yul\":10992:11010   */\n      add\n        /* \"#utility.yul\":10979:11010   */\n      swap5\n      pop\n        /* \"#utility.yul\":10853:10857   */\n      0x20\n        /* \"#utility.yul\":10850:10851   */\n      dup2\n        /* \"#utility.yul\":10846:10858   */\n      add\n        /* \"#utility.yul\":10841:10858   */\n      swap1\n      pop\n        /* \"#utility.yul\":10816:11024   */\n      jump(tag_220)\n    tag_222:\n        /* \"#utility.yul\":11052:11058   */\n      dup7\n        /* \"#utility.yul\":11043:11050   */\n      dup4\n        /* \"#utility.yul\":11040:11059   */\n      lt\n        /* \"#utility.yul\":11037:11216   */\n      iszero\n      tag_223\n      jumpi\n        /* \"#utility.yul\":11110:11119   */\n      dup5\n        /* \"#utility.yul\":11105:11108   */\n      dup10\n        /* \"#utility.yul\":11101:11120   */\n      add\n        /* \"#utility.yul\":11095:11121   */\n      mload\n        /* \"#utility.yul\":11153:11201   */\n      tag_224\n        /* \"#utility.yul\":11195:11199   */\n      0x1f\n        /* \"#utility.yul\":11187:11193   */\n      dup10\n        /* \"#utility.yul\":11183:11200   */\n      and\n        /* \"#utility.yul\":11172:11181   */\n      dup3\n        /* \"#utility.yul\":11153:11201   */\n      tag_87\n      jump\t// in\n    tag_224:\n        /* \"#utility.yul\":11145:11151   */\n      dup4\n        /* \"#utility.yul\":11138:11202   */\n      sstore\n        /* \"#utility.yul\":11060:11216   */\n      pop\n        /* \"#utility.yul\":11037:11216   */\n    tag_223:\n        /* \"#utility.yul\":11262:11263   */\n      0x01\n        /* \"#utility.yul\":11258:11259   */\n      0x02\n        /* \"#utility.yul\":11250:11256   */\n      dup9\n        /* \"#utility.yul\":11246:11260   */\n      mul\n        /* \"#utility.yul\":11242:11264   */\n      add\n        /* \"#utility.yul\":11236:11240   */\n      dup9\n        /* \"#utility.yul\":11229:11265   */\n      sstore\n        /* \"#utility.yul\":10664:11275   */\n      pop\n      pop\n      pop\n        /* \"#utility.yul\":10627:11514   */\n    tag_215:\n      pop\n        /* \"#utility.yul\":10217:11520   */\n      pop\n      pop\n      pop\n        /* \"#utility.yul\":10125:11520   */\n      pop\n      pop\n      jump\t// out\n        /* \"#utility.yul\":11526:11706   */\n    tag_28:\n        /* \"#utility.yul\":11574:11651   */\n      0x4e487b7100000000000000000000000000000000000000000000000000000000\n        /* \"#utility.yul\":11571:11572   */\n      0x00\n        /* \"#utility.yul\":11564:11652   */\n      mstore\n        /* \"#utility.yul\":11671:11675   */\n      0x32\n        /* \"#utility.yul\":11668:11669   */\n      0x04\n        /* \"#utility.yul\":11661:11676   */\n      mstore\n        /* \"#utility.yul\":11695:11699   */\n      0x24\n        /* \"#utility.yul\":11692:11693   */\n      0x00\n        /* \"#utility.yul\":11685:11700   */\n      revert\n\n    auxdata: 0xa2646970667358221220486dc9c6bcba5f1568d3aa6c9fb356f93a63a8703ab4d7f7ec9bebb774460fe564736f6c634300081e0033\n}\n",
				"bytecode": {
					"linkReferences": {},
					"object": "6080604052348015600e575f5ffd5b506109958061001c5f395ff3fe608060405234801561000f575f5ffd5b506004361061003f575f3560e01c80631dfc29621461004357806328bcb51a1461005f578063642f91631461007d575b5f5ffd5b61005d600480360381019061005891906104af565b6100b0565b005b61006761019b565b604051610074919061052a565b60405180910390f35b61009760048036038101906100929190610543565b6101a6565b6040516100a7949392919061061c565b60405180910390f35b5f60405180608001604052808581526020018481526020013373ffffffffffffffffffffffffffffffffffffffff168152602001831515815250908060018154018082558091505060019003905f5260205f2090600302015f909190919091505f820151815f0190816101239190610863565b50602082015181600101556040820151816002015f6101000a81548173ffffffffffffffffffffffffffffffffffffffff021916908373ffffffffffffffffffffffffffffffffffffffff16021790555060608201518160020160146101000a81548160ff0219169083151502179055505050505050565b5f5f80549050905090565b60605f5f5f5f85815481106101be576101bd610932565b5b905f5260205f2090600302015f015f86815481106101df576101de610932565b5b905f5260205f209060030201600101545f878154811061020257610201610932565b5b905f5260205f2090600302016002015f9054906101000a900473ffffffffffffffffffffffffffffffffffffffff165f888154811061024457610243610932565b5b905f5260205f20906003020160020160149054906101000a900460ff1683805461026d90610693565b80601f016020809104026020016040519081016040528092919081815260200182805461029990610693565b80156102e45780601f106102bb576101008083540402835291602001916102e4565b820191905f5260205f20905b8154815290600101906020018083116102c757829003601f168201915b5050505050935093509350935093509193509193565b5f604051905090565b5f5ffd5b5f5ffd5b5f5ffd5b5f5ffd5b5f601f19601f8301169050919050565b7f4e487b71000000000000000000000000000000000000000000000000000000005f52604160045260245ffd5b61035982610313565b810181811067ffffffffffffffff8211171561037857610377610323565b5b80604052505050565b5f61038a6102fa565b90506103968282610350565b919050565b5f67ffffffffffffffff8211156103b5576103b4610323565b5b6103be82610313565b9050602081019050919050565b828183375f83830152505050565b5f6103eb6103e68461039b565b610381565b9050828152602081018484840111156104075761040661030f565b5b6104128482856103cb565b509392505050565b5f82601f83011261042e5761042d61030b565b5b813561043e8482602086016103d9565b91505092915050565b5f819050919050565b61045981610447565b8114610463575f5ffd5b50565b5f8135905061047481610450565b92915050565b5f8115159050919050565b61048e8161047a565b8114610498575f5ffd5b50565b5f813590506104a981610485565b92915050565b5f5f5f606084860312156104c6576104c5610303565b5b5f84013567ffffffffffffffff8111156104e3576104e2610307565b5b6104ef8682870161041a565b935050602061050086828701610466565b92505060406105118682870161049b565b9150509250925092565b61052481610447565b82525050565b5f60208201905061053d5f83018461051b565b92915050565b5f6020828403121561055857610557610303565b5b5f61056584828501610466565b91505092915050565b5f81519050919050565b5f82825260208201905092915050565b8281835e5f83830152505050565b5f6105a08261056e565b6105aa8185610578565b93506105ba818560208601610588565b6105c381610313565b840191505092915050565b5f73ffffffffffffffffffffffffffffffffffffffff82169050919050565b5f6105f7826105ce565b9050919050565b610607816105ed565b82525050565b6106168161047a565b82525050565b5f6080820190508181035f8301526106348187610596565b9050610643602083018661051b565b61065060408301856105fe565b61065d606083018461060d565b95945050505050565b7f4e487b71000000000000000000000000000000000000000000000000000000005f52602260045260245ffd5b5f60028204905060018216806106aa57607f821691505b6020821081036106bd576106bc610666565b5b50919050565b5f819050815f5260205f209050919050565b5f6020601f8301049050919050565b5f82821b905092915050565b5f6008830261071f7fffffffffffffffffffffffffffffffffffffffffffffffffffffffffffffffff826106e4565b61072986836106e4565b95508019841693508086168417925050509392505050565b5f819050919050565b5f61076461075f61075a84610447565b610741565b610447565b9050919050565b5f819050919050565b61077d8361074a565b6107916107898261076b565b8484546106f0565b825550505050565b5f5f905090565b6107a8610799565b6107b3818484610774565b505050565b5b818110156107d6576107cb5f826107a0565b6001810190506107b9565b5050565b601f82111561081b576107ec816106c3565b6107f5846106d5565b81016020851015610804578190505b610818610810856106d5565b8301826107b8565b50505b505050565b5f82821c905092915050565b5f61083b5f1984600802610820565b1980831691505092915050565b5f610853838361082c565b9150826002028217905092915050565b61086c8261056e565b67ffffffffffffffff81111561088557610884610323565b5b61088f8254610693565b61089a8282856107da565b5f60209050601f8311600181146108cb575f84156108b9578287015190505b6108c38582610848565b86555061092a565b601f1984166108d9866106c3565b5f5b82811015610900578489015182556001820191506020850194506020810190506108db565b8683101561091d5784890151610919601f89168261082c565b8355505b6001600288020188555050505b505050505050565b7f4e487b71000000000000000000000000000000000000000000000000000000005f52603260045260245ffdfea2646970667358221220486dc9c6bcba5f1568d3aa6c9fb356f93a63a8703ab4d7f7ec9bebb774460fe564736f6c634300081e0033",
					"opcodes": "PUSH1 0x80 PUSH1 0x40 MSTORE CALLVALUE DUP1 ISZERO PUSH1 0xE JUMPI PUSH0 PUSH0 REVERT JUMPDEST POP PUSH2 0x995 DUP1 PUSH2 0x1C PUSH0 CODECOPY PUSH0 RETURN INVALID PUSH1 0x80 PUSH1 0x40 MSTORE CALLVALUE DUP1 ISZERO PUSH2 0xF JUMPI PUSH0 PUSH0 REVERT JUMPDEST POP PUSH1 0x4 CALLDATASIZE LT PUSH2 0x3F JUMPI PUSH0 CALLDATALOAD PUSH1 0xE0 SHR DUP1 PUSH4 0x1DFC2962 EQ PUSH2 0x43 JUMPI DUP1 PUSH4 0x28BCB51A EQ PUSH2 0x5F JUMPI DUP1 PUSH4 0x642F9163 EQ PUSH2 0x7D JUMPI JUMPDEST PUSH0 PUSH0 REVERT JUMPDEST PUSH2 0x5D PUSH1 0x4 DUP1 CALLDATASIZE SUB DUP2 ADD SWAP1 PUSH2 0x58 SWAP2 SWAP1 PUSH2 0x4AF JUMP JUMPDEST PUSH2 0xB0 JUMP JUMPDEST STOP JUMPDEST PUSH2 0x67 PUSH2 0x19B JUMP JUMPDEST PUSH1 0x40 MLOAD PUSH2 0x74 SWAP2 SWAP1 PUSH2 0x52A JUMP JUMPDEST PUSH1 0x40 MLOAD DUP1 SWAP2 SUB SWAP1 RETURN JUMPDEST PUSH2 0x97 PUSH1 0x4 DUP1 CALLDATASIZE SUB DUP2 ADD SWAP1 PUSH2 0x92 SWAP2 SWAP1 PUSH2 0x543 JUMP JUMPDEST PUSH2 0x1A6 JUMP JUMPDEST PUSH1 0x40 MLOAD PUSH2 0xA7 SWAP5 SWAP4 SWAP3 SWAP2 SWAP1 PUSH2 0x61C JUMP JUMPDEST PUSH1 0x40 MLOAD DUP1 SWAP2 SUB SWAP1 RETURN JUMPDEST PUSH0 PUSH1 0x40 MLOAD DUP1 PUSH1 0x80 ADD PUSH1 0x40 MSTORE DUP1 DUP6 DUP2 MSTORE PUSH1 0x20 ADD DUP5 DUP2 MSTORE PUSH1 0x20 ADD CALLER PUSH20 0xFFFFFFFFFFFFFFFFFFFFFFFFFFFFFFFFFFFFFFFF AND DUP2 MSTORE PUSH1 0x20 ADD DUP4 ISZERO ISZERO DUP2 MSTORE POP SWAP1 DUP1 PUSH1 0x1 DUP2 SLOAD ADD DUP1 DUP3 SSTORE DUP1 SWAP2 POP POP PUSH1 0x1 SWAP1 SUB SWAP1 PUSH0 MSTORE PUSH1 0x20 PUSH0 KECCAK256 SWAP1 PUSH1 0x3 MUL ADD PUSH0 SWAP1 SWAP2 SWAP1 SWAP2 SWAP1 SWAP2 POP PUSH0 DUP3 ADD MLOAD DUP2 PUSH0 ADD SWAP1 DUP2 PUSH2 0x123 SWAP2 SWAP1 PUSH2 0x863 JUMP JUMPDEST POP PUSH1 0x20 DUP3 ADD MLOAD DUP2 PUSH1 0x1 ADD SSTORE PUSH1 0x40 DUP3 ADD MLOAD DUP2 PUSH1 0x2 ADD PUSH0 PUSH2 0x100 EXP DUP2 SLOAD DUP2 PUSH20 0xFFFFFFFFFFFFFFFFFFFFFFFFFFFFFFFFFFFFFFFF MUL NOT AND SWAP1 DUP4 PUSH20 0xFFFFFFFFFFFFFFFFFFFFFFFFFFFFFFFFFFFFFFFF AND MUL OR SWAP1 SSTORE POP PUSH1 0x60 DUP3 ADD MLOAD DUP2 PUSH1 0x2 ADD PUSH1 0x14 PUSH2 0x100 EXP DUP2 SLOAD DUP2 PUSH1 0xFF MUL NOT AND SWAP1 DUP4 ISZERO ISZERO MUL OR SWAP1 SSTORE POP POP POP POP POP POP JUMP JUMPDEST PUSH0 PUSH0 DUP1 SLOAD SWAP1 POP SWAP1 POP SWAP1 JUMP JUMPDEST PUSH1 0x60 PUSH0 PUSH0 PUSH0 PUSH0 DUP6 DUP2 SLOAD DUP2 LT PUSH2 0x1BE JUMPI PUSH2 0x1BD PUSH2 0x932 JUMP JUMPDEST JUMPDEST SWAP1 PUSH0 MSTORE PUSH1 0x20 PUSH0 KECCAK256 SWAP1 PUSH1 0x3 MUL ADD PUSH0 ADD PUSH0 DUP7 DUP2 SLOAD DUP2 LT PUSH2 0x1DF JUMPI PUSH2 0x1DE PUSH2 0x932 JUMP JUMPDEST JUMPDEST SWAP1 PUSH0 MSTORE PUSH1 0x20 PUSH0 KECCAK256 SWAP1 PUSH1 0x3 MUL ADD PUSH1 0x1 ADD SLOAD PUSH0 DUP8 DUP2 SLOAD DUP2 LT PUSH2 0x202 JUMPI PUSH2 0x201 PUSH2 0x932 JUMP JUMPDEST JUMPDEST SWAP1 PUSH0 MSTORE PUSH1 0x20 PUSH0 KECCAK256 SWAP1 PUSH1 0x3 MUL ADD PUSH1 0x2 ADD PUSH0 SWAP1 SLOAD SWAP1 PUSH2 0x100 EXP SWAP1 DIV PUSH20 0xFFFFFFFFFFFFFFFFFFFFFFFFFFFFFFFFFFFFFFFF AND PUSH0 DUP9 DUP2 SLOAD DUP2 LT PUSH2 0x244 JUMPI PUSH2 0x243 PUSH2 0x932 JUMP JUMPDEST JUMPDEST SWAP1 PUSH0 MSTORE PUSH1 0x20 PUSH0 KECCAK256 SWAP1 PUSH1 0x3 MUL ADD PUSH1 0x2 ADD PUSH1 0x14 SWAP1 SLOAD SWAP1 PUSH2 0x100 EXP SWAP1 DIV PUSH1 0xFF AND DUP4 DUP1 SLOAD PUSH2 0x26D SWAP1 PUSH2 0x693 JUMP JUMPDEST DUP1 PUSH1 0x1F ADD PUSH1 0x20 DUP1 SWAP2 DIV MUL PUSH1 0x20 ADD PUSH1 0x40 MLOAD SWAP1 DUP2 ADD PUSH1 0x40 MSTORE DUP1 SWAP3 SWAP2 SWAP1 DUP2 DUP2 MSTORE PUSH1 0x20 ADD DUP3 DUP1 SLOAD PUSH2 0x299 SWAP1 PUSH2 0x693 JUMP JUMPDEST DUP1 ISZERO PUSH2 0x2E4 JUMPI DUP1 PUSH1 0x1F LT PUSH2 0x2BB JUMPI PUSH2 0x100 DUP1 DUP4 SLOAD DIV MUL DUP4 MSTORE SWAP2 PUSH1 0x20 ADD SWAP2 PUSH2 0x2E4 JUMP JUMPDEST DUP3 ADD SWAP2 SWAP1 PUSH0 MSTORE PUSH1 0x20 PUSH0 KECCAK256 SWAP1 JUMPDEST DUP2 SLOAD DUP2 MSTORE SWAP1 PUSH1 0x1 ADD SWAP1 PUSH1 0x20 ADD DUP1 DUP4 GT PUSH2 0x2C7 JUMPI DUP3 SWAP1 SUB PUSH1 0x1F AND DUP3 ADD SWAP2 JUMPDEST POP POP POP POP POP SWAP4 POP SWAP4 POP SWAP4 POP SWAP4 POP SWAP4 POP SWAP2 SWAP4 POP SWAP2 SWAP4 JUMP JUMPDEST PUSH0 PUSH1 0x40 MLOAD SWAP1 POP SWAP1 JUMP JUMPDEST PUSH0 PUSH0 REVERT JUMPDEST PUSH0 PUSH0 REVERT JUMPDEST PUSH0 PUSH0 REVERT JUMPDEST PUSH0 PUSH0 REVERT JUMPDEST PUSH0 PUSH1 0x1F NOT PUSH1 0x1F DUP4 ADD AND SWAP1 POP SWAP2 SWAP1 POP JUMP JUMPDEST PUSH32 0x4E487B7100000000000000000000000000000000000000000000000000000000 PUSH0 MSTORE PUSH1 0x41 PUSH1 0x4 MSTORE PUSH1 0x24 PUSH0 REVERT JUMPDEST PUSH2 0x359 DUP3 PUSH2 0x313 JUMP JUMPDEST DUP2 ADD DUP2 DUP2 LT PUSH8 0xFFFFFFFFFFFFFFFF DUP3 GT OR ISZERO PUSH2 0x378 JUMPI PUSH2 0x377 PUSH2 0x323 JUMP JUMPDEST JUMPDEST DUP1 PUSH1 0x40 MSTORE POP POP POP JUMP JUMPDEST PUSH0 PUSH2 0x38A PUSH2 0x2FA JUMP JUMPDEST SWAP1 POP PUSH2 0x396 DUP3 DUP3 PUSH2 0x350 JUMP JUMPDEST SWAP2 SWAP1 POP JUMP JUMPDEST PUSH0 PUSH8 0xFFFFFFFFFFFFFFFF DUP3 GT ISZERO PUSH2 0x3B5 JUMPI PUSH2 0x3B4 PUSH2 0x323 JUMP JUMPDEST JUMPDEST PUSH2 0x3BE DUP3 PUSH2 0x313 JUMP JUMPDEST SWAP1 POP PUSH1 0x20 DUP2 ADD SWAP1 POP SWAP2 SWAP1 POP JUMP JUMPDEST DUP3 DUP2 DUP4 CALLDATACOPY PUSH0 DUP4 DUP4 ADD MSTORE POP POP POP JUMP JUMPDEST PUSH0 PUSH2 0x3EB PUSH2 0x3E6 DUP5 PUSH2 0x39B JUMP JUMPDEST PUSH2 0x381 JUMP JUMPDEST SWAP1 POP DUP3 DUP2 MSTORE PUSH1 0x20 DUP2 ADD DUP5 DUP5 DUP5 ADD GT ISZERO PUSH2 0x407 JUMPI PUSH2 0x406 PUSH2 0x30F JUMP JUMPDEST JUMPDEST PUSH2 0x412 DUP5 DUP3 DUP6 PUSH2 0x3CB JUMP JUMPDEST POP SWAP4 SWAP3 POP POP POP JUMP JUMPDEST PUSH0 DUP3 PUSH1 0x1F DUP4 ADD SLT PUSH2 0x42E JUMPI PUSH2 0x42D PUSH2 0x30B JUMP JUMPDEST JUMPDEST DUP2 CALLDATALOAD PUSH2 0x43E DUP5 DUP3 PUSH1 0x20 DUP7 ADD PUSH2 0x3D9 JUMP JUMPDEST SWAP2 POP POP SWAP3 SWAP2 POP POP JUMP JUMPDEST PUSH0 DUP2 SWAP1 POP SWAP2 SWAP1 POP JUMP JUMPDEST PUSH2 0x459 DUP2 PUSH2 0x447 JUMP JUMPDEST DUP2 EQ PUSH2 0x463 JUMPI PUSH0 PUSH0 REVERT JUMPDEST POP JUMP JUMPDEST PUSH0 DUP2 CALLDATALOAD SWAP1 POP PUSH2 0x474 DUP2 PUSH2 0x450 JUMP JUMPDEST SWAP3 SWAP2 POP POP JUMP JUMPDEST PUSH0 DUP2 ISZERO ISZERO SWAP1 POP SWAP2 SWAP1 POP JUMP JUMPDEST PUSH2 0x48E DUP2 PUSH2 0x47A JUMP JUMPDEST DUP2 EQ PUSH2 0x498 JUMPI PUSH0 PUSH0 REVERT JUMPDEST POP JUMP JUMPDEST PUSH0 DUP2 CALLDATALOAD SWAP1 POP PUSH2 0x4A9 DUP2 PUSH2 0x485 JUMP JUMPDEST SWAP3 SWAP2 POP POP JUMP JUMPDEST PUSH0 PUSH0 PUSH0 PUSH1 0x60 DUP5 DUP7 SUB SLT ISZERO PUSH2 0x4C6 JUMPI PUSH2 0x4C5 PUSH2 0x303 JUMP JUMPDEST JUMPDEST PUSH0 DUP5 ADD CALLDATALOAD PUSH8 0xFFFFFFFFFFFFFFFF DUP2 GT ISZERO PUSH2 0x4E3 JUMPI PUSH2 0x4E2 PUSH2 0x307 JUMP JUMPDEST JUMPDEST PUSH2 0x4EF DUP7 DUP3 DUP8 ADD PUSH2 0x41A JUMP JUMPDEST SWAP4 POP POP PUSH1 0x20 PUSH2 0x500 DUP7 DUP3 DUP8 ADD PUSH2 0x466 JUMP JUMPDEST SWAP3 POP POP PUSH1 0x40 PUSH2 0x511 DUP7 DUP3 DUP8 ADD PUSH2 0x49B JUMP JUMPDEST SWAP2 POP POP SWAP3 POP SWAP3 POP SWAP3 JUMP JUMPDEST PUSH2 0x524 DUP2 PUSH2 0x447 JUMP JUMPDEST DUP3 MSTORE POP POP JUMP JUMPDEST PUSH0 PUSH1 0x20 DUP3 ADD SWAP1 POP PUSH2 0x53D PUSH0 DUP4 ADD DUP5 PUSH2 0x51B JUMP JUMPDEST SWAP3 SWAP2 POP POP JUMP JUMPDEST PUSH0 PUSH1 0x20 DUP3 DUP5 SUB SLT ISZERO PUSH2 0x558 JUMPI PUSH2 0x557 PUSH2 0x303 JUMP JUMPDEST JUMPDEST PUSH0 PUSH2 0x565 DUP5 DUP3 DUP6 ADD PUSH2 0x466 JUMP JUMPDEST SWAP2 POP POP SWAP3 SWAP2 POP POP JUMP JUMPDEST PUSH0 DUP2 MLOAD SWAP1 POP SWAP2 SWAP1 POP JUMP JUMPDEST PUSH0 DUP3 DUP3 MSTORE PUSH1 0x20 DUP3 ADD SWAP1 POP SWAP3 SWAP2 POP POP JUMP JUMPDEST DUP3 DUP2 DUP4 MCOPY PUSH0 DUP4 DUP4 ADD MSTORE POP POP POP JUMP JUMPDEST PUSH0 PUSH2 0x5A0 DUP3 PUSH2 0x56E JUMP JUMPDEST PUSH2 0x5AA DUP2 DUP6 PUSH2 0x578 JUMP JUMPDEST SWAP4 POP PUSH2 0x5BA DUP2 DUP6 PUSH1 0x20 DUP7 ADD PUSH2 0x588 JUMP JUMPDEST PUSH2 0x5C3 DUP2 PUSH2 0x313 JUMP JUMPDEST DUP5 ADD SWAP2 POP POP SWAP3 SWAP2 POP POP JUMP JUMPDEST PUSH0 PUSH20 0xFFFFFFFFFFFFFFFFFFFFFFFFFFFFFFFFFFFFFFFF DUP3 AND SWAP1 POP SWAP2 SWAP1 POP JUMP JUMPDEST PUSH0 PUSH2 0x5F7 DUP3 PUSH2 0x5CE JUMP JUMPDEST SWAP1 POP SWAP2 SWAP1 POP JUMP JUMPDEST PUSH2 0x607 DUP2 PUSH2 0x5ED JUMP JUMPDEST DUP3 MSTORE POP POP JUMP JUMPDEST PUSH2 0x616 DUP2 PUSH2 0x47A JUMP JUMPDEST DUP3 MSTORE POP POP JUMP JUMPDEST PUSH0 PUSH1 0x80 DUP3 ADD SWAP1 POP DUP2 DUP2 SUB PUSH0 DUP4 ADD MSTORE PUSH2 0x634 DUP2 DUP8 PUSH2 0x596 JUMP JUMPDEST SWAP1 POP PUSH2 0x643 PUSH1 0x20 DUP4 ADD DUP7 PUSH2 0x51B JUMP JUMPDEST PUSH2 0x650 PUSH1 0x40 DUP4 ADD DUP6 PUSH2 0x5FE JUMP JUMPDEST PUSH2 0x65D PUSH1 0x60 DUP4 ADD DUP5 PUSH2 0x60D JUMP JUMPDEST SWAP6 SWAP5 POP POP POP POP POP JUMP JUMPDEST PUSH32 0x4E487B7100000000000000000000000000000000000000000000000000000000 PUSH0 MSTORE PUSH1 0x22 PUSH1 0x4 MSTORE PUSH1 0x24 PUSH0 REVERT JUMPDEST PUSH0 PUSH1 0x2 DUP3 DIV SWAP1 POP PUSH1 0x1 DUP3 AND DUP1 PUSH2 0x6AA JUMPI PUSH1 0x7F DUP3 AND SWAP2 POP JUMPDEST PUSH1 0x20 DUP3 LT DUP2 SUB PUSH2 0x6BD JUMPI PUSH2 0x6BC PUSH2 0x666 JUMP JUMPDEST JUMPDEST POP SWAP2 SWAP1 POP JUMP JUMPDEST PUSH0 DUP2 SWAP1 POP DUP2 PUSH0 MSTORE PUSH1 0x20 PUSH0 KECCAK256 SWAP1 POP SWAP2 SWAP1 POP JUMP JUMPDEST PUSH0 PUSH1 0x20 PUSH1 0x1F DUP4 ADD DIV SWAP1 POP SWAP2 SWAP1 POP JUMP JUMPDEST PUSH0 DUP3 DUP3 SHL SWAP1 POP SWAP3 SWAP2 POP POP JUMP JUMPDEST PUSH0 PUSH1 0x8 DUP4 MUL PUSH2 0x71F PUSH32 0xFFFFFFFFFFFFFFFFFFFFFFFFFFFFFFFFFFFFFFFFFFFFFFFFFFFFFFFFFFFFFFFF DUP3 PUSH2 0x6E4 JUMP JUMPDEST PUSH2 0x729 DUP7 DUP4 PUSH2 0x6E4 JUMP JUMPDEST SWAP6 POP DUP1 NOT DUP5 AND SWAP4 POP DUP1 DUP7 AND DUP5 OR SWAP3 POP POP POP SWAP4 SWAP3 POP POP POP JUMP JUMPDEST PUSH0 DUP2 SWAP1 POP SWAP2 SWAP1 POP JUMP JUMPDEST PUSH0 PUSH2 0x764 PUSH2 0x75F PUSH2 0x75A DUP5 PUSH2 0x447 JUMP JUMPDEST PUSH2 0x741 JUMP JUMPDEST PUSH2 0x447 JUMP JUMPDEST SWAP1 POP SWAP2 SWAP1 POP JUMP JUMPDEST PUSH0 DUP2 SWAP1 POP SWAP2 SWAP1 POP JUMP JUMPDEST PUSH2 0x77D DUP4 PUSH2 0x74A JUMP JUMPDEST PUSH2 0x791 PUSH2 0x789 DUP3 PUSH2 0x76B JUMP JUMPDEST DUP5 DUP5 SLOAD PUSH2 0x6F0 JUMP JUMPDEST DUP3 SSTORE POP POP POP POP JUMP JUMPDEST PUSH0 PUSH0 SWAP1 POP SWAP1 JUMP JUMPDEST PUSH2 0x7A8 PUSH2 0x799 JUMP JUMPDEST PUSH2 0x7B3 DUP2 DUP5 DUP5 PUSH2 0x774 JUMP JUMPDEST POP POP POP JUMP JUMPDEST JUMPDEST DUP2 DUP2 LT ISZERO PUSH2 0x7D6 JUMPI PUSH2 0x7CB PUSH0 DUP3 PUSH2 0x7A0 JUMP JUMPDEST PUSH1 0x1 DUP2 ADD SWAP1 POP PUSH2 0x7B9 JUMP JUMPDEST POP POP JUMP JUMPDEST PUSH1 0x1F DUP3 GT ISZERO PUSH2 0x81B JUMPI PUSH2 0x7EC DUP2 PUSH2 0x6C3 JUMP JUMPDEST PUSH2 0x7F5 DUP5 PUSH2 0x6D5 JUMP JUMPDEST DUP2 ADD PUSH1 0x20 DUP6 LT ISZERO PUSH2 0x804 JUMPI DUP2 SWAP1 POP JUMPDEST PUSH2 0x818 PUSH2 0x810 DUP6 PUSH2 0x6D5 JUMP JUMPDEST DUP4 ADD DUP3 PUSH2 0x7B8 JUMP JUMPDEST POP POP JUMPDEST POP POP POP JUMP JUMPDEST PUSH0 DUP3 DUP3 SHR SWAP1 POP SWAP3 SWAP2 POP POP JUMP JUMPDEST PUSH0 PUSH2 0x83B PUSH0 NOT DUP5 PUSH1 0x8 MUL PUSH2 0x820 JUMP JUMPDEST NOT DUP1 DUP4 AND SWAP2 POP POP SWAP3 SWAP2 POP POP JUMP JUMPDEST PUSH0 PUSH2 0x853 DUP4 DUP4 PUSH2 0x82C JUMP JUMPDEST SWAP2 POP DUP3 PUSH1 0x2 MUL DUP3 OR SWAP1 POP SWAP3 SWAP2 POP POP JUMP JUMPDEST PUSH2 0x86C DUP3 PUSH2 0x56E JUMP JUMPDEST PUSH8 0xFFFFFFFFFFFFFFFF DUP2 GT ISZERO PUSH2 0x885 JUMPI PUSH2 0x884 PUSH2 0x323 JUMP JUMPDEST JUMPDEST PUSH2 0x88F DUP3 SLOAD PUSH2 0x693 JUMP JUMPDEST PUSH2 0x89A DUP3 DUP3 DUP6 PUSH2 0x7DA JUMP JUMPDEST PUSH0 PUSH1 0x20 SWAP1 POP PUSH1 0x1F DUP4 GT PUSH1 0x1 DUP2 EQ PUSH2 0x8CB JUMPI PUSH0 DUP5 ISZERO PUSH2 0x8B9 JUMPI DUP3 DUP8 ADD MLOAD SWAP1 POP JUMPDEST PUSH2 0x8C3 DUP6 DUP3 PUSH2 0x848 JUMP JUMPDEST DUP7 SSTORE POP PUSH2 0x92A JUMP JUMPDEST PUSH1 0x1F NOT DUP5 AND PUSH2 0x8D9 DUP7 PUSH2 0x6C3 JUMP JUMPDEST PUSH0 JUMPDEST DUP3 DUP2 LT ISZERO PUSH2 0x900 JUMPI DUP5 DUP10 ADD MLOAD DUP3 SSTORE PUSH1 0x1 DUP3 ADD SWAP2 POP PUSH1 0x20 DUP6 ADD SWAP5 POP PUSH1 0x20 DUP2 ADD SWAP1 POP PUSH2 0x8DB JUMP JUMPDEST DUP7 DUP4 LT ISZERO PUSH2 0x91D JUMPI DUP5 DUP10 ADD MLOAD PUSH2 0x919 PUSH1 0x1F DUP10 AND DUP3 PUSH2 0x82C JUMP JUMPDEST DUP4 SSTORE POP JUMPDEST PUSH1 0x1 PUSH1 0x2 DUP9 MUL ADD DUP9 SSTORE POP POP POP JUMPDEST POP POP POP POP POP POP JUMP JUMPDEST PUSH32 0x4E487B7100000000000000000000000000000000000000000000000000000000 PUSH0 MSTORE PUSH1 0x32 PUSH1 0x4 MSTORE PUSH1 0x24 PUSH0 REVERT INVALID LOG2 PUSH5 0x6970667358 0x22 SLT KECCAK256 BASEFEE PUSH14 0xC9C6BCBA5F1568D3AA6C9FB356F9 GASPRICE PUSH4 0xA8703AB4 0xD7 0xF7 EOFCREATE 0x9B 0xEB 0xB7 PUSH21 0x460FE564736F6C634300081E003300000000000000 "
				},
				"gasEstimates": {
					"creation": {
						"codeDepositCost": "490600",
						"executionCost": "522",
						"totalCost": "491122"
					},
					"external": {
						"addStudent(string,uint256,bool)": "infinite",
						"getStudent(uint256)": "infinite",
						"getTotalStudents()": "2439"
					}
				},
				"methodIdentifiers": {
					"addStudent(string,uint256,bool)": "1dfc2962",
					"getStudent(uint256)": "642f9163",
					"getTotalStudents()": "28bcb51a"
				}
			},
			"storageLayout": {
				"storage": [
					{
						"astId": 14,
						"contract": "contracts/Activity4_Day6.sol:Struct",
						"label": "students",
						"offset": 0,
						"slot": "0",
						"type": "t_array(t_struct(Student)10_storage)dyn_storage"
					}
				],
				"types": {
					"t_address": {
						"encoding": "inplace",
						"label": "address",
						"numberOfBytes": "20"
					},
					"t_array(t_struct(Student)10_storage)dyn_storage": {
						"base": "t_struct(Student)10_storage",
						"encoding": "dynamic_array",
						"label": "struct Struct.Student[]",
						"numberOfBytes": "32"
					},
					"t_bool": {
						"encoding": "inplace",
						"label": "bool",
						"numberOfBytes": "1"
					},
					"t_string_storage": {
						"encoding": "bytes",
						"label": "string",
						"numberOfBytes": "32"
					},
					"t_struct(Student)10_storage": {
						"encoding": "inplace",
						"label": "struct Struct.Student",
						"members": [
							{
								"astId": 3,
								"contract": "contracts/Activity4_Day6.sol:Struct",
								"label": "name",
								"offset": 0,
								"slot": "0",
								"type": "t_string_storage"
							},
							{
								"astId": 5,
								"contract": "contracts/Activity4_Day6.sol:Struct",
								"label": "age",
								"offset": 0,
								"slot": "1",
								"type": "t_uint256"
							},
							{
								"astId": 7,
								"contract": "contracts/Activity4_Day6.sol:Struct",
								"label": "wallet",
								"offset": 0,
								"slot": "2",
								"type": "t_address"
							},
							{
								"astId": 9,
								"contract": "contracts/Activity4_Day6.sol:Struct",
								"label": "enrolled",
								"offset": 20,
								"slot": "2",
								"type": "t_bool"
							}
						],
						"numberOfBytes": "96"
					},
					"t_uint256": {
						"encoding": "inplace",
						"label": "uint256",
						"numberOfBytes": "32"
					}
				}
			},
			"userdoc": {
				"kind": "user",
				"methods": {},
				"version": 1
			}
		}
	}
}