{
	"contracts/Struct.sol": {
		"Struct": {
			"abi": [
				{
					"inputs": [
						{
							"internalType": "uint256",
							"name": "_id",
							"type": "uint256"
						},
						{
							"internalType": "string",
							"name": "_name",
							"type": "string"
						},
						{
							"internalType": "uint256",
							"name": "_age",
							"type": "uint256"
						}
					],
					"name": "addStudent",
					"outputs": [],
					"stateMutability": "nonpayable",
					"type": "function"
				},
				{
					"inputs": [
						{
							"internalType": "uint256",
							"name": "_id",
							"type": "uint256"
						}
					],
					"name": "getStudent",
					"outputs": [
						{
							"internalType": "string",
							"name": "",
							"type": "string"
						},
						{
							"internalType": "uint256",
							"name": "",
							"type": "uint256"
						},
						{
							"internalType": "address",
							"name": "",
							"type": "address"
						},
						{
							"internalType": "bool",
							"name": "",
							"type": "bool"
						}
					],
					"stateMutability": "view",
					"type": "function"
				},
				{
					"inputs": [
						{
							"internalType": "uint256",
							"name": "",
							"type": "uint256"
						}
					],
					"name": "students",
					"outputs": [
						{
							"internalType": "string",
							"name": "name",
							"type": "string"
						},
						{
							"internalType": "uint256",
							"name": "age",
							"type": "uint256"
						},
						{
							"internalType": "address",
							"name": "wallet",
							"type": "address"
						},
						{
							"internalType": "bool",
							"name": "enrolled",
							"type": "bool"
						}
					],
					"stateMutability": "view",
					"type": "function"
				},
				{
					"inputs": [
						{
							"internalType": "uint256",
							"name": "_id",
							"type": "uint256"
						}
					],
					"name": "updateEnrollment",
					"outputs": [],
					"stateMutability": "nonpayable",
					"type": "function"
				}
			],
			"devdoc": {
				"kind": "dev",
				"methods": {},
				"version": 1
			},
			"evm": {
				"assembly": "    /* \"contracts/Struct.sol\":61:870  contract Struct {... */\n  mstore(0x40, 0x80)\n  callvalue\n  dup1\n  iszero\n  tag_1\n  jumpi\n  revert(0x00, 0x00)\ntag_1:\n  pop\n  dataSize(sub_0)\n  dup1\n  dataOffset(sub_0)\n  0x00\n  codecopy\n  0x00\n  return\nstop\n\nsub_0: assembly {\n        /* \"contracts/Struct.sol\":61:870  contract Struct {... */\n      mstore(0x40, 0x80)\n      callvalue\n      dup1\n      iszero\n      tag_1\n      jumpi\n      revert(0x00, 0x00)\n    tag_1:\n      pop\n      jumpi(tag_2, lt(calldatasize, 0x04))\n      shr(0xe0, calldataload(0x00))\n      dup1\n      0x06ead22e\n      eq\n      tag_3\n      jumpi\n      dup1\n      0x642f9163\n      eq\n      tag_4\n      jumpi\n      dup1\n      0x9150b939\n      eq\n      tag_5\n      jumpi\n      dup1\n      0xc1bea1db\n      eq\n      tag_6\n      jumpi\n    tag_2:\n      revert(0x00, 0x00)\n        /* \"contracts/Struct.sol\":205:245  mapping(uint => Student) public students */\n    tag_3:\n      tag_7\n      0x04\n      dup1\n      calldatasize\n      sub\n      dup2\n      add\n      swap1\n      tag_8\n      swap2\n      swap1\n      tag_9\n      jump\t// in\n    tag_8:\n      tag_10\n      jump\t// in\n    tag_7:\n      mload(0x40)\n      tag_11\n      swap5\n      swap4\n      swap3\n      swap2\n      swap1\n      tag_12\n      jump\t// in\n    tag_11:\n      mload(0x40)\n      dup1\n      swap2\n      sub\n      swap1\n      return\n        /* \"contracts/Struct.sol\":602:867  function getStudent(uint _id) external view returns(string memory, uint, address, bool){... */\n    tag_4:\n      tag_13\n      0x04\n      dup1\n      calldatasize\n      sub\n      dup2\n      add\n      swap1\n      tag_14\n      swap2\n      swap1\n      tag_9\n      jump\t// in\n    tag_14:\n      tag_15\n      jump\t// in\n    tag_13:\n      mload(0x40)\n      tag_16\n      swap5\n      swap4\n      swap3\n      swap2\n      swap1\n      tag_12\n      jump\t// in\n    tag_16:\n      mload(0x40)\n      dup1\n      swap2\n      sub\n      swap1\n      return\n        /* \"contracts/Struct.sol\":500:594  function updateEnrollment(uint _id) external {... */\n    tag_5:\n      tag_17\n      0x04\n      dup1\n      calldatasize\n      sub\n      dup2\n      add\n      swap1\n      tag_18\n      swap2\n      swap1\n      tag_9\n      jump\t// in\n    tag_18:\n      tag_19\n      jump\t// in\n    tag_17:\n      stop\n        /* \"contracts/Struct.sol\":254:492  function addStudent(uint _id, string memory _name, uint _age) external {... */\n    tag_6:\n      tag_20\n      0x04\n      dup1\n      calldatasize\n      sub\n      dup2\n      add\n      swap1\n      tag_21\n      swap2\n      swap1\n      tag_22\n      jump\t// in\n    tag_21:\n      tag_23\n      jump\t// in\n    tag_20:\n      stop\n        /* \"contracts/Struct.sol\":205:245  mapping(uint => Student) public students */\n    tag_10:\n      mstore(0x20, 0x00)\n      dup1\n      0x00\n      mstore\n      keccak256(0x00, 0x40)\n      0x00\n      swap2\n      pop\n      swap1\n      pop\n      dup1\n      0x00\n      add\n      dup1\n      sload\n      tag_24\n      swap1\n      tag_25\n      jump\t// in\n    tag_24:\n      dup1\n      0x1f\n      add\n      0x20\n      dup1\n      swap2\n      div\n      mul\n      0x20\n      add\n      mload(0x40)\n      swap1\n      dup2\n      add\n      0x40\n      mstore\n      dup1\n      swap3\n      swap2\n      swap1\n      dup2\n      dup2\n      mstore\n      0x20\n      add\n      dup3\n      dup1\n      sload\n      tag_26\n      swap1\n      tag_25\n      jump\t// in\n    tag_26:\n      dup1\n      iszero\n      tag_27\n      jumpi\n      dup1\n      0x1f\n      lt\n      tag_28\n      jumpi\n      0x0100\n      dup1\n      dup4\n      sload\n      div\n      mul\n      dup4\n      mstore\n      swap2\n      0x20\n      add\n      swap2\n      jump(tag_27)\n    tag_28:\n      dup3\n      add\n      swap2\n      swap1\n      0x00\n      mstore\n      keccak256(0x00, 0x20)\n      swap1\n    tag_29:\n      dup2\n      sload\n      dup2\n      mstore\n      swap1\n      0x01\n      add\n      swap1\n      0x20\n      add\n      dup1\n      dup4\n      gt\n      tag_29\n      jumpi\n      dup3\n      swap1\n      sub\n      0x1f\n      and\n      dup3\n      add\n      swap2\n    tag_27:\n      pop\n      pop\n      pop\n      pop\n      pop\n      swap1\n      dup1\n      0x01\n      add\n      sload\n      swap1\n      dup1\n      0x02\n      add\n      0x00\n      swap1\n      sload\n      swap1\n      0x0100\n      exp\n      swap1\n      div\n      0xffffffffffffffffffffffffffffffffffffffff\n      and\n      swap1\n      dup1\n      0x02\n      add\n      0x14\n      swap1\n      sload\n      swap1\n      0x0100\n      exp\n      swap1\n      div\n      0xff\n      and\n      swap1\n      pop\n      dup5\n      jump\t// out\n        /* \"contracts/Struct.sol\":602:867  function getStudent(uint _id) external view returns(string memory, uint, address, bool){... */\n    tag_15:\n        /* \"contracts/Struct.sol\":654:667  string memory */\n      0x60\n        /* \"contracts/Struct.sol\":669:673  uint */\n      0x00\n        /* \"contracts/Struct.sol\":675:682  address */\n      0x00\n        /* \"contracts/Struct.sol\":684:688  bool */\n      0x00\n        /* \"contracts/Struct.sol\":722:730  students */\n      0x00\n        /* \"contracts/Struct.sol\":722:735  students[_id] */\n      0x00\n        /* \"contracts/Struct.sol\":731:734  _id */\n      dup7\n        /* \"contracts/Struct.sol\":722:735  students[_id] */\n      dup2\n      mstore\n      0x20\n      add\n      swap1\n      dup2\n      mstore\n      0x20\n      add\n      0x00\n      keccak256\n        /* \"contracts/Struct.sol\":722:740  students[_id].name */\n      0x00\n      add\n        /* \"contracts/Struct.sol\":755:763  students */\n      0x00\n        /* \"contracts/Struct.sol\":755:768  students[_id] */\n      0x00\n        /* \"contracts/Struct.sol\":764:767  _id */\n      dup8\n        /* \"contracts/Struct.sol\":755:768  students[_id] */\n      dup2\n      mstore\n      0x20\n      add\n      swap1\n      dup2\n      mstore\n      0x20\n      add\n      0x00\n      keccak256\n        /* \"contracts/Struct.sol\":755:772  students[_id].age */\n      0x01\n      add\n      sload\n        /* \"contracts/Struct.sol\":787:795  students */\n      0x00\n        /* \"contracts/Struct.sol\":787:800  students[_id] */\n      0x00\n        /* \"contracts/Struct.sol\":796:799  _id */\n      dup9\n        /* \"contracts/Struct.sol\":787:800  students[_id] */\n      dup2\n      mstore\n      0x20\n      add\n      swap1\n      dup2\n      mstore\n      0x20\n      add\n      0x00\n      keccak256\n        /* \"contracts/Struct.sol\":787:807  students[_id].wallet */\n      0x02\n      add\n      0x00\n      swap1\n      sload\n      swap1\n      0x0100\n      exp\n      swap1\n      div\n      0xffffffffffffffffffffffffffffffffffffffff\n      and\n        /* \"contracts/Struct.sol\":822:830  students */\n      0x00\n        /* \"contracts/Struct.sol\":822:835  students[_id] */\n      0x00\n        /* \"contracts/Struct.sol\":831:834  _id */\n      dup10\n        /* \"contracts/Struct.sol\":822:835  students[_id] */\n      dup2\n      mstore\n      0x20\n      add\n      swap1\n      dup2\n      mstore\n      0x20\n      add\n      0x00\n      keccak256\n        /* \"contracts/Struct.sol\":822:844  students[_id].enrolled */\n      0x02\n      add\n      0x14\n      swap1\n      sload\n      swap1\n      0x0100\n      exp\n      swap1\n      div\n      0xff\n      and\n        /* \"contracts/Struct.sol\":700:859  return (... */\n      dup4\n      dup1\n      sload\n      tag_31\n      swap1\n      tag_25\n      jump\t// in\n    tag_31:\n      dup1\n      0x1f\n      add\n      0x20\n      dup1\n      swap2\n      div\n      mul\n      0x20\n      add\n      mload(0x40)\n      swap1\n      dup2\n      add\n      0x40\n      mstore\n      dup1\n      swap3\n      swap2\n      swap1\n      dup2\n      dup2\n      mstore\n      0x20\n      add\n      dup3\n      dup1\n      sload\n      tag_32\n      swap1\n      tag_25\n      jump\t// in\n    tag_32:\n      dup1\n      iszero\n      tag_33\n      jumpi\n      dup1\n      0x1f\n      lt\n      tag_34\n      jumpi\n      0x0100\n      dup1\n      dup4\n      sload\n      div\n      mul\n      dup4\n      mstore\n      swap2\n      0x20\n      add\n      swap2\n      jump(tag_33)\n    tag_34:\n      dup3\n      add\n      swap2\n      swap1\n      0x00\n      mstore\n      keccak256(0x00, 0x20)\n      swap1\n    tag_35:\n      dup2\n      sload\n      dup2\n      mstore\n      swap1\n      0x01\n      add\n      swap1\n      0x20\n      add\n      dup1\n      dup4\n      gt\n      tag_35\n      jumpi\n      dup3\n      swap1\n      sub\n      0x1f\n      and\n      dup3\n      add\n      swap2\n    tag_33:\n      pop\n      pop\n      pop\n      pop\n      pop\n      swap4\n      pop\n      swap4\n      pop\n      swap4\n      pop\n      swap4\n      pop\n      swap4\n      pop\n        /* \"contracts/Struct.sol\":602:867  function getStudent(uint _id) external view returns(string memory, uint, address, bool){... */\n      swap2\n      swap4\n      pop\n      swap2\n      swap4\n      jump\t// out\n        /* \"contracts/Struct.sol\":500:594  function updateEnrollment(uint _id) external {... */\n    tag_19:\n        /* \"contracts/Struct.sol\":581:586  false */\n      0x00\n        /* \"contracts/Struct.sol\":556:564  students */\n      0x00\n        /* \"contracts/Struct.sol\":556:569  students[_id] */\n      0x00\n        /* \"contracts/Struct.sol\":565:568  _id */\n      dup4\n        /* \"contracts/Struct.sol\":556:569  students[_id] */\n      dup2\n      mstore\n      0x20\n      add\n      swap1\n      dup2\n      mstore\n      0x20\n      add\n      0x00\n      keccak256\n        /* \"contracts/Struct.sol\":556:578  students[_id].enrolled */\n      0x02\n      add\n      0x14\n        /* \"contracts/Struct.sol\":556:586  students[_id].enrolled = false */\n      0x0100\n      exp\n      dup2\n      sload\n      dup2\n      0xff\n      mul\n      not\n      and\n      swap1\n      dup4\n      iszero\n      iszero\n      mul\n      or\n      swap1\n      sstore\n      pop\n        /* \"contracts/Struct.sol\":500:594  function updateEnrollment(uint _id) external {... */\n      pop\n      jump\t// out\n        /* \"contracts/Struct.sol\":254:492  function addStudent(uint _id, string memory _name, uint _age) external {... */\n    tag_23:\n        /* \"contracts/Struct.sol\":352:484  Student({... */\n      mload(0x40)\n      dup1\n      0x80\n      add\n      0x40\n      mstore\n      dup1\n        /* \"contracts/Struct.sol\":381:386  _name */\n      dup4\n        /* \"contracts/Struct.sol\":352:484  Student({... */\n      dup2\n      mstore\n      0x20\n      add\n        /* \"contracts/Struct.sol\":406:410  _age */\n      dup3\n        /* \"contracts/Struct.sol\":352:484  Student({... */\n      dup2\n      mstore\n      0x20\n      add\n        /* \"contracts/Struct.sol\":433:443  msg.sender */\n      caller\n        /* \"contracts/Struct.sol\":352:484  Student({... */\n      0xffffffffffffffffffffffffffffffffffffffff\n      and\n      dup2\n      mstore\n      0x20\n      add\n        /* \"contracts/Struct.sol\":468:472  true */\n      0x01\n        /* \"contracts/Struct.sol\":352:484  Student({... */\n      iszero\n      iszero\n      dup2\n      mstore\n      pop\n        /* \"contracts/Struct.sol\":336:344  students */\n      0x00\n        /* \"contracts/Struct.sol\":336:349  students[_id] */\n      0x00\n        /* \"contracts/Struct.sol\":345:348  _id */\n      dup6\n        /* \"contracts/Struct.sol\":336:349  students[_id] */\n      dup2\n      mstore\n      0x20\n      add\n      swap1\n      dup2\n      mstore\n      0x20\n      add\n      0x00\n      keccak256\n        /* \"contracts/Struct.sol\":336:484  students[_id] = Student({... */\n      0x00\n      dup3\n      add\n      mload\n      dup2\n      0x00\n      add\n      swap1\n      dup2\n      tag_38\n      swap2\n      swap1\n      tag_39\n      jump\t// in\n    tag_38:\n      pop\n      0x20\n      dup3\n      add\n      mload\n      dup2\n      0x01\n      add\n      sstore\n      0x40\n      dup3\n      add\n      mload\n      dup2\n      0x02\n      add\n      exp(0x0100, 0x00)\n      dup2\n      sload\n      dup2\n      0xffffffffffffffffffffffffffffffffffffffff\n      mul\n      not\n      and\n      swap1\n      dup4\n      0xffffffffffffffffffffffffffffffffffffffff\n      and\n      mul\n      or\n      swap1\n      sstore\n      pop\n      0x60\n      dup3\n      add\n      mload\n      dup2\n      0x02\n      add\n      exp(0x0100, 0x14)\n      dup2\n      sload\n      dup2\n      0xff\n      mul\n      not\n      and\n      swap1\n      dup4\n      iszero\n      iszero\n      mul\n      or\n      swap1\n      sstore\n      pop\n      swap1\n      pop\n      pop\n        /* \"contracts/Struct.sol\":254:492  function addStudent(uint _id, string memory _name, uint _age) external {... */\n      pop\n      pop\n      pop\n      jump\t// out\n        /* \"#utility.yul\":7:82   */\n    tag_40:\n        /* \"#utility.yul\":40:46   */\n      0x00\n        /* \"#utility.yul\":73:75   */\n      0x40\n        /* \"#utility.yul\":67:76   */\n      mload\n        /* \"#utility.yul\":57:76   */\n      swap1\n      pop\n        /* \"#utility.yul\":7:82   */\n      swap1\n      jump\t// out\n        /* \"#utility.yul\":88:205   */\n    tag_41:\n        /* \"#utility.yul\":197:198   */\n      0x00\n        /* \"#utility.yul\":194:195   */\n      0x00\n        /* \"#utility.yul\":187:199   */\n      revert\n        /* \"#utility.yul\":211:328   */\n    tag_42:\n        /* \"#utility.yul\":320:321   */\n      0x00\n        /* \"#utility.yul\":317:318   */\n      0x00\n        /* \"#utility.yul\":310:322   */\n      revert\n        /* \"#utility.yul\":334:411   */\n    tag_43:\n        /* \"#utility.yul\":371:378   */\n      0x00\n        /* \"#utility.yul\":400:405   */\n      dup2\n        /* \"#utility.yul\":389:405   */\n      swap1\n      pop\n        /* \"#utility.yul\":334:411   */\n      swap2\n      swap1\n      pop\n      jump\t// out\n        /* \"#utility.yul\":417:539   */\n    tag_44:\n        /* \"#utility.yul\":490:514   */\n      tag_88\n        /* \"#utility.yul\":508:513   */\n      dup2\n        /* \"#utility.yul\":490:514   */\n      tag_43\n      jump\t// in\n    tag_88:\n        /* \"#utility.yul\":483:488   */\n      dup2\n        /* \"#utility.yul\":480:515   */\n      eq\n        /* \"#utility.yul\":470:533   */\n      tag_89\n      jumpi\n        /* \"#utility.yul\":529:530   */\n      0x00\n        /* \"#utility.yul\":526:527   */\n      0x00\n        /* \"#utility.yul\":519:531   */\n      revert\n        /* \"#utility.yul\":470:533   */\n    tag_89:\n        /* \"#utility.yul\":417:539   */\n      pop\n      jump\t// out\n        /* \"#utility.yul\":545:684   */\n    tag_45:\n        /* \"#utility.yul\":591:596   */\n      0x00\n        /* \"#utility.yul\":629:635   */\n      dup2\n        /* \"#utility.yul\":616:636   */\n      calldataload\n        /* \"#utility.yul\":607:636   */\n      swap1\n      pop\n        /* \"#utility.yul\":645:678   */\n      tag_91\n        /* \"#utility.yul\":672:677   */\n      dup2\n        /* \"#utility.yul\":645:678   */\n      tag_44\n      jump\t// in\n    tag_91:\n        /* \"#utility.yul\":545:684   */\n      swap3\n      swap2\n      pop\n      pop\n      jump\t// out\n        /* \"#utility.yul\":690:1019   */\n    tag_9:\n        /* \"#utility.yul\":749:755   */\n      0x00\n        /* \"#utility.yul\":798:800   */\n      0x20\n        /* \"#utility.yul\":786:795   */\n      dup3\n        /* \"#utility.yul\":777:784   */\n      dup5\n        /* \"#utility.yul\":773:796   */\n      sub\n        /* \"#utility.yul\":769:801   */\n      slt\n        /* \"#utility.yul\":766:885   */\n      iszero\n      tag_93\n      jumpi\n        /* \"#utility.yul\":804:883   */\n      tag_94\n      tag_41\n      jump\t// in\n    tag_94:\n        /* \"#utility.yul\":766:885   */\n    tag_93:\n        /* \"#utility.yul\":924:925   */\n      0x00\n        /* \"#utility.yul\":949:1002   */\n      tag_95\n        /* \"#utility.yul\":994:1001   */\n      dup5\n        /* \"#utility.yul\":985:991   */\n      dup3\n        /* \"#utility.yul\":974:983   */\n      dup6\n        /* \"#utility.yul\":970:992   */\n      add\n        /* \"#utility.yul\":949:1002   */\n      tag_45\n      jump\t// in\n    tag_95:\n        /* \"#utility.yul\":939:1002   */\n      swap2\n      pop\n        /* \"#utility.yul\":895:1012   */\n      pop\n        /* \"#utility.yul\":690:1019   */\n      swap3\n      swap2\n      pop\n      pop\n      jump\t// out\n        /* \"#utility.yul\":1025:1124   */\n    tag_46:\n        /* \"#utility.yul\":1077:1083   */\n      0x00\n        /* \"#utility.yul\":1111:1116   */\n      dup2\n        /* \"#utility.yul\":1105:1117   */\n      mload\n        /* \"#utility.yul\":1095:1117   */\n      swap1\n      pop\n        /* \"#utility.yul\":1025:1124   */\n      swap2\n      swap1\n      pop\n      jump\t// out\n        /* \"#utility.yul\":1130:1299   */\n    tag_47:\n        /* \"#utility.yul\":1214:1225   */\n      0x00\n        /* \"#utility.yul\":1248:1254   */\n      dup3\n        /* \"#utility.yul\":1243:1246   */\n      dup3\n        /* \"#utility.yul\":1236:1255   */\n      mstore\n        /* \"#utility.yul\":1288:1292   */\n      0x20\n        /* \"#utility.yul\":1283:1286   */\n      dup3\n        /* \"#utility.yul\":1279:1293   */\n      add\n        /* \"#utility.yul\":1264:1293   */\n      swap1\n      pop\n        /* \"#utility.yul\":1130:1299   */\n      swap3\n      swap2\n      pop\n      pop\n      jump\t// out\n        /* \"#utility.yul\":1305:1444   */\n    tag_48:\n        /* \"#utility.yul\":1394:1400   */\n      dup3\n        /* \"#utility.yul\":1389:1392   */\n      dup2\n        /* \"#utility.yul\":1384:1387   */\n      dup4\n        /* \"#utility.yul\":1378:1401   */\n      mcopy\n        /* \"#utility.yul\":1435:1436   */\n      0x00\n        /* \"#utility.yul\":1426:1432   */\n      dup4\n        /* \"#utility.yul\":1421:1424   */\n      dup4\n        /* \"#utility.yul\":1417:1433   */\n      add\n        /* \"#utility.yul\":1410:1437   */\n      mstore\n        /* \"#utility.yul\":1305:1444   */\n      pop\n      pop\n      pop\n      jump\t// out\n        /* \"#utility.yul\":1450:1552   */\n    tag_49:\n        /* \"#utility.yul\":1491:1497   */\n      0x00\n        /* \"#utility.yul\":1542:1544   */\n      0x1f\n        /* \"#utility.yul\":1538:1545   */\n      not\n        /* \"#utility.yul\":1533:1535   */\n      0x1f\n        /* \"#utility.yul\":1526:1531   */\n      dup4\n        /* \"#utility.yul\":1522:1536   */\n      add\n        /* \"#utility.yul\":1518:1546   */\n      and\n        /* \"#utility.yul\":1508:1546   */\n      swap1\n      pop\n        /* \"#utility.yul\":1450:1552   */\n      swap2\n      swap1\n      pop\n      jump\t// out\n        /* \"#utility.yul\":1558:1935   */\n    tag_50:\n        /* \"#utility.yul\":1646:1649   */\n      0x00\n        /* \"#utility.yul\":1674:1713   */\n      tag_101\n        /* \"#utility.yul\":1707:1712   */\n      dup3\n        /* \"#utility.yul\":1674:1713   */\n      tag_46\n      jump\t// in\n    tag_101:\n        /* \"#utility.yul\":1729:1800   */\n      tag_102\n        /* \"#utility.yul\":1793:1799   */\n      dup2\n        /* \"#utility.yul\":1788:1791   */\n      dup6\n        /* \"#utility.yul\":1729:1800   */\n      tag_47\n      jump\t// in\n    tag_102:\n        /* \"#utility.yul\":1722:1800   */\n      swap4\n      pop\n        /* \"#utility.yul\":1809:1874   */\n      tag_103\n        /* \"#utility.yul\":1867:1873   */\n      dup2\n        /* \"#utility.yul\":1862:1865   */\n      dup6\n        /* \"#utility.yul\":1855:1859   */\n      0x20\n        /* \"#utility.yul\":1848:1853   */\n      dup7\n        /* \"#utility.yul\":1844:1860   */\n      add\n        /* \"#utility.yul\":1809:1874   */\n      tag_48\n      jump\t// in\n    tag_103:\n        /* \"#utility.yul\":1899:1928   */\n      tag_104\n        /* \"#utility.yul\":1921:1927   */\n      dup2\n        /* \"#utility.yul\":1899:1928   */\n      tag_49\n      jump\t// in\n    tag_104:\n        /* \"#utility.yul\":1894:1897   */\n      dup5\n        /* \"#utility.yul\":1890:1929   */\n      add\n        /* \"#utility.yul\":1883:1929   */\n      swap2\n      pop\n        /* \"#utility.yul\":1650:1935   */\n      pop\n        /* \"#utility.yul\":1558:1935   */\n      swap3\n      swap2\n      pop\n      pop\n      jump\t// out\n        /* \"#utility.yul\":1941:2059   */\n    tag_51:\n        /* \"#utility.yul\":2028:2052   */\n      tag_106\n        /* \"#utility.yul\":2046:2051   */\n      dup2\n        /* \"#utility.yul\":2028:2052   */\n      tag_43\n      jump\t// in\n    tag_106:\n        /* \"#utility.yul\":2023:2026   */\n      dup3\n        /* \"#utility.yul\":2016:2053   */\n      mstore\n        /* \"#utility.yul\":1941:2059   */\n      pop\n      pop\n      jump\t// out\n        /* \"#utility.yul\":2065:2191   */\n    tag_52:\n        /* \"#utility.yul\":2102:2109   */\n      0x00\n        /* \"#utility.yul\":2142:2184   */\n      0xffffffffffffffffffffffffffffffffffffffff\n        /* \"#utility.yul\":2135:2140   */\n      dup3\n        /* \"#utility.yul\":2131:2185   */\n      and\n        /* \"#utility.yul\":2120:2185   */\n      swap1\n      pop\n        /* \"#utility.yul\":2065:2191   */\n      swap2\n      swap1\n      pop\n      jump\t// out\n        /* \"#utility.yul\":2197:2293   */\n    tag_53:\n        /* \"#utility.yul\":2234:2241   */\n      0x00\n        /* \"#utility.yul\":2263:2287   */\n      tag_109\n        /* \"#utility.yul\":2281:2286   */\n      dup3\n        /* \"#utility.yul\":2263:2287   */\n      tag_52\n      jump\t// in\n    tag_109:\n        /* \"#utility.yul\":2252:2287   */\n      swap1\n      pop\n        /* \"#utility.yul\":2197:2293   */\n      swap2\n      swap1\n      pop\n      jump\t// out\n        /* \"#utility.yul\":2299:2417   */\n    tag_54:\n        /* \"#utility.yul\":2386:2410   */\n      tag_111\n        /* \"#utility.yul\":2404:2409   */\n      dup2\n        /* \"#utility.yul\":2386:2410   */\n      tag_53\n      jump\t// in\n    tag_111:\n        /* \"#utility.yul\":2381:2384   */\n      dup3\n        /* \"#utility.yul\":2374:2411   */\n      mstore\n        /* \"#utility.yul\":2299:2417   */\n      pop\n      pop\n      jump\t// out\n        /* \"#utility.yul\":2423:2513   */\n    tag_55:\n        /* \"#utility.yul\":2457:2464   */\n      0x00\n        /* \"#utility.yul\":2500:2505   */\n      dup2\n        /* \"#utility.yul\":2493:2506   */\n      iszero\n        /* \"#utility.yul\":2486:2507   */\n      iszero\n        /* \"#utility.yul\":2475:2507   */\n      swap1\n      pop\n        /* \"#utility.yul\":2423:2513   */\n      swap2\n      swap1\n      pop\n      jump\t// out\n        /* \"#utility.yul\":2519:2628   */\n    tag_56:\n        /* \"#utility.yul\":2600:2621   */\n      tag_114\n        /* \"#utility.yul\":2615:2620   */\n      dup2\n        /* \"#utility.yul\":2600:2621   */\n      tag_55\n      jump\t// in\n    tag_114:\n        /* \"#utility.yul\":2595:2598   */\n      dup3\n        /* \"#utility.yul\":2588:2622   */\n      mstore\n        /* \"#utility.yul\":2519:2628   */\n      pop\n      pop\n      jump\t// out\n        /* \"#utility.yul\":2634:3266   */\n    tag_12:\n        /* \"#utility.yul\":2825:2829   */\n      0x00\n        /* \"#utility.yul\":2863:2866   */\n      0x80\n        /* \"#utility.yul\":2852:2861   */\n      dup3\n        /* \"#utility.yul\":2848:2867   */\n      add\n        /* \"#utility.yul\":2840:2867   */\n      swap1\n      pop\n        /* \"#utility.yul\":2913:2922   */\n      dup2\n        /* \"#utility.yul\":2907:2911   */\n      dup2\n        /* \"#utility.yul\":2903:2923   */\n      sub\n        /* \"#utility.yul\":2899:2900   */\n      0x00\n        /* \"#utility.yul\":2888:2897   */\n      dup4\n        /* \"#utility.yul\":2884:2901   */\n      add\n        /* \"#utility.yul\":2877:2924   */\n      mstore\n        /* \"#utility.yul\":2941:3019   */\n      tag_116\n        /* \"#utility.yul\":3014:3018   */\n      dup2\n        /* \"#utility.yul\":3005:3011   */\n      dup8\n        /* \"#utility.yul\":2941:3019   */\n      tag_50\n      jump\t// in\n    tag_116:\n        /* \"#utility.yul\":2933:3019   */\n      swap1\n      pop\n        /* \"#utility.yul\":3029:3101   */\n      tag_117\n        /* \"#utility.yul\":3097:3099   */\n      0x20\n        /* \"#utility.yul\":3086:3095   */\n      dup4\n        /* \"#utility.yul\":3082:3100   */\n      add\n        /* \"#utility.yul\":3073:3079   */\n      dup7\n        /* \"#utility.yul\":3029:3101   */\n      tag_51\n      jump\t// in\n    tag_117:\n        /* \"#utility.yul\":3111:3183   */\n      tag_118\n        /* \"#utility.yul\":3179:3181   */\n      0x40\n        /* \"#utility.yul\":3168:3177   */\n      dup4\n        /* \"#utility.yul\":3164:3182   */\n      add\n        /* \"#utility.yul\":3155:3161   */\n      dup6\n        /* \"#utility.yul\":3111:3183   */\n      tag_54\n      jump\t// in\n    tag_118:\n        /* \"#utility.yul\":3193:3259   */\n      tag_119\n        /* \"#utility.yul\":3255:3257   */\n      0x60\n        /* \"#utility.yul\":3244:3253   */\n      dup4\n        /* \"#utility.yul\":3240:3258   */\n      add\n        /* \"#utility.yul\":3231:3237   */\n      dup5\n        /* \"#utility.yul\":3193:3259   */\n      tag_56\n      jump\t// in\n    tag_119:\n        /* \"#utility.yul\":2634:3266   */\n      swap6\n      swap5\n      pop\n      pop\n      pop\n      pop\n      pop\n      jump\t// out\n        /* \"#utility.yul\":3272:3389   */\n    tag_57:\n        /* \"#utility.yul\":3381:3382   */\n      0x00\n        /* \"#utility.yul\":3378:3379   */\n      0x00\n        /* \"#utility.yul\":3371:3383   */\n      revert\n        /* \"#utility.yul\":3395:3512   */\n    tag_58:\n        /* \"#utility.yul\":3504:3505   */\n      0x00\n        /* \"#utility.yul\":3501:3502   */\n      0x00\n        /* \"#utility.yul\":3494:3506   */\n      revert\n        /* \"#utility.yul\":3518:3698   */\n    tag_59:\n        /* \"#utility.yul\":3566:3643   */\n      0x4e487b7100000000000000000000000000000000000000000000000000000000\n        /* \"#utility.yul\":3563:3564   */\n      0x00\n        /* \"#utility.yul\":3556:3644   */\n      mstore\n        /* \"#utility.yul\":3663:3667   */\n      0x41\n        /* \"#utility.yul\":3660:3661   */\n      0x04\n        /* \"#utility.yul\":3653:3668   */\n      mstore\n        /* \"#utility.yul\":3687:3691   */\n      0x24\n        /* \"#utility.yul\":3684:3685   */\n      0x00\n        /* \"#utility.yul\":3677:3692   */\n      revert\n        /* \"#utility.yul\":3704:3985   */\n    tag_60:\n        /* \"#utility.yul\":3787:3814   */\n      tag_124\n        /* \"#utility.yul\":3809:3813   */\n      dup3\n        /* \"#utility.yul\":3787:3814   */\n      tag_49\n      jump\t// in\n    tag_124:\n        /* \"#utility.yul\":3779:3785   */\n      dup2\n        /* \"#utility.yul\":3775:3815   */\n      add\n        /* \"#utility.yul\":3917:3923   */\n      dup2\n        /* \"#utility.yul\":3905:3915   */\n      dup2\n        /* \"#utility.yul\":3902:3924   */\n      lt\n        /* \"#utility.yul\":3881:3899   */\n      0xffffffffffffffff\n        /* \"#utility.yul\":3869:3879   */\n      dup3\n        /* \"#utility.yul\":3866:3900   */\n      gt\n        /* \"#utility.yul\":3863:3925   */\n      or\n        /* \"#utility.yul\":3860:3948   */\n      iszero\n      tag_125\n      jumpi\n        /* \"#utility.yul\":3928:3946   */\n      tag_126\n      tag_59\n      jump\t// in\n    tag_126:\n        /* \"#utility.yul\":3860:3948   */\n    tag_125:\n        /* \"#utility.yul\":3968:3978   */\n      dup1\n        /* \"#utility.yul\":3964:3966   */\n      0x40\n        /* \"#utility.yul\":3957:3979   */\n      mstore\n        /* \"#utility.yul\":3747:3985   */\n      pop\n        /* \"#utility.yul\":3704:3985   */\n      pop\n      pop\n      jump\t// out\n        /* \"#utility.yul\":3991:4120   */\n    tag_61:\n        /* \"#utility.yul\":4025:4031   */\n      0x00\n        /* \"#utility.yul\":4052:4072   */\n      tag_128\n      tag_40\n      jump\t// in\n    tag_128:\n        /* \"#utility.yul\":4042:4072   */\n      swap1\n      pop\n        /* \"#utility.yul\":4081:4114   */\n      tag_129\n        /* \"#utility.yul\":4109:4113   */\n      dup3\n        /* \"#utility.yul\":4101:4107   */\n      dup3\n        /* \"#utility.yul\":4081:4114   */\n      tag_60\n      jump\t// in\n    tag_129:\n        /* \"#utility.yul\":3991:4120   */\n      swap2\n      swap1\n      pop\n      jump\t// out\n        /* \"#utility.yul\":4126:4434   */\n    tag_62:\n        /* \"#utility.yul\":4188:4192   */\n      0x00\n        /* \"#utility.yul\":4278:4296   */\n      0xffffffffffffffff\n        /* \"#utility.yul\":4270:4276   */\n      dup3\n        /* \"#utility.yul\":4267:4297   */\n      gt\n        /* \"#utility.yul\":4264:4320   */\n      iszero\n      tag_131\n      jumpi\n        /* \"#utility.yul\":4300:4318   */\n      tag_132\n      tag_59\n      jump\t// in\n    tag_132:\n        /* \"#utility.yul\":4264:4320   */\n    tag_131:\n        /* \"#utility.yul\":4338:4367   */\n      tag_133\n        /* \"#utility.yul\":4360:4366   */\n      dup3\n        /* \"#utility.yul\":4338:4367   */\n      tag_49\n      jump\t// in\n    tag_133:\n        /* \"#utility.yul\":4330:4367   */\n      swap1\n      pop\n        /* \"#utility.yul\":4422:4426   */\n      0x20\n        /* \"#utility.yul\":4416:4420   */\n      dup2\n        /* \"#utility.yul\":4412:4427   */\n      add\n        /* \"#utility.yul\":4404:4427   */\n      swap1\n      pop\n        /* \"#utility.yul\":4126:4434   */\n      swap2\n      swap1\n      pop\n      jump\t// out\n        /* \"#utility.yul\":4440:4588   */\n    tag_63:\n        /* \"#utility.yul\":4538:4544   */\n      dup3\n        /* \"#utility.yul\":4533:4536   */\n      dup2\n        /* \"#utility.yul\":4528:4531   */\n      dup4\n        /* \"#utility.yul\":4515:4545   */\n      calldatacopy\n        /* \"#utility.yul\":4579:4580   */\n      0x00\n        /* \"#utility.yul\":4570:4576   */\n      dup4\n        /* \"#utility.yul\":4565:4568   */\n      dup4\n        /* \"#utility.yul\":4561:4577   */\n      add\n        /* \"#utility.yul\":4554:4581   */\n      mstore\n        /* \"#utility.yul\":4440:4588   */\n      pop\n      pop\n      pop\n      jump\t// out\n        /* \"#utility.yul\":4594:5019   */\n    tag_64:\n        /* \"#utility.yul\":4672:4677   */\n      0x00\n        /* \"#utility.yul\":4697:4763   */\n      tag_136\n        /* \"#utility.yul\":4713:4762   */\n      tag_137\n        /* \"#utility.yul\":4755:4761   */\n      dup5\n        /* \"#utility.yul\":4713:4762   */\n      tag_62\n      jump\t// in\n    tag_137:\n        /* \"#utility.yul\":4697:4763   */\n      tag_61\n      jump\t// in\n    tag_136:\n        /* \"#utility.yul\":4688:4763   */\n      swap1\n      pop\n        /* \"#utility.yul\":4786:4792   */\n      dup3\n        /* \"#utility.yul\":4779:4784   */\n      dup2\n        /* \"#utility.yul\":4772:4793   */\n      mstore\n        /* \"#utility.yul\":4824:4828   */\n      0x20\n        /* \"#utility.yul\":4817:4822   */\n      dup2\n        /* \"#utility.yul\":4813:4829   */\n      add\n        /* \"#utility.yul\":4862:4865   */\n      dup5\n        /* \"#utility.yul\":4853:4859   */\n      dup5\n        /* \"#utility.yul\":4848:4851   */\n      dup5\n        /* \"#utility.yul\":4844:4860   */\n      add\n        /* \"#utility.yul\":4841:4866   */\n      gt\n        /* \"#utility.yul\":4838:4950   */\n      iszero\n      tag_138\n      jumpi\n        /* \"#utility.yul\":4869:4948   */\n      tag_139\n      tag_58\n      jump\t// in\n    tag_139:\n        /* \"#utility.yul\":4838:4950   */\n    tag_138:\n        /* \"#utility.yul\":4959:5013   */\n      tag_140\n        /* \"#utility.yul\":5006:5012   */\n      dup5\n        /* \"#utility.yul\":5001:5004   */\n      dup3\n        /* \"#utility.yul\":4996:4999   */\n      dup6\n        /* \"#utility.yul\":4959:5013   */\n      tag_63\n      jump\t// in\n    tag_140:\n        /* \"#utility.yul\":4678:5019   */\n      pop\n        /* \"#utility.yul\":4594:5019   */\n      swap4\n      swap3\n      pop\n      pop\n      pop\n      jump\t// out\n        /* \"#utility.yul\":5039:5379   */\n    tag_65:\n        /* \"#utility.yul\":5095:5100   */\n      0x00\n        /* \"#utility.yul\":5144:5147   */\n      dup3\n        /* \"#utility.yul\":5137:5141   */\n      0x1f\n        /* \"#utility.yul\":5129:5135   */\n      dup4\n        /* \"#utility.yul\":5125:5142   */\n      add\n        /* \"#utility.yul\":5121:5148   */\n      slt\n        /* \"#utility.yul\":5111:5233   */\n      tag_142\n      jumpi\n        /* \"#utility.yul\":5152:5231   */\n      tag_143\n      tag_57\n      jump\t// in\n    tag_143:\n        /* \"#utility.yul\":5111:5233   */\n    tag_142:\n        /* \"#utility.yul\":5269:5275   */\n      dup2\n        /* \"#utility.yul\":5256:5276   */\n      calldataload\n        /* \"#utility.yul\":5294:5373   */\n      tag_144\n        /* \"#utility.yul\":5369:5372   */\n      dup5\n        /* \"#utility.yul\":5361:5367   */\n      dup3\n        /* \"#utility.yul\":5354:5358   */\n      0x20\n        /* \"#utility.yul\":5346:5352   */\n      dup7\n        /* \"#utility.yul\":5342:5359   */\n      add\n        /* \"#utility.yul\":5294:5373   */\n      tag_64\n      jump\t// in\n    tag_144:\n        /* \"#utility.yul\":5285:5373   */\n      swap2\n      pop\n        /* \"#utility.yul\":5101:5379   */\n      pop\n        /* \"#utility.yul\":5039:5379   */\n      swap3\n      swap2\n      pop\n      pop\n      jump\t// out\n        /* \"#utility.yul\":5385:6184   */\n    tag_22:\n        /* \"#utility.yul\":5472:5478   */\n      0x00\n        /* \"#utility.yul\":5480:5486   */\n      0x00\n        /* \"#utility.yul\":5488:5494   */\n      0x00\n        /* \"#utility.yul\":5537:5539   */\n      0x60\n        /* \"#utility.yul\":5525:5534   */\n      dup5\n        /* \"#utility.yul\":5516:5523   */\n      dup7\n        /* \"#utility.yul\":5512:5535   */\n      sub\n        /* \"#utility.yul\":5508:5540   */\n      slt\n        /* \"#utility.yul\":5505:5624   */\n      iszero\n      tag_146\n      jumpi\n        /* \"#utility.yul\":5543:5622   */\n      tag_147\n      tag_41\n      jump\t// in\n    tag_147:\n        /* \"#utility.yul\":5505:5624   */\n    tag_146:\n        /* \"#utility.yul\":5663:5664   */\n      0x00\n        /* \"#utility.yul\":5688:5741   */\n      tag_148\n        /* \"#utility.yul\":5733:5740   */\n      dup7\n        /* \"#utility.yul\":5724:5730   */\n      dup3\n        /* \"#utility.yul\":5713:5722   */\n      dup8\n        /* \"#utility.yul\":5709:5731   */\n      add\n        /* \"#utility.yul\":5688:5741   */\n      tag_45\n      jump\t// in\n    tag_148:\n        /* \"#utility.yul\":5678:5741   */\n      swap4\n      pop\n        /* \"#utility.yul\":5634:5751   */\n      pop\n        /* \"#utility.yul\":5818:5820   */\n      0x20\n        /* \"#utility.yul\":5807:5816   */\n      dup5\n        /* \"#utility.yul\":5803:5821   */\n      add\n        /* \"#utility.yul\":5790:5822   */\n      calldataload\n        /* \"#utility.yul\":5849:5867   */\n      0xffffffffffffffff\n        /* \"#utility.yul\":5841:5847   */\n      dup2\n        /* \"#utility.yul\":5838:5868   */\n      gt\n        /* \"#utility.yul\":5835:5952   */\n      iszero\n      tag_149\n      jumpi\n        /* \"#utility.yul\":5871:5950   */\n      tag_150\n      tag_42\n      jump\t// in\n    tag_150:\n        /* \"#utility.yul\":5835:5952   */\n    tag_149:\n        /* \"#utility.yul\":5976:6039   */\n      tag_151\n        /* \"#utility.yul\":6031:6038   */\n      dup7\n        /* \"#utility.yul\":6022:6028   */\n      dup3\n        /* \"#utility.yul\":6011:6020   */\n      dup8\n        /* \"#utility.yul\":6007:6029   */\n      add\n        /* \"#utility.yul\":5976:6039   */\n      tag_65\n      jump\t// in\n    tag_151:\n        /* \"#utility.yul\":5966:6039   */\n      swap3\n      pop\n        /* \"#utility.yul\":5761:6049   */\n      pop\n        /* \"#utility.yul\":6088:6090   */\n      0x40\n        /* \"#utility.yul\":6114:6167   */\n      tag_152\n        /* \"#utility.yul\":6159:6166   */\n      dup7\n        /* \"#utility.yul\":6150:6156   */\n      dup3\n        /* \"#utility.yul\":6139:6148   */\n      dup8\n        /* \"#utility.yul\":6135:6157   */\n      add\n        /* \"#utility.yul\":6114:6167   */\n      tag_45\n      jump\t// in\n    tag_152:\n        /* \"#utility.yul\":6104:6167   */\n      swap2\n      pop\n        /* \"#utility.yul\":6059:6177   */\n      pop\n        /* \"#utility.yul\":5385:6184   */\n      swap3\n      pop\n      swap3\n      pop\n      swap3\n      jump\t// out\n        /* \"#utility.yul\":6190:6370   */\n    tag_66:\n        /* \"#utility.yul\":6238:6315   */\n      0x4e487b7100000000000000000000000000000000000000000000000000000000\n        /* \"#utility.yul\":6235:6236   */\n      0x00\n        /* \"#utility.yul\":6228:6316   */\n      mstore\n        /* \"#utility.yul\":6335:6339   */\n      0x22\n        /* \"#utility.yul\":6332:6333   */\n      0x04\n        /* \"#utility.yul\":6325:6340   */\n      mstore\n        /* \"#utility.yul\":6359:6363   */\n      0x24\n        /* \"#utility.yul\":6356:6357   */\n      0x00\n        /* \"#utility.yul\":6349:6364   */\n      revert\n        /* \"#utility.yul\":6376:6696   */\n    tag_25:\n        /* \"#utility.yul\":6420:6426   */\n      0x00\n        /* \"#utility.yul\":6457:6458   */\n      0x02\n        /* \"#utility.yul\":6451:6455   */\n      dup3\n        /* \"#utility.yul\":6447:6459   */\n      div\n        /* \"#utility.yul\":6437:6459   */\n      swap1\n      pop\n        /* \"#utility.yul\":6504:6505   */\n      0x01\n        /* \"#utility.yul\":6498:6502   */\n      dup3\n        /* \"#utility.yul\":6494:6506   */\n      and\n        /* \"#utility.yul\":6525:6543   */\n      dup1\n        /* \"#utility.yul\":6515:6596   */\n      tag_155\n      jumpi\n        /* \"#utility.yul\":6581:6585   */\n      0x7f\n        /* \"#utility.yul\":6573:6579   */\n      dup3\n        /* \"#utility.yul\":6569:6586   */\n      and\n        /* \"#utility.yul\":6559:6586   */\n      swap2\n      pop\n        /* \"#utility.yul\":6515:6596   */\n    tag_155:\n        /* \"#utility.yul\":6643:6645   */\n      0x20\n        /* \"#utility.yul\":6635:6641   */\n      dup3\n        /* \"#utility.yul\":6632:6646   */\n      lt\n        /* \"#utility.yul\":6612:6630   */\n      dup2\n        /* \"#utility.yul\":6609:6647   */\n      sub\n        /* \"#utility.yul\":6606:6690   */\n      tag_156\n      jumpi\n        /* \"#utility.yul\":6662:6680   */\n      tag_157\n      tag_66\n      jump\t// in\n    tag_157:\n        /* \"#utility.yul\":6606:6690   */\n    tag_156:\n        /* \"#utility.yul\":6427:6696   */\n      pop\n        /* \"#utility.yul\":6376:6696   */\n      swap2\n      swap1\n      pop\n      jump\t// out\n        /* \"#utility.yul\":6702:6843   */\n    tag_67:\n        /* \"#utility.yul\":6751:6755   */\n      0x00\n        /* \"#utility.yul\":6774:6777   */\n      dup2\n        /* \"#utility.yul\":6766:6777   */\n      swap1\n      pop\n        /* \"#utility.yul\":6797:6800   */\n      dup2\n        /* \"#utility.yul\":6794:6795   */\n      0x00\n        /* \"#utility.yul\":6787:6801   */\n      mstore\n        /* \"#utility.yul\":6831:6835   */\n      0x20\n        /* \"#utility.yul\":6828:6829   */\n      0x00\n        /* \"#utility.yul\":6818:6836   */\n      keccak256\n        /* \"#utility.yul\":6810:6836   */\n      swap1\n      pop\n        /* \"#utility.yul\":6702:6843   */\n      swap2\n      swap1\n      pop\n      jump\t// out\n        /* \"#utility.yul\":6849:6942   */\n    tag_68:\n        /* \"#utility.yul\":6886:6892   */\n      0x00\n        /* \"#utility.yul\":6933:6935   */\n      0x20\n        /* \"#utility.yul\":6928:6930   */\n      0x1f\n        /* \"#utility.yul\":6921:6926   */\n      dup4\n        /* \"#utility.yul\":6917:6931   */\n      add\n        /* \"#utility.yul\":6913:6936   */\n      div\n        /* \"#utility.yul\":6903:6936   */\n      swap1\n      pop\n        /* \"#utility.yul\":6849:6942   */\n      swap2\n      swap1\n      pop\n      jump\t// out\n        /* \"#utility.yul\":6948:7055   */\n    tag_69:\n        /* \"#utility.yul\":6992:7000   */\n      0x00\n        /* \"#utility.yul\":7042:7047   */\n      dup3\n        /* \"#utility.yul\":7036:7040   */\n      dup3\n        /* \"#utility.yul\":7032:7048   */\n      shl\n        /* \"#utility.yul\":7011:7048   */\n      swap1\n      pop\n        /* \"#utility.yul\":6948:7055   */\n      swap3\n      swap2\n      pop\n      pop\n      jump\t// out\n        /* \"#utility.yul\":7061:7454   */\n    tag_70:\n        /* \"#utility.yul\":7130:7136   */\n      0x00\n        /* \"#utility.yul\":7180:7181   */\n      0x08\n        /* \"#utility.yul\":7168:7178   */\n      dup4\n        /* \"#utility.yul\":7164:7182   */\n      mul\n        /* \"#utility.yul\":7203:7300   */\n      tag_162\n        /* \"#utility.yul\":7233:7299   */\n      0xffffffffffffffffffffffffffffffffffffffffffffffffffffffffffffffff\n        /* \"#utility.yul\":7222:7231   */\n      dup3\n        /* \"#utility.yul\":7203:7300   */\n      tag_69\n      jump\t// in\n    tag_162:\n        /* \"#utility.yul\":7321:7360   */\n      tag_163\n        /* \"#utility.yul\":7351:7359   */\n      dup7\n        /* \"#utility.yul\":7340:7349   */\n      dup4\n        /* \"#utility.yul\":7321:7360   */\n      tag_69\n      jump\t// in\n    tag_163:\n        /* \"#utility.yul\":7309:7360   */\n      swap6\n      pop\n        /* \"#utility.yul\":7393:7397   */\n      dup1\n        /* \"#utility.yul\":7389:7398   */\n      not\n        /* \"#utility.yul\":7382:7387   */\n      dup5\n        /* \"#utility.yul\":7378:7399   */\n      and\n        /* \"#utility.yul\":7369:7399   */\n      swap4\n      pop\n        /* \"#utility.yul\":7442:7446   */\n      dup1\n        /* \"#utility.yul\":7432:7440   */\n      dup7\n        /* \"#utility.yul\":7428:7447   */\n      and\n        /* \"#utility.yul\":7421:7426   */\n      dup5\n        /* \"#utility.yul\":7418:7448   */\n      or\n        /* \"#utility.yul\":7408:7448   */\n      swap3\n      pop\n        /* \"#utility.yul\":7137:7454   */\n      pop\n      pop\n        /* \"#utility.yul\":7061:7454   */\n      swap4\n      swap3\n      pop\n      pop\n      pop\n      jump\t// out\n        /* \"#utility.yul\":7460:7520   */\n    tag_71:\n        /* \"#utility.yul\":7488:7491   */\n      0x00\n        /* \"#utility.yul\":7509:7514   */\n      dup2\n        /* \"#utility.yul\":7502:7514   */\n      swap1\n      pop\n        /* \"#utility.yul\":7460:7520   */\n      swap2\n      swap1\n      pop\n      jump\t// out\n        /* \"#utility.yul\":7526:7668   */\n    tag_72:\n        /* \"#utility.yul\":7576:7585   */\n      0x00\n        /* \"#utility.yul\":7609:7662   */\n      tag_166\n        /* \"#utility.yul\":7627:7661   */\n      tag_167\n        /* \"#utility.yul\":7636:7660   */\n      tag_168\n        /* \"#utility.yul\":7654:7659   */\n      dup5\n        /* \"#utility.yul\":7636:7660   */\n      tag_43\n      jump\t// in\n    tag_168:\n        /* \"#utility.yul\":7627:7661   */\n      tag_71\n      jump\t// in\n    tag_167:\n        /* \"#utility.yul\":7609:7662   */\n      tag_43\n      jump\t// in\n    tag_166:\n        /* \"#utility.yul\":7596:7662   */\n      swap1\n      pop\n        /* \"#utility.yul\":7526:7668   */\n      swap2\n      swap1\n      pop\n      jump\t// out\n        /* \"#utility.yul\":7674:7749   */\n    tag_73:\n        /* \"#utility.yul\":7717:7720   */\n      0x00\n        /* \"#utility.yul\":7738:7743   */\n      dup2\n        /* \"#utility.yul\":7731:7743   */\n      swap1\n      pop\n        /* \"#utility.yul\":7674:7749   */\n      swap2\n      swap1\n      pop\n      jump\t// out\n        /* \"#utility.yul\":7755:8024   */\n    tag_74:\n        /* \"#utility.yul\":7865:7904   */\n      tag_171\n        /* \"#utility.yul\":7896:7903   */\n      dup4\n        /* \"#utility.yul\":7865:7904   */\n      tag_72\n      jump\t// in\n    tag_171:\n        /* \"#utility.yul\":7926:8017   */\n      tag_172\n        /* \"#utility.yul\":7975:8016   */\n      tag_173\n        /* \"#utility.yul\":7999:8015   */\n      dup3\n        /* \"#utility.yul\":7975:8016   */\n      tag_73\n      jump\t// in\n    tag_173:\n        /* \"#utility.yul\":7967:7973   */\n      dup5\n        /* \"#utility.yul\":7960:7964   */\n      dup5\n        /* \"#utility.yul\":7954:7965   */\n      sload\n        /* \"#utility.yul\":7926:8017   */\n      tag_70\n      jump\t// in\n    tag_172:\n        /* \"#utility.yul\":7920:7924   */\n      dup3\n        /* \"#utility.yul\":7913:8018   */\n      sstore\n        /* \"#utility.yul\":7831:8024   */\n      pop\n        /* \"#utility.yul\":7755:8024   */\n      pop\n      pop\n      pop\n      jump\t// out\n        /* \"#utility.yul\":8030:8103   */\n    tag_75:\n        /* \"#utility.yul\":8075:8078   */\n      0x00\n        /* \"#utility.yul\":8096:8097   */\n      0x00\n        /* \"#utility.yul\":8089:8097   */\n      swap1\n      pop\n        /* \"#utility.yul\":8030:8103   */\n      swap1\n      jump\t// out\n        /* \"#utility.yul\":8109:8298   */\n    tag_76:\n        /* \"#utility.yul\":8186:8218   */\n      tag_176\n      tag_75\n      jump\t// in\n    tag_176:\n        /* \"#utility.yul\":8227:8292   */\n      tag_177\n        /* \"#utility.yul\":8285:8291   */\n      dup2\n        /* \"#utility.yul\":8277:8283   */\n      dup5\n        /* \"#utility.yul\":8271:8275   */\n      dup5\n        /* \"#utility.yul\":8227:8292   */\n      tag_74\n      jump\t// in\n    tag_177:\n        /* \"#utility.yul\":8162:8298   */\n      pop\n        /* \"#utility.yul\":8109:8298   */\n      pop\n      pop\n      jump\t// out\n        /* \"#utility.yul\":8304:8490   */\n    tag_77:\n        /* \"#utility.yul\":8364:8484   */\n    tag_179:\n        /* \"#utility.yul\":8381:8384   */\n      dup2\n        /* \"#utility.yul\":8374:8379   */\n      dup2\n        /* \"#utility.yul\":8371:8385   */\n      lt\n        /* \"#utility.yul\":8364:8484   */\n      iszero\n      tag_181\n      jumpi\n        /* \"#utility.yul\":8435:8474   */\n      tag_182\n        /* \"#utility.yul\":8472:8473   */\n      0x00\n        /* \"#utility.yul\":8465:8470   */\n      dup3\n        /* \"#utility.yul\":8435:8474   */\n      tag_76\n      jump\t// in\n    tag_182:\n        /* \"#utility.yul\":8408:8409   */\n      0x01\n        /* \"#utility.yul\":8401:8406   */\n      dup2\n        /* \"#utility.yul\":8397:8410   */\n      add\n        /* \"#utility.yul\":8388:8410   */\n      swap1\n      pop\n        /* \"#utility.yul\":8364:8484   */\n      jump(tag_179)\n    tag_181:\n        /* \"#utility.yul\":8304:8490   */\n      pop\n      pop\n      jump\t// out\n        /* \"#utility.yul\":8496:9039   */\n    tag_78:\n        /* \"#utility.yul\":8597:8599   */\n      0x1f\n        /* \"#utility.yul\":8592:8595   */\n      dup3\n        /* \"#utility.yul\":8589:8600   */\n      gt\n        /* \"#utility.yul\":8586:9032   */\n      iszero\n      tag_184\n      jumpi\n        /* \"#utility.yul\":8631:8669   */\n      tag_185\n        /* \"#utility.yul\":8663:8668   */\n      dup2\n        /* \"#utility.yul\":8631:8669   */\n      tag_67\n      jump\t// in\n    tag_185:\n        /* \"#utility.yul\":8715:8744   */\n      tag_186\n        /* \"#utility.yul\":8733:8743   */\n      dup5\n        /* \"#utility.yul\":8715:8744   */\n      tag_68\n      jump\t// in\n    tag_186:\n        /* \"#utility.yul\":8705:8713   */\n      dup2\n        /* \"#utility.yul\":8701:8745   */\n      add\n        /* \"#utility.yul\":8898:8900   */\n      0x20\n        /* \"#utility.yul\":8886:8896   */\n      dup6\n        /* \"#utility.yul\":8883:8901   */\n      lt\n        /* \"#utility.yul\":8880:8929   */\n      iszero\n      tag_187\n      jumpi\n        /* \"#utility.yul\":8919:8927   */\n      dup2\n        /* \"#utility.yul\":8904:8927   */\n      swap1\n      pop\n        /* \"#utility.yul\":8880:8929   */\n    tag_187:\n        /* \"#utility.yul\":8942:9022   */\n      tag_188\n        /* \"#utility.yul\":8998:9020   */\n      tag_189\n        /* \"#utility.yul\":9016:9019   */\n      dup6\n        /* \"#utility.yul\":8998:9020   */\n      tag_68\n      jump\t// in\n    tag_189:\n        /* \"#utility.yul\":8988:8996   */\n      dup4\n        /* \"#utility.yul\":8984:9021   */\n      add\n        /* \"#utility.yul\":8971:8982   */\n      dup3\n        /* \"#utility.yul\":8942:9022   */\n      tag_77\n      jump\t// in\n    tag_188:\n        /* \"#utility.yul\":8601:9032   */\n      pop\n      pop\n        /* \"#utility.yul\":8586:9032   */\n    tag_184:\n        /* \"#utility.yul\":8496:9039   */\n      pop\n      pop\n      pop\n      jump\t// out\n        /* \"#utility.yul\":9045:9162   */\n    tag_79:\n        /* \"#utility.yul\":9099:9107   */\n      0x00\n        /* \"#utility.yul\":9149:9154   */\n      dup3\n        /* \"#utility.yul\":9143:9147   */\n      dup3\n        /* \"#utility.yul\":9139:9155   */\n      shr\n        /* \"#utility.yul\":9118:9155   */\n      swap1\n      pop\n        /* \"#utility.yul\":9045:9162   */\n      swap3\n      swap2\n      pop\n      pop\n      jump\t// out\n        /* \"#utility.yul\":9168:9337   */\n    tag_80:\n        /* \"#utility.yul\":9212:9218   */\n      0x00\n        /* \"#utility.yul\":9245:9296   */\n      tag_192\n        /* \"#utility.yul\":9293:9294   */\n      0x00\n        /* \"#utility.yul\":9289:9295   */\n      not\n        /* \"#utility.yul\":9281:9286   */\n      dup5\n        /* \"#utility.yul\":9278:9279   */\n      0x08\n        /* \"#utility.yul\":9274:9287   */\n      mul\n        /* \"#utility.yul\":9245:9296   */\n      tag_79\n      jump\t// in\n    tag_192:\n        /* \"#utility.yul\":9241:9297   */\n      not\n        /* \"#utility.yul\":9326:9330   */\n      dup1\n        /* \"#utility.yul\":9320:9324   */\n      dup4\n        /* \"#utility.yul\":9316:9331   */\n      and\n        /* \"#utility.yul\":9306:9331   */\n      swap2\n      pop\n        /* \"#utility.yul\":9219:9337   */\n      pop\n        /* \"#utility.yul\":9168:9337   */\n      swap3\n      swap2\n      pop\n      pop\n      jump\t// out\n        /* \"#utility.yul\":9342:9637   */\n    tag_81:\n        /* \"#utility.yul\":9418:9422   */\n      0x00\n        /* \"#utility.yul\":9564:9593   */\n      tag_194\n        /* \"#utility.yul\":9589:9592   */\n      dup4\n        /* \"#utility.yul\":9583:9587   */\n      dup4\n        /* \"#utility.yul\":9564:9593   */\n      tag_80\n      jump\t// in\n    tag_194:\n        /* \"#utility.yul\":9556:9593   */\n      swap2\n      pop\n        /* \"#utility.yul\":9626:9629   */\n      dup3\n        /* \"#utility.yul\":9623:9624   */\n      0x02\n        /* \"#utility.yul\":9619:9630   */\n      mul\n        /* \"#utility.yul\":9613:9617   */\n      dup3\n        /* \"#utility.yul\":9610:9631   */\n      or\n        /* \"#utility.yul\":9602:9631   */\n      swap1\n      pop\n        /* \"#utility.yul\":9342:9637   */\n      swap3\n      swap2\n      pop\n      pop\n      jump\t// out\n        /* \"#utility.yul\":9642:11037   */\n    tag_39:\n        /* \"#utility.yul\":9759:9796   */\n      tag_196\n        /* \"#utility.yul\":9792:9795   */\n      dup3\n        /* \"#utility.yul\":9759:9796   */\n      tag_46\n      jump\t// in\n    tag_196:\n        /* \"#utility.yul\":9861:9879   */\n      0xffffffffffffffff\n        /* \"#utility.yul\":9853:9859   */\n      dup2\n        /* \"#utility.yul\":9850:9880   */\n      gt\n        /* \"#utility.yul\":9847:9903   */\n      iszero\n      tag_197\n      jumpi\n        /* \"#utility.yul\":9883:9901   */\n      tag_198\n      tag_59\n      jump\t// in\n    tag_198:\n        /* \"#utility.yul\":9847:9903   */\n    tag_197:\n        /* \"#utility.yul\":9927:9965   */\n      tag_199\n        /* \"#utility.yul\":9959:9963   */\n      dup3\n        /* \"#utility.yul\":9953:9964   */\n      sload\n        /* \"#utility.yul\":9927:9965   */\n      tag_25\n      jump\t// in\n    tag_199:\n        /* \"#utility.yul\":10012:10079   */\n      tag_200\n        /* \"#utility.yul\":10072:10078   */\n      dup3\n        /* \"#utility.yul\":10064:10070   */\n      dup3\n        /* \"#utility.yul\":10058:10062   */\n      dup6\n        /* \"#utility.yul\":10012:10079   */\n      tag_78\n      jump\t// in\n    tag_200:\n        /* \"#utility.yul\":10106:10107   */\n      0x00\n        /* \"#utility.yul\":10130:10134   */\n      0x20\n        /* \"#utility.yul\":10117:10134   */\n      swap1\n      pop\n        /* \"#utility.yul\":10162:10164   */\n      0x1f\n        /* \"#utility.yul\":10154:10160   */\n      dup4\n        /* \"#utility.yul\":10151:10165   */\n      gt\n        /* \"#utility.yul\":10179:10180   */\n      0x01\n        /* \"#utility.yul\":10174:10792   */\n      dup2\n      eq\n      tag_202\n      jumpi\n        /* \"#utility.yul\":10836:10837   */\n      0x00\n        /* \"#utility.yul\":10853:10859   */\n      dup5\n        /* \"#utility.yul\":10850:10927   */\n      iszero\n      tag_203\n      jumpi\n        /* \"#utility.yul\":10902:10911   */\n      dup3\n        /* \"#utility.yul\":10897:10900   */\n      dup8\n        /* \"#utility.yul\":10893:10912   */\n      add\n        /* \"#utility.yul\":10887:10913   */\n      mload\n        /* \"#utility.yul\":10878:10913   */\n      swap1\n      pop\n        /* \"#utility.yul\":10850:10927   */\n    tag_203:\n        /* \"#utility.yul\":10953:11020   */\n      tag_204\n        /* \"#utility.yul\":11013:11019   */\n      dup6\n        /* \"#utility.yul\":11006:11011   */\n      dup3\n        /* \"#utility.yul\":10953:11020   */\n      tag_81\n      jump\t// in\n    tag_204:\n        /* \"#utility.yul\":10947:10951   */\n      dup7\n        /* \"#utility.yul\":10940:11021   */\n      sstore\n        /* \"#utility.yul\":10809:11031   */\n      pop\n        /* \"#utility.yul\":10144:11031   */\n      jump(tag_201)\n        /* \"#utility.yul\":10174:10792   */\n    tag_202:\n        /* \"#utility.yul\":10226:10230   */\n      0x1f\n        /* \"#utility.yul\":10222:10231   */\n      not\n        /* \"#utility.yul\":10214:10220   */\n      dup5\n        /* \"#utility.yul\":10210:10232   */\n      and\n        /* \"#utility.yul\":10260:10297   */\n      tag_205\n        /* \"#utility.yul\":10292:10296   */\n      dup7\n        /* \"#utility.yul\":10260:10297   */\n      tag_67\n      jump\t// in\n    tag_205:\n        /* \"#utility.yul\":10319:10320   */\n      0x00\n        /* \"#utility.yul\":10333:10541   */\n    tag_206:\n        /* \"#utility.yul\":10347:10354   */\n      dup3\n        /* \"#utility.yul\":10344:10345   */\n      dup2\n        /* \"#utility.yul\":10341:10355   */\n      lt\n        /* \"#utility.yul\":10333:10541   */\n      iszero\n      tag_208\n      jumpi\n        /* \"#utility.yul\":10426:10435   */\n      dup5\n        /* \"#utility.yul\":10421:10424   */\n      dup10\n        /* \"#utility.yul\":10417:10436   */\n      add\n        /* \"#utility.yul\":10411:10437   */\n      mload\n        /* \"#utility.yul\":10403:10409   */\n      dup3\n        /* \"#utility.yul\":10396:10438   */\n      sstore\n        /* \"#utility.yul\":10477:10478   */\n      0x01\n        /* \"#utility.yul\":10469:10475   */\n      dup3\n        /* \"#utility.yul\":10465:10479   */\n      add\n        /* \"#utility.yul\":10455:10479   */\n      swap2\n      pop\n        /* \"#utility.yul\":10524:10526   */\n      0x20\n        /* \"#utility.yul\":10513:10522   */\n      dup6\n        /* \"#utility.yul\":10509:10527   */\n      add\n        /* \"#utility.yul\":10496:10527   */\n      swap5\n      pop\n        /* \"#utility.yul\":10370:10374   */\n      0x20\n        /* \"#utility.yul\":10367:10368   */\n      dup2\n        /* \"#utility.yul\":10363:10375   */\n      add\n        /* \"#utility.yul\":10358:10375   */\n      swap1\n      pop\n        /* \"#utility.yul\":10333:10541   */\n      jump(tag_206)\n    tag_208:\n        /* \"#utility.yul\":10569:10575   */\n      dup7\n        /* \"#utility.yul\":10560:10567   */\n      dup4\n        /* \"#utility.yul\":10557:10576   */\n      lt\n        /* \"#utility.yul\":10554:10733   */\n      iszero\n      tag_209\n      jumpi\n        /* \"#utility.yul\":10627:10636   */\n      dup5\n        /* \"#utility.yul\":10622:10625   */\n      dup10\n        /* \"#utility.yul\":10618:10637   */\n      add\n        /* \"#utility.yul\":10612:10638   */\n      mload\n        /* \"#utility.yul\":10670:10718   */\n      tag_210\n        /* \"#utility.yul\":10712:10716   */\n      0x1f\n        /* \"#utility.yul\":10704:10710   */\n      dup10\n        /* \"#utility.yul\":10700:10717   */\n      and\n        /* \"#utility.yul\":10689:10698   */\n      dup3\n        /* \"#utility.yul\":10670:10718   */\n      tag_80\n      jump\t// in\n    tag_210:\n        /* \"#utility.yul\":10662:10668   */\n      dup4\n        /* \"#utility.yul\":10655:10719   */\n      sstore\n        /* \"#utility.yul\":10577:10733   */\n      pop\n        /* \"#utility.yul\":10554:10733   */\n    tag_209:\n        /* \"#utility.yul\":10779:10780   */\n      0x01\n        /* \"#utility.yul\":10775:10776   */\n      0x02\n        /* \"#utility.yul\":10767:10773   */\n      dup9\n        /* \"#utility.yul\":10763:10777   */\n      mul\n        /* \"#utility.yul\":10759:10781   */\n      add\n        /* \"#utility.yul\":10753:10757   */\n      dup9\n        /* \"#utility.yul\":10746:10782   */\n      sstore\n        /* \"#utility.yul\":10181:10792   */\n      pop\n      pop\n      pop\n        /* \"#utility.yul\":10144:11031   */\n    tag_201:\n      pop\n        /* \"#utility.yul\":9734:11037   */\n      pop\n      pop\n      pop\n        /* \"#utility.yul\":9642:11037   */\n      pop\n      pop\n      jump\t// out\n\n    auxdata: 0xa2646970667358221220f155563e6797cd11f6b587918eda188811f38df0307353014cf27fb96e4adaf164736f6c634300081e0033\n}\n",
				"bytecode": {
					"linkReferences": {},
					"object": "6080604052348015600e575f5ffd5b50610a108061001c5f395ff3fe608060405234801561000f575f5ffd5b506004361061004a575f3560e01c806306ead22e1461004e578063642f9163146100815780639150b939146100b4578063c1bea1db146100d0575b5f5ffd5b61006860048036038101906100639190610429565b6100ec565b604051610078949392919061052c565b60405180910390f35b61009b60048036038101906100969190610429565b6101c9565b6040516100ab949392919061052c565b60405180910390f35b6100ce60048036038101906100c99190610429565b6102e1565b005b6100ea60048036038101906100e591906106a2565b61030f565b005b5f602052805f5260405f205f91509050805f01805461010a9061073b565b80601f01602080910402602001604051908101604052809291908181526020018280546101369061073b565b80156101815780601f1061015857610100808354040283529160200191610181565b820191905f5260205f20905b81548152906001019060200180831161016457829003601f168201915b505050505090806001015490806002015f9054906101000a900473ffffffffffffffffffffffffffffffffffffffff16908060020160149054906101000a900460ff16905084565b60605f5f5f5f5f8681526020019081526020015f205f015f5f8781526020019081526020015f20600101545f5f8881526020019081526020015f206002015f9054906101000a900473ffffffffffffffffffffffffffffffffffffffff165f5f8981526020019081526020015f2060020160149054906101000a900460ff168380546102549061073b565b80601f01602080910402602001604051908101604052809291908181526020018280546102809061073b565b80156102cb5780601f106102a2576101008083540402835291602001916102cb565b820191905f5260205f20905b8154815290600101906020018083116102ae57829003601f168201915b5050505050935093509350935093509193509193565b5f5f5f8381526020019081526020015f2060020160146101000a81548160ff02191690831515021790555050565b60405180608001604052808381526020018281526020013373ffffffffffffffffffffffffffffffffffffffff168152602001600115158152505f5f8581526020019081526020015f205f820151815f01908161036c919061090b565b50602082015181600101556040820151816002015f6101000a81548173ffffffffffffffffffffffffffffffffffffffff021916908373ffffffffffffffffffffffffffffffffffffffff16021790555060608201518160020160146101000a81548160ff021916908315150217905550905050505050565b5f604051905090565b5f5ffd5b5f5ffd5b5f819050919050565b610408816103f6565b8114610412575f5ffd5b50565b5f81359050610423816103ff565b92915050565b5f6020828403121561043e5761043d6103ee565b5b5f61044b84828501610415565b91505092915050565b5f81519050919050565b5f82825260208201905092915050565b8281835e5f83830152505050565b5f601f19601f8301169050919050565b5f61049682610454565b6104a0818561045e565b93506104b081856020860161046e565b6104b98161047c565b840191505092915050565b6104cd816103f6565b82525050565b5f73ffffffffffffffffffffffffffffffffffffffff82169050919050565b5f6104fc826104d3565b9050919050565b61050c816104f2565b82525050565b5f8115159050919050565b61052681610512565b82525050565b5f6080820190508181035f830152610544818761048c565b905061055360208301866104c4565b6105606040830185610503565b61056d606083018461051d565b95945050505050565b5f5ffd5b5f5ffd5b7f4e487b71000000000000000000000000000000000000000000000000000000005f52604160045260245ffd5b6105b48261047c565b810181811067ffffffffffffffff821117156105d3576105d261057e565b5b80604052505050565b5f6105e56103e5565b90506105f182826105ab565b919050565b5f67ffffffffffffffff8211156106105761060f61057e565b5b6106198261047c565b9050602081019050919050565b828183375f83830152505050565b5f610646610641846105f6565b6105dc565b9050828152602081018484840111156106625761066161057a565b5b61066d848285610626565b509392505050565b5f82601f83011261068957610688610576565b5b8135610699848260208601610634565b91505092915050565b5f5f5f606084860312156106b9576106b86103ee565b5b5f6106c686828701610415565b935050602084013567ffffffffffffffff8111156106e7576106e66103f2565b5b6106f386828701610675565b925050604061070486828701610415565b9150509250925092565b7f4e487b71000000000000000000000000000000000000000000000000000000005f52602260045260245ffd5b5f600282049050600182168061075257607f821691505b6020821081036107655761076461070e565b5b50919050565b5f819050815f5260205f209050919050565b5f6020601f8301049050919050565b5f82821b905092915050565b5f600883026107c77fffffffffffffffffffffffffffffffffffffffffffffffffffffffffffffffff8261078c565b6107d1868361078c565b95508019841693508086168417925050509392505050565b5f819050919050565b5f61080c610807610802846103f6565b6107e9565b6103f6565b9050919050565b5f819050919050565b610825836107f2565b61083961083182610813565b848454610798565b825550505050565b5f5f905090565b610850610841565b61085b81848461081c565b505050565b5b8181101561087e576108735f82610848565b600181019050610861565b5050565b601f8211156108c3576108948161076b565b61089d8461077d565b810160208510156108ac578190505b6108c06108b88561077d565b830182610860565b50505b505050565b5f82821c905092915050565b5f6108e35f19846008026108c8565b1980831691505092915050565b5f6108fb83836108d4565b9150826002028217905092915050565b61091482610454565b67ffffffffffffffff81111561092d5761092c61057e565b5b610937825461073b565b610942828285610882565b5f60209050601f831160018114610973575f8415610961578287015190505b61096b85826108f0565b8655506109d2565b601f1984166109818661076b565b5f5b828110156109a857848901518255600182019150602085019450602081019050610983565b868310156109c557848901516109c1601f8916826108d4565b8355505b6001600288020188555050505b50505050505056fea2646970667358221220f155563e6797cd11f6b587918eda188811f38df0307353014cf27fb96e4adaf164736f6c634300081e0033",
					"opcodes": "PUSH1 0x80 PUSH1 0x40 MSTORE CALLVALUE DUP1 ISZERO PUSH1 0xE JUMPI PUSH0 PUSH0 REVERT JUMPDEST POP PUSH2 0xA10 DUP1 PUSH2 0x1C PUSH0 CODECOPY PUSH0 RETURN INVALID PUSH1 0x80 PUSH1 0x40 MSTORE CALLVALUE DUP1 ISZERO PUSH2 0xF JUMPI PUSH0 PUSH0 REVERT JUMPDEST POP PUSH1 0x4 CALLDATASIZE LT PUSH2 0x4A JUMPI PUSH0 CALLDATALOAD PUSH1 0xE0 SHR DUP1 PUSH4 0x6EAD22E EQ PUSH2 0x4E JUMPI DUP1 PUSH4 0x642F9163 EQ PUSH2 0x81 JUMPI DUP1 PUSH4 0x9150B939 EQ PUSH2 0xB4 JUMPI DUP1 PUSH4 0xC1BEA1DB EQ PUSH2 0xD0 JUMPI JUMPDEST PUSH0 PUSH0 REVERT JUMPDEST PUSH2 0x68 PUSH1 0x4 DUP1 CALLDATASIZE SUB DUP2 ADD SWAP1 PUSH2 0x63 SWAP2 SWAP1 PUSH2 0x429 JUMP JUMPDEST PUSH2 0xEC JUMP JUMPDEST PUSH1 0x40 MLOAD PUSH2 0x78 SWAP5 SWAP4 SWAP3 SWAP2 SWAP1 PUSH2 0x52C JUMP JUMPDEST PUSH1 0x40 MLOAD DUP1 SWAP2 SUB SWAP1 RETURN JUMPDEST PUSH2 0x9B PUSH1 0x4 DUP1 CALLDATASIZE SUB DUP2 ADD SWAP1 PUSH2 0x96 SWAP2 SWAP1 PUSH2 0x429 JUMP JUMPDEST PUSH2 0x1C9 JUMP JUMPDEST PUSH1 0x40 MLOAD PUSH2 0xAB SWAP5 SWAP4 SWAP3 SWAP2 SWAP1 PUSH2 0x52C JUMP JUMPDEST PUSH1 0x40 MLOAD DUP1 SWAP2 SUB SWAP1 RETURN JUMPDEST PUSH2 0xCE PUSH1 0x4 DUP1 CALLDATASIZE SUB DUP2 ADD SWAP1 PUSH2 0xC9 SWAP2 SWAP1 PUSH2 0x429 JUMP JUMPDEST PUSH2 0x2E1 JUMP JUMPDEST STOP JUMPDEST PUSH2 0xEA PUSH1 0x4 DUP1 CALLDATASIZE SUB DUP2 ADD SWAP1 PUSH2 0xE5 SWAP2 SWAP1 PUSH2 0x6A2 JUMP JUMPDEST PUSH2 0x30F JUMP JUMPDEST STOP JUMPDEST PUSH0 PUSH1 0x20 MSTORE DUP1 PUSH0 MSTORE PUSH1 0x40 PUSH0 KECCAK256 PUSH0 SWAP2 POP SWAP1 POP DUP1 PUSH0 ADD DUP1 SLOAD PUSH2 0x10A SWAP1 PUSH2 0x73B JUMP JUMPDEST DUP1 PUSH1 0x1F ADD PUSH1 0x20 DUP1 SWAP2 DIV MUL PUSH1 0x20 ADD PUSH1 0x40 MLOAD SWAP1 DUP2 ADD PUSH1 0x40 MSTORE DUP1 SWAP3 SWAP2 SWAP1 DUP2 DUP2 MSTORE PUSH1 0x20 ADD DUP3 DUP1 SLOAD PUSH2 0x136 SWAP1 PUSH2 0x73B JUMP JUMPDEST DUP1 ISZERO PUSH2 0x181 JUMPI DUP1 PUSH1 0x1F LT PUSH2 0x158 JUMPI PUSH2 0x100 DUP1 DUP4 SLOAD DIV MUL DUP4 MSTORE SWAP2 PUSH1 0x20 ADD SWAP2 PUSH2 0x181 JUMP JUMPDEST DUP3 ADD SWAP2 SWAP1 PUSH0 MSTORE PUSH1 0x20 PUSH0 KECCAK256 SWAP1 JUMPDEST DUP2 SLOAD DUP2 MSTORE SWAP1 PUSH1 0x1 ADD SWAP1 PUSH1 0x20 ADD DUP1 DUP4 GT PUSH2 0x164 JUMPI DUP3 SWAP1 SUB PUSH1 0x1F AND DUP3 ADD SWAP2 JUMPDEST POP POP POP POP POP SWAP1 DUP1 PUSH1 0x1 ADD SLOAD SWAP1 DUP1 PUSH1 0x2 ADD PUSH0 SWAP1 SLOAD SWAP1 PUSH2 0x100 EXP SWAP1 DIV PUSH20 0xFFFFFFFFFFFFFFFFFFFFFFFFFFFFFFFFFFFFFFFF AND SWAP1 DUP1 PUSH1 0x2 ADD PUSH1 0x14 SWAP1 SLOAD SWAP1 PUSH2 0x100 EXP SWAP1 DIV PUSH1 0xFF AND SWAP1 POP DUP5 JUMP JUMPDEST PUSH1 0x60 PUSH0 PUSH0 PUSH0 PUSH0 PUSH0 DUP7 DUP2 MSTORE PUSH1 0x20 ADD SWAP1 DUP2 MSTORE PUSH1 0x20 ADD PUSH0 KECCAK256 PUSH0 ADD PUSH0 PUSH0 DUP8 DUP2 MSTORE PUSH1 0x20 ADD SWAP1 DUP2 MSTORE PUSH1 0x20 ADD PUSH0 KECCAK256 PUSH1 0x1 ADD SLOAD PUSH0 PUSH0 DUP9 DUP2 MSTORE PUSH1 0x20 ADD SWAP1 DUP2 MSTORE PUSH1 0x20 ADD PUSH0 KECCAK256 PUSH1 0x2 ADD PUSH0 SWAP1 SLOAD SWAP1 PUSH2 0x100 EXP SWAP1 DIV PUSH20 0xFFFFFFFFFFFFFFFFFFFFFFFFFFFFFFFFFFFFFFFF AND PUSH0 PUSH0 DUP10 DUP2 MSTORE PUSH1 0x20 ADD SWAP1 DUP2 MSTORE PUSH1 0x20 ADD PUSH0 KECCAK256 PUSH1 0x2 ADD PUSH1 0x14 SWAP1 SLOAD SWAP1 PUSH2 0x100 EXP SWAP1 DIV PUSH1 0xFF AND DUP4 DUP1 SLOAD PUSH2 0x254 SWAP1 PUSH2 0x73B JUMP JUMPDEST DUP1 PUSH1 0x1F ADD PUSH1 0x20 DUP1 SWAP2 DIV MUL PUSH1 0x20 ADD PUSH1 0x40 MLOAD SWAP1 DUP2 ADD PUSH1 0x40 MSTORE DUP1 SWAP3 SWAP2 SWAP1 DUP2 DUP2 MSTORE PUSH1 0x20 ADD DUP3 DUP1 SLOAD PUSH2 0x280 SWAP1 PUSH2 0x73B JUMP JUMPDEST DUP1 ISZERO PUSH2 0x2CB JUMPI DUP1 PUSH1 0x1F LT PUSH2 0x2A2 JUMPI PUSH2 0x100 DUP1 DUP4 SLOAD DIV MUL DUP4 MSTORE SWAP2 PUSH1 0x20 ADD SWAP2 PUSH2 0x2CB JUMP JUMPDEST DUP3 ADD SWAP2 SWAP1 PUSH0 MSTORE PUSH1 0x20 PUSH0 KECCAK256 SWAP1 JUMPDEST DUP2 SLOAD DUP2 MSTORE SWAP1 PUSH1 0x1 ADD SWAP1 PUSH1 0x20 ADD DUP1 DUP4 GT PUSH2 0x2AE JUMPI DUP3 SWAP1 SUB PUSH1 0x1F AND DUP3 ADD SWAP2 JUMPDEST POP POP POP POP POP SWAP4 POP SWAP4 POP SWAP4 POP SWAP4 POP SWAP4 POP SWAP2 SWAP4 POP SWAP2 SWAP4 JUMP JUMPDEST PUSH0 PUSH0 PUSH0 DUP4 DUP2 MSTORE PUSH1 0x20 ADD SWAP1 DUP2 MSTORE PUSH1 0x20 ADD PUSH0 KECCAK256 PUSH1 0x2 ADD PUSH1 0x14 PUSH2 0x100 EXP DUP2 SLOAD DUP2 PUSH1 0xFF MUL NOT AND SWAP1 DUP4 ISZERO ISZERO MUL OR SWAP1 SSTORE POP POP JUMP JUMPDEST PUSH1 0x40 MLOAD DUP1 PUSH1 0x80 ADD PUSH1 0x40 MSTORE DUP1 DUP4 DUP2 MSTORE PUSH1 0x20 ADD DUP3 DUP2 MSTORE PUSH1 0x20 ADD CALLER PUSH20 0xFFFFFFFFFFFFFFFFFFFFFFFFFFFFFFFFFFFFFFFF AND DUP2 MSTORE PUSH1 0x20 ADD PUSH1 0x1 ISZERO ISZERO DUP2 MSTORE POP PUSH0 PUSH0 DUP6 DUP2 MSTORE PUSH1 0x20 ADD SWAP1 DUP2 MSTORE PUSH1 0x20 ADD PUSH0 KECCAK256 PUSH0 DUP3 ADD MLOAD DUP2 PUSH0 ADD SWAP1 DUP2 PUSH2 0x36C SWAP2 SWAP1 PUSH2 0x90B JUMP JUMPDEST POP PUSH1 0x20 DUP3 ADD MLOAD DUP2 PUSH1 0x1 ADD SSTORE PUSH1 0x40 DUP3 ADD MLOAD DUP2 PUSH1 0x2 ADD PUSH0 PUSH2 0x100 EXP DUP2 SLOAD DUP2 PUSH20 0xFFFFFFFFFFFFFFFFFFFFFFFFFFFFFFFFFFFFFFFF MUL NOT AND SWAP1 DUP4 PUSH20 0xFFFFFFFFFFFFFFFFFFFFFFFFFFFFFFFFFFFFFFFF AND MUL OR SWAP1 SSTORE POP PUSH1 0x60 DUP3 ADD MLOAD DUP2 PUSH1 0x2 ADD PUSH1 0x14 PUSH2 0x100 EXP DUP2 SLOAD DUP2 PUSH1 0xFF MUL NOT AND SWAP1 DUP4 ISZERO ISZERO MUL OR SWAP1 SSTORE POP SWAP1 POP POP POP POP POP JUMP JUMPDEST PUSH0 PUSH1 0x40 MLOAD SWAP1 POP SWAP1 JUMP JUMPDEST PUSH0 PUSH0 REVERT JUMPDEST PUSH0 PUSH0 REVERT JUMPDEST PUSH0 DUP2 SWAP1 POP SWAP2 SWAP1 POP JUMP JUMPDEST PUSH2 0x408 DUP2 PUSH2 0x3F6 JUMP JUMPDEST DUP2 EQ PUSH2 0x412 JUMPI PUSH0 PUSH0 REVERT JUMPDEST POP JUMP JUMPDEST PUSH0 DUP2 CALLDATALOAD SWAP1 POP PUSH2 0x423 DUP2 PUSH2 0x3FF JUMP JUMPDEST SWAP3 SWAP2 POP POP JUMP JUMPDEST PUSH0 PUSH1 0x20 DUP3 DUP5 SUB SLT ISZERO PUSH2 0x43E JUMPI PUSH2 0x43D PUSH2 0x3EE JUMP JUMPDEST JUMPDEST PUSH0 PUSH2 0x44B DUP5 DUP3 DUP6 ADD PUSH2 0x415 JUMP JUMPDEST SWAP2 POP POP SWAP3 SWAP2 POP POP JUMP JUMPDEST PUSH0 DUP2 MLOAD SWAP1 POP SWAP2 SWAP1 POP JUMP JUMPDEST PUSH0 DUP3 DUP3 MSTORE PUSH1 0x20 DUP3 ADD SWAP1 POP SWAP3 SWAP2 POP POP JUMP JUMPDEST DUP3 DUP2 DUP4 MCOPY PUSH0 DUP4 DUP4 ADD MSTORE POP POP POP JUMP JUMPDEST PUSH0 PUSH1 0x1F NOT PUSH1 0x1F DUP4 ADD AND SWAP1 POP SWAP2 SWAP1 POP JUMP JUMPDEST PUSH0 PUSH2 0x496 DUP3 PUSH2 0x454 JUMP JUMPDEST PUSH2 0x4A0 DUP2 DUP6 PUSH2 0x45E JUMP JUMPDEST SWAP4 POP PUSH2 0x4B0 DUP2 DUP6 PUSH1 0x20 DUP7 ADD PUSH2 0x46E JUMP JUMPDEST PUSH2 0x4B9 DUP2 PUSH2 0x47C JUMP JUMPDEST DUP5 ADD SWAP2 POP POP SWAP3 SWAP2 POP POP JUMP JUMPDEST PUSH2 0x4CD DUP2 PUSH2 0x3F6 JUMP JUMPDEST DUP3 MSTORE POP POP JUMP JUMPDEST PUSH0 PUSH20 0xFFFFFFFFFFFFFFFFFFFFFFFFFFFFFFFFFFFFFFFF DUP3 AND SWAP1 POP SWAP2 SWAP1 POP JUMP JUMPDEST PUSH0 PUSH2 0x4FC DUP3 PUSH2 0x4D3 JUMP JUMPDEST SWAP1 POP SWAP2 SWAP1 POP JUMP JUMPDEST PUSH2 0x50C DUP2 PUSH2 0x4F2 JUMP JUMPDEST DUP3 MSTORE POP POP JUMP JUMPDEST PUSH0 DUP2 ISZERO ISZERO SWAP1 POP SWAP2 SWAP1 POP JUMP JUMPDEST PUSH2 0x526 DUP2 PUSH2 0x512 JUMP JUMPDEST DUP3 MSTORE POP POP JUMP JUMPDEST PUSH0 PUSH1 0x80 DUP3 ADD SWAP1 POP DUP2 DUP2 SUB PUSH0 DUP4 ADD MSTORE PUSH2 0x544 DUP2 DUP8 PUSH2 0x48C JUMP JUMPDEST SWAP1 POP PUSH2 0x553 PUSH1 0x20 DUP4 ADD DUP7 PUSH2 0x4C4 JUMP JUMPDEST PUSH2 0x560 PUSH1 0x40 DUP4 ADD DUP6 PUSH2 0x503 JUMP JUMPDEST PUSH2 0x56D PUSH1 0x60 DUP4 ADD DUP5 PUSH2 0x51D JUMP JUMPDEST SWAP6 SWAP5 POP POP POP POP POP JUMP JUMPDEST PUSH0 PUSH0 REVERT JUMPDEST PUSH0 PUSH0 REVERT JUMPDEST PUSH32 0x4E487B7100000000000000000000000000000000000000000000000000000000 PUSH0 MSTORE PUSH1 0x41 PUSH1 0x4 MSTORE PUSH1 0x24 PUSH0 REVERT JUMPDEST PUSH2 0x5B4 DUP3 PUSH2 0x47C JUMP JUMPDEST DUP2 ADD DUP2 DUP2 LT PUSH8 0xFFFFFFFFFFFFFFFF DUP3 GT OR ISZERO PUSH2 0x5D3 JUMPI PUSH2 0x5D2 PUSH2 0x57E JUMP JUMPDEST JUMPDEST DUP1 PUSH1 0x40 MSTORE POP POP POP JUMP JUMPDEST PUSH0 PUSH2 0x5E5 PUSH2 0x3E5 JUMP JUMPDEST SWAP1 POP PUSH2 0x5F1 DUP3 DUP3 PUSH2 0x5AB JUMP JUMPDEST SWAP2 SWAP1 POP JUMP JUMPDEST PUSH0 PUSH8 0xFFFFFFFFFFFFFFFF DUP3 GT ISZERO PUSH2 0x610 JUMPI PUSH2 0x60F PUSH2 0x57E JUMP JUMPDEST JUMPDEST PUSH2 0x619 DUP3 PUSH2 0x47C JUMP JUMPDEST SWAP1 POP PUSH1 0x20 DUP2 ADD SWAP1 POP SWAP2 SWAP1 POP JUMP JUMPDEST DUP3 DUP2 DUP4 CALLDATACOPY PUSH0 DUP4 DUP4 ADD MSTORE POP POP POP JUMP JUMPDEST PUSH0 PUSH2 0x646 PUSH2 0x641 DUP5 PUSH2 0x5F6 JUMP JUMPDEST PUSH2 0x5DC JUMP JUMPDEST SWAP1 POP DUP3 DUP2 MSTORE PUSH1 0x20 DUP2 ADD DUP5 DUP5 DUP5 ADD GT ISZERO PUSH2 0x662 JUMPI PUSH2 0x661 PUSH2 0x57A JUMP JUMPDEST JUMPDEST PUSH2 0x66D DUP5 DUP3 DUP6 PUSH2 0x626 JUMP JUMPDEST POP SWAP4 SWAP3 POP POP POP JUMP JUMPDEST PUSH0 DUP3 PUSH1 0x1F DUP4 ADD SLT PUSH2 0x689 JUMPI PUSH2 0x688 PUSH2 0x576 JUMP JUMPDEST JUMPDEST DUP2 CALLDATALOAD PUSH2 0x699 DUP5 DUP3 PUSH1 0x20 DUP7 ADD PUSH2 0x634 JUMP JUMPDEST SWAP2 POP POP SWAP3 SWAP2 POP POP JUMP JUMPDEST PUSH0 PUSH0 PUSH0 PUSH1 0x60 DUP5 DUP7 SUB SLT ISZERO PUSH2 0x6B9 JUMPI PUSH2 0x6B8 PUSH2 0x3EE JUMP JUMPDEST JUMPDEST PUSH0 PUSH2 0x6C6 DUP7 DUP3 DUP8 ADD PUSH2 0x415 JUMP JUMPDEST SWAP4 POP POP PUSH1 0x20 DUP5 ADD CALLDATALOAD PUSH8 0xFFFFFFFFFFFFFFFF DUP2 GT ISZERO PUSH2 0x6E7 JUMPI PUSH2 0x6E6 PUSH2 0x3F2 JUMP JUMPDEST JUMPDEST PUSH2 0x6F3 DUP7 DUP3 DUP8 ADD PUSH2 0x675 JUMP JUMPDEST SWAP3 POP POP PUSH1 0x40 PUSH2 0x704 DUP7 DUP3 DUP8 ADD PUSH2 0x415 JUMP JUMPDEST SWAP2 POP POP SWAP3 POP SWAP3 POP SWAP3 JUMP JUMPDEST PUSH32 0x4E487B7100000000000000000000000000000000000000000000000000000000 PUSH0 MSTORE PUSH1 0x22 PUSH1 0x4 MSTORE PUSH1 0x24 PUSH0 REVERT JUMPDEST PUSH0 PUSH1 0x2 DUP3 DIV SWAP1 POP PUSH1 0x1 DUP3 AND DUP1 PUSH2 0x752 JUMPI PUSH1 0x7F DUP3 AND SWAP2 POP JUMPDEST PUSH1 0x20 DUP3 LT DUP2 SUB PUSH2 0x765 JUMPI PUSH2 0x764 PUSH2 0x70E JUMP JUMPDEST JUMPDEST POP SWAP2 SWAP1 POP JUMP JUMPDEST PUSH0 DUP2 SWAP1 POP DUP2 PUSH0 MSTORE PUSH1 0x20 PUSH0 KECCAK256 SWAP1 POP SWAP2 SWAP1 POP JUMP JUMPDEST PUSH0 PUSH1 0x20 PUSH1 0x1F DUP4 ADD DIV SWAP1 POP SWAP2 SWAP1 POP JUMP JUMPDEST PUSH0 DUP3 DUP3 SHL SWAP1 POP SWAP3 SWAP2 POP POP JUMP JUMPDEST PUSH0 PUSH1 0x8 DUP4 MUL PUSH2 0x7C7 PUSH32 0xFFFFFFFFFFFFFFFFFFFFFFFFFFFFFFFFFFFFFFFFFFFFFFFFFFFFFFFFFFFFFFFF DUP3 PUSH2 0x78C JUMP JUMPDEST PUSH2 0x7D1 DUP7 DUP4 PUSH2 0x78C JUMP JUMPDEST SWAP6 POP DUP1 NOT DUP5 AND SWAP4 POP DUP1 DUP7 AND DUP5 OR SWAP3 POP POP POP SWAP4 SWAP3 POP POP POP JUMP JUMPDEST PUSH0 DUP2 SWAP1 POP SWAP2 SWAP1 POP JUMP JUMPDEST PUSH0 PUSH2 0x80C PUSH2 0x807 PUSH2 0x802 DUP5 PUSH2 0x3F6 JUMP JUMPDEST PUSH2 0x7E9 JUMP JUMPDEST PUSH2 0x3F6 JUMP JUMPDEST SWAP1 POP SWAP2 SWAP1 POP JUMP JUMPDEST PUSH0 DUP2 SWAP1 POP SWAP2 SWAP1 POP JUMP JUMPDEST PUSH2 0x825 DUP4 PUSH2 0x7F2 JUMP JUMPDEST PUSH2 0x839 PUSH2 0x831 DUP3 PUSH2 0x813 JUMP JUMPDEST DUP5 DUP5 SLOAD PUSH2 0x798 JUMP JUMPDEST DUP3 SSTORE POP POP POP POP JUMP JUMPDEST PUSH0 PUSH0 SWAP1 POP SWAP1 JUMP JUMPDEST PUSH2 0x850 PUSH2 0x841 JUMP JUMPDEST PUSH2 0x85B DUP2 DUP5 DUP5 PUSH2 0x81C JUMP JUMPDEST POP POP POP JUMP JUMPDEST JUMPDEST DUP2 DUP2 LT ISZERO PUSH2 0x87E JUMPI PUSH2 0x873 PUSH0 DUP3 PUSH2 0x848 JUMP JUMPDEST PUSH1 0x1 DUP2 ADD SWAP1 POP PUSH2 0x861 JUMP JUMPDEST POP POP JUMP JUMPDEST PUSH1 0x1F DUP3 GT ISZERO PUSH2 0x8C3 JUMPI PUSH2 0x894 DUP2 PUSH2 0x76B JUMP JUMPDEST PUSH2 0x89D DUP5 PUSH2 0x77D JUMP JUMPDEST DUP2 ADD PUSH1 0x20 DUP6 LT ISZERO PUSH2 0x8AC JUMPI DUP2 SWAP1 POP JUMPDEST PUSH2 0x8C0 PUSH2 0x8B8 DUP6 PUSH2 0x77D JUMP JUMPDEST DUP4 ADD DUP3 PUSH2 0x860 JUMP JUMPDEST POP POP JUMPDEST POP POP POP JUMP JUMPDEST PUSH0 DUP3 DUP3 SHR SWAP1 POP SWAP3 SWAP2 POP POP JUMP JUMPDEST PUSH0 PUSH2 0x8E3 PUSH0 NOT DUP5 PUSH1 0x8 MUL PUSH2 0x8C8 JUMP JUMPDEST NOT DUP1 DUP4 AND SWAP2 POP POP SWAP3 SWAP2 POP POP JUMP JUMPDEST PUSH0 PUSH2 0x8FB DUP4 DUP4 PUSH2 0x8D4 JUMP JUMPDEST SWAP2 POP DUP3 PUSH1 0x2 MUL DUP3 OR SWAP1 POP SWAP3 SWAP2 POP POP JUMP JUMPDEST PUSH2 0x914 DUP3 PUSH2 0x454 JUMP JUMPDEST PUSH8 0xFFFFFFFFFFFFFFFF DUP2 GT ISZERO PUSH2 0x92D JUMPI PUSH2 0x92C PUSH2 0x57E JUMP JUMPDEST JUMPDEST PUSH2 0x937 DUP3 SLOAD PUSH2 0x73B JUMP JUMPDEST PUSH2 0x942 DUP3 DUP3 DUP6 PUSH2 0x882 JUMP JUMPDEST PUSH0 PUSH1 0x20 SWAP1 POP PUSH1 0x1F DUP4 GT PUSH1 0x1 DUP2 EQ PUSH2 0x973 JUMPI PUSH0 DUP5 ISZERO PUSH2 0x961 JUMPI DUP3 DUP8 ADD MLOAD SWAP1 POP JUMPDEST PUSH2 0x96B DUP6 DUP3 PUSH2 0x8F0 JUMP JUMPDEST DUP7 SSTORE POP PUSH2 0x9D2 JUMP JUMPDEST PUSH1 0x1F NOT DUP5 AND PUSH2 0x981 DUP7 PUSH2 0x76B JUMP JUMPDEST PUSH0 JUMPDEST DUP3 DUP2 LT ISZERO PUSH2 0x9A8 JUMPI DUP5 DUP10 ADD MLOAD DUP3 SSTORE PUSH1 0x1 DUP3 ADD SWAP2 POP PUSH1 0x20 DUP6 ADD SWAP5 POP PUSH1 0x20 DUP2 ADD SWAP1 POP PUSH2 0x983 JUMP JUMPDEST DUP7 DUP4 LT ISZERO PUSH2 0x9C5 JUMPI DUP5 DUP10 ADD MLOAD PUSH2 0x9C1 PUSH1 0x1F DUP10 AND DUP3 PUSH2 0x8D4 JUMP JUMPDEST DUP4 SSTORE POP JUMPDEST PUSH1 0x1 PUSH1 0x2 DUP9 MUL ADD DUP9 SSTORE POP POP POP JUMPDEST POP POP POP POP POP POP JUMP INVALID LOG2 PUSH5 0x6970667358 0x22 SLT KECCAK256 CALL SSTORE JUMP RETURNDATACOPY PUSH8 0x97CD11F6B587918E 0xDA XOR DUP9 GT RETURN DUP14 CREATE ADDRESS PUSH20 0x53014CF27FB96E4ADAF164736F6C634300081E00 CALLER "
				},
				"gasEstimates": {
					"creation": {
						"codeDepositCost": "515200",
						"executionCost": "547",
						"totalCost": "515747"
					},
					"external": {
						"addStudent(uint256,string,uint256)": "infinite",
						"getStudent(uint256)": "infinite",
						"students(uint256)": "infinite",
						"updateEnrollment(uint256)": "24820"
					}
				},
				"methodIdentifiers": {
					"addStudent(uint256,string,uint256)": "c1bea1db",
					"getStudent(uint256)": "642f9163",
					"students(uint256)": "06ead22e",
					"updateEnrollment(uint256)": "9150b939"
				}
			},
			"storageLayout": {
				"storage": [
					{
						"astId": 15,
						"contract": "contracts/Struct.sol:Struct",
						"label": "students",
						"offset": 0,
						"slot": "0",
						"type": "t_mapping(t_uint256,t_struct(Student)10_storage)"
					}
				],
				"types": {
					"t_address": {
						"encoding": "inplace",
						"label": "address",
						"numberOfBytes": "20"
					},
					"t_bool": {
						"encoding": "inplace",
						"label": "bool",
						"numberOfBytes": "1"
					},
					"t_mapping(t_uint256,t_struct(Student)10_storage)": {
						"encoding": "mapping",
						"key": "t_uint256",
						"label": "mapping(uint256 => struct Struct.Student)",
						"numberOfBytes": "32",
						"value": "t_struct(Student)10_storage"
					},
					"t_string_storage": {
						"encoding": "bytes",
						"label": "string",
						"numberOfBytes": "32"
					},
					"t_struct(Student)10_storage": {
						"encoding": "inplace",
						"label": "struct Struct.Student",
						"members": [
							{
								"astId": 3,
								"contract": "contracts/Struct.sol:Struct",
								"label": "name",
								"offset": 0,
								"slot": "0",
								"type": "t_string_storage"
							},
							{
								"astId": 5,
								"contract": "contracts/Struct.sol:Struct",
								"label": "age",
								"offset": 0,
								"slot": "1",
								"type": "t_uint256"
							},
							{
								"astId": 7,
								"contract": "contracts/Struct.sol:Struct",
								"label": "wallet",
								"offset": 0,
								"slot": "2",
								"type": "t_address"
							},
							{
								"astId": 9,
								"contract": "contracts/Struct.sol:Struct",
								"label": "enrolled",
								"offset": 20,
								"slot": "2",
								"type": "t_bool"
							}
						],
						"numberOfBytes": "96"
					},
					"t_uint256": {
						"encoding": "inplace",
						"label": "uint256",
						"numberOfBytes": "32"
					}
				}
			},
			"userdoc": {
				"kind": "user",
				"methods": {},
				"version": 1
			}
		}
	}
}