{
	"contracts/FunctionArray.sol": {
		"FunctionArray": {
			"abi": [
				{
					"inputs": [],
					"name": "arrayExample",
					"outputs": [
						{
							"internalType": "uint256",
							"name": "",
							"type": "uint256"
						}
					],
					"stateMutability": "pure",
					"type": "function"
				},
				{
					"inputs": [
						{
							"internalType": "uint256[]",
							"name": "numbers",
							"type": "uint256[]"
						},
						{
							"internalType": "uint256",
							"name": "index",
							"type": "uint256"
						}
					],
					"name": "arrayParameter",
					"outputs": [
						{
							"internalType": "uint256",
							"name": "",
							"type": "uint256"
						}
					],
					"stateMutability": "pure",
					"type": "function"
				},
				{
					"inputs": [
						{
							"internalType": "uint256[]",
							"name": "numbers",
							"type": "uint256[]"
						},
						{
							"internalType": "uint256",
							"name": "index",
							"type": "uint256"
						}
					],
					"name": "callDataFunction",
					"outputs": [
						{
							"internalType": "uint256",
							"name": "",
							"type": "uint256"
						}
					],
					"stateMutability": "pure",
					"type": "function"
				}
			],
			"devdoc": {
				"kind": "dev",
				"methods": {},
				"version": 1
			},
			"evm": {
				"assembly": "    /* \"contracts/FunctionArray.sol\":61:506  contract FunctionArray {... */\n  mstore(0x40, 0x80)\n  callvalue\n  dup1\n  iszero\n  tag_1\n  jumpi\n  revert(0x00, 0x00)\ntag_1:\n  pop\n  dataSize(sub_0)\n  dup1\n  dataOffset(sub_0)\n  0x00\n  codecopy\n  0x00\n  return\nstop\n\nsub_0: assembly {\n        /* \"contracts/FunctionArray.sol\":61:506  contract FunctionArray {... */\n      mstore(0x40, 0x80)\n      callvalue\n      dup1\n      iszero\n      tag_1\n      jumpi\n      revert(0x00, 0x00)\n    tag_1:\n      pop\n      jumpi(tag_2, lt(calldatasize, 0x04))\n      shr(0xe0, calldataload(0x00))\n      dup1\n      0x0ef95ecd\n      eq\n      tag_3\n      jumpi\n      dup1\n      0x70218606\n      eq\n      tag_4\n      jumpi\n      dup1\n      0x800f380d\n      eq\n      tag_5\n      jumpi\n    tag_2:\n      revert(0x00, 0x00)\n        /* \"contracts/FunctionArray.sol\":93:233  function arrayExample() public pure returns (uint) {... */\n    tag_3:\n      tag_6\n      tag_7\n      jump\t// in\n    tag_6:\n      mload(0x40)\n      tag_8\n      swap2\n      swap1\n      tag_9\n      jump\t// in\n    tag_8:\n      mload(0x40)\n      dup1\n      swap2\n      sub\n      swap1\n      return\n        /* \"contracts/FunctionArray.sol\":241:366  function arrayParameter(uint[] memory numbers, uint index) public pure returns (uint){... */\n    tag_4:\n      tag_10\n      0x04\n      dup1\n      calldatasize\n      sub\n      dup2\n      add\n      swap1\n      tag_11\n      swap2\n      swap1\n      tag_12\n      jump\t// in\n    tag_11:\n      tag_13\n      jump\t// in\n    tag_10:\n      mload(0x40)\n      tag_14\n      swap2\n      swap1\n      tag_9\n      jump\t// in\n    tag_14:\n      mload(0x40)\n      dup1\n      swap2\n      sub\n      swap1\n      return\n        /* \"contracts/FunctionArray.sol\":374:503  function callDataFunction(uint[] calldata numbers, uint index) public pure returns (uint){... */\n    tag_5:\n      tag_15\n      0x04\n      dup1\n      calldatasize\n      sub\n      dup2\n      add\n      swap1\n      tag_16\n      swap2\n      swap1\n      tag_17\n      jump\t// in\n    tag_16:\n      tag_18\n      jump\t// in\n    tag_15:\n      mload(0x40)\n      tag_19\n      swap2\n      swap1\n      tag_9\n      jump\t// in\n    tag_19:\n      mload(0x40)\n      dup1\n      swap2\n      sub\n      swap1\n      return\n        /* \"contracts/FunctionArray.sol\":93:233  function arrayExample() public pure returns (uint) {... */\n    tag_7:\n        /* \"contracts/FunctionArray.sol\":138:142  uint */\n      0x00\n        /* \"contracts/FunctionArray.sol\":155:177  uint[3] memory numbers */\n      0x00\n        /* \"contracts/FunctionArray.sol\":155:193  uint[3] memory numbers = [uint(1),2,3] */\n      mload(0x40)\n      dup1\n      0x60\n      add\n      0x40\n      mstore\n      dup1\n        /* \"contracts/FunctionArray.sol\":186:187  1 */\n      0x01\n        /* \"contracts/FunctionArray.sol\":155:193  uint[3] memory numbers = [uint(1),2,3] */\n      dup2\n      mstore\n      0x20\n      add\n        /* \"contracts/FunctionArray.sol\":189:190  2 */\n      0x02\n        /* \"contracts/FunctionArray.sol\":155:193  uint[3] memory numbers = [uint(1),2,3] */\n      dup2\n      mstore\n      0x20\n      add\n        /* \"contracts/FunctionArray.sol\":191:192  3 */\n      0x03\n        /* \"contracts/FunctionArray.sol\":155:193  uint[3] memory numbers = [uint(1),2,3] */\n      dup2\n      mstore\n      pop\n      swap1\n      pop\n        /* \"contracts/FunctionArray.sol\":211:218  numbers */\n      dup1\n        /* \"contracts/FunctionArray.sol\":219:220  0 */\n      0x00\n        /* \"contracts/FunctionArray.sol\":211:221  numbers[0] */\n      0x03\n      dup2\n      lt\n      tag_21\n      jumpi\n      tag_22\n      tag_23\n      jump\t// in\n    tag_22:\n    tag_21:\n      0x20\n      mul\n      add\n      mload\n        /* \"contracts/FunctionArray.sol\":204:221  return numbers[0] */\n      swap2\n      pop\n      pop\n        /* \"contracts/FunctionArray.sol\":93:233  function arrayExample() public pure returns (uint) {... */\n      swap1\n      jump\t// out\n        /* \"contracts/FunctionArray.sol\":241:366  function arrayParameter(uint[] memory numbers, uint index) public pure returns (uint){... */\n    tag_13:\n        /* \"contracts/FunctionArray.sol\":321:325  uint */\n      0x00\n        /* \"contracts/FunctionArray.sol\":344:351  numbers */\n      dup3\n        /* \"contracts/FunctionArray.sol\":352:357  index */\n      dup3\n        /* \"contracts/FunctionArray.sol\":344:358  numbers[index] */\n      dup2\n      mload\n      dup2\n      lt\n      tag_25\n      jumpi\n      tag_26\n      tag_23\n      jump\t// in\n    tag_26:\n    tag_25:\n      0x20\n      mul\n      0x20\n      add\n      add\n      mload\n        /* \"contracts/FunctionArray.sol\":337:358  return numbers[index] */\n      swap1\n      pop\n        /* \"contracts/FunctionArray.sol\":241:366  function arrayParameter(uint[] memory numbers, uint index) public pure returns (uint){... */\n      swap3\n      swap2\n      pop\n      pop\n      jump\t// out\n        /* \"contracts/FunctionArray.sol\":374:503  function callDataFunction(uint[] calldata numbers, uint index) public pure returns (uint){... */\n    tag_18:\n        /* \"contracts/FunctionArray.sol\":458:462  uint */\n      0x00\n        /* \"contracts/FunctionArray.sol\":481:488  numbers */\n      dup4\n      dup4\n        /* \"contracts/FunctionArray.sol\":489:494  index */\n      dup4\n        /* \"contracts/FunctionArray.sol\":481:495  numbers[index] */\n      dup2\n      dup2\n      lt\n      tag_28\n      jumpi\n      tag_29\n      tag_23\n      jump\t// in\n    tag_29:\n    tag_28:\n      swap1\n      pop\n      0x20\n      mul\n      add\n      calldataload\n        /* \"contracts/FunctionArray.sol\":474:495  return numbers[index] */\n      swap1\n      pop\n        /* \"contracts/FunctionArray.sol\":374:503  function callDataFunction(uint[] calldata numbers, uint index) public pure returns (uint){... */\n      swap4\n      swap3\n      pop\n      pop\n      pop\n      jump\t// out\n        /* \"#utility.yul\":7:84   */\n    tag_30:\n        /* \"#utility.yul\":44:51   */\n      0x00\n        /* \"#utility.yul\":73:78   */\n      dup2\n        /* \"#utility.yul\":62:78   */\n      swap1\n      pop\n        /* \"#utility.yul\":7:84   */\n      swap2\n      swap1\n      pop\n      jump\t// out\n        /* \"#utility.yul\":90:208   */\n    tag_31:\n        /* \"#utility.yul\":177:201   */\n      tag_51\n        /* \"#utility.yul\":195:200   */\n      dup2\n        /* \"#utility.yul\":177:201   */\n      tag_30\n      jump\t// in\n    tag_51:\n        /* \"#utility.yul\":172:175   */\n      dup3\n        /* \"#utility.yul\":165:202   */\n      mstore\n        /* \"#utility.yul\":90:208   */\n      pop\n      pop\n      jump\t// out\n        /* \"#utility.yul\":214:436   */\n    tag_9:\n        /* \"#utility.yul\":307:311   */\n      0x00\n        /* \"#utility.yul\":345:347   */\n      0x20\n        /* \"#utility.yul\":334:343   */\n      dup3\n        /* \"#utility.yul\":330:348   */\n      add\n        /* \"#utility.yul\":322:348   */\n      swap1\n      pop\n        /* \"#utility.yul\":358:429   */\n      tag_53\n        /* \"#utility.yul\":426:427   */\n      0x00\n        /* \"#utility.yul\":415:424   */\n      dup4\n        /* \"#utility.yul\":411:428   */\n      add\n        /* \"#utility.yul\":402:408   */\n      dup5\n        /* \"#utility.yul\":358:429   */\n      tag_31\n      jump\t// in\n    tag_53:\n        /* \"#utility.yul\":214:436   */\n      swap3\n      swap2\n      pop\n      pop\n      jump\t// out\n        /* \"#utility.yul\":442:517   */\n    tag_32:\n        /* \"#utility.yul\":475:481   */\n      0x00\n        /* \"#utility.yul\":508:510   */\n      0x40\n        /* \"#utility.yul\":502:511   */\n      mload\n        /* \"#utility.yul\":492:511   */\n      swap1\n      pop\n        /* \"#utility.yul\":442:517   */\n      swap1\n      jump\t// out\n        /* \"#utility.yul\":523:640   */\n    tag_33:\n        /* \"#utility.yul\":632:633   */\n      0x00\n        /* \"#utility.yul\":629:630   */\n      0x00\n        /* \"#utility.yul\":622:634   */\n      revert\n        /* \"#utility.yul\":646:763   */\n    tag_34:\n        /* \"#utility.yul\":755:756   */\n      0x00\n        /* \"#utility.yul\":752:753   */\n      0x00\n        /* \"#utility.yul\":745:757   */\n      revert\n        /* \"#utility.yul\":769:886   */\n    tag_35:\n        /* \"#utility.yul\":878:879   */\n      0x00\n        /* \"#utility.yul\":875:876   */\n      0x00\n        /* \"#utility.yul\":868:880   */\n      revert\n        /* \"#utility.yul\":892:994   */\n    tag_36:\n        /* \"#utility.yul\":933:939   */\n      0x00\n        /* \"#utility.yul\":984:986   */\n      0x1f\n        /* \"#utility.yul\":980:987   */\n      not\n        /* \"#utility.yul\":975:977   */\n      0x1f\n        /* \"#utility.yul\":968:973   */\n      dup4\n        /* \"#utility.yul\":964:978   */\n      add\n        /* \"#utility.yul\":960:988   */\n      and\n        /* \"#utility.yul\":950:988   */\n      swap1\n      pop\n        /* \"#utility.yul\":892:994   */\n      swap2\n      swap1\n      pop\n      jump\t// out\n        /* \"#utility.yul\":1000:1180   */\n    tag_37:\n        /* \"#utility.yul\":1048:1125   */\n      0x4e487b7100000000000000000000000000000000000000000000000000000000\n        /* \"#utility.yul\":1045:1046   */\n      0x00\n        /* \"#utility.yul\":1038:1126   */\n      mstore\n        /* \"#utility.yul\":1145:1149   */\n      0x41\n        /* \"#utility.yul\":1142:1143   */\n      0x04\n        /* \"#utility.yul\":1135:1150   */\n      mstore\n        /* \"#utility.yul\":1169:1173   */\n      0x24\n        /* \"#utility.yul\":1166:1167   */\n      0x00\n        /* \"#utility.yul\":1159:1174   */\n      revert\n        /* \"#utility.yul\":1186:1467   */\n    tag_38:\n        /* \"#utility.yul\":1269:1296   */\n      tag_61\n        /* \"#utility.yul\":1291:1295   */\n      dup3\n        /* \"#utility.yul\":1269:1296   */\n      tag_36\n      jump\t// in\n    tag_61:\n        /* \"#utility.yul\":1261:1267   */\n      dup2\n        /* \"#utility.yul\":1257:1297   */\n      add\n        /* \"#utility.yul\":1399:1405   */\n      dup2\n        /* \"#utility.yul\":1387:1397   */\n      dup2\n        /* \"#utility.yul\":1384:1406   */\n      lt\n        /* \"#utility.yul\":1363:1381   */\n      0xffffffffffffffff\n        /* \"#utility.yul\":1351:1361   */\n      dup3\n        /* \"#utility.yul\":1348:1382   */\n      gt\n        /* \"#utility.yul\":1345:1407   */\n      or\n        /* \"#utility.yul\":1342:1430   */\n      iszero\n      tag_62\n      jumpi\n        /* \"#utility.yul\":1410:1428   */\n      tag_63\n      tag_37\n      jump\t// in\n    tag_63:\n        /* \"#utility.yul\":1342:1430   */\n    tag_62:\n        /* \"#utility.yul\":1450:1460   */\n      dup1\n        /* \"#utility.yul\":1446:1448   */\n      0x40\n        /* \"#utility.yul\":1439:1461   */\n      mstore\n        /* \"#utility.yul\":1229:1467   */\n      pop\n        /* \"#utility.yul\":1186:1467   */\n      pop\n      pop\n      jump\t// out\n        /* \"#utility.yul\":1473:1602   */\n    tag_39:\n        /* \"#utility.yul\":1507:1513   */\n      0x00\n        /* \"#utility.yul\":1534:1554   */\n      tag_65\n      tag_32\n      jump\t// in\n    tag_65:\n        /* \"#utility.yul\":1524:1554   */\n      swap1\n      pop\n        /* \"#utility.yul\":1563:1596   */\n      tag_66\n        /* \"#utility.yul\":1591:1595   */\n      dup3\n        /* \"#utility.yul\":1583:1589   */\n      dup3\n        /* \"#utility.yul\":1563:1596   */\n      tag_38\n      jump\t// in\n    tag_66:\n        /* \"#utility.yul\":1473:1602   */\n      swap2\n      swap1\n      pop\n      jump\t// out\n        /* \"#utility.yul\":1608:1919   */\n    tag_40:\n        /* \"#utility.yul\":1685:1689   */\n      0x00\n        /* \"#utility.yul\":1775:1793   */\n      0xffffffffffffffff\n        /* \"#utility.yul\":1767:1773   */\n      dup3\n        /* \"#utility.yul\":1764:1794   */\n      gt\n        /* \"#utility.yul\":1761:1817   */\n      iszero\n      tag_68\n      jumpi\n        /* \"#utility.yul\":1797:1815   */\n      tag_69\n      tag_37\n      jump\t// in\n    tag_69:\n        /* \"#utility.yul\":1761:1817   */\n    tag_68:\n        /* \"#utility.yul\":1847:1851   */\n      0x20\n        /* \"#utility.yul\":1839:1845   */\n      dup3\n        /* \"#utility.yul\":1835:1852   */\n      mul\n        /* \"#utility.yul\":1827:1852   */\n      swap1\n      pop\n        /* \"#utility.yul\":1907:1911   */\n      0x20\n        /* \"#utility.yul\":1901:1905   */\n      dup2\n        /* \"#utility.yul\":1897:1912   */\n      add\n        /* \"#utility.yul\":1889:1912   */\n      swap1\n      pop\n        /* \"#utility.yul\":1608:1919   */\n      swap2\n      swap1\n      pop\n      jump\t// out\n        /* \"#utility.yul\":1925:2042   */\n    tag_41:\n        /* \"#utility.yul\":2034:2035   */\n      0x00\n        /* \"#utility.yul\":2031:2032   */\n      0x00\n        /* \"#utility.yul\":2024:2036   */\n      revert\n        /* \"#utility.yul\":2048:2170   */\n    tag_42:\n        /* \"#utility.yul\":2121:2145   */\n      tag_72\n        /* \"#utility.yul\":2139:2144   */\n      dup2\n        /* \"#utility.yul\":2121:2145   */\n      tag_30\n      jump\t// in\n    tag_72:\n        /* \"#utility.yul\":2114:2119   */\n      dup2\n        /* \"#utility.yul\":2111:2146   */\n      eq\n        /* \"#utility.yul\":2101:2164   */\n      tag_73\n      jumpi\n        /* \"#utility.yul\":2160:2161   */\n      0x00\n        /* \"#utility.yul\":2157:2158   */\n      0x00\n        /* \"#utility.yul\":2150:2162   */\n      revert\n        /* \"#utility.yul\":2101:2164   */\n    tag_73:\n        /* \"#utility.yul\":2048:2170   */\n      pop\n      jump\t// out\n        /* \"#utility.yul\":2176:2315   */\n    tag_43:\n        /* \"#utility.yul\":2222:2227   */\n      0x00\n        /* \"#utility.yul\":2260:2266   */\n      dup2\n        /* \"#utility.yul\":2247:2267   */\n      calldataload\n        /* \"#utility.yul\":2238:2267   */\n      swap1\n      pop\n        /* \"#utility.yul\":2276:2309   */\n      tag_75\n        /* \"#utility.yul\":2303:2308   */\n      dup2\n        /* \"#utility.yul\":2276:2309   */\n      tag_42\n      jump\t// in\n    tag_75:\n        /* \"#utility.yul\":2176:2315   */\n      swap3\n      swap2\n      pop\n      pop\n      jump\t// out\n        /* \"#utility.yul\":2338:3048   */\n    tag_44:\n        /* \"#utility.yul\":2434:2439   */\n      0x00\n        /* \"#utility.yul\":2459:2540   */\n      tag_77\n        /* \"#utility.yul\":2475:2539   */\n      tag_78\n        /* \"#utility.yul\":2532:2538   */\n      dup5\n        /* \"#utility.yul\":2475:2539   */\n      tag_40\n      jump\t// in\n    tag_78:\n        /* \"#utility.yul\":2459:2540   */\n      tag_39\n      jump\t// in\n    tag_77:\n        /* \"#utility.yul\":2450:2540   */\n      swap1\n      pop\n        /* \"#utility.yul\":2560:2565   */\n      dup1\n        /* \"#utility.yul\":2589:2595   */\n      dup4\n        /* \"#utility.yul\":2582:2587   */\n      dup3\n        /* \"#utility.yul\":2575:2596   */\n      mstore\n        /* \"#utility.yul\":2623:2627   */\n      0x20\n        /* \"#utility.yul\":2616:2621   */\n      dup3\n        /* \"#utility.yul\":2612:2628   */\n      add\n        /* \"#utility.yul\":2605:2628   */\n      swap1\n      pop\n        /* \"#utility.yul\":2676:2680   */\n      0x20\n        /* \"#utility.yul\":2668:2674   */\n      dup5\n        /* \"#utility.yul\":2664:2681   */\n      mul\n        /* \"#utility.yul\":2656:2662   */\n      dup4\n        /* \"#utility.yul\":2652:2682   */\n      add\n        /* \"#utility.yul\":2705:2708   */\n      dup6\n        /* \"#utility.yul\":2697:2703   */\n      dup2\n        /* \"#utility.yul\":2694:2709   */\n      gt\n        /* \"#utility.yul\":2691:2813   */\n      iszero\n      tag_79\n      jumpi\n        /* \"#utility.yul\":2724:2803   */\n      tag_80\n      tag_41\n      jump\t// in\n    tag_80:\n        /* \"#utility.yul\":2691:2813   */\n    tag_79:\n        /* \"#utility.yul\":2839:2845   */\n      dup4\n        /* \"#utility.yul\":2822:3042   */\n    tag_81:\n        /* \"#utility.yul\":2856:2862   */\n      dup2\n        /* \"#utility.yul\":2851:2854   */\n      dup2\n        /* \"#utility.yul\":2848:2863   */\n      lt\n        /* \"#utility.yul\":2822:3042   */\n      iszero\n      tag_83\n      jumpi\n        /* \"#utility.yul\":2931:2934   */\n      dup1\n        /* \"#utility.yul\":2960:2997   */\n      tag_84\n        /* \"#utility.yul\":2993:2996   */\n      dup9\n        /* \"#utility.yul\":2981:2991   */\n      dup3\n        /* \"#utility.yul\":2960:2997   */\n      tag_43\n      jump\t// in\n    tag_84:\n        /* \"#utility.yul\":2955:2958   */\n      dup5\n        /* \"#utility.yul\":2948:2998   */\n      mstore\n        /* \"#utility.yul\":3027:3031   */\n      0x20\n        /* \"#utility.yul\":3022:3025   */\n      dup5\n        /* \"#utility.yul\":3018:3032   */\n      add\n        /* \"#utility.yul\":3011:3032   */\n      swap4\n      pop\n        /* \"#utility.yul\":2898:3042   */\n      pop\n        /* \"#utility.yul\":2882:2886   */\n      0x20\n        /* \"#utility.yul\":2877:2880   */\n      dup2\n        /* \"#utility.yul\":2873:2887   */\n      add\n        /* \"#utility.yul\":2866:2887   */\n      swap1\n      pop\n        /* \"#utility.yul\":2822:3042   */\n      jump(tag_81)\n    tag_83:\n        /* \"#utility.yul\":2826:2847   */\n      pop\n        /* \"#utility.yul\":2440:3048   */\n      pop\n      pop\n        /* \"#utility.yul\":2338:3048   */\n      swap4\n      swap3\n      pop\n      pop\n      pop\n      jump\t// out\n        /* \"#utility.yul\":3071:3441   */\n    tag_45:\n        /* \"#utility.yul\":3142:3147   */\n      0x00\n        /* \"#utility.yul\":3191:3194   */\n      dup3\n        /* \"#utility.yul\":3184:3188   */\n      0x1f\n        /* \"#utility.yul\":3176:3182   */\n      dup4\n        /* \"#utility.yul\":3172:3189   */\n      add\n        /* \"#utility.yul\":3168:3195   */\n      slt\n        /* \"#utility.yul\":3158:3280   */\n      tag_86\n      jumpi\n        /* \"#utility.yul\":3199:3278   */\n      tag_87\n      tag_35\n      jump\t// in\n    tag_87:\n        /* \"#utility.yul\":3158:3280   */\n    tag_86:\n        /* \"#utility.yul\":3316:3322   */\n      dup2\n        /* \"#utility.yul\":3303:3323   */\n      calldataload\n        /* \"#utility.yul\":3341:3435   */\n      tag_88\n        /* \"#utility.yul\":3431:3434   */\n      dup5\n        /* \"#utility.yul\":3423:3429   */\n      dup3\n        /* \"#utility.yul\":3416:3420   */\n      0x20\n        /* \"#utility.yul\":3408:3414   */\n      dup7\n        /* \"#utility.yul\":3404:3421   */\n      add\n        /* \"#utility.yul\":3341:3435   */\n      tag_44\n      jump\t// in\n    tag_88:\n        /* \"#utility.yul\":3332:3435   */\n      swap2\n      pop\n        /* \"#utility.yul\":3148:3441   */\n      pop\n        /* \"#utility.yul\":3071:3441   */\n      swap3\n      swap2\n      pop\n      pop\n      jump\t// out\n        /* \"#utility.yul\":3447:4131   */\n    tag_12:\n        /* \"#utility.yul\":3540:3546   */\n      0x00\n        /* \"#utility.yul\":3548:3554   */\n      0x00\n        /* \"#utility.yul\":3597:3599   */\n      0x40\n        /* \"#utility.yul\":3585:3594   */\n      dup4\n        /* \"#utility.yul\":3576:3583   */\n      dup6\n        /* \"#utility.yul\":3572:3595   */\n      sub\n        /* \"#utility.yul\":3568:3600   */\n      slt\n        /* \"#utility.yul\":3565:3684   */\n      iszero\n      tag_90\n      jumpi\n        /* \"#utility.yul\":3603:3682   */\n      tag_91\n      tag_33\n      jump\t// in\n    tag_91:\n        /* \"#utility.yul\":3565:3684   */\n    tag_90:\n        /* \"#utility.yul\":3751:3752   */\n      0x00\n        /* \"#utility.yul\":3740:3749   */\n      dup4\n        /* \"#utility.yul\":3736:3753   */\n      add\n        /* \"#utility.yul\":3723:3754   */\n      calldataload\n        /* \"#utility.yul\":3781:3799   */\n      0xffffffffffffffff\n        /* \"#utility.yul\":3773:3779   */\n      dup2\n        /* \"#utility.yul\":3770:3800   */\n      gt\n        /* \"#utility.yul\":3767:3884   */\n      iszero\n      tag_92\n      jumpi\n        /* \"#utility.yul\":3803:3882   */\n      tag_93\n      tag_34\n      jump\t// in\n    tag_93:\n        /* \"#utility.yul\":3767:3884   */\n    tag_92:\n        /* \"#utility.yul\":3908:3986   */\n      tag_94\n        /* \"#utility.yul\":3978:3985   */\n      dup6\n        /* \"#utility.yul\":3969:3975   */\n      dup3\n        /* \"#utility.yul\":3958:3967   */\n      dup7\n        /* \"#utility.yul\":3954:3976   */\n      add\n        /* \"#utility.yul\":3908:3986   */\n      tag_45\n      jump\t// in\n    tag_94:\n        /* \"#utility.yul\":3898:3986   */\n      swap3\n      pop\n        /* \"#utility.yul\":3694:3996   */\n      pop\n        /* \"#utility.yul\":4035:4037   */\n      0x20\n        /* \"#utility.yul\":4061:4114   */\n      tag_95\n        /* \"#utility.yul\":4106:4113   */\n      dup6\n        /* \"#utility.yul\":4097:4103   */\n      dup3\n        /* \"#utility.yul\":4086:4095   */\n      dup7\n        /* \"#utility.yul\":4082:4104   */\n      add\n        /* \"#utility.yul\":4061:4114   */\n      tag_43\n      jump\t// in\n    tag_95:\n        /* \"#utility.yul\":4051:4114   */\n      swap2\n      pop\n        /* \"#utility.yul\":4006:4124   */\n      pop\n        /* \"#utility.yul\":3447:4131   */\n      swap3\n      pop\n      swap3\n      swap1\n      pop\n      jump\t// out\n        /* \"#utility.yul\":4137:4254   */\n    tag_46:\n        /* \"#utility.yul\":4246:4247   */\n      0x00\n        /* \"#utility.yul\":4243:4244   */\n      0x00\n        /* \"#utility.yul\":4236:4248   */\n      revert\n        /* \"#utility.yul\":4277:4845   */\n    tag_47:\n        /* \"#utility.yul\":4350:4358   */\n      0x00\n        /* \"#utility.yul\":4360:4366   */\n      0x00\n        /* \"#utility.yul\":4410:4413   */\n      dup4\n        /* \"#utility.yul\":4403:4407   */\n      0x1f\n        /* \"#utility.yul\":4395:4401   */\n      dup5\n        /* \"#utility.yul\":4391:4408   */\n      add\n        /* \"#utility.yul\":4387:4414   */\n      slt\n        /* \"#utility.yul\":4377:4499   */\n      tag_98\n      jumpi\n        /* \"#utility.yul\":4418:4497   */\n      tag_99\n      tag_35\n      jump\t// in\n    tag_99:\n        /* \"#utility.yul\":4377:4499   */\n    tag_98:\n        /* \"#utility.yul\":4531:4537   */\n      dup3\n        /* \"#utility.yul\":4518:4538   */\n      calldataload\n        /* \"#utility.yul\":4508:4538   */\n      swap1\n      pop\n        /* \"#utility.yul\":4561:4579   */\n      0xffffffffffffffff\n        /* \"#utility.yul\":4553:4559   */\n      dup2\n        /* \"#utility.yul\":4550:4580   */\n      gt\n        /* \"#utility.yul\":4547:4664   */\n      iszero\n      tag_100\n      jumpi\n        /* \"#utility.yul\":4583:4662   */\n      tag_101\n      tag_46\n      jump\t// in\n    tag_101:\n        /* \"#utility.yul\":4547:4664   */\n    tag_100:\n        /* \"#utility.yul\":4697:4701   */\n      0x20\n        /* \"#utility.yul\":4689:4695   */\n      dup4\n        /* \"#utility.yul\":4685:4702   */\n      add\n        /* \"#utility.yul\":4673:4702   */\n      swap2\n      pop\n        /* \"#utility.yul\":4751:4754   */\n      dup4\n        /* \"#utility.yul\":4743:4747   */\n      0x20\n        /* \"#utility.yul\":4735:4741   */\n      dup3\n        /* \"#utility.yul\":4731:4748   */\n      mul\n        /* \"#utility.yul\":4721:4729   */\n      dup4\n        /* \"#utility.yul\":4717:4749   */\n      add\n        /* \"#utility.yul\":4714:4755   */\n      gt\n        /* \"#utility.yul\":4711:4839   */\n      iszero\n      tag_102\n      jumpi\n        /* \"#utility.yul\":4758:4837   */\n      tag_103\n      tag_41\n      jump\t// in\n    tag_103:\n        /* \"#utility.yul\":4711:4839   */\n    tag_102:\n        /* \"#utility.yul\":4277:4845   */\n      swap3\n      pop\n      swap3\n      swap1\n      pop\n      jump\t// out\n        /* \"#utility.yul\":4851:5555   */\n    tag_17:\n        /* \"#utility.yul\":4946:4952   */\n      0x00\n        /* \"#utility.yul\":4954:4960   */\n      0x00\n        /* \"#utility.yul\":4962:4968   */\n      0x00\n        /* \"#utility.yul\":5011:5013   */\n      0x40\n        /* \"#utility.yul\":4999:5008   */\n      dup5\n        /* \"#utility.yul\":4990:4997   */\n      dup7\n        /* \"#utility.yul\":4986:5009   */\n      sub\n        /* \"#utility.yul\":4982:5014   */\n      slt\n        /* \"#utility.yul\":4979:5098   */\n      iszero\n      tag_105\n      jumpi\n        /* \"#utility.yul\":5017:5096   */\n      tag_106\n      tag_33\n      jump\t// in\n    tag_106:\n        /* \"#utility.yul\":4979:5098   */\n    tag_105:\n        /* \"#utility.yul\":5165:5166   */\n      0x00\n        /* \"#utility.yul\":5154:5163   */\n      dup5\n        /* \"#utility.yul\":5150:5167   */\n      add\n        /* \"#utility.yul\":5137:5168   */\n      calldataload\n        /* \"#utility.yul\":5195:5213   */\n      0xffffffffffffffff\n        /* \"#utility.yul\":5187:5193   */\n      dup2\n        /* \"#utility.yul\":5184:5214   */\n      gt\n        /* \"#utility.yul\":5181:5298   */\n      iszero\n      tag_107\n      jumpi\n        /* \"#utility.yul\":5217:5296   */\n      tag_108\n      tag_34\n      jump\t// in\n    tag_108:\n        /* \"#utility.yul\":5181:5298   */\n    tag_107:\n        /* \"#utility.yul\":5330:5410   */\n      tag_109\n        /* \"#utility.yul\":5402:5409   */\n      dup7\n        /* \"#utility.yul\":5393:5399   */\n      dup3\n        /* \"#utility.yul\":5382:5391   */\n      dup8\n        /* \"#utility.yul\":5378:5400   */\n      add\n        /* \"#utility.yul\":5330:5410   */\n      tag_47\n      jump\t// in\n    tag_109:\n        /* \"#utility.yul\":5312:5410   */\n      swap4\n      pop\n      swap4\n      pop\n        /* \"#utility.yul\":5108:5420   */\n      pop\n        /* \"#utility.yul\":5459:5461   */\n      0x20\n        /* \"#utility.yul\":5485:5538   */\n      tag_110\n        /* \"#utility.yul\":5530:5537   */\n      dup7\n        /* \"#utility.yul\":5521:5527   */\n      dup3\n        /* \"#utility.yul\":5510:5519   */\n      dup8\n        /* \"#utility.yul\":5506:5528   */\n      add\n        /* \"#utility.yul\":5485:5538   */\n      tag_43\n      jump\t// in\n    tag_110:\n        /* \"#utility.yul\":5475:5538   */\n      swap2\n      pop\n        /* \"#utility.yul\":5430:5548   */\n      pop\n        /* \"#utility.yul\":4851:5555   */\n      swap3\n      pop\n      swap3\n      pop\n      swap3\n      jump\t// out\n        /* \"#utility.yul\":5561:5741   */\n    tag_23:\n        /* \"#utility.yul\":5609:5686   */\n      0x4e487b7100000000000000000000000000000000000000000000000000000000\n        /* \"#utility.yul\":5606:5607   */\n      0x00\n        /* \"#utility.yul\":5599:5687   */\n      mstore\n        /* \"#utility.yul\":5706:5710   */\n      0x32\n        /* \"#utility.yul\":5703:5704   */\n      0x04\n        /* \"#utility.yul\":5696:5711   */\n      mstore\n        /* \"#utility.yul\":5730:5734   */\n      0x24\n        /* \"#utility.yul\":5727:5728   */\n      0x00\n        /* \"#utility.yul\":5720:5735   */\n      revert\n\n    auxdata: 0xa2646970667358221220242bdb704ca00648d937ad878030a8ce33aae81c3112873e83181071db5929e064736f6c634300081e0033\n}\n",
				"bytecode": {
					"linkReferences": {},
					"object": "6080604052348015600e575f5ffd5b506104788061001c5f395ff3fe608060405234801561000f575f5ffd5b506004361061003f575f3560e01c80630ef95ecd146100435780637021860614610061578063800f380d14610091575b5f5ffd5b61004b6100c1565b6040516100589190610161565b60405180910390f35b61007b60048036038101906100769190610305565b610101565b6040516100889190610161565b60405180910390f35b6100ab60048036038101906100a691906103b8565b610125565b6040516100b89190610161565b60405180910390f35b5f5f6040518060600160405280600181526020016002815260200160038152509050805f600381106100f6576100f5610415565b5b602002015191505090565b5f82828151811061011557610114610415565b5b6020026020010151905092915050565b5f83838381811061013957610138610415565b5b9050602002013590509392505050565b5f819050919050565b61015b81610149565b82525050565b5f6020820190506101745f830184610152565b92915050565b5f604051905090565b5f5ffd5b5f5ffd5b5f5ffd5b5f601f19601f8301169050919050565b7f4e487b71000000000000000000000000000000000000000000000000000000005f52604160045260245ffd5b6101d58261018f565b810181811067ffffffffffffffff821117156101f4576101f361019f565b5b80604052505050565b5f61020661017a565b905061021282826101cc565b919050565b5f67ffffffffffffffff8211156102315761023061019f565b5b602082029050602081019050919050565b5f5ffd5b61024f81610149565b8114610259575f5ffd5b50565b5f8135905061026a81610246565b92915050565b5f61028261027d84610217565b6101fd565b905080838252602082019050602084028301858111156102a5576102a4610242565b5b835b818110156102ce57806102ba888261025c565b8452602084019350506020810190506102a7565b5050509392505050565b5f82601f8301126102ec576102eb61018b565b5b81356102fc848260208601610270565b91505092915050565b5f5f6040838503121561031b5761031a610183565b5b5f83013567ffffffffffffffff81111561033857610337610187565b5b610344858286016102d8565b92505060206103558582860161025c565b9150509250929050565b5f5ffd5b5f5f83601f8401126103785761037761018b565b5b8235905067ffffffffffffffff8111156103955761039461035f565b5b6020830191508360208202830111156103b1576103b0610242565b5b9250929050565b5f5f5f604084860312156103cf576103ce610183565b5b5f84013567ffffffffffffffff8111156103ec576103eb610187565b5b6103f886828701610363565b9350935050602061040b8682870161025c565b9150509250925092565b7f4e487b71000000000000000000000000000000000000000000000000000000005f52603260045260245ffdfea2646970667358221220242bdb704ca00648d937ad878030a8ce33aae81c3112873e83181071db5929e064736f6c634300081e0033",
					"opcodes": "PUSH1 0x80 PUSH1 0x40 MSTORE CALLVALUE DUP1 ISZERO PUSH1 0xE JUMPI PUSH0 PUSH0 REVERT JUMPDEST POP PUSH2 0x478 DUP1 PUSH2 0x1C PUSH0 CODECOPY PUSH0 RETURN INVALID PUSH1 0x80 PUSH1 0x40 MSTORE CALLVALUE DUP1 ISZERO PUSH2 0xF JUMPI PUSH0 PUSH0 REVERT JUMPDEST POP PUSH1 0x4 CALLDATASIZE LT PUSH2 0x3F JUMPI PUSH0 CALLDATALOAD PUSH1 0xE0 SHR DUP1 PUSH4 0xEF95ECD EQ PUSH2 0x43 JUMPI DUP1 PUSH4 0x70218606 EQ PUSH2 0x61 JUMPI DUP1 PUSH4 0x800F380D EQ PUSH2 0x91 JUMPI JUMPDEST PUSH0 PUSH0 REVERT JUMPDEST PUSH2 0x4B PUSH2 0xC1 JUMP JUMPDEST PUSH1 0x40 MLOAD PUSH2 0x58 SWAP2 SWAP1 PUSH2 0x161 JUMP JUMPDEST PUSH1 0x40 MLOAD DUP1 SWAP2 SUB SWAP1 RETURN JUMPDEST PUSH2 0x7B PUSH1 0x4 DUP1 CALLDATASIZE SUB DUP2 ADD SWAP1 PUSH2 0x76 SWAP2 SWAP1 PUSH2 0x305 JUMP JUMPDEST PUSH2 0x101 JUMP JUMPDEST PUSH1 0x40 MLOAD PUSH2 0x88 SWAP2 SWAP1 PUSH2 0x161 JUMP JUMPDEST PUSH1 0x40 MLOAD DUP1 SWAP2 SUB SWAP1 RETURN JUMPDEST PUSH2 0xAB PUSH1 0x4 DUP1 CALLDATASIZE SUB DUP2 ADD SWAP1 PUSH2 0xA6 SWAP2 SWAP1 PUSH2 0x3B8 JUMP JUMPDEST PUSH2 0x125 JUMP JUMPDEST PUSH1 0x40 MLOAD PUSH2 0xB8 SWAP2 SWAP1 PUSH2 0x161 JUMP JUMPDEST PUSH1 0x40 MLOAD DUP1 SWAP2 SUB SWAP1 RETURN JUMPDEST PUSH0 PUSH0 PUSH1 0x40 MLOAD DUP1 PUSH1 0x60 ADD PUSH1 0x40 MSTORE DUP1 PUSH1 0x1 DUP2 MSTORE PUSH1 0x20 ADD PUSH1 0x2 DUP2 MSTORE PUSH1 0x20 ADD PUSH1 0x3 DUP2 MSTORE POP SWAP1 POP DUP1 PUSH0 PUSH1 0x3 DUP2 LT PUSH2 0xF6 JUMPI PUSH2 0xF5 PUSH2 0x415 JUMP JUMPDEST JUMPDEST PUSH1 0x20 MUL ADD MLOAD SWAP2 POP POP SWAP1 JUMP JUMPDEST PUSH0 DUP3 DUP3 DUP2 MLOAD DUP2 LT PUSH2 0x115 JUMPI PUSH2 0x114 PUSH2 0x415 JUMP JUMPDEST JUMPDEST PUSH1 0x20 MUL PUSH1 0x20 ADD ADD MLOAD SWAP1 POP SWAP3 SWAP2 POP POP JUMP JUMPDEST PUSH0 DUP4 DUP4 DUP4 DUP2 DUP2 LT PUSH2 0x139 JUMPI PUSH2 0x138 PUSH2 0x415 JUMP JUMPDEST JUMPDEST SWAP1 POP PUSH1 0x20 MUL ADD CALLDATALOAD SWAP1 POP SWAP4 SWAP3 POP POP POP JUMP JUMPDEST PUSH0 DUP2 SWAP1 POP SWAP2 SWAP1 POP JUMP JUMPDEST PUSH2 0x15B DUP2 PUSH2 0x149 JUMP JUMPDEST DUP3 MSTORE POP POP JUMP JUMPDEST PUSH0 PUSH1 0x20 DUP3 ADD SWAP1 POP PUSH2 0x174 PUSH0 DUP4 ADD DUP5 PUSH2 0x152 JUMP JUMPDEST SWAP3 SWAP2 POP POP JUMP JUMPDEST PUSH0 PUSH1 0x40 MLOAD SWAP1 POP SWAP1 JUMP JUMPDEST PUSH0 PUSH0 REVERT JUMPDEST PUSH0 PUSH0 REVERT JUMPDEST PUSH0 PUSH0 REVERT JUMPDEST PUSH0 PUSH1 0x1F NOT PUSH1 0x1F DUP4 ADD AND SWAP1 POP SWAP2 SWAP1 POP JUMP JUMPDEST PUSH32 0x4E487B7100000000000000000000000000000000000000000000000000000000 PUSH0 MSTORE PUSH1 0x41 PUSH1 0x4 MSTORE PUSH1 0x24 PUSH0 REVERT JUMPDEST PUSH2 0x1D5 DUP3 PUSH2 0x18F JUMP JUMPDEST DUP2 ADD DUP2 DUP2 LT PUSH8 0xFFFFFFFFFFFFFFFF DUP3 GT OR ISZERO PUSH2 0x1F4 JUMPI PUSH2 0x1F3 PUSH2 0x19F JUMP JUMPDEST JUMPDEST DUP1 PUSH1 0x40 MSTORE POP POP POP JUMP JUMPDEST PUSH0 PUSH2 0x206 PUSH2 0x17A JUMP JUMPDEST SWAP1 POP PUSH2 0x212 DUP3 DUP3 PUSH2 0x1CC JUMP JUMPDEST SWAP2 SWAP1 POP JUMP JUMPDEST PUSH0 PUSH8 0xFFFFFFFFFFFFFFFF DUP3 GT ISZERO PUSH2 0x231 JUMPI PUSH2 0x230 PUSH2 0x19F JUMP JUMPDEST JUMPDEST PUSH1 0x20 DUP3 MUL SWAP1 POP PUSH1 0x20 DUP2 ADD SWAP1 POP SWAP2 SWAP1 POP JUMP JUMPDEST PUSH0 PUSH0 REVERT JUMPDEST PUSH2 0x24F DUP2 PUSH2 0x149 JUMP JUMPDEST DUP2 EQ PUSH2 0x259 JUMPI PUSH0 PUSH0 REVERT JUMPDEST POP JUMP JUMPDEST PUSH0 DUP2 CALLDATALOAD SWAP1 POP PUSH2 0x26A DUP2 PUSH2 0x246 JUMP JUMPDEST SWAP3 SWAP2 POP POP JUMP JUMPDEST PUSH0 PUSH2 0x282 PUSH2 0x27D DUP5 PUSH2 0x217 JUMP JUMPDEST PUSH2 0x1FD JUMP JUMPDEST SWAP1 POP DUP1 DUP4 DUP3 MSTORE PUSH1 0x20 DUP3 ADD SWAP1 POP PUSH1 0x20 DUP5 MUL DUP4 ADD DUP6 DUP2 GT ISZERO PUSH2 0x2A5 JUMPI PUSH2 0x2A4 PUSH2 0x242 JUMP JUMPDEST JUMPDEST DUP4 JUMPDEST DUP2 DUP2 LT ISZERO PUSH2 0x2CE JUMPI DUP1 PUSH2 0x2BA DUP9 DUP3 PUSH2 0x25C JUMP JUMPDEST DUP5 MSTORE PUSH1 0x20 DUP5 ADD SWAP4 POP POP PUSH1 0x20 DUP2 ADD SWAP1 POP PUSH2 0x2A7 JUMP JUMPDEST POP POP POP SWAP4 SWAP3 POP POP POP JUMP JUMPDEST PUSH0 DUP3 PUSH1 0x1F DUP4 ADD SLT PUSH2 0x2EC JUMPI PUSH2 0x2EB PUSH2 0x18B JUMP JUMPDEST JUMPDEST DUP2 CALLDATALOAD PUSH2 0x2FC DUP5 DUP3 PUSH1 0x20 DUP7 ADD PUSH2 0x270 JUMP JUMPDEST SWAP2 POP POP SWAP3 SWAP2 POP POP JUMP JUMPDEST PUSH0 PUSH0 PUSH1 0x40 DUP4 DUP6 SUB SLT ISZERO PUSH2 0x31B JUMPI PUSH2 0x31A PUSH2 0x183 JUMP JUMPDEST JUMPDEST PUSH0 DUP4 ADD CALLDATALOAD PUSH8 0xFFFFFFFFFFFFFFFF DUP2 GT ISZERO PUSH2 0x338 JUMPI PUSH2 0x337 PUSH2 0x187 JUMP JUMPDEST JUMPDEST PUSH2 0x344 DUP6 DUP3 DUP7 ADD PUSH2 0x2D8 JUMP JUMPDEST SWAP3 POP POP PUSH1 0x20 PUSH2 0x355 DUP6 DUP3 DUP7 ADD PUSH2 0x25C JUMP JUMPDEST SWAP2 POP POP SWAP3 POP SWAP3 SWAP1 POP JUMP JUMPDEST PUSH0 PUSH0 REVERT JUMPDEST PUSH0 PUSH0 DUP4 PUSH1 0x1F DUP5 ADD SLT PUSH2 0x378 JUMPI PUSH2 0x377 PUSH2 0x18B JUMP JUMPDEST JUMPDEST DUP3 CALLDATALOAD SWAP1 POP PUSH8 0xFFFFFFFFFFFFFFFF DUP2 GT ISZERO PUSH2 0x395 JUMPI PUSH2 0x394 PUSH2 0x35F JUMP JUMPDEST JUMPDEST PUSH1 0x20 DUP4 ADD SWAP2 POP DUP4 PUSH1 0x20 DUP3 MUL DUP4 ADD GT ISZERO PUSH2 0x3B1 JUMPI PUSH2 0x3B0 PUSH2 0x242 JUMP JUMPDEST JUMPDEST SWAP3 POP SWAP3 SWAP1 POP JUMP JUMPDEST PUSH0 PUSH0 PUSH0 PUSH1 0x40 DUP5 DUP7 SUB SLT ISZERO PUSH2 0x3CF JUMPI PUSH2 0x3CE PUSH2 0x183 JUMP JUMPDEST JUMPDEST PUSH0 DUP5 ADD CALLDATALOAD PUSH8 0xFFFFFFFFFFFFFFFF DUP2 GT ISZERO PUSH2 0x3EC JUMPI PUSH2 0x3EB PUSH2 0x187 JUMP JUMPDEST JUMPDEST PUSH2 0x3F8 DUP7 DUP3 DUP8 ADD PUSH2 0x363 JUMP JUMPDEST SWAP4 POP SWAP4 POP POP PUSH1 0x20 PUSH2 0x40B DUP7 DUP3 DUP8 ADD PUSH2 0x25C JUMP JUMPDEST SWAP2 POP POP SWAP3 POP SWAP3 POP SWAP3 JUMP JUMPDEST PUSH32 0x4E487B7100000000000000000000000000000000000000000000000000000000 PUSH0 MSTORE PUSH1 0x32 PUSH1 0x4 MSTORE PUSH1 0x24 PUSH0 REVERT INVALID LOG2 PUSH5 0x6970667358 0x22 SLT KECCAK256 0x24 0x2B 0xDB PUSH17 0x4CA00648D937AD878030A8CE33AAE81C31 SLT DUP8 RETURNDATACOPY DUP4 XOR LT PUSH18 0xDB5929E064736F6C634300081E0033000000 "
				},
				"gasEstimates": {
					"creation": {
						"codeDepositCost": "228800",
						"executionCost": "267",
						"totalCost": "229067"
					},
					"external": {
						"arrayExample()": "432",
						"arrayParameter(uint256[],uint256)": "infinite",
						"callDataFunction(uint256[],uint256)": "infinite"
					}
				},
				"methodIdentifiers": {
					"arrayExample()": "0ef95ecd",
					"arrayParameter(uint256[],uint256)": "70218606",
					"callDataFunction(uint256[],uint256)": "800f380d"
				}
			},
			"storageLayout": {
				"storage": [],
				"types": null
			},
			"userdoc": {
				"kind": "user",
				"methods": {},
				"version": 1
			}
		}
	}
}