{
	"contracts/LogicalOperators.sol": {
		"LogicalOperators": {
			"abi": [
				{
					"inputs": [
						{
							"internalType": "uint256",
							"name": "age",
							"type": "uint256"
						},
						{
							"internalType": "bool",
							"name": "hasTicket",
							"type": "bool"
						}
					],
					"name": "addExample",
					"outputs": [
						{
							"internalType": "string",
							"name": "",
							"type": "string"
						}
					],
					"stateMutability": "pure",
					"type": "function"
				},
				{
					"inputs": [
						{
							"internalType": "bool",
							"name": "paused",
							"type": "bool"
						}
					],
					"name": "notExample",
					"outputs": [
						{
							"internalType": "string",
							"name": "",
							"type": "string"
						}
					],
					"stateMutability": "pure",
					"type": "function"
				},
				{
					"inputs": [
						{
							"internalType": "bool",
							"name": "hasCoupon",
							"type": "bool"
						},
						{
							"internalType": "bool",
							"name": "isVip",
							"type": "bool"
						}
					],
					"name": "orExample",
					"outputs": [
						{
							"internalType": "string",
							"name": "",
							"type": "string"
						}
					],
					"stateMutability": "pure",
					"type": "function"
				}
			],
			"devdoc": {
				"kind": "dev",
				"methods": {},
				"version": 1
			},
			"evm": {
				"assembly": "    /* \"contracts/LogicalOperators.sol\":61:735  contract LogicalOperators {... */\n  mstore(0x40, 0x80)\n  callvalue\n  dup1\n  iszero\n  tag_1\n  jumpi\n  revert(0x00, 0x00)\ntag_1:\n  pop\n  dataSize(sub_0)\n  dup1\n  dataOffset(sub_0)\n  0x00\n  codecopy\n  0x00\n  return\nstop\n\nsub_0: assembly {\n        /* \"contracts/LogicalOperators.sol\":61:735  contract LogicalOperators {... */\n      mstore(0x40, 0x80)\n      callvalue\n      dup1\n      iszero\n      tag_1\n      jumpi\n      revert(0x00, 0x00)\n    tag_1:\n      pop\n      jumpi(tag_2, lt(calldatasize, 0x04))\n      shr(0xe0, calldataload(0x00))\n      dup1\n      0x0bd48b32\n      eq\n      tag_3\n      jumpi\n      dup1\n      0x6be758e3\n      eq\n      tag_4\n      jumpi\n      dup1\n      0x7e5a067c\n      eq\n      tag_5\n      jumpi\n    tag_2:\n      revert(0x00, 0x00)\n        /* \"contracts/LogicalOperators.sol\":537:732  function notExample(bool paused) public pure returns (string memory){... */\n    tag_3:\n      tag_6\n      0x04\n      dup1\n      calldatasize\n      sub\n      dup2\n      add\n      swap1\n      tag_7\n      swap2\n      swap1\n      tag_8\n      jump\t// in\n    tag_7:\n      tag_9\n      jump\t// in\n    tag_6:\n      mload(0x40)\n      tag_10\n      swap2\n      swap1\n      tag_11\n      jump\t// in\n    tag_10:\n      mload(0x40)\n      dup1\n      swap2\n      sub\n      swap1\n      return\n        /* \"contracts/LogicalOperators.sol\":321:529  function orExample(bool hasCoupon, bool isVip) public pure returns (string memory){... */\n    tag_4:\n      tag_12\n      0x04\n      dup1\n      calldatasize\n      sub\n      dup2\n      add\n      swap1\n      tag_13\n      swap2\n      swap1\n      tag_14\n      jump\t// in\n    tag_13:\n      tag_15\n      jump\t// in\n    tag_12:\n      mload(0x40)\n      tag_16\n      swap2\n      swap1\n      tag_11\n      jump\t// in\n    tag_16:\n      mload(0x40)\n      dup1\n      swap2\n      sub\n      swap1\n      return\n        /* \"contracts/LogicalOperators.sol\":94:313  function addExample(uint age, bool hasTicket) public pure returns (string memory){... */\n    tag_5:\n      tag_17\n      0x04\n      dup1\n      calldatasize\n      sub\n      dup2\n      add\n      swap1\n      tag_18\n      swap2\n      swap1\n      tag_19\n      jump\t// in\n    tag_18:\n      tag_20\n      jump\t// in\n    tag_17:\n      mload(0x40)\n      tag_21\n      swap2\n      swap1\n      tag_11\n      jump\t// in\n    tag_21:\n      mload(0x40)\n      dup1\n      swap2\n      sub\n      swap1\n      return\n        /* \"contracts/LogicalOperators.sol\":537:732  function notExample(bool paused) public pure returns (string memory){... */\n    tag_9:\n        /* \"contracts/LogicalOperators.sol\":591:604  string memory */\n      0x60\n        /* \"contracts/LogicalOperators.sol\":620:626  paused */\n      dup2\n        /* \"contracts/LogicalOperators.sol\":616:677  if(!paused){... */\n      tag_23\n      jumpi\n        /* \"contracts/LogicalOperators.sol\":642:665  return \"Action allowed\" */\n      mload(0x40)\n      dup1\n      0x40\n      add\n      0x40\n      mstore\n      dup1\n      0x0e\n      dup2\n      mstore\n      0x20\n      add\n      0x416374696f6e20616c6c6f776564000000000000000000000000000000000000\n      dup2\n      mstore\n      pop\n      swap1\n      pop\n      jump(tag_22)\n        /* \"contracts/LogicalOperators.sol\":616:677  if(!paused){... */\n    tag_23:\n        /* \"contracts/LogicalOperators.sol\":691:714  return \"Action blocked\" */\n      mload(0x40)\n      dup1\n      0x40\n      add\n      0x40\n      mstore\n      dup1\n      0x0e\n      dup2\n      mstore\n      0x20\n      add\n      0x416374696f6e20626c6f636b6564000000000000000000000000000000000000\n      dup2\n      mstore\n      pop\n      swap1\n      pop\n        /* \"contracts/LogicalOperators.sol\":537:732  function notExample(bool paused) public pure returns (string memory){... */\n    tag_22:\n      swap2\n      swap1\n      pop\n      jump\t// out\n        /* \"contracts/LogicalOperators.sol\":321:529  function orExample(bool hasCoupon, bool isVip) public pure returns (string memory){... */\n    tag_15:\n        /* \"contracts/LogicalOperators.sol\":389:402  string memory */\n      0x60\n        /* \"contracts/LogicalOperators.sol\":418:427  hasCoupon */\n      dup3\n        /* \"contracts/LogicalOperators.sol\":418:436  hasCoupon || isVip */\n      dup1\n      tag_25\n      jumpi\n      pop\n        /* \"contracts/LogicalOperators.sol\":431:436  isVip */\n      dup2\n        /* \"contracts/LogicalOperators.sol\":418:436  hasCoupon || isVip */\n    tag_25:\n        /* \"contracts/LogicalOperators.sol\":414:489  if (hasCoupon || isVip){... */\n      iszero\n      tag_26\n      jumpi\n        /* \"contracts/LogicalOperators.sol\":452:477  return \"Discount replied\" */\n      mload(0x40)\n      dup1\n      0x40\n      add\n      0x40\n      mstore\n      dup1\n      0x10\n      dup2\n      mstore\n      0x20\n      add\n      0x446973636f756e74207265706c69656400000000000000000000000000000000\n      dup2\n      mstore\n      pop\n      swap1\n      pop\n      jump(tag_24)\n        /* \"contracts/LogicalOperators.sol\":414:489  if (hasCoupon || isVip){... */\n    tag_26:\n        /* \"contracts/LogicalOperators.sol\":501:521  return \"No discount\" */\n      mload(0x40)\n      dup1\n      0x40\n      add\n      0x40\n      mstore\n      dup1\n      0x0b\n      dup2\n      mstore\n      0x20\n      add\n      0x4e6f20646973636f756e74000000000000000000000000000000000000000000\n      dup2\n      mstore\n      pop\n      swap1\n      pop\n        /* \"contracts/LogicalOperators.sol\":321:529  function orExample(bool hasCoupon, bool isVip) public pure returns (string memory){... */\n    tag_24:\n      swap3\n      swap2\n      pop\n      pop\n      jump\t// out\n        /* \"contracts/LogicalOperators.sol\":94:313  function addExample(uint age, bool hasTicket) public pure returns (string memory){... */\n    tag_20:\n        /* \"contracts/LogicalOperators.sol\":161:174  string memory */\n      0x60\n        /* \"contracts/LogicalOperators.sol\":197:199  18 */\n      0x12\n        /* \"contracts/LogicalOperators.sol\":190:193  age */\n      dup4\n        /* \"contracts/LogicalOperators.sol\":190:199  age >= 18 */\n      lt\n      iszero\n        /* \"contracts/LogicalOperators.sol\":190:212  age >= 18 && hasTicket */\n      dup1\n      iszero\n      tag_28\n      jumpi\n      pop\n        /* \"contracts/LogicalOperators.sol\":203:212  hasTicket */\n      dup2\n        /* \"contracts/LogicalOperators.sol\":190:212  age >= 18 && hasTicket */\n    tag_28:\n        /* \"contracts/LogicalOperators.sol\":186:272  if (age >= 18 && hasTicket) { //Truety... */\n      iszero\n      tag_29\n      jumpi\n        /* \"contracts/LogicalOperators.sol\":238:260  return \"Entry Allowde\" */\n      mload(0x40)\n      dup1\n      0x40\n      add\n      0x40\n      mstore\n      dup1\n      0x0d\n      dup2\n      mstore\n      0x20\n      add\n      0x456e74727920416c6c6f77646500000000000000000000000000000000000000\n      dup2\n      mstore\n      pop\n      swap1\n      pop\n      jump(tag_27)\n        /* \"contracts/LogicalOperators.sol\":186:272  if (age >= 18 && hasTicket) { //Truety... */\n    tag_29:\n        /* \"contracts/LogicalOperators.sol\":284:305  return \"Entry Denied\" */\n      mload(0x40)\n      dup1\n      0x40\n      add\n      0x40\n      mstore\n      dup1\n      0x0c\n      dup2\n      mstore\n      0x20\n      add\n      0x456e7472792044656e6965640000000000000000000000000000000000000000\n      dup2\n      mstore\n      pop\n      swap1\n      pop\n        /* \"contracts/LogicalOperators.sol\":94:313  function addExample(uint age, bool hasTicket) public pure returns (string memory){... */\n    tag_27:\n      swap3\n      swap2\n      pop\n      pop\n      jump\t// out\n        /* \"#utility.yul\":88:205   */\n    tag_31:\n        /* \"#utility.yul\":197:198   */\n      0x00\n        /* \"#utility.yul\":194:195   */\n      0x00\n        /* \"#utility.yul\":187:199   */\n      revert\n        /* \"#utility.yul\":334:424   */\n    tag_33:\n        /* \"#utility.yul\":368:375   */\n      0x00\n        /* \"#utility.yul\":411:416   */\n      dup2\n        /* \"#utility.yul\":404:417   */\n      iszero\n        /* \"#utility.yul\":397:418   */\n      iszero\n        /* \"#utility.yul\":386:418   */\n      swap1\n      pop\n        /* \"#utility.yul\":334:424   */\n      swap2\n      swap1\n      pop\n      jump\t// out\n        /* \"#utility.yul\":430:546   */\n    tag_34:\n        /* \"#utility.yul\":500:521   */\n      tag_50\n        /* \"#utility.yul\":515:520   */\n      dup2\n        /* \"#utility.yul\":500:521   */\n      tag_33\n      jump\t// in\n    tag_50:\n        /* \"#utility.yul\":493:498   */\n      dup2\n        /* \"#utility.yul\":490:522   */\n      eq\n        /* \"#utility.yul\":480:540   */\n      tag_51\n      jumpi\n        /* \"#utility.yul\":536:537   */\n      0x00\n        /* \"#utility.yul\":533:534   */\n      0x00\n        /* \"#utility.yul\":526:538   */\n      revert\n        /* \"#utility.yul\":480:540   */\n    tag_51:\n        /* \"#utility.yul\":430:546   */\n      pop\n      jump\t// out\n        /* \"#utility.yul\":552:685   */\n    tag_35:\n        /* \"#utility.yul\":595:600   */\n      0x00\n        /* \"#utility.yul\":633:639   */\n      dup2\n        /* \"#utility.yul\":620:640   */\n      calldataload\n        /* \"#utility.yul\":611:640   */\n      swap1\n      pop\n        /* \"#utility.yul\":649:679   */\n      tag_53\n        /* \"#utility.yul\":673:678   */\n      dup2\n        /* \"#utility.yul\":649:679   */\n      tag_34\n      jump\t// in\n    tag_53:\n        /* \"#utility.yul\":552:685   */\n      swap3\n      swap2\n      pop\n      pop\n      jump\t// out\n        /* \"#utility.yul\":691:1014   */\n    tag_8:\n        /* \"#utility.yul\":747:753   */\n      0x00\n        /* \"#utility.yul\":796:798   */\n      0x20\n        /* \"#utility.yul\":784:793   */\n      dup3\n        /* \"#utility.yul\":775:782   */\n      dup5\n        /* \"#utility.yul\":771:794   */\n      sub\n        /* \"#utility.yul\":767:799   */\n      slt\n        /* \"#utility.yul\":764:883   */\n      iszero\n      tag_55\n      jumpi\n        /* \"#utility.yul\":802:881   */\n      tag_56\n      tag_31\n      jump\t// in\n    tag_56:\n        /* \"#utility.yul\":764:883   */\n    tag_55:\n        /* \"#utility.yul\":922:923   */\n      0x00\n        /* \"#utility.yul\":947:997   */\n      tag_57\n        /* \"#utility.yul\":989:996   */\n      dup5\n        /* \"#utility.yul\":980:986   */\n      dup3\n        /* \"#utility.yul\":969:978   */\n      dup6\n        /* \"#utility.yul\":965:987   */\n      add\n        /* \"#utility.yul\":947:997   */\n      tag_35\n      jump\t// in\n    tag_57:\n        /* \"#utility.yul\":937:997   */\n      swap2\n      pop\n        /* \"#utility.yul\":893:1007   */\n      pop\n        /* \"#utility.yul\":691:1014   */\n      swap3\n      swap2\n      pop\n      pop\n      jump\t// out\n        /* \"#utility.yul\":1020:1119   */\n    tag_36:\n        /* \"#utility.yul\":1072:1078   */\n      0x00\n        /* \"#utility.yul\":1106:1111   */\n      dup2\n        /* \"#utility.yul\":1100:1112   */\n      mload\n        /* \"#utility.yul\":1090:1112   */\n      swap1\n      pop\n        /* \"#utility.yul\":1020:1119   */\n      swap2\n      swap1\n      pop\n      jump\t// out\n        /* \"#utility.yul\":1125:1294   */\n    tag_37:\n        /* \"#utility.yul\":1209:1220   */\n      0x00\n        /* \"#utility.yul\":1243:1249   */\n      dup3\n        /* \"#utility.yul\":1238:1241   */\n      dup3\n        /* \"#utility.yul\":1231:1250   */\n      mstore\n        /* \"#utility.yul\":1283:1287   */\n      0x20\n        /* \"#utility.yul\":1278:1281   */\n      dup3\n        /* \"#utility.yul\":1274:1288   */\n      add\n        /* \"#utility.yul\":1259:1288   */\n      swap1\n      pop\n        /* \"#utility.yul\":1125:1294   */\n      swap3\n      swap2\n      pop\n      pop\n      jump\t// out\n        /* \"#utility.yul\":1300:1439   */\n    tag_38:\n        /* \"#utility.yul\":1389:1395   */\n      dup3\n        /* \"#utility.yul\":1384:1387   */\n      dup2\n        /* \"#utility.yul\":1379:1382   */\n      dup4\n        /* \"#utility.yul\":1373:1396   */\n      mcopy\n        /* \"#utility.yul\":1430:1431   */\n      0x00\n        /* \"#utility.yul\":1421:1427   */\n      dup4\n        /* \"#utility.yul\":1416:1419   */\n      dup4\n        /* \"#utility.yul\":1412:1428   */\n      add\n        /* \"#utility.yul\":1405:1432   */\n      mstore\n        /* \"#utility.yul\":1300:1439   */\n      pop\n      pop\n      pop\n      jump\t// out\n        /* \"#utility.yul\":1445:1547   */\n    tag_39:\n        /* \"#utility.yul\":1486:1492   */\n      0x00\n        /* \"#utility.yul\":1537:1539   */\n      0x1f\n        /* \"#utility.yul\":1533:1540   */\n      not\n        /* \"#utility.yul\":1528:1530   */\n      0x1f\n        /* \"#utility.yul\":1521:1526   */\n      dup4\n        /* \"#utility.yul\":1517:1531   */\n      add\n        /* \"#utility.yul\":1513:1541   */\n      and\n        /* \"#utility.yul\":1503:1541   */\n      swap1\n      pop\n        /* \"#utility.yul\":1445:1547   */\n      swap2\n      swap1\n      pop\n      jump\t// out\n        /* \"#utility.yul\":1553:1930   */\n    tag_40:\n        /* \"#utility.yul\":1641:1644   */\n      0x00\n        /* \"#utility.yul\":1669:1708   */\n      tag_63\n        /* \"#utility.yul\":1702:1707   */\n      dup3\n        /* \"#utility.yul\":1669:1708   */\n      tag_36\n      jump\t// in\n    tag_63:\n        /* \"#utility.yul\":1724:1795   */\n      tag_64\n        /* \"#utility.yul\":1788:1794   */\n      dup2\n        /* \"#utility.yul\":1783:1786   */\n      dup6\n        /* \"#utility.yul\":1724:1795   */\n      tag_37\n      jump\t// in\n    tag_64:\n        /* \"#utility.yul\":1717:1795   */\n      swap4\n      pop\n        /* \"#utility.yul\":1804:1869   */\n      tag_65\n        /* \"#utility.yul\":1862:1868   */\n      dup2\n        /* \"#utility.yul\":1857:1860   */\n      dup6\n        /* \"#utility.yul\":1850:1854   */\n      0x20\n        /* \"#utility.yul\":1843:1848   */\n      dup7\n        /* \"#utility.yul\":1839:1855   */\n      add\n        /* \"#utility.yul\":1804:1869   */\n      tag_38\n      jump\t// in\n    tag_65:\n        /* \"#utility.yul\":1894:1923   */\n      tag_66\n        /* \"#utility.yul\":1916:1922   */\n      dup2\n        /* \"#utility.yul\":1894:1923   */\n      tag_39\n      jump\t// in\n    tag_66:\n        /* \"#utility.yul\":1889:1892   */\n      dup5\n        /* \"#utility.yul\":1885:1924   */\n      add\n        /* \"#utility.yul\":1878:1924   */\n      swap2\n      pop\n        /* \"#utility.yul\":1645:1930   */\n      pop\n        /* \"#utility.yul\":1553:1930   */\n      swap3\n      swap2\n      pop\n      pop\n      jump\t// out\n        /* \"#utility.yul\":1936:2249   */\n    tag_11:\n        /* \"#utility.yul\":2049:2053   */\n      0x00\n        /* \"#utility.yul\":2087:2089   */\n      0x20\n        /* \"#utility.yul\":2076:2085   */\n      dup3\n        /* \"#utility.yul\":2072:2090   */\n      add\n        /* \"#utility.yul\":2064:2090   */\n      swap1\n      pop\n        /* \"#utility.yul\":2136:2145   */\n      dup2\n        /* \"#utility.yul\":2130:2134   */\n      dup2\n        /* \"#utility.yul\":2126:2146   */\n      sub\n        /* \"#utility.yul\":2122:2123   */\n      0x00\n        /* \"#utility.yul\":2111:2120   */\n      dup4\n        /* \"#utility.yul\":2107:2124   */\n      add\n        /* \"#utility.yul\":2100:2147   */\n      mstore\n        /* \"#utility.yul\":2164:2242   */\n      tag_68\n        /* \"#utility.yul\":2237:2241   */\n      dup2\n        /* \"#utility.yul\":2228:2234   */\n      dup5\n        /* \"#utility.yul\":2164:2242   */\n      tag_40\n      jump\t// in\n    tag_68:\n        /* \"#utility.yul\":2156:2242   */\n      swap1\n      pop\n        /* \"#utility.yul\":1936:2249   */\n      swap3\n      swap2\n      pop\n      pop\n      jump\t// out\n        /* \"#utility.yul\":2255:2717   */\n    tag_14:\n        /* \"#utility.yul\":2317:2323   */\n      0x00\n        /* \"#utility.yul\":2325:2331   */\n      0x00\n        /* \"#utility.yul\":2374:2376   */\n      0x40\n        /* \"#utility.yul\":2362:2371   */\n      dup4\n        /* \"#utility.yul\":2353:2360   */\n      dup6\n        /* \"#utility.yul\":2349:2372   */\n      sub\n        /* \"#utility.yul\":2345:2377   */\n      slt\n        /* \"#utility.yul\":2342:2461   */\n      iszero\n      tag_70\n      jumpi\n        /* \"#utility.yul\":2380:2459   */\n      tag_71\n      tag_31\n      jump\t// in\n    tag_71:\n        /* \"#utility.yul\":2342:2461   */\n    tag_70:\n        /* \"#utility.yul\":2500:2501   */\n      0x00\n        /* \"#utility.yul\":2525:2575   */\n      tag_72\n        /* \"#utility.yul\":2567:2574   */\n      dup6\n        /* \"#utility.yul\":2558:2564   */\n      dup3\n        /* \"#utility.yul\":2547:2556   */\n      dup7\n        /* \"#utility.yul\":2543:2565   */\n      add\n        /* \"#utility.yul\":2525:2575   */\n      tag_35\n      jump\t// in\n    tag_72:\n        /* \"#utility.yul\":2515:2575   */\n      swap3\n      pop\n        /* \"#utility.yul\":2471:2585   */\n      pop\n        /* \"#utility.yul\":2624:2626   */\n      0x20\n        /* \"#utility.yul\":2650:2700   */\n      tag_73\n        /* \"#utility.yul\":2692:2699   */\n      dup6\n        /* \"#utility.yul\":2683:2689   */\n      dup3\n        /* \"#utility.yul\":2672:2681   */\n      dup7\n        /* \"#utility.yul\":2668:2690   */\n      add\n        /* \"#utility.yul\":2650:2700   */\n      tag_35\n      jump\t// in\n    tag_73:\n        /* \"#utility.yul\":2640:2700   */\n      swap2\n      pop\n        /* \"#utility.yul\":2595:2710   */\n      pop\n        /* \"#utility.yul\":2255:2717   */\n      swap3\n      pop\n      swap3\n      swap1\n      pop\n      jump\t// out\n        /* \"#utility.yul\":2723:2800   */\n    tag_41:\n        /* \"#utility.yul\":2760:2767   */\n      0x00\n        /* \"#utility.yul\":2789:2794   */\n      dup2\n        /* \"#utility.yul\":2778:2794   */\n      swap1\n      pop\n        /* \"#utility.yul\":2723:2800   */\n      swap2\n      swap1\n      pop\n      jump\t// out\n        /* \"#utility.yul\":2806:2928   */\n    tag_42:\n        /* \"#utility.yul\":2879:2903   */\n      tag_76\n        /* \"#utility.yul\":2897:2902   */\n      dup2\n        /* \"#utility.yul\":2879:2903   */\n      tag_41\n      jump\t// in\n    tag_76:\n        /* \"#utility.yul\":2872:2877   */\n      dup2\n        /* \"#utility.yul\":2869:2904   */\n      eq\n        /* \"#utility.yul\":2859:2922   */\n      tag_77\n      jumpi\n        /* \"#utility.yul\":2918:2919   */\n      0x00\n        /* \"#utility.yul\":2915:2916   */\n      0x00\n        /* \"#utility.yul\":2908:2920   */\n      revert\n        /* \"#utility.yul\":2859:2922   */\n    tag_77:\n        /* \"#utility.yul\":2806:2928   */\n      pop\n      jump\t// out\n        /* \"#utility.yul\":2934:3073   */\n    tag_43:\n        /* \"#utility.yul\":2980:2985   */\n      0x00\n        /* \"#utility.yul\":3018:3024   */\n      dup2\n        /* \"#utility.yul\":3005:3025   */\n      calldataload\n        /* \"#utility.yul\":2996:3025   */\n      swap1\n      pop\n        /* \"#utility.yul\":3034:3067   */\n      tag_79\n        /* \"#utility.yul\":3061:3066   */\n      dup2\n        /* \"#utility.yul\":3034:3067   */\n      tag_42\n      jump\t// in\n    tag_79:\n        /* \"#utility.yul\":2934:3073   */\n      swap3\n      swap2\n      pop\n      pop\n      jump\t// out\n        /* \"#utility.yul\":3079:3547   */\n    tag_19:\n        /* \"#utility.yul\":3144:3150   */\n      0x00\n        /* \"#utility.yul\":3152:3158   */\n      0x00\n        /* \"#utility.yul\":3201:3203   */\n      0x40\n        /* \"#utility.yul\":3189:3198   */\n      dup4\n        /* \"#utility.yul\":3180:3187   */\n      dup6\n        /* \"#utility.yul\":3176:3199   */\n      sub\n        /* \"#utility.yul\":3172:3204   */\n      slt\n        /* \"#utility.yul\":3169:3288   */\n      iszero\n      tag_81\n      jumpi\n        /* \"#utility.yul\":3207:3286   */\n      tag_82\n      tag_31\n      jump\t// in\n    tag_82:\n        /* \"#utility.yul\":3169:3288   */\n    tag_81:\n        /* \"#utility.yul\":3327:3328   */\n      0x00\n        /* \"#utility.yul\":3352:3405   */\n      tag_83\n        /* \"#utility.yul\":3397:3404   */\n      dup6\n        /* \"#utility.yul\":3388:3394   */\n      dup3\n        /* \"#utility.yul\":3377:3386   */\n      dup7\n        /* \"#utility.yul\":3373:3395   */\n      add\n        /* \"#utility.yul\":3352:3405   */\n      tag_43\n      jump\t// in\n    tag_83:\n        /* \"#utility.yul\":3342:3405   */\n      swap3\n      pop\n        /* \"#utility.yul\":3298:3415   */\n      pop\n        /* \"#utility.yul\":3454:3456   */\n      0x20\n        /* \"#utility.yul\":3480:3530   */\n      tag_84\n        /* \"#utility.yul\":3522:3529   */\n      dup6\n        /* \"#utility.yul\":3513:3519   */\n      dup3\n        /* \"#utility.yul\":3502:3511   */\n      dup7\n        /* \"#utility.yul\":3498:3520   */\n      add\n        /* \"#utility.yul\":3480:3530   */\n      tag_35\n      jump\t// in\n    tag_84:\n        /* \"#utility.yul\":3470:3530   */\n      swap2\n      pop\n        /* \"#utility.yul\":3425:3540   */\n      pop\n        /* \"#utility.yul\":3079:3547   */\n      swap3\n      pop\n      swap3\n      swap1\n      pop\n      jump\t// out\n\n    auxdata: 0xa26469706673582212205860f884f01d0e2aaac1ed69fffd72660d11c8e1257c29c6f9631ffb9579b72364736f6c634300081e0033\n}\n",
				"bytecode": {
					"linkReferences": {},
					"object": "6080604052348015600e575f5ffd5b5061044b8061001c5f395ff3fe608060405234801561000f575f5ffd5b506004361061003f575f3560e01c80630bd48b32146100435780636be758e3146100735780637e5a067c146100a3575b5f5ffd5b61005d600480360381019061005891906102ab565b6100d3565b60405161006a9190610346565b60405180910390f35b61008d60048036038101906100889190610366565b610155565b60405161009a9190610346565b60405180910390f35b6100bd60048036038101906100b891906103d7565b6101e1565b6040516100ca9190610346565b60405180910390f35b606081610117576040518060400160405280600e81526020017f416374696f6e20616c6c6f7765640000000000000000000000000000000000008152509050610150565b6040518060400160405280600e81526020017f416374696f6e20626c6f636b656400000000000000000000000000000000000081525090505b919050565b606082806101605750815b156101a2576040518060400160405280601081526020017f446973636f756e74207265706c6965640000000000000000000000000000000081525090506101db565b6040518060400160405280600b81526020017f4e6f20646973636f756e7400000000000000000000000000000000000000000081525090505b92915050565b6060601283101580156101f15750815b15610233576040518060400160405280600d81526020017f456e74727920416c6c6f77646500000000000000000000000000000000000000815250905061026c565b6040518060400160405280600c81526020017f456e7472792044656e696564000000000000000000000000000000000000000081525090505b92915050565b5f5ffd5b5f8115159050919050565b61028a81610276565b8114610294575f5ffd5b50565b5f813590506102a581610281565b92915050565b5f602082840312156102c0576102bf610272565b5b5f6102cd84828501610297565b91505092915050565b5f81519050919050565b5f82825260208201905092915050565b8281835e5f83830152505050565b5f601f19601f8301169050919050565b5f610318826102d6565b61032281856102e0565b93506103328185602086016102f0565b61033b816102fe565b840191505092915050565b5f6020820190508181035f83015261035e818461030e565b905092915050565b5f5f6040838503121561037c5761037b610272565b5b5f61038985828601610297565b925050602061039a85828601610297565b9150509250929050565b5f819050919050565b6103b6816103a4565b81146103c0575f5ffd5b50565b5f813590506103d1816103ad565b92915050565b5f5f604083850312156103ed576103ec610272565b5b5f6103fa858286016103c3565b925050602061040b85828601610297565b915050925092905056fea26469706673582212205860f884f01d0e2aaac1ed69fffd72660d11c8e1257c29c6f9631ffb9579b72364736f6c634300081e0033",
					"opcodes": "PUSH1 0x80 PUSH1 0x40 MSTORE CALLVALUE DUP1 ISZERO PUSH1 0xE JUMPI PUSH0 PUSH0 REVERT JUMPDEST POP PUSH2 0x44B DUP1 PUSH2 0x1C PUSH0 CODECOPY PUSH0 RETURN INVALID PUSH1 0x80 PUSH1 0x40 MSTORE CALLVALUE DUP1 ISZERO PUSH2 0xF JUMPI PUSH0 PUSH0 REVERT JUMPDEST POP PUSH1 0x4 CALLDATASIZE LT PUSH2 0x3F JUMPI PUSH0 CALLDATALOAD PUSH1 0xE0 SHR DUP1 PUSH4 0xBD48B32 EQ PUSH2 0x43 JUMPI DUP1 PUSH4 0x6BE758E3 EQ PUSH2 0x73 JUMPI DUP1 PUSH4 0x7E5A067C EQ PUSH2 0xA3 JUMPI JUMPDEST PUSH0 PUSH0 REVERT JUMPDEST PUSH2 0x5D PUSH1 0x4 DUP1 CALLDATASIZE SUB DUP2 ADD SWAP1 PUSH2 0x58 SWAP2 SWAP1 PUSH2 0x2AB JUMP JUMPDEST PUSH2 0xD3 JUMP JUMPDEST PUSH1 0x40 MLOAD PUSH2 0x6A SWAP2 SWAP1 PUSH2 0x346 JUMP JUMPDEST PUSH1 0x40 MLOAD DUP1 SWAP2 SUB SWAP1 RETURN JUMPDEST PUSH2 0x8D PUSH1 0x4 DUP1 CALLDATASIZE SUB DUP2 ADD SWAP1 PUSH2 0x88 SWAP2 SWAP1 PUSH2 0x366 JUMP JUMPDEST PUSH2 0x155 JUMP JUMPDEST PUSH1 0x40 MLOAD PUSH2 0x9A SWAP2 SWAP1 PUSH2 0x346 JUMP JUMPDEST PUSH1 0x40 MLOAD DUP1 SWAP2 SUB SWAP1 RETURN JUMPDEST PUSH2 0xBD PUSH1 0x4 DUP1 CALLDATASIZE SUB DUP2 ADD SWAP1 PUSH2 0xB8 SWAP2 SWAP1 PUSH2 0x3D7 JUMP JUMPDEST PUSH2 0x1E1 JUMP JUMPDEST PUSH1 0x40 MLOAD PUSH2 0xCA SWAP2 SWAP1 PUSH2 0x346 JUMP JUMPDEST PUSH1 0x40 MLOAD DUP1 SWAP2 SUB SWAP1 RETURN JUMPDEST PUSH1 0x60 DUP2 PUSH2 0x117 JUMPI PUSH1 0x40 MLOAD DUP1 PUSH1 0x40 ADD PUSH1 0x40 MSTORE DUP1 PUSH1 0xE DUP2 MSTORE PUSH1 0x20 ADD PUSH32 0x416374696F6E20616C6C6F776564000000000000000000000000000000000000 DUP2 MSTORE POP SWAP1 POP PUSH2 0x150 JUMP JUMPDEST PUSH1 0x40 MLOAD DUP1 PUSH1 0x40 ADD PUSH1 0x40 MSTORE DUP1 PUSH1 0xE DUP2 MSTORE PUSH1 0x20 ADD PUSH32 0x416374696F6E20626C6F636B6564000000000000000000000000000000000000 DUP2 MSTORE POP SWAP1 POP JUMPDEST SWAP2 SWAP1 POP JUMP JUMPDEST PUSH1 0x60 DUP3 DUP1 PUSH2 0x160 JUMPI POP DUP2 JUMPDEST ISZERO PUSH2 0x1A2 JUMPI PUSH1 0x40 MLOAD DUP1 PUSH1 0x40 ADD PUSH1 0x40 MSTORE DUP1 PUSH1 0x10 DUP2 MSTORE PUSH1 0x20 ADD PUSH32 0x446973636F756E74207265706C69656400000000000000000000000000000000 DUP2 MSTORE POP SWAP1 POP PUSH2 0x1DB JUMP JUMPDEST PUSH1 0x40 MLOAD DUP1 PUSH1 0x40 ADD PUSH1 0x40 MSTORE DUP1 PUSH1 0xB DUP2 MSTORE PUSH1 0x20 ADD PUSH32 0x4E6F20646973636F756E74000000000000000000000000000000000000000000 DUP2 MSTORE POP SWAP1 POP JUMPDEST SWAP3 SWAP2 POP POP JUMP JUMPDEST PUSH1 0x60 PUSH1 0x12 DUP4 LT ISZERO DUP1 ISZERO PUSH2 0x1F1 JUMPI POP DUP2 JUMPDEST ISZERO PUSH2 0x233 JUMPI PUSH1 0x40 MLOAD DUP1 PUSH1 0x40 ADD PUSH1 0x40 MSTORE DUP1 PUSH1 0xD DUP2 MSTORE PUSH1 0x20 ADD PUSH32 0x456E74727920416C6C6F77646500000000000000000000000000000000000000 DUP2 MSTORE POP SWAP1 POP PUSH2 0x26C JUMP JUMPDEST PUSH1 0x40 MLOAD DUP1 PUSH1 0x40 ADD PUSH1 0x40 MSTORE DUP1 PUSH1 0xC DUP2 MSTORE PUSH1 0x20 ADD PUSH32 0x456E7472792044656E6965640000000000000000000000000000000000000000 DUP2 MSTORE POP SWAP1 POP JUMPDEST SWAP3 SWAP2 POP POP JUMP JUMPDEST PUSH0 PUSH0 REVERT JUMPDEST PUSH0 DUP2 ISZERO ISZERO SWAP1 POP SWAP2 SWAP1 POP JUMP JUMPDEST PUSH2 0x28A DUP2 PUSH2 0x276 JUMP JUMPDEST DUP2 EQ PUSH2 0x294 JUMPI PUSH0 PUSH0 REVERT JUMPDEST POP JUMP JUMPDEST PUSH0 DUP2 CALLDATALOAD SWAP1 POP PUSH2 0x2A5 DUP2 PUSH2 0x281 JUMP JUMPDEST SWAP3 SWAP2 POP POP JUMP JUMPDEST PUSH0 PUSH1 0x20 DUP3 DUP5 SUB SLT ISZERO PUSH2 0x2C0 JUMPI PUSH2 0x2BF PUSH2 0x272 JUMP JUMPDEST JUMPDEST PUSH0 PUSH2 0x2CD DUP5 DUP3 DUP6 ADD PUSH2 0x297 JUMP JUMPDEST SWAP2 POP POP SWAP3 SWAP2 POP POP JUMP JUMPDEST PUSH0 DUP2 MLOAD SWAP1 POP SWAP2 SWAP1 POP JUMP JUMPDEST PUSH0 DUP3 DUP3 MSTORE PUSH1 0x20 DUP3 ADD SWAP1 POP SWAP3 SWAP2 POP POP JUMP JUMPDEST DUP3 DUP2 DUP4 MCOPY PUSH0 DUP4 DUP4 ADD MSTORE POP POP POP JUMP JUMPDEST PUSH0 PUSH1 0x1F NOT PUSH1 0x1F DUP4 ADD AND SWAP1 POP SWAP2 SWAP1 POP JUMP JUMPDEST PUSH0 PUSH2 0x318 DUP3 PUSH2 0x2D6 JUMP JUMPDEST PUSH2 0x322 DUP2 DUP6 PUSH2 0x2E0 JUMP JUMPDEST SWAP4 POP PUSH2 0x332 DUP2 DUP6 PUSH1 0x20 DUP7 ADD PUSH2 0x2F0 JUMP JUMPDEST PUSH2 0x33B DUP2 PUSH2 0x2FE JUMP JUMPDEST DUP5 ADD SWAP2 POP POP SWAP3 SWAP2 POP POP JUMP JUMPDEST PUSH0 PUSH1 0x20 DUP3 ADD SWAP1 POP DUP2 DUP2 SUB PUSH0 DUP4 ADD MSTORE PUSH2 0x35E DUP2 DUP5 PUSH2 0x30E JUMP JUMPDEST SWAP1 POP SWAP3 SWAP2 POP POP JUMP JUMPDEST PUSH0 PUSH0 PUSH1 0x40 DUP4 DUP6 SUB SLT ISZERO PUSH2 0x37C JUMPI PUSH2 0x37B PUSH2 0x272 JUMP JUMPDEST JUMPDEST PUSH0 PUSH2 0x389 DUP6 DUP3 DUP7 ADD PUSH2 0x297 JUMP JUMPDEST SWAP3 POP POP PUSH1 0x20 PUSH2 0x39A DUP6 DUP3 DUP7 ADD PUSH2 0x297 JUMP JUMPDEST SWAP2 POP POP SWAP3 POP SWAP3 SWAP1 POP JUMP JUMPDEST PUSH0 DUP2 SWAP1 POP SWAP2 SWAP1 POP JUMP JUMPDEST PUSH2 0x3B6 DUP2 PUSH2 0x3A4 JUMP JUMPDEST DUP2 EQ PUSH2 0x3C0 JUMPI PUSH0 PUSH0 REVERT JUMPDEST POP JUMP JUMPDEST PUSH0 DUP2 CALLDATALOAD SWAP1 POP PUSH2 0x3D1 DUP2 PUSH2 0x3AD JUMP JUMPDEST SWAP3 SWAP2 POP POP JUMP JUMPDEST PUSH0 PUSH0 PUSH1 0x40 DUP4 DUP6 SUB SLT ISZERO PUSH2 0x3ED JUMPI PUSH2 0x3EC PUSH2 0x272 JUMP JUMPDEST JUMPDEST PUSH0 PUSH2 0x3FA DUP6 DUP3 DUP7 ADD PUSH2 0x3C3 JUMP JUMPDEST SWAP3 POP POP PUSH1 0x20 PUSH2 0x40B DUP6 DUP3 DUP7 ADD PUSH2 0x297 JUMP JUMPDEST SWAP2 POP POP SWAP3 POP SWAP3 SWAP1 POP JUMP INVALID LOG2 PUSH5 0x6970667358 0x22 SLT KECCAK256 PC PUSH1 0xF8 DUP5 CREATE SAR 0xE 0x2A 0xAA 0xC1 0xED PUSH10 0xFFFD72660D11C8E1257C 0x29 0xC6 EXTDELEGATECALL PUSH4 0x1FFB9579 0xB7 0x23 PUSH5 0x736F6C6343 STOP ADDMOD 0x1E STOP CALLER "
				},
				"gasEstimates": {
					"creation": {
						"codeDepositCost": "219800",
						"executionCost": "261",
						"totalCost": "220061"
					},
					"external": {
						"addExample(uint256,bool)": "infinite",
						"notExample(bool)": "infinite",
						"orExample(bool,bool)": "infinite"
					}
				},
				"methodIdentifiers": {
					"addExample(uint256,bool)": "7e5a067c",
					"notExample(bool)": "0bd48b32",
					"orExample(bool,bool)": "6be758e3"
				}
			},
			"storageLayout": {
				"storage": [],
				"types": null
			},
			"userdoc": {
				"kind": "user",
				"methods": {},
				"version": 1
			}
		}
	}
}