{
	"contracts/Activity_Day5.sol": {
		"Activity_Day5": {
			"abi": [
				{
					"inputs": [
						{
							"internalType": "uint256",
							"name": "age",
							"type": "uint256"
						}
					],
					"name": "ageChecker",
					"outputs": [
						{
							"internalType": "string",
							"name": "",
							"type": "string"
						}
					],
					"stateMutability": "pure",
					"type": "function"
				},
				{
					"inputs": [
						{
							"internalType": "uint256",
							"name": "number",
							"type": "uint256"
						}
					],
					"name": "allNumbers",
					"outputs": [
						{
							"internalType": "uint256",
							"name": "sum",
							"type": "uint256"
						}
					],
					"stateMutability": "pure",
					"type": "function"
				},
				{
					"inputs": [
						{
							"internalType": "uint256",
							"name": "even",
							"type": "uint256"
						}
					],
					"name": "evenNumbers",
					"outputs": [
						{
							"internalType": "uint256",
							"name": "evenSum",
							"type": "uint256"
						}
					],
					"stateMutability": "pure",
					"type": "function"
				},
				{
					"inputs": [
						{
							"internalType": "uint256",
							"name": "grade",
							"type": "uint256"
						}
					],
					"name": "gradeEvaluator",
					"outputs": [
						{
							"internalType": "string",
							"name": "",
							"type": "string"
						}
					],
					"stateMutability": "pure",
					"type": "function"
				},
				{
					"inputs": [
						{
							"internalType": "uint256",
							"name": "speed",
							"type": "uint256"
						}
					],
					"name": "speedChecker",
					"outputs": [
						{
							"internalType": "string",
							"name": "",
							"type": "string"
						}
					],
					"stateMutability": "pure",
					"type": "function"
				},
				{
					"inputs": [
						{
							"internalType": "string",
							"name": "scales",
							"type": "string"
						},
						{
							"internalType": "int256",
							"name": "temperature",
							"type": "int256"
						}
					],
					"name": "temperatureChecker",
					"outputs": [
						{
							"internalType": "string",
							"name": "",
							"type": "string"
						}
					],
					"stateMutability": "pure",
					"type": "function"
				}
			],
			"devdoc": {
				"kind": "dev",
				"methods": {},
				"version": 1
			},
			"evm": {
				"assembly": "    /* \"contracts/Activity_Day5.sol\":61:2070  contract Activity_Day5 {... */\n  mstore(0x40, 0x80)\n  callvalue\n  dup1\n  iszero\n  tag_1\n  jumpi\n  revert(0x00, 0x00)\ntag_1:\n  pop\n  dataSize(sub_0)\n  dup1\n  dataOffset(sub_0)\n  0x00\n  codecopy\n  0x00\n  return\nstop\n\nsub_0: assembly {\n        /* \"contracts/Activity_Day5.sol\":61:2070  contract Activity_Day5 {... */\n      mstore(0x40, 0x80)\n      callvalue\n      dup1\n      iszero\n      tag_1\n      jumpi\n      revert(0x00, 0x00)\n    tag_1:\n      pop\n      jumpi(tag_2, lt(calldatasize, 0x04))\n      shr(0xe0, calldataload(0x00))\n      dup1\n      0x0936465a\n      eq\n      tag_3\n      jumpi\n      dup1\n      0x2788de40\n      eq\n      tag_4\n      jumpi\n      dup1\n      0x8671fae5\n      eq\n      tag_5\n      jumpi\n      dup1\n      0xcc04364c\n      eq\n      tag_6\n      jumpi\n      dup1\n      0xdff2502e\n      eq\n      tag_7\n      jumpi\n      dup1\n      0xe7d67e8c\n      eq\n      tag_8\n      jumpi\n    tag_2:\n      revert(0x00, 0x00)\n        /* \"contracts/Activity_Day5.sol\":1861:2067  function evenNumbers(uint even) public pure returns (uint evenSum){... */\n    tag_3:\n      tag_9\n      0x04\n      dup1\n      calldatasize\n      sub\n      dup2\n      add\n      swap1\n      tag_10\n      swap2\n      swap1\n      tag_11\n      jump\t// in\n    tag_10:\n      tag_12\n      jump\t// in\n    tag_9:\n      mload(0x40)\n      tag_13\n      swap2\n      swap1\n      tag_14\n      jump\t// in\n    tag_13:\n      mload(0x40)\n      dup1\n      swap2\n      sub\n      swap1\n      return\n        /* \"contracts/Activity_Day5.sol\":953:1167  function gradeEvaluator(uint grade) public pure returns (string memory){... */\n    tag_4:\n      tag_15\n      0x04\n      dup1\n      calldatasize\n      sub\n      dup2\n      add\n      swap1\n      tag_16\n      swap2\n      swap1\n      tag_11\n      jump\t// in\n    tag_16:\n      tag_17\n      jump\t// in\n    tag_15:\n      mload(0x40)\n      tag_18\n      swap2\n      swap1\n      tag_19\n      jump\t// in\n    tag_18:\n      mload(0x40)\n      dup1\n      swap2\n      sub\n      swap1\n      return\n        /* \"contracts/Activity_Day5.sol\":1674:1826  function allNumbers(uint number) public pure returns (uint sum){... */\n    tag_5:\n      tag_20\n      0x04\n      dup1\n      calldatasize\n      sub\n      dup2\n      add\n      swap1\n      tag_21\n      swap2\n      swap1\n      tag_11\n      jump\t// in\n    tag_21:\n      tag_22\n      jump\t// in\n    tag_20:\n      mload(0x40)\n      tag_23\n      swap2\n      swap1\n      tag_14\n      jump\t// in\n    tag_23:\n      mload(0x40)\n      dup1\n      swap2\n      sub\n      swap1\n      return\n        /* \"contracts/Activity_Day5.sol\":1196:1413  function speedChecker(uint speed) public pure returns (string memory){... */\n    tag_6:\n      tag_24\n      0x04\n      dup1\n      calldatasize\n      sub\n      dup2\n      add\n      swap1\n      tag_25\n      swap2\n      swap1\n      tag_11\n      jump\t// in\n    tag_25:\n      tag_26\n      jump\t// in\n    tag_24:\n      mload(0x40)\n      tag_27\n      swap2\n      swap1\n      tag_19\n      jump\t// in\n    tag_27:\n      mload(0x40)\n      dup1\n      swap2\n      sub\n      swap1\n      return\n        /* \"contracts/Activity_Day5.sol\":1445:1648  function ageChecker(uint age) public pure returns (string memory){... */\n    tag_7:\n      tag_28\n      0x04\n      dup1\n      calldatasize\n      sub\n      dup2\n      add\n      swap1\n      tag_29\n      swap2\n      swap1\n      tag_11\n      jump\t// in\n    tag_29:\n      tag_30\n      jump\t// in\n    tag_28:\n      mload(0x40)\n      tag_31\n      swap2\n      swap1\n      tag_19\n      jump\t// in\n    tag_31:\n      mload(0x40)\n      dup1\n      swap2\n      sub\n      swap1\n      return\n        /* \"contracts/Activity_Day5.sol\":118:922  function temperatureChecker(string memory scales, int256 temperature) public pure returns (string memory) {... */\n    tag_8:\n      tag_32\n      0x04\n      dup1\n      calldatasize\n      sub\n      dup2\n      add\n      swap1\n      tag_33\n      swap2\n      swap1\n      tag_34\n      jump\t// in\n    tag_33:\n      tag_35\n      jump\t// in\n    tag_32:\n      mload(0x40)\n      tag_36\n      swap2\n      swap1\n      tag_19\n      jump\t// in\n    tag_36:\n      mload(0x40)\n      dup1\n      swap2\n      sub\n      swap1\n      return\n        /* \"contracts/Activity_Day5.sol\":1861:2067  function evenNumbers(uint even) public pure returns (uint evenSum){... */\n    tag_12:\n        /* \"contracts/Activity_Day5.sol\":1914:1926  uint evenSum */\n      0x00\n        /* \"contracts/Activity_Day5.sol\":1948:1949  0 */\n      0x00\n        /* \"contracts/Activity_Day5.sol\":1938:1949  evenSum = 0 */\n      swap1\n      pop\n        /* \"contracts/Activity_Day5.sol\":1965:1971  uint i */\n      0x00\n        /* \"contracts/Activity_Day5.sol\":1974:1975  2 */\n      0x02\n        /* \"contracts/Activity_Day5.sol\":1965:1975  uint i = 2 */\n      swap1\n      pop\n        /* \"contracts/Activity_Day5.sol\":1960:2034  for (uint i = 2; i <= even ; i+= 2){... */\n    tag_38:\n        /* \"contracts/Activity_Day5.sol\":1982:1986  even */\n      dup3\n        /* \"contracts/Activity_Day5.sol\":1977:1978  i */\n      dup2\n        /* \"contracts/Activity_Day5.sol\":1977:1986  i <= even */\n      gt\n        /* \"contracts/Activity_Day5.sol\":1960:2034  for (uint i = 2; i <= even ; i+= 2){... */\n      tag_39\n      jumpi\n        /* \"contracts/Activity_Day5.sol\":2021:2022  i */\n      dup1\n        /* \"contracts/Activity_Day5.sol\":2010:2022  evenSum += i */\n      dup3\n      tag_41\n      swap2\n      swap1\n      tag_42\n      jump\t// in\n    tag_41:\n      swap2\n      pop\n        /* \"contracts/Activity_Day5.sol\":1993:1994  2 */\n      0x02\n        /* \"contracts/Activity_Day5.sol\":1989:1994  i+= 2 */\n      dup2\n      tag_43\n      swap2\n      swap1\n      tag_42\n      jump\t// in\n    tag_43:\n      swap1\n      pop\n        /* \"contracts/Activity_Day5.sol\":1960:2034  for (uint i = 2; i <= even ; i+= 2){... */\n      jump(tag_38)\n    tag_39:\n      pop\n        /* \"contracts/Activity_Day5.sol\":1861:2067  function evenNumbers(uint even) public pure returns (uint evenSum){... */\n      swap2\n      swap1\n      pop\n      jump\t// out\n        /* \"contracts/Activity_Day5.sol\":953:1167  function gradeEvaluator(uint grade) public pure returns (string memory){... */\n    tag_17:\n        /* \"contracts/Activity_Day5.sol\":1010:1023  string memory */\n      0x60\n        /* \"contracts/Activity_Day5.sol\":1048:1050  90 */\n      0x5a\n        /* \"contracts/Activity_Day5.sol\":1039:1044  grade */\n      dup3\n        /* \"contracts/Activity_Day5.sol\":1039:1050  grade >= 90 */\n      lt\n        /* \"contracts/Activity_Day5.sol\":1035:1062  if (grade >= 90) return \"A\" */\n      tag_45\n      jumpi\n        /* \"contracts/Activity_Day5.sol\":1052:1062  return \"A\" */\n      mload(0x40)\n      dup1\n      0x40\n      add\n      0x40\n      mstore\n      dup1\n      0x01\n      dup2\n      mstore\n      0x20\n      add\n      0x4100000000000000000000000000000000000000000000000000000000000000\n      dup2\n      mstore\n      pop\n      swap1\n      pop\n      jump(tag_44)\n        /* \"contracts/Activity_Day5.sol\":1035:1062  if (grade >= 90) return \"A\" */\n    tag_45:\n        /* \"contracts/Activity_Day5.sol\":1086:1088  80 */\n      0x50\n        /* \"contracts/Activity_Day5.sol\":1077:1082  grade */\n      dup3\n        /* \"contracts/Activity_Day5.sol\":1077:1088  grade >= 80 */\n      lt\n        /* \"contracts/Activity_Day5.sol\":1073:1100  if (grade >= 80) return \"B\" */\n      tag_46\n      jumpi\n        /* \"contracts/Activity_Day5.sol\":1090:1100  return \"B\" */\n      mload(0x40)\n      dup1\n      0x40\n      add\n      0x40\n      mstore\n      dup1\n      0x01\n      dup2\n      mstore\n      0x20\n      add\n      0x4200000000000000000000000000000000000000000000000000000000000000\n      dup2\n      mstore\n      pop\n      swap1\n      pop\n      jump(tag_44)\n        /* \"contracts/Activity_Day5.sol\":1073:1100  if (grade >= 80) return \"B\" */\n    tag_46:\n        /* \"contracts/Activity_Day5.sol\":1124:1126  70 */\n      0x46\n        /* \"contracts/Activity_Day5.sol\":1115:1120  grade */\n      dup3\n        /* \"contracts/Activity_Day5.sol\":1115:1126  grade >= 70 */\n      lt\n        /* \"contracts/Activity_Day5.sol\":1111:1138  if (grade >= 70) return \"C\" */\n      tag_47\n      jumpi\n        /* \"contracts/Activity_Day5.sol\":1128:1138  return \"C\" */\n      mload(0x40)\n      dup1\n      0x40\n      add\n      0x40\n      mstore\n      dup1\n      0x01\n      dup2\n      mstore\n      0x20\n      add\n      0x4300000000000000000000000000000000000000000000000000000000000000\n      dup2\n      mstore\n      pop\n      swap1\n      pop\n      jump(tag_44)\n        /* \"contracts/Activity_Day5.sol\":1111:1138  if (grade >= 70) return \"C\" */\n    tag_47:\n        /* \"contracts/Activity_Day5.sol\":1149:1159  return \"F\" */\n      mload(0x40)\n      dup1\n      0x40\n      add\n      0x40\n      mstore\n      dup1\n      0x01\n      dup2\n      mstore\n      0x20\n      add\n      0x4600000000000000000000000000000000000000000000000000000000000000\n      dup2\n      mstore\n      pop\n      swap1\n      pop\n        /* \"contracts/Activity_Day5.sol\":953:1167  function gradeEvaluator(uint grade) public pure returns (string memory){... */\n    tag_44:\n      swap2\n      swap1\n      pop\n      jump\t// out\n        /* \"contracts/Activity_Day5.sol\":1674:1826  function allNumbers(uint number) public pure returns (uint sum){... */\n    tag_22:\n        /* \"contracts/Activity_Day5.sol\":1728:1736  uint sum */\n      0x00\n        /* \"contracts/Activity_Day5.sol\":1753:1759  uint i */\n      0x00\n        /* \"contracts/Activity_Day5.sol\":1762:1763  1 */\n      0x01\n        /* \"contracts/Activity_Day5.sol\":1753:1763  uint i = 1 */\n      swap1\n      pop\n        /* \"contracts/Activity_Day5.sol\":1748:1818  for (uint i = 1; i <= number ; i++){... */\n    tag_49:\n        /* \"contracts/Activity_Day5.sol\":1770:1776  number */\n      dup3\n        /* \"contracts/Activity_Day5.sol\":1765:1766  i */\n      dup2\n        /* \"contracts/Activity_Day5.sol\":1765:1776  i <= number */\n      gt\n        /* \"contracts/Activity_Day5.sol\":1748:1818  for (uint i = 1; i <= number ; i++){... */\n      tag_50\n      jumpi\n        /* \"contracts/Activity_Day5.sol\":1805:1806  i */\n      dup1\n        /* \"contracts/Activity_Day5.sol\":1798:1806  sum += i */\n      dup3\n      tag_52\n      swap2\n      swap1\n      tag_42\n      jump\t// in\n    tag_52:\n      swap2\n      pop\n        /* \"contracts/Activity_Day5.sol\":1779:1782  i++ */\n      dup1\n      dup1\n      tag_53\n      swap1\n      tag_54\n      jump\t// in\n    tag_53:\n      swap2\n      pop\n      pop\n        /* \"contracts/Activity_Day5.sol\":1748:1818  for (uint i = 1; i <= number ; i++){... */\n      jump(tag_49)\n    tag_50:\n      pop\n        /* \"contracts/Activity_Day5.sol\":1674:1826  function allNumbers(uint number) public pure returns (uint sum){... */\n      swap2\n      swap1\n      pop\n      jump\t// out\n        /* \"contracts/Activity_Day5.sol\":1196:1413  function speedChecker(uint speed) public pure returns (string memory){... */\n    tag_26:\n        /* \"contracts/Activity_Day5.sol\":1251:1264  string memory */\n      0x60\n        /* \"contracts/Activity_Day5.sol\":1288:1291  100 */\n      0x64\n        /* \"contracts/Activity_Day5.sol\":1280:1285  speed */\n      dup3\n        /* \"contracts/Activity_Day5.sol\":1280:1291  speed > 100 */\n      gt\n        /* \"contracts/Activity_Day5.sol\":1276:1314  if (speed > 100) return \"Overspeeding\" */\n      iszero\n      tag_56\n      jumpi\n        /* \"contracts/Activity_Day5.sol\":1293:1314  return \"Overspeeding\" */\n      mload(0x40)\n      dup1\n      0x40\n      add\n      0x40\n      mstore\n      dup1\n      0x0c\n      dup2\n      mstore\n      0x20\n      add\n      0x4f7665727370656564696e670000000000000000000000000000000000000000\n      dup2\n      mstore\n      pop\n      swap1\n      pop\n      jump(tag_55)\n        /* \"contracts/Activity_Day5.sol\":1276:1314  if (speed > 100) return \"Overspeeding\" */\n    tag_56:\n        /* \"contracts/Activity_Day5.sol\":1338:1341  100 */\n      0x64\n        /* \"contracts/Activity_Day5.sol\":1329:1334  speed */\n      dup3\n        /* \"contracts/Activity_Day5.sol\":1329:1341  speed == 100 */\n      sub\n        /* \"contracts/Activity_Day5.sol\":1325:1373  if (speed == 100) return \"WARNING! Speed Limit!\" */\n      tag_57\n      jumpi\n        /* \"contracts/Activity_Day5.sol\":1343:1373  return \"WARNING! Speed Limit!\" */\n      mload(0x40)\n      dup1\n      0x40\n      add\n      0x40\n      mstore\n      dup1\n      0x15\n      dup2\n      mstore\n      0x20\n      add\n      0x5741524e494e4721205370656564204c696d6974210000000000000000000000\n      dup2\n      mstore\n      pop\n      swap1\n      pop\n      jump(tag_55)\n        /* \"contracts/Activity_Day5.sol\":1325:1373  if (speed == 100) return \"WARNING! Speed Limit!\" */\n    tag_57:\n        /* \"contracts/Activity_Day5.sol\":1384:1405  return \"Normal speed\" */\n      mload(0x40)\n      dup1\n      0x40\n      add\n      0x40\n      mstore\n      dup1\n      0x0c\n      dup2\n      mstore\n      0x20\n      add\n      0x4e6f726d616c2073706565640000000000000000000000000000000000000000\n      dup2\n      mstore\n      pop\n      swap1\n      pop\n        /* \"contracts/Activity_Day5.sol\":1196:1413  function speedChecker(uint speed) public pure returns (string memory){... */\n    tag_55:\n      swap2\n      swap1\n      pop\n      jump\t// out\n        /* \"contracts/Activity_Day5.sol\":1445:1648  function ageChecker(uint age) public pure returns (string memory){... */\n    tag_30:\n        /* \"contracts/Activity_Day5.sol\":1496:1509  string memory */\n      0x60\n        /* \"contracts/Activity_Day5.sol\":1532:1534  18 */\n      0x12\n        /* \"contracts/Activity_Day5.sol\":1525:1528  age */\n      dup3\n        /* \"contracts/Activity_Day5.sol\":1525:1534  age >= 18 */\n      lt\n        /* \"contracts/Activity_Day5.sol\":1521:1552  if (age >= 18) return \"Allowed\" */\n      tag_59\n      jumpi\n        /* \"contracts/Activity_Day5.sol\":1536:1552  return \"Allowed\" */\n      mload(0x40)\n      dup1\n      0x40\n      add\n      0x40\n      mstore\n      dup1\n      0x07\n      dup2\n      mstore\n      0x20\n      add\n      0x416c6c6f77656400000000000000000000000000000000000000000000000000\n      dup2\n      mstore\n      pop\n      swap1\n      pop\n      jump(tag_58)\n        /* \"contracts/Activity_Day5.sol\":1521:1552  if (age >= 18) return \"Allowed\" */\n    tag_59:\n        /* \"contracts/Activity_Day5.sol\":1574:1576  13 */\n      0x0d\n        /* \"contracts/Activity_Day5.sol\":1567:1570  age */\n      dup3\n        /* \"contracts/Activity_Day5.sol\":1567:1576  age >= 13 */\n      lt\n        /* \"contracts/Activity_Day5.sol\":1563:1609  if (age >= 13) return \"Required with Guardian\" */\n      tag_60\n      jumpi\n        /* \"contracts/Activity_Day5.sol\":1578:1609  return \"Required with Guardian\" */\n      mload(0x40)\n      dup1\n      0x40\n      add\n      0x40\n      mstore\n      dup1\n      0x16\n      dup2\n      mstore\n      0x20\n      add\n      0x5265717569726564207769746820477561726469616e00000000000000000000\n      dup2\n      mstore\n      pop\n      swap1\n      pop\n      jump(tag_58)\n        /* \"contracts/Activity_Day5.sol\":1563:1609  if (age >= 13) return \"Required with Guardian\" */\n    tag_60:\n        /* \"contracts/Activity_Day5.sol\":1620:1640  return \"Not allowed\" */\n      mload(0x40)\n      dup1\n      0x40\n      add\n      0x40\n      mstore\n      dup1\n      0x0b\n      dup2\n      mstore\n      0x20\n      add\n      0x4e6f7420616c6c6f776564000000000000000000000000000000000000000000\n      dup2\n      mstore\n      pop\n      swap1\n      pop\n        /* \"contracts/Activity_Day5.sol\":1445:1648  function ageChecker(uint age) public pure returns (string memory){... */\n    tag_58:\n      swap2\n      swap1\n      pop\n      jump\t// out\n        /* \"contracts/Activity_Day5.sol\":118:922  function temperatureChecker(string memory scales, int256 temperature) public pure returns (string memory) {... */\n    tag_35:\n        /* \"contracts/Activity_Day5.sol\":209:222  string memory */\n      0x60\n        /* \"contracts/Activity_Day5.sol\":235:252  bytes32 scaleHash */\n      0x00\n        /* \"contracts/Activity_Day5.sol\":271:277  scales */\n      dup4\n        /* \"contracts/Activity_Day5.sol\":255:279  keccak256(bytes(scales)) */\n      dup1\n      mload\n      swap1\n      0x20\n      add\n      keccak256\n        /* \"contracts/Activity_Day5.sol\":235:279  bytes32 scaleHash = keccak256(bytes(scales)) */\n      swap1\n      pop\n        /* \"contracts/Activity_Day5.sol\":319:335  bytes(\"celsius\") */\n      mload(0x40)\n      dup1\n      0x40\n      add\n      0x40\n      mstore\n      dup1\n      0x07\n      dup2\n      mstore\n      0x20\n      add\n      0x63656c7369757300000000000000000000000000000000000000000000000000\n      dup2\n      mstore\n      pop\n        /* \"contracts/Activity_Day5.sol\":309:336  keccak256(bytes(\"celsius\")) */\n      dup1\n      mload\n      swap1\n      0x20\n      add\n      keccak256\n        /* \"contracts/Activity_Day5.sol\":296:305  scaleHash */\n      dup2\n        /* \"contracts/Activity_Day5.sol\":296:336  scaleHash == keccak256(bytes(\"celsius\")) */\n      eq\n        /* \"contracts/Activity_Day5.sol\":296:380  scaleHash == keccak256(bytes(\"celsius\")) || scaleHash == keccak256(bytes(\"Celsius\")) */\n      dup1\n      tag_62\n      jumpi\n      pop\n        /* \"contracts/Activity_Day5.sol\":363:379  bytes(\"Celsius\") */\n      mload(0x40)\n      dup1\n      0x40\n      add\n      0x40\n      mstore\n      dup1\n      0x07\n      dup2\n      mstore\n      0x20\n      add\n      0x43656c7369757300000000000000000000000000000000000000000000000000\n      dup2\n      mstore\n      pop\n        /* \"contracts/Activity_Day5.sol\":353:380  keccak256(bytes(\"Celsius\")) */\n      dup1\n      mload\n      swap1\n      0x20\n      add\n      keccak256\n        /* \"contracts/Activity_Day5.sol\":340:349  scaleHash */\n      dup2\n        /* \"contracts/Activity_Day5.sol\":340:380  scaleHash == keccak256(bytes(\"Celsius\")) */\n      eq\n        /* \"contracts/Activity_Day5.sol\":296:380  scaleHash == keccak256(bytes(\"celsius\")) || scaleHash == keccak256(bytes(\"Celsius\")) */\n    tag_62:\n        /* \"contracts/Activity_Day5.sol\":292:915  if (scaleHash == keccak256(bytes(\"celsius\")) || scaleHash == keccak256(bytes(\"Celsius\"))) {... */\n      iszero\n      tag_63\n      jumpi\n        /* \"contracts/Activity_Day5.sol\":416:419  100 */\n      0x64\n        /* \"contracts/Activity_Day5.sol\":401:412  temperature */\n      dup4\n        /* \"contracts/Activity_Day5.sol\":401:419  temperature >= 100 */\n      slt\n        /* \"contracts/Activity_Day5.sol\":397:443  if (temperature >= 100) return \"Boiling Point\" */\n      tag_64\n      jumpi\n        /* \"contracts/Activity_Day5.sol\":421:443  return \"Boiling Point\" */\n      mload(0x40)\n      dup1\n      0x40\n      add\n      0x40\n      mstore\n      dup1\n      0x0d\n      dup2\n      mstore\n      0x20\n      add\n      0x426f696c696e6720506f696e7400000000000000000000000000000000000000\n      dup2\n      mstore\n      pop\n      swap2\n      pop\n      pop\n      jump(tag_61)\n        /* \"contracts/Activity_Day5.sol\":397:443  if (temperature >= 100) return \"Boiling Point\" */\n    tag_64:\n        /* \"contracts/Activity_Day5.sol\":477:478  0 */\n      0x00\n        /* \"contracts/Activity_Day5.sol\":462:473  temperature */\n      dup4\n        /* \"contracts/Activity_Day5.sol\":462:478  temperature <= 0 */\n      sgt\n        /* \"contracts/Activity_Day5.sol\":458:503  if (temperature <= 0) return \"Freezing Point\" */\n      tag_65\n      jumpi\n        /* \"contracts/Activity_Day5.sol\":480:503  return \"Freezing Point\" */\n      mload(0x40)\n      dup1\n      0x40\n      add\n      0x40\n      mstore\n      dup1\n      0x0e\n      dup2\n      mstore\n      0x20\n      add\n      0x467265657a696e6720506f696e74000000000000000000000000000000000000\n      dup2\n      mstore\n      pop\n      swap2\n      pop\n      pop\n      jump(tag_61)\n        /* \"contracts/Activity_Day5.sol\":458:503  if (temperature <= 0) return \"Freezing Point\" */\n    tag_65:\n        /* \"contracts/Activity_Day5.sol\":518:556  return \"Not Boiling or Freezing Point\" */\n      mload(0x40)\n      dup1\n      0x40\n      add\n      0x40\n      mstore\n      dup1\n      0x1d\n      dup2\n      mstore\n      0x20\n      add\n      0x4e6f7420426f696c696e67206f7220467265657a696e6720506f696e74000000\n      dup2\n      mstore\n      pop\n      swap2\n      pop\n      pop\n      jump(tag_61)\n        /* \"contracts/Activity_Day5.sol\":292:915  if (scaleHash == keccak256(bytes(\"celsius\")) || scaleHash == keccak256(bytes(\"Celsius\"))) {... */\n    tag_63:\n        /* \"contracts/Activity_Day5.sol\":601:620  bytes(\"fahrenheit\") */\n      mload(0x40)\n      dup1\n      0x40\n      add\n      0x40\n      mstore\n      dup1\n      0x0a\n      dup2\n      mstore\n      0x20\n      add\n      0x66616872656e6865697400000000000000000000000000000000000000000000\n      dup2\n      mstore\n      pop\n        /* \"contracts/Activity_Day5.sol\":591:621  keccak256(bytes(\"fahrenheit\")) */\n      dup1\n      mload\n      swap1\n      0x20\n      add\n      keccak256\n        /* \"contracts/Activity_Day5.sol\":578:587  scaleHash */\n      dup2\n        /* \"contracts/Activity_Day5.sol\":578:621  scaleHash == keccak256(bytes(\"fahrenheit\")) */\n      eq\n        /* \"contracts/Activity_Day5.sol\":578:668  scaleHash == keccak256(bytes(\"fahrenheit\")) || scaleHash == keccak256(bytes(\"Fahrenheit\")) */\n      dup1\n      tag_67\n      jumpi\n      pop\n        /* \"contracts/Activity_Day5.sol\":648:667  bytes(\"Fahrenheit\") */\n      mload(0x40)\n      dup1\n      0x40\n      add\n      0x40\n      mstore\n      dup1\n      0x0a\n      dup2\n      mstore\n      0x20\n      add\n      0x46616872656e6865697400000000000000000000000000000000000000000000\n      dup2\n      mstore\n      pop\n        /* \"contracts/Activity_Day5.sol\":638:668  keccak256(bytes(\"Fahrenheit\")) */\n      dup1\n      mload\n      swap1\n      0x20\n      add\n      keccak256\n        /* \"contracts/Activity_Day5.sol\":625:634  scaleHash */\n      dup2\n        /* \"contracts/Activity_Day5.sol\":625:668  scaleHash == keccak256(bytes(\"Fahrenheit\")) */\n      eq\n        /* \"contracts/Activity_Day5.sol\":578:668  scaleHash == keccak256(bytes(\"fahrenheit\")) || scaleHash == keccak256(bytes(\"Fahrenheit\")) */\n    tag_67:\n        /* \"contracts/Activity_Day5.sol\":574:915  if (scaleHash == keccak256(bytes(\"fahrenheit\")) || scaleHash == keccak256(bytes(\"Fahrenheit\"))) {... */\n      iszero\n      tag_68\n      jumpi\n        /* \"contracts/Activity_Day5.sol\":704:707  212 */\n      0xd4\n        /* \"contracts/Activity_Day5.sol\":689:700  temperature */\n      dup4\n        /* \"contracts/Activity_Day5.sol\":689:707  temperature >= 212 */\n      slt\n        /* \"contracts/Activity_Day5.sol\":685:731  if (temperature >= 212) return \"Boiling Point\" */\n      tag_69\n      jumpi\n        /* \"contracts/Activity_Day5.sol\":709:731  return \"Boiling Point\" */\n      mload(0x40)\n      dup1\n      0x40\n      add\n      0x40\n      mstore\n      dup1\n      0x0d\n      dup2\n      mstore\n      0x20\n      add\n      0x426f696c696e6720506f696e7400000000000000000000000000000000000000\n      dup2\n      mstore\n      pop\n      swap2\n      pop\n      pop\n      jump(tag_61)\n        /* \"contracts/Activity_Day5.sol\":685:731  if (temperature >= 212) return \"Boiling Point\" */\n    tag_69:\n        /* \"contracts/Activity_Day5.sol\":765:767  37 */\n      0x25\n        /* \"contracts/Activity_Day5.sol\":750:761  temperature */\n      dup4\n        /* \"contracts/Activity_Day5.sol\":750:767  temperature <= 37 */\n      sgt\n        /* \"contracts/Activity_Day5.sol\":746:792  if (temperature <= 37) return \"Freezing Point\" */\n      tag_70\n      jumpi\n        /* \"contracts/Activity_Day5.sol\":769:792  return \"Freezing Point\" */\n      mload(0x40)\n      dup1\n      0x40\n      add\n      0x40\n      mstore\n      dup1\n      0x0e\n      dup2\n      mstore\n      0x20\n      add\n      0x467265657a696e6720506f696e74000000000000000000000000000000000000\n      dup2\n      mstore\n      pop\n      swap2\n      pop\n      pop\n      jump(tag_61)\n        /* \"contracts/Activity_Day5.sol\":746:792  if (temperature <= 37) return \"Freezing Point\" */\n    tag_70:\n        /* \"contracts/Activity_Day5.sol\":807:845  return \"Not Boiling or Freezing Point\" */\n      mload(0x40)\n      dup1\n      0x40\n      add\n      0x40\n      mstore\n      dup1\n      0x1d\n      dup2\n      mstore\n      0x20\n      add\n      0x4e6f7420426f696c696e67206f7220467265657a696e6720506f696e74000000\n      dup2\n      mstore\n      pop\n      swap2\n      pop\n      pop\n      jump(tag_61)\n        /* \"contracts/Activity_Day5.sol\":574:915  if (scaleHash == keccak256(bytes(\"fahrenheit\")) || scaleHash == keccak256(bytes(\"Fahrenheit\"))) {... */\n    tag_68:\n        /* \"contracts/Activity_Day5.sol\":878:903  revert(\"Invalid option.\") */\n      mload(0x40)\n      0x08c379a000000000000000000000000000000000000000000000000000000000\n      dup2\n      mstore\n      0x04\n      add\n      tag_72\n      swap1\n      tag_73\n      jump\t// in\n    tag_72:\n      mload(0x40)\n      dup1\n      swap2\n      sub\n      swap1\n      revert\n        /* \"contracts/Activity_Day5.sol\":118:922  function temperatureChecker(string memory scales, int256 temperature) public pure returns (string memory) {... */\n    tag_61:\n      swap3\n      swap2\n      pop\n      pop\n      jump\t// out\n        /* \"#utility.yul\":7:82   */\n    tag_74:\n        /* \"#utility.yul\":40:46   */\n      0x00\n        /* \"#utility.yul\":73:75   */\n      0x40\n        /* \"#utility.yul\":67:76   */\n      mload\n        /* \"#utility.yul\":57:76   */\n      swap1\n      pop\n        /* \"#utility.yul\":7:82   */\n      swap1\n      jump\t// out\n        /* \"#utility.yul\":88:205   */\n    tag_75:\n        /* \"#utility.yul\":197:198   */\n      0x00\n        /* \"#utility.yul\":194:195   */\n      0x00\n        /* \"#utility.yul\":187:199   */\n      revert\n        /* \"#utility.yul\":211:328   */\n    tag_76:\n        /* \"#utility.yul\":320:321   */\n      0x00\n        /* \"#utility.yul\":317:318   */\n      0x00\n        /* \"#utility.yul\":310:322   */\n      revert\n        /* \"#utility.yul\":334:411   */\n    tag_77:\n        /* \"#utility.yul\":371:378   */\n      0x00\n        /* \"#utility.yul\":400:405   */\n      dup2\n        /* \"#utility.yul\":389:405   */\n      swap1\n      pop\n        /* \"#utility.yul\":334:411   */\n      swap2\n      swap1\n      pop\n      jump\t// out\n        /* \"#utility.yul\":417:539   */\n    tag_78:\n        /* \"#utility.yul\":490:514   */\n      tag_107\n        /* \"#utility.yul\":508:513   */\n      dup2\n        /* \"#utility.yul\":490:514   */\n      tag_77\n      jump\t// in\n    tag_107:\n        /* \"#utility.yul\":483:488   */\n      dup2\n        /* \"#utility.yul\":480:515   */\n      eq\n        /* \"#utility.yul\":470:533   */\n      tag_108\n      jumpi\n        /* \"#utility.yul\":529:530   */\n      0x00\n        /* \"#utility.yul\":526:527   */\n      0x00\n        /* \"#utility.yul\":519:531   */\n      revert\n        /* \"#utility.yul\":470:533   */\n    tag_108:\n        /* \"#utility.yul\":417:539   */\n      pop\n      jump\t// out\n        /* \"#utility.yul\":545:684   */\n    tag_79:\n        /* \"#utility.yul\":591:596   */\n      0x00\n        /* \"#utility.yul\":629:635   */\n      dup2\n        /* \"#utility.yul\":616:636   */\n      calldataload\n        /* \"#utility.yul\":607:636   */\n      swap1\n      pop\n        /* \"#utility.yul\":645:678   */\n      tag_110\n        /* \"#utility.yul\":672:677   */\n      dup2\n        /* \"#utility.yul\":645:678   */\n      tag_78\n      jump\t// in\n    tag_110:\n        /* \"#utility.yul\":545:684   */\n      swap3\n      swap2\n      pop\n      pop\n      jump\t// out\n        /* \"#utility.yul\":690:1019   */\n    tag_11:\n        /* \"#utility.yul\":749:755   */\n      0x00\n        /* \"#utility.yul\":798:800   */\n      0x20\n        /* \"#utility.yul\":786:795   */\n      dup3\n        /* \"#utility.yul\":777:784   */\n      dup5\n        /* \"#utility.yul\":773:796   */\n      sub\n        /* \"#utility.yul\":769:801   */\n      slt\n        /* \"#utility.yul\":766:885   */\n      iszero\n      tag_112\n      jumpi\n        /* \"#utility.yul\":804:883   */\n      tag_113\n      tag_75\n      jump\t// in\n    tag_113:\n        /* \"#utility.yul\":766:885   */\n    tag_112:\n        /* \"#utility.yul\":924:925   */\n      0x00\n        /* \"#utility.yul\":949:1002   */\n      tag_114\n        /* \"#utility.yul\":994:1001   */\n      dup5\n        /* \"#utility.yul\":985:991   */\n      dup3\n        /* \"#utility.yul\":974:983   */\n      dup6\n        /* \"#utility.yul\":970:992   */\n      add\n        /* \"#utility.yul\":949:1002   */\n      tag_79\n      jump\t// in\n    tag_114:\n        /* \"#utility.yul\":939:1002   */\n      swap2\n      pop\n        /* \"#utility.yul\":895:1012   */\n      pop\n        /* \"#utility.yul\":690:1019   */\n      swap3\n      swap2\n      pop\n      pop\n      jump\t// out\n        /* \"#utility.yul\":1025:1143   */\n    tag_80:\n        /* \"#utility.yul\":1112:1136   */\n      tag_116\n        /* \"#utility.yul\":1130:1135   */\n      dup2\n        /* \"#utility.yul\":1112:1136   */\n      tag_77\n      jump\t// in\n    tag_116:\n        /* \"#utility.yul\":1107:1110   */\n      dup3\n        /* \"#utility.yul\":1100:1137   */\n      mstore\n        /* \"#utility.yul\":1025:1143   */\n      pop\n      pop\n      jump\t// out\n        /* \"#utility.yul\":1149:1371   */\n    tag_14:\n        /* \"#utility.yul\":1242:1246   */\n      0x00\n        /* \"#utility.yul\":1280:1282   */\n      0x20\n        /* \"#utility.yul\":1269:1278   */\n      dup3\n        /* \"#utility.yul\":1265:1283   */\n      add\n        /* \"#utility.yul\":1257:1283   */\n      swap1\n      pop\n        /* \"#utility.yul\":1293:1364   */\n      tag_118\n        /* \"#utility.yul\":1361:1362   */\n      0x00\n        /* \"#utility.yul\":1350:1359   */\n      dup4\n        /* \"#utility.yul\":1346:1363   */\n      add\n        /* \"#utility.yul\":1337:1343   */\n      dup5\n        /* \"#utility.yul\":1293:1364   */\n      tag_80\n      jump\t// in\n    tag_118:\n        /* \"#utility.yul\":1149:1371   */\n      swap3\n      swap2\n      pop\n      pop\n      jump\t// out\n        /* \"#utility.yul\":1377:1476   */\n    tag_81:\n        /* \"#utility.yul\":1429:1435   */\n      0x00\n        /* \"#utility.yul\":1463:1468   */\n      dup2\n        /* \"#utility.yul\":1457:1469   */\n      mload\n        /* \"#utility.yul\":1447:1469   */\n      swap1\n      pop\n        /* \"#utility.yul\":1377:1476   */\n      swap2\n      swap1\n      pop\n      jump\t// out\n        /* \"#utility.yul\":1482:1651   */\n    tag_82:\n        /* \"#utility.yul\":1566:1577   */\n      0x00\n        /* \"#utility.yul\":1600:1606   */\n      dup3\n        /* \"#utility.yul\":1595:1598   */\n      dup3\n        /* \"#utility.yul\":1588:1607   */\n      mstore\n        /* \"#utility.yul\":1640:1644   */\n      0x20\n        /* \"#utility.yul\":1635:1638   */\n      dup3\n        /* \"#utility.yul\":1631:1645   */\n      add\n        /* \"#utility.yul\":1616:1645   */\n      swap1\n      pop\n        /* \"#utility.yul\":1482:1651   */\n      swap3\n      swap2\n      pop\n      pop\n      jump\t// out\n        /* \"#utility.yul\":1657:1796   */\n    tag_83:\n        /* \"#utility.yul\":1746:1752   */\n      dup3\n        /* \"#utility.yul\":1741:1744   */\n      dup2\n        /* \"#utility.yul\":1736:1739   */\n      dup4\n        /* \"#utility.yul\":1730:1753   */\n      mcopy\n        /* \"#utility.yul\":1787:1788   */\n      0x00\n        /* \"#utility.yul\":1778:1784   */\n      dup4\n        /* \"#utility.yul\":1773:1776   */\n      dup4\n        /* \"#utility.yul\":1769:1785   */\n      add\n        /* \"#utility.yul\":1762:1789   */\n      mstore\n        /* \"#utility.yul\":1657:1796   */\n      pop\n      pop\n      pop\n      jump\t// out\n        /* \"#utility.yul\":1802:1904   */\n    tag_84:\n        /* \"#utility.yul\":1843:1849   */\n      0x00\n        /* \"#utility.yul\":1894:1896   */\n      0x1f\n        /* \"#utility.yul\":1890:1897   */\n      not\n        /* \"#utility.yul\":1885:1887   */\n      0x1f\n        /* \"#utility.yul\":1878:1883   */\n      dup4\n        /* \"#utility.yul\":1874:1888   */\n      add\n        /* \"#utility.yul\":1870:1898   */\n      and\n        /* \"#utility.yul\":1860:1898   */\n      swap1\n      pop\n        /* \"#utility.yul\":1802:1904   */\n      swap2\n      swap1\n      pop\n      jump\t// out\n        /* \"#utility.yul\":1910:2287   */\n    tag_85:\n        /* \"#utility.yul\":1998:2001   */\n      0x00\n        /* \"#utility.yul\":2026:2065   */\n      tag_124\n        /* \"#utility.yul\":2059:2064   */\n      dup3\n        /* \"#utility.yul\":2026:2065   */\n      tag_81\n      jump\t// in\n    tag_124:\n        /* \"#utility.yul\":2081:2152   */\n      tag_125\n        /* \"#utility.yul\":2145:2151   */\n      dup2\n        /* \"#utility.yul\":2140:2143   */\n      dup6\n        /* \"#utility.yul\":2081:2152   */\n      tag_82\n      jump\t// in\n    tag_125:\n        /* \"#utility.yul\":2074:2152   */\n      swap4\n      pop\n        /* \"#utility.yul\":2161:2226   */\n      tag_126\n        /* \"#utility.yul\":2219:2225   */\n      dup2\n        /* \"#utility.yul\":2214:2217   */\n      dup6\n        /* \"#utility.yul\":2207:2211   */\n      0x20\n        /* \"#utility.yul\":2200:2205   */\n      dup7\n        /* \"#utility.yul\":2196:2212   */\n      add\n        /* \"#utility.yul\":2161:2226   */\n      tag_83\n      jump\t// in\n    tag_126:\n        /* \"#utility.yul\":2251:2280   */\n      tag_127\n        /* \"#utility.yul\":2273:2279   */\n      dup2\n        /* \"#utility.yul\":2251:2280   */\n      tag_84\n      jump\t// in\n    tag_127:\n        /* \"#utility.yul\":2246:2249   */\n      dup5\n        /* \"#utility.yul\":2242:2281   */\n      add\n        /* \"#utility.yul\":2235:2281   */\n      swap2\n      pop\n        /* \"#utility.yul\":2002:2287   */\n      pop\n        /* \"#utility.yul\":1910:2287   */\n      swap3\n      swap2\n      pop\n      pop\n      jump\t// out\n        /* \"#utility.yul\":2293:2606   */\n    tag_19:\n        /* \"#utility.yul\":2406:2410   */\n      0x00\n        /* \"#utility.yul\":2444:2446   */\n      0x20\n        /* \"#utility.yul\":2433:2442   */\n      dup3\n        /* \"#utility.yul\":2429:2447   */\n      add\n        /* \"#utility.yul\":2421:2447   */\n      swap1\n      pop\n        /* \"#utility.yul\":2493:2502   */\n      dup2\n        /* \"#utility.yul\":2487:2491   */\n      dup2\n        /* \"#utility.yul\":2483:2503   */\n      sub\n        /* \"#utility.yul\":2479:2480   */\n      0x00\n        /* \"#utility.yul\":2468:2477   */\n      dup4\n        /* \"#utility.yul\":2464:2481   */\n      add\n        /* \"#utility.yul\":2457:2504   */\n      mstore\n        /* \"#utility.yul\":2521:2599   */\n      tag_129\n        /* \"#utility.yul\":2594:2598   */\n      dup2\n        /* \"#utility.yul\":2585:2591   */\n      dup5\n        /* \"#utility.yul\":2521:2599   */\n      tag_85\n      jump\t// in\n    tag_129:\n        /* \"#utility.yul\":2513:2599   */\n      swap1\n      pop\n        /* \"#utility.yul\":2293:2606   */\n      swap3\n      swap2\n      pop\n      pop\n      jump\t// out\n        /* \"#utility.yul\":2612:2729   */\n    tag_86:\n        /* \"#utility.yul\":2721:2722   */\n      0x00\n        /* \"#utility.yul\":2718:2719   */\n      0x00\n        /* \"#utility.yul\":2711:2723   */\n      revert\n        /* \"#utility.yul\":2735:2852   */\n    tag_87:\n        /* \"#utility.yul\":2844:2845   */\n      0x00\n        /* \"#utility.yul\":2841:2842   */\n      0x00\n        /* \"#utility.yul\":2834:2846   */\n      revert\n        /* \"#utility.yul\":2858:3038   */\n    tag_88:\n        /* \"#utility.yul\":2906:2983   */\n      0x4e487b7100000000000000000000000000000000000000000000000000000000\n        /* \"#utility.yul\":2903:2904   */\n      0x00\n        /* \"#utility.yul\":2896:2984   */\n      mstore\n        /* \"#utility.yul\":3003:3007   */\n      0x41\n        /* \"#utility.yul\":3000:3001   */\n      0x04\n        /* \"#utility.yul\":2993:3008   */\n      mstore\n        /* \"#utility.yul\":3027:3031   */\n      0x24\n        /* \"#utility.yul\":3024:3025   */\n      0x00\n        /* \"#utility.yul\":3017:3032   */\n      revert\n        /* \"#utility.yul\":3044:3325   */\n    tag_89:\n        /* \"#utility.yul\":3127:3154   */\n      tag_134\n        /* \"#utility.yul\":3149:3153   */\n      dup3\n        /* \"#utility.yul\":3127:3154   */\n      tag_84\n      jump\t// in\n    tag_134:\n        /* \"#utility.yul\":3119:3125   */\n      dup2\n        /* \"#utility.yul\":3115:3155   */\n      add\n        /* \"#utility.yul\":3257:3263   */\n      dup2\n        /* \"#utility.yul\":3245:3255   */\n      dup2\n        /* \"#utility.yul\":3242:3264   */\n      lt\n        /* \"#utility.yul\":3221:3239   */\n      0xffffffffffffffff\n        /* \"#utility.yul\":3209:3219   */\n      dup3\n        /* \"#utility.yul\":3206:3240   */\n      gt\n        /* \"#utility.yul\":3203:3265   */\n      or\n        /* \"#utility.yul\":3200:3288   */\n      iszero\n      tag_135\n      jumpi\n        /* \"#utility.yul\":3268:3286   */\n      tag_136\n      tag_88\n      jump\t// in\n    tag_136:\n        /* \"#utility.yul\":3200:3288   */\n    tag_135:\n        /* \"#utility.yul\":3308:3318   */\n      dup1\n        /* \"#utility.yul\":3304:3306   */\n      0x40\n        /* \"#utility.yul\":3297:3319   */\n      mstore\n        /* \"#utility.yul\":3087:3325   */\n      pop\n        /* \"#utility.yul\":3044:3325   */\n      pop\n      pop\n      jump\t// out\n        /* \"#utility.yul\":3331:3460   */\n    tag_90:\n        /* \"#utility.yul\":3365:3371   */\n      0x00\n        /* \"#utility.yul\":3392:3412   */\n      tag_138\n      tag_74\n      jump\t// in\n    tag_138:\n        /* \"#utility.yul\":3382:3412   */\n      swap1\n      pop\n        /* \"#utility.yul\":3421:3454   */\n      tag_139\n        /* \"#utility.yul\":3449:3453   */\n      dup3\n        /* \"#utility.yul\":3441:3447   */\n      dup3\n        /* \"#utility.yul\":3421:3454   */\n      tag_89\n      jump\t// in\n    tag_139:\n        /* \"#utility.yul\":3331:3460   */\n      swap2\n      swap1\n      pop\n      jump\t// out\n        /* \"#utility.yul\":3466:3774   */\n    tag_91:\n        /* \"#utility.yul\":3528:3532   */\n      0x00\n        /* \"#utility.yul\":3618:3636   */\n      0xffffffffffffffff\n        /* \"#utility.yul\":3610:3616   */\n      dup3\n        /* \"#utility.yul\":3607:3637   */\n      gt\n        /* \"#utility.yul\":3604:3660   */\n      iszero\n      tag_141\n      jumpi\n        /* \"#utility.yul\":3640:3658   */\n      tag_142\n      tag_88\n      jump\t// in\n    tag_142:\n        /* \"#utility.yul\":3604:3660   */\n    tag_141:\n        /* \"#utility.yul\":3678:3707   */\n      tag_143\n        /* \"#utility.yul\":3700:3706   */\n      dup3\n        /* \"#utility.yul\":3678:3707   */\n      tag_84\n      jump\t// in\n    tag_143:\n        /* \"#utility.yul\":3670:3707   */\n      swap1\n      pop\n        /* \"#utility.yul\":3762:3766   */\n      0x20\n        /* \"#utility.yul\":3756:3760   */\n      dup2\n        /* \"#utility.yul\":3752:3767   */\n      add\n        /* \"#utility.yul\":3744:3767   */\n      swap1\n      pop\n        /* \"#utility.yul\":3466:3774   */\n      swap2\n      swap1\n      pop\n      jump\t// out\n        /* \"#utility.yul\":3780:3928   */\n    tag_92:\n        /* \"#utility.yul\":3878:3884   */\n      dup3\n        /* \"#utility.yul\":3873:3876   */\n      dup2\n        /* \"#utility.yul\":3868:3871   */\n      dup4\n        /* \"#utility.yul\":3855:3885   */\n      calldatacopy\n        /* \"#utility.yul\":3919:3920   */\n      0x00\n        /* \"#utility.yul\":3910:3916   */\n      dup4\n        /* \"#utility.yul\":3905:3908   */\n      dup4\n        /* \"#utility.yul\":3901:3917   */\n      add\n        /* \"#utility.yul\":3894:3921   */\n      mstore\n        /* \"#utility.yul\":3780:3928   */\n      pop\n      pop\n      pop\n      jump\t// out\n        /* \"#utility.yul\":3934:4359   */\n    tag_93:\n        /* \"#utility.yul\":4012:4017   */\n      0x00\n        /* \"#utility.yul\":4037:4103   */\n      tag_146\n        /* \"#utility.yul\":4053:4102   */\n      tag_147\n        /* \"#utility.yul\":4095:4101   */\n      dup5\n        /* \"#utility.yul\":4053:4102   */\n      tag_91\n      jump\t// in\n    tag_147:\n        /* \"#utility.yul\":4037:4103   */\n      tag_90\n      jump\t// in\n    tag_146:\n        /* \"#utility.yul\":4028:4103   */\n      swap1\n      pop\n        /* \"#utility.yul\":4126:4132   */\n      dup3\n        /* \"#utility.yul\":4119:4124   */\n      dup2\n        /* \"#utility.yul\":4112:4133   */\n      mstore\n        /* \"#utility.yul\":4164:4168   */\n      0x20\n        /* \"#utility.yul\":4157:4162   */\n      dup2\n        /* \"#utility.yul\":4153:4169   */\n      add\n        /* \"#utility.yul\":4202:4205   */\n      dup5\n        /* \"#utility.yul\":4193:4199   */\n      dup5\n        /* \"#utility.yul\":4188:4191   */\n      dup5\n        /* \"#utility.yul\":4184:4200   */\n      add\n        /* \"#utility.yul\":4181:4206   */\n      gt\n        /* \"#utility.yul\":4178:4290   */\n      iszero\n      tag_148\n      jumpi\n        /* \"#utility.yul\":4209:4288   */\n      tag_149\n      tag_87\n      jump\t// in\n    tag_149:\n        /* \"#utility.yul\":4178:4290   */\n    tag_148:\n        /* \"#utility.yul\":4299:4353   */\n      tag_150\n        /* \"#utility.yul\":4346:4352   */\n      dup5\n        /* \"#utility.yul\":4341:4344   */\n      dup3\n        /* \"#utility.yul\":4336:4339   */\n      dup6\n        /* \"#utility.yul\":4299:4353   */\n      tag_92\n      jump\t// in\n    tag_150:\n        /* \"#utility.yul\":4018:4359   */\n      pop\n        /* \"#utility.yul\":3934:4359   */\n      swap4\n      swap3\n      pop\n      pop\n      pop\n      jump\t// out\n        /* \"#utility.yul\":4379:4719   */\n    tag_94:\n        /* \"#utility.yul\":4435:4440   */\n      0x00\n        /* \"#utility.yul\":4484:4487   */\n      dup3\n        /* \"#utility.yul\":4477:4481   */\n      0x1f\n        /* \"#utility.yul\":4469:4475   */\n      dup4\n        /* \"#utility.yul\":4465:4482   */\n      add\n        /* \"#utility.yul\":4461:4488   */\n      slt\n        /* \"#utility.yul\":4451:4573   */\n      tag_152\n      jumpi\n        /* \"#utility.yul\":4492:4571   */\n      tag_153\n      tag_86\n      jump\t// in\n    tag_153:\n        /* \"#utility.yul\":4451:4573   */\n    tag_152:\n        /* \"#utility.yul\":4609:4615   */\n      dup2\n        /* \"#utility.yul\":4596:4616   */\n      calldataload\n        /* \"#utility.yul\":4634:4713   */\n      tag_154\n        /* \"#utility.yul\":4709:4712   */\n      dup5\n        /* \"#utility.yul\":4701:4707   */\n      dup3\n        /* \"#utility.yul\":4694:4698   */\n      0x20\n        /* \"#utility.yul\":4686:4692   */\n      dup7\n        /* \"#utility.yul\":4682:4699   */\n      add\n        /* \"#utility.yul\":4634:4713   */\n      tag_93\n      jump\t// in\n    tag_154:\n        /* \"#utility.yul\":4625:4713   */\n      swap2\n      pop\n        /* \"#utility.yul\":4441:4719   */\n      pop\n        /* \"#utility.yul\":4379:4719   */\n      swap3\n      swap2\n      pop\n      pop\n      jump\t// out\n        /* \"#utility.yul\":4725:4801   */\n    tag_95:\n        /* \"#utility.yul\":4761:4768   */\n      0x00\n        /* \"#utility.yul\":4790:4795   */\n      dup2\n        /* \"#utility.yul\":4779:4795   */\n      swap1\n      pop\n        /* \"#utility.yul\":4725:4801   */\n      swap2\n      swap1\n      pop\n      jump\t// out\n        /* \"#utility.yul\":4807:4927   */\n    tag_96:\n        /* \"#utility.yul\":4879:4902   */\n      tag_157\n        /* \"#utility.yul\":4896:4901   */\n      dup2\n        /* \"#utility.yul\":4879:4902   */\n      tag_95\n      jump\t// in\n    tag_157:\n        /* \"#utility.yul\":4872:4877   */\n      dup2\n        /* \"#utility.yul\":4869:4903   */\n      eq\n        /* \"#utility.yul\":4859:4921   */\n      tag_158\n      jumpi\n        /* \"#utility.yul\":4917:4918   */\n      0x00\n        /* \"#utility.yul\":4914:4915   */\n      0x00\n        /* \"#utility.yul\":4907:4919   */\n      revert\n        /* \"#utility.yul\":4859:4921   */\n    tag_158:\n        /* \"#utility.yul\":4807:4927   */\n      pop\n      jump\t// out\n        /* \"#utility.yul\":4933:5070   */\n    tag_97:\n        /* \"#utility.yul\":4978:4983   */\n      0x00\n        /* \"#utility.yul\":5016:5022   */\n      dup2\n        /* \"#utility.yul\":5003:5023   */\n      calldataload\n        /* \"#utility.yul\":4994:5023   */\n      swap1\n      pop\n        /* \"#utility.yul\":5032:5064   */\n      tag_160\n        /* \"#utility.yul\":5058:5063   */\n      dup2\n        /* \"#utility.yul\":5032:5064   */\n      tag_96\n      jump\t// in\n    tag_160:\n        /* \"#utility.yul\":4933:5070   */\n      swap3\n      swap2\n      pop\n      pop\n      jump\t// out\n        /* \"#utility.yul\":5076:5728   */\n    tag_34:\n        /* \"#utility.yul\":5153:5159   */\n      0x00\n        /* \"#utility.yul\":5161:5167   */\n      0x00\n        /* \"#utility.yul\":5210:5212   */\n      0x40\n        /* \"#utility.yul\":5198:5207   */\n      dup4\n        /* \"#utility.yul\":5189:5196   */\n      dup6\n        /* \"#utility.yul\":5185:5208   */\n      sub\n        /* \"#utility.yul\":5181:5213   */\n      slt\n        /* \"#utility.yul\":5178:5297   */\n      iszero\n      tag_162\n      jumpi\n        /* \"#utility.yul\":5216:5295   */\n      tag_163\n      tag_75\n      jump\t// in\n    tag_163:\n        /* \"#utility.yul\":5178:5297   */\n    tag_162:\n        /* \"#utility.yul\":5364:5365   */\n      0x00\n        /* \"#utility.yul\":5353:5362   */\n      dup4\n        /* \"#utility.yul\":5349:5366   */\n      add\n        /* \"#utility.yul\":5336:5367   */\n      calldataload\n        /* \"#utility.yul\":5394:5412   */\n      0xffffffffffffffff\n        /* \"#utility.yul\":5386:5392   */\n      dup2\n        /* \"#utility.yul\":5383:5413   */\n      gt\n        /* \"#utility.yul\":5380:5497   */\n      iszero\n      tag_164\n      jumpi\n        /* \"#utility.yul\":5416:5495   */\n      tag_165\n      tag_76\n      jump\t// in\n    tag_165:\n        /* \"#utility.yul\":5380:5497   */\n    tag_164:\n        /* \"#utility.yul\":5521:5584   */\n      tag_166\n        /* \"#utility.yul\":5576:5583   */\n      dup6\n        /* \"#utility.yul\":5567:5573   */\n      dup3\n        /* \"#utility.yul\":5556:5565   */\n      dup7\n        /* \"#utility.yul\":5552:5574   */\n      add\n        /* \"#utility.yul\":5521:5584   */\n      tag_94\n      jump\t// in\n    tag_166:\n        /* \"#utility.yul\":5511:5584   */\n      swap3\n      pop\n        /* \"#utility.yul\":5307:5594   */\n      pop\n        /* \"#utility.yul\":5633:5635   */\n      0x20\n        /* \"#utility.yul\":5659:5711   */\n      tag_167\n        /* \"#utility.yul\":5703:5710   */\n      dup6\n        /* \"#utility.yul\":5694:5700   */\n      dup3\n        /* \"#utility.yul\":5683:5692   */\n      dup7\n        /* \"#utility.yul\":5679:5701   */\n      add\n        /* \"#utility.yul\":5659:5711   */\n      tag_97\n      jump\t// in\n    tag_167:\n        /* \"#utility.yul\":5649:5711   */\n      swap2\n      pop\n        /* \"#utility.yul\":5604:5721   */\n      pop\n        /* \"#utility.yul\":5076:5728   */\n      swap3\n      pop\n      swap3\n      swap1\n      pop\n      jump\t// out\n        /* \"#utility.yul\":5734:5914   */\n    tag_98:\n        /* \"#utility.yul\":5782:5859   */\n      0x4e487b7100000000000000000000000000000000000000000000000000000000\n        /* \"#utility.yul\":5779:5780   */\n      0x00\n        /* \"#utility.yul\":5772:5860   */\n      mstore\n        /* \"#utility.yul\":5879:5883   */\n      0x11\n        /* \"#utility.yul\":5876:5877   */\n      0x04\n        /* \"#utility.yul\":5869:5884   */\n      mstore\n        /* \"#utility.yul\":5903:5907   */\n      0x24\n        /* \"#utility.yul\":5900:5901   */\n      0x00\n        /* \"#utility.yul\":5893:5908   */\n      revert\n        /* \"#utility.yul\":5920:6111   */\n    tag_42:\n        /* \"#utility.yul\":5960:5963   */\n      0x00\n        /* \"#utility.yul\":5979:5999   */\n      tag_170\n        /* \"#utility.yul\":5997:5998   */\n      dup3\n        /* \"#utility.yul\":5979:5999   */\n      tag_77\n      jump\t// in\n    tag_170:\n        /* \"#utility.yul\":5974:5999   */\n      swap2\n      pop\n        /* \"#utility.yul\":6013:6033   */\n      tag_171\n        /* \"#utility.yul\":6031:6032   */\n      dup4\n        /* \"#utility.yul\":6013:6033   */\n      tag_77\n      jump\t// in\n    tag_171:\n        /* \"#utility.yul\":6008:6033   */\n      swap3\n      pop\n        /* \"#utility.yul\":6056:6057   */\n      dup3\n        /* \"#utility.yul\":6053:6054   */\n      dup3\n        /* \"#utility.yul\":6049:6058   */\n      add\n        /* \"#utility.yul\":6042:6058   */\n      swap1\n      pop\n        /* \"#utility.yul\":6077:6080   */\n      dup1\n        /* \"#utility.yul\":6074:6075   */\n      dup3\n        /* \"#utility.yul\":6071:6081   */\n      gt\n        /* \"#utility.yul\":6068:6104   */\n      iszero\n      tag_172\n      jumpi\n        /* \"#utility.yul\":6084:6102   */\n      tag_173\n      tag_98\n      jump\t// in\n    tag_173:\n        /* \"#utility.yul\":6068:6104   */\n    tag_172:\n        /* \"#utility.yul\":5920:6111   */\n      swap3\n      swap2\n      pop\n      pop\n      jump\t// out\n        /* \"#utility.yul\":6117:6350   */\n    tag_54:\n        /* \"#utility.yul\":6156:6159   */\n      0x00\n        /* \"#utility.yul\":6179:6203   */\n      tag_175\n        /* \"#utility.yul\":6197:6202   */\n      dup3\n        /* \"#utility.yul\":6179:6203   */\n      tag_77\n      jump\t// in\n    tag_175:\n        /* \"#utility.yul\":6170:6203   */\n      swap2\n      pop\n        /* \"#utility.yul\":6225:6291   */\n      0xffffffffffffffffffffffffffffffffffffffffffffffffffffffffffffffff\n        /* \"#utility.yul\":6218:6223   */\n      dup3\n        /* \"#utility.yul\":6215:6292   */\n      sub\n        /* \"#utility.yul\":6212:6315   */\n      tag_176\n      jumpi\n        /* \"#utility.yul\":6295:6313   */\n      tag_177\n      tag_98\n      jump\t// in\n    tag_177:\n        /* \"#utility.yul\":6212:6315   */\n    tag_176:\n        /* \"#utility.yul\":6342:6343   */\n      0x01\n        /* \"#utility.yul\":6335:6340   */\n      dup3\n        /* \"#utility.yul\":6331:6344   */\n      add\n        /* \"#utility.yul\":6324:6344   */\n      swap1\n      pop\n        /* \"#utility.yul\":6117:6350   */\n      swap2\n      swap1\n      pop\n      jump\t// out\n        /* \"#utility.yul\":6356:6521   */\n    tag_99:\n        /* \"#utility.yul\":6496:6513   */\n      0x496e76616c6964206f7074696f6e2e0000000000000000000000000000000000\n        /* \"#utility.yul\":6492:6493   */\n      0x00\n        /* \"#utility.yul\":6484:6490   */\n      dup3\n        /* \"#utility.yul\":6480:6494   */\n      add\n        /* \"#utility.yul\":6473:6514   */\n      mstore\n        /* \"#utility.yul\":6356:6521   */\n      pop\n      jump\t// out\n        /* \"#utility.yul\":6527:6893   */\n    tag_100:\n        /* \"#utility.yul\":6669:6672   */\n      0x00\n        /* \"#utility.yul\":6690:6757   */\n      tag_180\n        /* \"#utility.yul\":6754:6756   */\n      0x0f\n        /* \"#utility.yul\":6749:6752   */\n      dup4\n        /* \"#utility.yul\":6690:6757   */\n      tag_82\n      jump\t// in\n    tag_180:\n        /* \"#utility.yul\":6683:6757   */\n      swap2\n      pop\n        /* \"#utility.yul\":6766:6859   */\n      tag_181\n        /* \"#utility.yul\":6855:6858   */\n      dup3\n        /* \"#utility.yul\":6766:6859   */\n      tag_99\n      jump\t// in\n    tag_181:\n        /* \"#utility.yul\":6884:6886   */\n      0x20\n        /* \"#utility.yul\":6879:6882   */\n      dup3\n        /* \"#utility.yul\":6875:6887   */\n      add\n        /* \"#utility.yul\":6868:6887   */\n      swap1\n      pop\n        /* \"#utility.yul\":6527:6893   */\n      swap2\n      swap1\n      pop\n      jump\t// out\n        /* \"#utility.yul\":6899:7318   */\n    tag_73:\n        /* \"#utility.yul\":7065:7069   */\n      0x00\n        /* \"#utility.yul\":7103:7105   */\n      0x20\n        /* \"#utility.yul\":7092:7101   */\n      dup3\n        /* \"#utility.yul\":7088:7106   */\n      add\n        /* \"#utility.yul\":7080:7106   */\n      swap1\n      pop\n        /* \"#utility.yul\":7152:7161   */\n      dup2\n        /* \"#utility.yul\":7146:7150   */\n      dup2\n        /* \"#utility.yul\":7142:7162   */\n      sub\n        /* \"#utility.yul\":7138:7139   */\n      0x00\n        /* \"#utility.yul\":7127:7136   */\n      dup4\n        /* \"#utility.yul\":7123:7140   */\n      add\n        /* \"#utility.yul\":7116:7163   */\n      mstore\n        /* \"#utility.yul\":7180:7311   */\n      tag_183\n        /* \"#utility.yul\":7306:7310   */\n      dup2\n        /* \"#utility.yul\":7180:7311   */\n      tag_100\n      jump\t// in\n    tag_183:\n        /* \"#utility.yul\":7172:7311   */\n      swap1\n      pop\n        /* \"#utility.yul\":6899:7318   */\n      swap2\n      swap1\n      pop\n      jump\t// out\n\n    auxdata: 0xa2646970667358221220827de595c900cde3f54ad4e6528a51854207d2192a880e11fe9b012f2ce783b264736f6c634300081e0033\n}\n",
				"bytecode": {
					"linkReferences": {},
					"object": "6080604052348015600e575f5ffd5b50610bb08061001c5f395ff3fe608060405234801561000f575f5ffd5b5060043610610060575f3560e01c80630936465a146100645780632788de40146100945780638671fae5146100c4578063cc04364c146100f4578063dff2502e14610124578063e7d67e8c14610154575b5f5ffd5b61007e600480360381019061007991906107cf565b610184565b60405161008b9190610809565b60405180910390f35b6100ae60048036038101906100a991906107cf565b6101bd565b6040516100bb9190610892565b60405180910390f35b6100de60048036038101906100d991906107cf565b6102cc565b6040516100eb9190610809565b60405180910390f35b61010e600480360381019061010991906107cf565b610301565b60405161011b9190610892565b60405180910390f35b61013e600480360381019061013991906107cf565b6103cc565b60405161014b9190610892565b60405180910390f35b61016e60048036038101906101699190610a11565b610496565b60405161017b9190610892565b60405180910390f35b5f5f90505f600290505b8281116101b75780826101a19190610a98565b91506002816101b09190610a98565b905061018e565b50919050565b6060605a8210610204576040518060400160405280600181526020017f410000000000000000000000000000000000000000000000000000000000000081525090506102c7565b60508210610249576040518060400160405280600181526020017f420000000000000000000000000000000000000000000000000000000000000081525090506102c7565b6046821061028e576040518060400160405280600181526020017f430000000000000000000000000000000000000000000000000000000000000081525090506102c7565b6040518060400160405280600181526020017f460000000000000000000000000000000000000000000000000000000000000081525090505b919050565b5f5f600190505b8281116102fb5780826102e69190610a98565b915080806102f390610acb565b9150506102d3565b50919050565b60606064821115610349576040518060400160405280600c81526020017f4f7665727370656564696e67000000000000000000000000000000000000000081525090506103c7565b6064820361038e576040518060400160405280601581526020017f5741524e494e4721205370656564204c696d697421000000000000000000000081525090506103c7565b6040518060400160405280600c81526020017f4e6f726d616c207370656564000000000000000000000000000000000000000081525090505b919050565b606060128210610413576040518060400160405280600781526020017f416c6c6f776564000000000000000000000000000000000000000000000000008152509050610491565b600d8210610458576040518060400160405280601681526020017f5265717569726564207769746820477561726469616e000000000000000000008152509050610491565b6040518060400160405280600b81526020017f4e6f7420616c6c6f77656400000000000000000000000000000000000000000081525090505b919050565b60605f838051906020012090506040518060400160405280600781526020017f63656c73697573000000000000000000000000000000000000000000000000008152508051906020012081148061052857506040518060400160405280600781526020017f43656c73697573000000000000000000000000000000000000000000000000008152508051906020012081145b156105f65760648312610573576040518060400160405280600d81526020017f426f696c696e6720506f696e7400000000000000000000000000000000000000815250915050610785565b5f83136105b8576040518060400160405280600e81526020017f467265657a696e6720506f696e74000000000000000000000000000000000000815250915050610785565b6040518060400160405280601d81526020017f4e6f7420426f696c696e67206f7220467265657a696e6720506f696e74000000815250915050610785565b6040518060400160405280600a81526020017f66616872656e68656974000000000000000000000000000000000000000000008152508051906020012081148061067b57506040518060400160405280600a81526020017f46616872656e68656974000000000000000000000000000000000000000000008152508051906020012081145b1561074a5760d483126106c6576040518060400160405280600d81526020017f426f696c696e6720506f696e7400000000000000000000000000000000000000815250915050610785565b6025831361070c576040518060400160405280600e81526020017f467265657a696e6720506f696e74000000000000000000000000000000000000815250915050610785565b6040518060400160405280601d81526020017f4e6f7420426f696c696e67206f7220467265657a696e6720506f696e74000000815250915050610785565b6040517f08c379a000000000000000000000000000000000000000000000000000000000815260040161077c90610b5c565b60405180910390fd5b92915050565b5f604051905090565b5f5ffd5b5f5ffd5b5f819050919050565b6107ae8161079c565b81146107b8575f5ffd5b50565b5f813590506107c9816107a5565b92915050565b5f602082840312156107e4576107e3610794565b5b5f6107f1848285016107bb565b91505092915050565b6108038161079c565b82525050565b5f60208201905061081c5f8301846107fa565b92915050565b5f81519050919050565b5f82825260208201905092915050565b8281835e5f83830152505050565b5f601f19601f8301169050919050565b5f61086482610822565b61086e818561082c565b935061087e81856020860161083c565b6108878161084a565b840191505092915050565b5f6020820190508181035f8301526108aa818461085a565b905092915050565b5f5ffd5b5f5ffd5b7f4e487b71000000000000000000000000000000000000000000000000000000005f52604160045260245ffd5b6108f08261084a565b810181811067ffffffffffffffff8211171561090f5761090e6108ba565b5b80604052505050565b5f61092161078b565b905061092d82826108e7565b919050565b5f67ffffffffffffffff82111561094c5761094b6108ba565b5b6109558261084a565b9050602081019050919050565b828183375f83830152505050565b5f61098261097d84610932565b610918565b90508281526020810184848401111561099e5761099d6108b6565b5b6109a9848285610962565b509392505050565b5f82601f8301126109c5576109c46108b2565b5b81356109d5848260208601610970565b91505092915050565b5f819050919050565b6109f0816109de565b81146109fa575f5ffd5b50565b5f81359050610a0b816109e7565b92915050565b5f5f60408385031215610a2757610a26610794565b5b5f83013567ffffffffffffffff811115610a4457610a43610798565b5b610a50858286016109b1565b9250506020610a61858286016109fd565b9150509250929050565b7f4e487b71000000000000000000000000000000000000000000000000000000005f52601160045260245ffd5b5f610aa28261079c565b9150610aad8361079c565b9250828201905080821115610ac557610ac4610a6b565b5b92915050565b5f610ad58261079c565b91507fffffffffffffffffffffffffffffffffffffffffffffffffffffffffffffffff8203610b0757610b06610a6b565b5b600182019050919050565b7f496e76616c6964206f7074696f6e2e00000000000000000000000000000000005f82015250565b5f610b46600f8361082c565b9150610b5182610b12565b602082019050919050565b5f6020820190508181035f830152610b7381610b3a565b905091905056fea2646970667358221220827de595c900cde3f54ad4e6528a51854207d2192a880e11fe9b012f2ce783b264736f6c634300081e0033",
					"opcodes": "PUSH1 0x80 PUSH1 0x40 MSTORE CALLVALUE DUP1 ISZERO PUSH1 0xE JUMPI PUSH0 PUSH0 REVERT JUMPDEST POP PUSH2 0xBB0 DUP1 PUSH2 0x1C PUSH0 CODECOPY PUSH0 RETURN INVALID PUSH1 0x80 PUSH1 0x40 MSTORE CALLVALUE DUP1 ISZERO PUSH2 0xF JUMPI PUSH0 PUSH0 REVERT JUMPDEST POP PUSH1 0x4 CALLDATASIZE LT PUSH2 0x60 JUMPI PUSH0 CALLDATALOAD PUSH1 0xE0 SHR DUP1 PUSH4 0x936465A EQ PUSH2 0x64 JUMPI DUP1 PUSH4 0x2788DE40 EQ PUSH2 0x94 JUMPI DUP1 PUSH4 0x8671FAE5 EQ PUSH2 0xC4 JUMPI DUP1 PUSH4 0xCC04364C EQ PUSH2 0xF4 JUMPI DUP1 PUSH4 0xDFF2502E EQ PUSH2 0x124 JUMPI DUP1 PUSH4 0xE7D67E8C EQ PUSH2 0x154 JUMPI JUMPDEST PUSH0 PUSH0 REVERT JUMPDEST PUSH2 0x7E PUSH1 0x4 DUP1 CALLDATASIZE SUB DUP2 ADD SWAP1 PUSH2 0x79 SWAP2 SWAP1 PUSH2 0x7CF JUMP JUMPDEST PUSH2 0x184 JUMP JUMPDEST PUSH1 0x40 MLOAD PUSH2 0x8B SWAP2 SWAP1 PUSH2 0x809 JUMP JUMPDEST PUSH1 0x40 MLOAD DUP1 SWAP2 SUB SWAP1 RETURN JUMPDEST PUSH2 0xAE PUSH1 0x4 DUP1 CALLDATASIZE SUB DUP2 ADD SWAP1 PUSH2 0xA9 SWAP2 SWAP1 PUSH2 0x7CF JUMP JUMPDEST PUSH2 0x1BD JUMP JUMPDEST PUSH1 0x40 MLOAD PUSH2 0xBB SWAP2 SWAP1 PUSH2 0x892 JUMP JUMPDEST PUSH1 0x40 MLOAD DUP1 SWAP2 SUB SWAP1 RETURN JUMPDEST PUSH2 0xDE PUSH1 0x4 DUP1 CALLDATASIZE SUB DUP2 ADD SWAP1 PUSH2 0xD9 SWAP2 SWAP1 PUSH2 0x7CF JUMP JUMPDEST PUSH2 0x2CC JUMP JUMPDEST PUSH1 0x40 MLOAD PUSH2 0xEB SWAP2 SWAP1 PUSH2 0x809 JUMP JUMPDEST PUSH1 0x40 MLOAD DUP1 SWAP2 SUB SWAP1 RETURN JUMPDEST PUSH2 0x10E PUSH1 0x4 DUP1 CALLDATASIZE SUB DUP2 ADD SWAP1 PUSH2 0x109 SWAP2 SWAP1 PUSH2 0x7CF JUMP JUMPDEST PUSH2 0x301 JUMP JUMPDEST PUSH1 0x40 MLOAD PUSH2 0x11B SWAP2 SWAP1 PUSH2 0x892 JUMP JUMPDEST PUSH1 0x40 MLOAD DUP1 SWAP2 SUB SWAP1 RETURN JUMPDEST PUSH2 0x13E PUSH1 0x4 DUP1 CALLDATASIZE SUB DUP2 ADD SWAP1 PUSH2 0x139 SWAP2 SWAP1 PUSH2 0x7CF JUMP JUMPDEST PUSH2 0x3CC JUMP JUMPDEST PUSH1 0x40 MLOAD PUSH2 0x14B SWAP2 SWAP1 PUSH2 0x892 JUMP JUMPDEST PUSH1 0x40 MLOAD DUP1 SWAP2 SUB SWAP1 RETURN JUMPDEST PUSH2 0x16E PUSH1 0x4 DUP1 CALLDATASIZE SUB DUP2 ADD SWAP1 PUSH2 0x169 SWAP2 SWAP1 PUSH2 0xA11 JUMP JUMPDEST PUSH2 0x496 JUMP JUMPDEST PUSH1 0x40 MLOAD PUSH2 0x17B SWAP2 SWAP1 PUSH2 0x892 JUMP JUMPDEST PUSH1 0x40 MLOAD DUP1 SWAP2 SUB SWAP1 RETURN JUMPDEST PUSH0 PUSH0 SWAP1 POP PUSH0 PUSH1 0x2 SWAP1 POP JUMPDEST DUP3 DUP2 GT PUSH2 0x1B7 JUMPI DUP1 DUP3 PUSH2 0x1A1 SWAP2 SWAP1 PUSH2 0xA98 JUMP JUMPDEST SWAP2 POP PUSH1 0x2 DUP2 PUSH2 0x1B0 SWAP2 SWAP1 PUSH2 0xA98 JUMP JUMPDEST SWAP1 POP PUSH2 0x18E JUMP JUMPDEST POP SWAP2 SWAP1 POP JUMP JUMPDEST PUSH1 0x60 PUSH1 0x5A DUP3 LT PUSH2 0x204 JUMPI PUSH1 0x40 MLOAD DUP1 PUSH1 0x40 ADD PUSH1 0x40 MSTORE DUP1 PUSH1 0x1 DUP2 MSTORE PUSH1 0x20 ADD PUSH32 0x4100000000000000000000000000000000000000000000000000000000000000 DUP2 MSTORE POP SWAP1 POP PUSH2 0x2C7 JUMP JUMPDEST PUSH1 0x50 DUP3 LT PUSH2 0x249 JUMPI PUSH1 0x40 MLOAD DUP1 PUSH1 0x40 ADD PUSH1 0x40 MSTORE DUP1 PUSH1 0x1 DUP2 MSTORE PUSH1 0x20 ADD PUSH32 0x4200000000000000000000000000000000000000000000000000000000000000 DUP2 MSTORE POP SWAP1 POP PUSH2 0x2C7 JUMP JUMPDEST PUSH1 0x46 DUP3 LT PUSH2 0x28E JUMPI PUSH1 0x40 MLOAD DUP1 PUSH1 0x40 ADD PUSH1 0x40 MSTORE DUP1 PUSH1 0x1 DUP2 MSTORE PUSH1 0x20 ADD PUSH32 0x4300000000000000000000000000000000000000000000000000000000000000 DUP2 MSTORE POP SWAP1 POP PUSH2 0x2C7 JUMP JUMPDEST PUSH1 0x40 MLOAD DUP1 PUSH1 0x40 ADD PUSH1 0x40 MSTORE DUP1 PUSH1 0x1 DUP2 MSTORE PUSH1 0x20 ADD PUSH32 0x4600000000000000000000000000000000000000000000000000000000000000 DUP2 MSTORE POP SWAP1 POP JUMPDEST SWAP2 SWAP1 POP JUMP JUMPDEST PUSH0 PUSH0 PUSH1 0x1 SWAP1 POP JUMPDEST DUP3 DUP2 GT PUSH2 0x2FB JUMPI DUP1 DUP3 PUSH2 0x2E6 SWAP2 SWAP1 PUSH2 0xA98 JUMP JUMPDEST SWAP2 POP DUP1 DUP1 PUSH2 0x2F3 SWAP1 PUSH2 0xACB JUMP JUMPDEST SWAP2 POP POP PUSH2 0x2D3 JUMP JUMPDEST POP SWAP2 SWAP1 POP JUMP JUMPDEST PUSH1 0x60 PUSH1 0x64 DUP3 GT ISZERO PUSH2 0x349 JUMPI PUSH1 0x40 MLOAD DUP1 PUSH1 0x40 ADD PUSH1 0x40 MSTORE DUP1 PUSH1 0xC DUP2 MSTORE PUSH1 0x20 ADD PUSH32 0x4F7665727370656564696E670000000000000000000000000000000000000000 DUP2 MSTORE POP SWAP1 POP PUSH2 0x3C7 JUMP JUMPDEST PUSH1 0x64 DUP3 SUB PUSH2 0x38E JUMPI PUSH1 0x40 MLOAD DUP1 PUSH1 0x40 ADD PUSH1 0x40 MSTORE DUP1 PUSH1 0x15 DUP2 MSTORE PUSH1 0x20 ADD PUSH32 0x5741524E494E4721205370656564204C696D6974210000000000000000000000 DUP2 MSTORE POP SWAP1 POP PUSH2 0x3C7 JUMP JUMPDEST PUSH1 0x40 MLOAD DUP1 PUSH1 0x40 ADD PUSH1 0x40 MSTORE DUP1 PUSH1 0xC DUP2 MSTORE PUSH1 0x20 ADD PUSH32 0x4E6F726D616C2073706565640000000000000000000000000000000000000000 DUP2 MSTORE POP SWAP1 POP JUMPDEST SWAP2 SWAP1 POP JUMP JUMPDEST PUSH1 0x60 PUSH1 0x12 DUP3 LT PUSH2 0x413 JUMPI PUSH1 0x40 MLOAD DUP1 PUSH1 0x40 ADD PUSH1 0x40 MSTORE DUP1 PUSH1 0x7 DUP2 MSTORE PUSH1 0x20 ADD PUSH32 0x416C6C6F77656400000000000000000000000000000000000000000000000000 DUP2 MSTORE POP SWAP1 POP PUSH2 0x491 JUMP JUMPDEST PUSH1 0xD DUP3 LT PUSH2 0x458 JUMPI PUSH1 0x40 MLOAD DUP1 PUSH1 0x40 ADD PUSH1 0x40 MSTORE DUP1 PUSH1 0x16 DUP2 MSTORE PUSH1 0x20 ADD PUSH32 0x5265717569726564207769746820477561726469616E00000000000000000000 DUP2 MSTORE POP SWAP1 POP PUSH2 0x491 JUMP JUMPDEST PUSH1 0x40 MLOAD DUP1 PUSH1 0x40 ADD PUSH1 0x40 MSTORE DUP1 PUSH1 0xB DUP2 MSTORE PUSH1 0x20 ADD PUSH32 0x4E6F7420616C6C6F776564000000000000000000000000000000000000000000 DUP2 MSTORE POP SWAP1 POP JUMPDEST SWAP2 SWAP1 POP JUMP JUMPDEST PUSH1 0x60 PUSH0 DUP4 DUP1 MLOAD SWAP1 PUSH1 0x20 ADD KECCAK256 SWAP1 POP PUSH1 0x40 MLOAD DUP1 PUSH1 0x40 ADD PUSH1 0x40 MSTORE DUP1 PUSH1 0x7 DUP2 MSTORE PUSH1 0x20 ADD PUSH32 0x63656C7369757300000000000000000000000000000000000000000000000000 DUP2 MSTORE POP DUP1 MLOAD SWAP1 PUSH1 0x20 ADD KECCAK256 DUP2 EQ DUP1 PUSH2 0x528 JUMPI POP PUSH1 0x40 MLOAD DUP1 PUSH1 0x40 ADD PUSH1 0x40 MSTORE DUP1 PUSH1 0x7 DUP2 MSTORE PUSH1 0x20 ADD PUSH32 0x43656C7369757300000000000000000000000000000000000000000000000000 DUP2 MSTORE POP DUP1 MLOAD SWAP1 PUSH1 0x20 ADD KECCAK256 DUP2 EQ JUMPDEST ISZERO PUSH2 0x5F6 JUMPI PUSH1 0x64 DUP4 SLT PUSH2 0x573 JUMPI PUSH1 0x40 MLOAD DUP1 PUSH1 0x40 ADD PUSH1 0x40 MSTORE DUP1 PUSH1 0xD DUP2 MSTORE PUSH1 0x20 ADD PUSH32 0x426F696C696E6720506F696E7400000000000000000000000000000000000000 DUP2 MSTORE POP SWAP2 POP POP PUSH2 0x785 JUMP JUMPDEST PUSH0 DUP4 SGT PUSH2 0x5B8 JUMPI PUSH1 0x40 MLOAD DUP1 PUSH1 0x40 ADD PUSH1 0x40 MSTORE DUP1 PUSH1 0xE DUP2 MSTORE PUSH1 0x20 ADD PUSH32 0x467265657A696E6720506F696E74000000000000000000000000000000000000 DUP2 MSTORE POP SWAP2 POP POP PUSH2 0x785 JUMP JUMPDEST PUSH1 0x40 MLOAD DUP1 PUSH1 0x40 ADD PUSH1 0x40 MSTORE DUP1 PUSH1 0x1D DUP2 MSTORE PUSH1 0x20 ADD PUSH32 0x4E6F7420426F696C696E67206F7220467265657A696E6720506F696E74000000 DUP2 MSTORE POP SWAP2 POP POP PUSH2 0x785 JUMP JUMPDEST PUSH1 0x40 MLOAD DUP1 PUSH1 0x40 ADD PUSH1 0x40 MSTORE DUP1 PUSH1 0xA DUP2 MSTORE PUSH1 0x20 ADD PUSH32 0x66616872656E6865697400000000000000000000000000000000000000000000 DUP2 MSTORE POP DUP1 MLOAD SWAP1 PUSH1 0x20 ADD KECCAK256 DUP2 EQ DUP1 PUSH2 0x67B JUMPI POP PUSH1 0x40 MLOAD DUP1 PUSH1 0x40 ADD PUSH1 0x40 MSTORE DUP1 PUSH1 0xA DUP2 MSTORE PUSH1 0x20 ADD PUSH32 0x46616872656E6865697400000000000000000000000000000000000000000000 DUP2 MSTORE POP DUP1 MLOAD SWAP1 PUSH1 0x20 ADD KECCAK256 DUP2 EQ JUMPDEST ISZERO PUSH2 0x74A JUMPI PUSH1 0xD4 DUP4 SLT PUSH2 0x6C6 JUMPI PUSH1 0x40 MLOAD DUP1 PUSH1 0x40 ADD PUSH1 0x40 MSTORE DUP1 PUSH1 0xD DUP2 MSTORE PUSH1 0x20 ADD PUSH32 0x426F696C696E6720506F696E7400000000000000000000000000000000000000 DUP2 MSTORE POP SWAP2 POP POP PUSH2 0x785 JUMP JUMPDEST PUSH1 0x25 DUP4 SGT PUSH2 0x70C JUMPI PUSH1 0x40 MLOAD DUP1 PUSH1 0x40 ADD PUSH1 0x40 MSTORE DUP1 PUSH1 0xE DUP2 MSTORE PUSH1 0x20 ADD PUSH32 0x467265657A696E6720506F696E74000000000000000000000000000000000000 DUP2 MSTORE POP SWAP2 POP POP PUSH2 0x785 JUMP JUMPDEST PUSH1 0x40 MLOAD DUP1 PUSH1 0x40 ADD PUSH1 0x40 MSTORE DUP1 PUSH1 0x1D DUP2 MSTORE PUSH1 0x20 ADD PUSH32 0x4E6F7420426F696C696E67206F7220467265657A696E6720506F696E74000000 DUP2 MSTORE POP SWAP2 POP POP PUSH2 0x785 JUMP JUMPDEST PUSH1 0x40 MLOAD PUSH32 0x8C379A000000000000000000000000000000000000000000000000000000000 DUP2 MSTORE PUSH1 0x4 ADD PUSH2 0x77C SWAP1 PUSH2 0xB5C JUMP JUMPDEST PUSH1 0x40 MLOAD DUP1 SWAP2 SUB SWAP1 REVERT JUMPDEST SWAP3 SWAP2 POP POP JUMP JUMPDEST PUSH0 PUSH1 0x40 MLOAD SWAP1 POP SWAP1 JUMP JUMPDEST PUSH0 PUSH0 REVERT JUMPDEST PUSH0 PUSH0 REVERT JUMPDEST PUSH0 DUP2 SWAP1 POP SWAP2 SWAP1 POP JUMP JUMPDEST PUSH2 0x7AE DUP2 PUSH2 0x79C JUMP JUMPDEST DUP2 EQ PUSH2 0x7B8 JUMPI PUSH0 PUSH0 REVERT JUMPDEST POP JUMP JUMPDEST PUSH0 DUP2 CALLDATALOAD SWAP1 POP PUSH2 0x7C9 DUP2 PUSH2 0x7A5 JUMP JUMPDEST SWAP3 SWAP2 POP POP JUMP JUMPDEST PUSH0 PUSH1 0x20 DUP3 DUP5 SUB SLT ISZERO PUSH2 0x7E4 JUMPI PUSH2 0x7E3 PUSH2 0x794 JUMP JUMPDEST JUMPDEST PUSH0 PUSH2 0x7F1 DUP5 DUP3 DUP6 ADD PUSH2 0x7BB JUMP JUMPDEST SWAP2 POP POP SWAP3 SWAP2 POP POP JUMP JUMPDEST PUSH2 0x803 DUP2 PUSH2 0x79C JUMP JUMPDEST DUP3 MSTORE POP POP JUMP JUMPDEST PUSH0 PUSH1 0x20 DUP3 ADD SWAP1 POP PUSH2 0x81C PUSH0 DUP4 ADD DUP5 PUSH2 0x7FA JUMP JUMPDEST SWAP3 SWAP2 POP POP JUMP JUMPDEST PUSH0 DUP2 MLOAD SWAP1 POP SWAP2 SWAP1 POP JUMP JUMPDEST PUSH0 DUP3 DUP3 MSTORE PUSH1 0x20 DUP3 ADD SWAP1 POP SWAP3 SWAP2 POP POP JUMP JUMPDEST DUP3 DUP2 DUP4 MCOPY PUSH0 DUP4 DUP4 ADD MSTORE POP POP POP JUMP JUMPDEST PUSH0 PUSH1 0x1F NOT PUSH1 0x1F DUP4 ADD AND SWAP1 POP SWAP2 SWAP1 POP JUMP JUMPDEST PUSH0 PUSH2 0x864 DUP3 PUSH2 0x822 JUMP JUMPDEST PUSH2 0x86E DUP2 DUP6 PUSH2 0x82C JUMP JUMPDEST SWAP4 POP PUSH2 0x87E DUP2 DUP6 PUSH1 0x20 DUP7 ADD PUSH2 0x83C JUMP JUMPDEST PUSH2 0x887 DUP2 PUSH2 0x84A JUMP JUMPDEST DUP5 ADD SWAP2 POP POP SWAP3 SWAP2 POP POP JUMP JUMPDEST PUSH0 PUSH1 0x20 DUP3 ADD SWAP1 POP DUP2 DUP2 SUB PUSH0 DUP4 ADD MSTORE PUSH2 0x8AA DUP2 DUP5 PUSH2 0x85A JUMP JUMPDEST SWAP1 POP SWAP3 SWAP2 POP POP JUMP JUMPDEST PUSH0 PUSH0 REVERT JUMPDEST PUSH0 PUSH0 REVERT JUMPDEST PUSH32 0x4E487B7100000000000000000000000000000000000000000000000000000000 PUSH0 MSTORE PUSH1 0x41 PUSH1 0x4 MSTORE PUSH1 0x24 PUSH0 REVERT JUMPDEST PUSH2 0x8F0 DUP3 PUSH2 0x84A JUMP JUMPDEST DUP2 ADD DUP2 DUP2 LT PUSH8 0xFFFFFFFFFFFFFFFF DUP3 GT OR ISZERO PUSH2 0x90F JUMPI PUSH2 0x90E PUSH2 0x8BA JUMP JUMPDEST JUMPDEST DUP1 PUSH1 0x40 MSTORE POP POP POP JUMP JUMPDEST PUSH0 PUSH2 0x921 PUSH2 0x78B JUMP JUMPDEST SWAP1 POP PUSH2 0x92D DUP3 DUP3 PUSH2 0x8E7 JUMP JUMPDEST SWAP2 SWAP1 POP JUMP JUMPDEST PUSH0 PUSH8 0xFFFFFFFFFFFFFFFF DUP3 GT ISZERO PUSH2 0x94C JUMPI PUSH2 0x94B PUSH2 0x8BA JUMP JUMPDEST JUMPDEST PUSH2 0x955 DUP3 PUSH2 0x84A JUMP JUMPDEST SWAP1 POP PUSH1 0x20 DUP2 ADD SWAP1 POP SWAP2 SWAP1 POP JUMP JUMPDEST DUP3 DUP2 DUP4 CALLDATACOPY PUSH0 DUP4 DUP4 ADD MSTORE POP POP POP JUMP JUMPDEST PUSH0 PUSH2 0x982 PUSH2 0x97D DUP5 PUSH2 0x932 JUMP JUMPDEST PUSH2 0x918 JUMP JUMPDEST SWAP1 POP DUP3 DUP2 MSTORE PUSH1 0x20 DUP2 ADD DUP5 DUP5 DUP5 ADD GT ISZERO PUSH2 0x99E JUMPI PUSH2 0x99D PUSH2 0x8B6 JUMP JUMPDEST JUMPDEST PUSH2 0x9A9 DUP5 DUP3 DUP6 PUSH2 0x962 JUMP JUMPDEST POP SWAP4 SWAP3 POP POP POP JUMP JUMPDEST PUSH0 DUP3 PUSH1 0x1F DUP4 ADD SLT PUSH2 0x9C5 JUMPI PUSH2 0x9C4 PUSH2 0x8B2 JUMP JUMPDEST JUMPDEST DUP2 CALLDATALOAD PUSH2 0x9D5 DUP5 DUP3 PUSH1 0x20 DUP7 ADD PUSH2 0x970 JUMP JUMPDEST SWAP2 POP POP SWAP3 SWAP2 POP POP JUMP JUMPDEST PUSH0 DUP2 SWAP1 POP SWAP2 SWAP1 POP JUMP JUMPDEST PUSH2 0x9F0 DUP2 PUSH2 0x9DE JUMP JUMPDEST DUP2 EQ PUSH2 0x9FA JUMPI PUSH0 PUSH0 REVERT JUMPDEST POP JUMP JUMPDEST PUSH0 DUP2 CALLDATALOAD SWAP1 POP PUSH2 0xA0B DUP2 PUSH2 0x9E7 JUMP JUMPDEST SWAP3 SWAP2 POP POP JUMP JUMPDEST PUSH0 PUSH0 PUSH1 0x40 DUP4 DUP6 SUB SLT ISZERO PUSH2 0xA27 JUMPI PUSH2 0xA26 PUSH2 0x794 JUMP JUMPDEST JUMPDEST PUSH0 DUP4 ADD CALLDATALOAD PUSH8 0xFFFFFFFFFFFFFFFF DUP2 GT ISZERO PUSH2 0xA44 JUMPI PUSH2 0xA43 PUSH2 0x798 JUMP JUMPDEST JUMPDEST PUSH2 0xA50 DUP6 DUP3 DUP7 ADD PUSH2 0x9B1 JUMP JUMPDEST SWAP3 POP POP PUSH1 0x20 PUSH2 0xA61 DUP6 DUP3 DUP7 ADD PUSH2 0x9FD JUMP JUMPDEST SWAP2 POP POP SWAP3 POP SWAP3 SWAP1 POP JUMP JUMPDEST PUSH32 0x4E487B7100000000000000000000000000000000000000000000000000000000 PUSH0 MSTORE PUSH1 0x11 PUSH1 0x4 MSTORE PUSH1 0x24 PUSH0 REVERT JUMPDEST PUSH0 PUSH2 0xAA2 DUP3 PUSH2 0x79C JUMP JUMPDEST SWAP2 POP PUSH2 0xAAD DUP4 PUSH2 0x79C JUMP JUMPDEST SWAP3 POP DUP3 DUP3 ADD SWAP1 POP DUP1 DUP3 GT ISZERO PUSH2 0xAC5 JUMPI PUSH2 0xAC4 PUSH2 0xA6B JUMP JUMPDEST JUMPDEST SWAP3 SWAP2 POP POP JUMP JUMPDEST PUSH0 PUSH2 0xAD5 DUP3 PUSH2 0x79C JUMP JUMPDEST SWAP2 POP PUSH32 0xFFFFFFFFFFFFFFFFFFFFFFFFFFFFFFFFFFFFFFFFFFFFFFFFFFFFFFFFFFFFFFFF DUP3 SUB PUSH2 0xB07 JUMPI PUSH2 0xB06 PUSH2 0xA6B JUMP JUMPDEST JUMPDEST PUSH1 0x1 DUP3 ADD SWAP1 POP SWAP2 SWAP1 POP JUMP JUMPDEST PUSH32 0x496E76616C6964206F7074696F6E2E0000000000000000000000000000000000 PUSH0 DUP3 ADD MSTORE POP JUMP JUMPDEST PUSH0 PUSH2 0xB46 PUSH1 0xF DUP4 PUSH2 0x82C JUMP JUMPDEST SWAP2 POP PUSH2 0xB51 DUP3 PUSH2 0xB12 JUMP JUMPDEST PUSH1 0x20 DUP3 ADD SWAP1 POP SWAP2 SWAP1 POP JUMP JUMPDEST PUSH0 PUSH1 0x20 DUP3 ADD SWAP1 POP DUP2 DUP2 SUB PUSH0 DUP4 ADD MSTORE PUSH2 0xB73 DUP2 PUSH2 0xB3A JUMP JUMPDEST SWAP1 POP SWAP2 SWAP1 POP JUMP INVALID LOG2 PUSH5 0x6970667358 0x22 SLT KECCAK256 DUP3 PUSH30 0xE595C900CDE3F54AD4E6528A51854207D2192A880E11FE9B012F2CE783B2 PUSH5 0x736F6C6343 STOP ADDMOD 0x1E STOP CALLER "
				},
				"gasEstimates": {
					"creation": {
						"codeDepositCost": "598400",
						"executionCost": "630",
						"totalCost": "599030"
					},
					"external": {
						"ageChecker(uint256)": "infinite",
						"allNumbers(uint256)": "infinite",
						"evenNumbers(uint256)": "infinite",
						"gradeEvaluator(uint256)": "infinite",
						"speedChecker(uint256)": "infinite",
						"temperatureChecker(string,int256)": "infinite"
					}
				},
				"methodIdentifiers": {
					"ageChecker(uint256)": "dff2502e",
					"allNumbers(uint256)": "8671fae5",
					"evenNumbers(uint256)": "0936465a",
					"gradeEvaluator(uint256)": "2788de40",
					"speedChecker(uint256)": "cc04364c",
					"temperatureChecker(string,int256)": "e7d67e8c"
				}
			},
			"storageLayout": {
				"storage": [],
				"types": null
			},
			"userdoc": {
				"kind": "user",
				"methods": {},
				"version": 1
			}
		}
	}
}