{
	"contracts/Activity2_Day8.sol": {
		"Activity2_Day8": {
			"abi": [
				{
					"anonymous": false,
					"inputs": [
						{
							"indexed": true,
							"internalType": "address",
							"name": "recipient",
							"type": "address"
						},
						{
							"indexed": false,
							"internalType": "uint256",
							"name": "amount",
							"type": "uint256"
						}
					],
					"name": "Withdrawn",
					"type": "event"
				},
				{
					"inputs": [
						{
							"internalType": "uint256",
							"name": "amount",
							"type": "uint256"
						}
					],
					"name": "withdraw",
					"outputs": [],
					"stateMutability": "nonpayable",
					"type": "function"
				}
			],
			"devdoc": {
				"kind": "dev",
				"methods": {},
				"version": 1
			},
			"evm": {
				"assembly": "    /* \"contracts/Activity2_Day8.sol\":445:921  contract Activity2_Day8 {... */\n  mstore(0x40, 0x80)\n  callvalue\n  dup1\n  iszero\n  tag_1\n  jumpi\n  revert(0x00, 0x00)\ntag_1:\n  pop\n  dataSize(sub_0)\n  dup1\n  dataOffset(sub_0)\n  0x00\n  codecopy\n  0x00\n  return\nstop\n\nsub_0: assembly {\n        /* \"contracts/Activity2_Day8.sol\":445:921  contract Activity2_Day8 {... */\n      mstore(0x40, 0x80)\n      callvalue\n      dup1\n      iszero\n      tag_1\n      jumpi\n      revert(0x00, 0x00)\n    tag_1:\n      pop\n      jumpi(tag_2, lt(calldatasize, 0x04))\n      shr(0xe0, calldataload(0x00))\n      dup1\n      0x2e1a7d4d\n      eq\n      tag_3\n      jumpi\n    tag_2:\n      revert(0x00, 0x00)\n        /* \"contracts/Activity2_Day8.sol\":592:918  function withdraw(uint amount) external{... */\n    tag_3:\n      tag_4\n      0x04\n      dup1\n      calldatasize\n      sub\n      dup2\n      add\n      swap1\n      tag_5\n      swap2\n      swap1\n      tag_6\n      jump\t// in\n    tag_5:\n      tag_7\n      jump\t// in\n    tag_4:\n      stop\n    tag_7:\n        /* \"contracts/Activity2_Day8.sol\":674:680  amount */\n      dup1\n        /* \"contracts/Activity2_Day8.sol\":650:658  balances */\n      0x00\n        /* \"contracts/Activity2_Day8.sol\":650:670  balances[msg.sender] */\n      0x00\n        /* \"contracts/Activity2_Day8.sol\":659:669  msg.sender */\n      caller\n        /* \"contracts/Activity2_Day8.sol\":650:670  balances[msg.sender] */\n      0xffffffffffffffffffffffffffffffffffffffff\n      and\n      0xffffffffffffffffffffffffffffffffffffffff\n      and\n      dup2\n      mstore\n      0x20\n      add\n      swap1\n      dup2\n      mstore\n      0x20\n      add\n      0x00\n      keccak256\n      sload\n        /* \"contracts/Activity2_Day8.sol\":650:680  balances[msg.sender] >= amount */\n      lt\n      iszero\n        /* \"contracts/Activity2_Day8.sol\":642:703  require(balances[msg.sender] >= amount, \"Not enough balance\") */\n      tag_9\n      jumpi\n      mload(0x40)\n      0x08c379a000000000000000000000000000000000000000000000000000000000\n      dup2\n      mstore\n      0x04\n      add\n      tag_10\n      swap1\n      tag_11\n      jump\t// in\n    tag_10:\n      mload(0x40)\n      dup1\n      swap2\n      sub\n      swap1\n      revert\n    tag_9:\n        /* \"contracts/Activity2_Day8.sol\":738:744  amount */\n      dup1\n        /* \"contracts/Activity2_Day8.sol\":714:722  balances */\n      0x00\n        /* \"contracts/Activity2_Day8.sol\":714:734  balances[msg.sender] */\n      0x00\n        /* \"contracts/Activity2_Day8.sol\":723:733  msg.sender */\n      caller\n        /* \"contracts/Activity2_Day8.sol\":714:734  balances[msg.sender] */\n      0xffffffffffffffffffffffffffffffffffffffff\n      and\n      0xffffffffffffffffffffffffffffffffffffffff\n      and\n      dup2\n      mstore\n      0x20\n      add\n      swap1\n      dup2\n      mstore\n      0x20\n      add\n      0x00\n      keccak256\n      0x00\n        /* \"contracts/Activity2_Day8.sol\":714:744  balances[msg.sender] -= amount */\n      dup3\n      dup3\n      sload\n      tag_12\n      swap2\n      swap1\n      tag_13\n      jump\t// in\n    tag_12:\n      swap3\n      pop\n      pop\n      dup2\n      swap1\n      sstore\n      pop\n        /* \"contracts/Activity2_Day8.sol\":756:768  bool success */\n      0x00\n        /* \"contracts/Activity2_Day8.sol\":782:792  msg.sender */\n      caller\n        /* \"contracts/Activity2_Day8.sol\":774:798  payable(msg.sender).call */\n      0xffffffffffffffffffffffffffffffffffffffff\n      and\n        /* \"contracts/Activity2_Day8.sol\":806:812  amount */\n      dup3\n        /* \"contracts/Activity2_Day8.sol\":774:817  payable(msg.sender).call{value: amount}(\"\") */\n      mload(0x40)\n      tag_14\n      swap1\n      tag_15\n      jump\t// in\n    tag_14:\n      0x00\n      mload(0x40)\n      dup1\n      dup4\n      sub\n      dup2\n      dup6\n      dup8\n      gas\n      call\n      swap3\n      pop\n      pop\n      pop\n      returndatasize\n      dup1\n      0x00\n      dup2\n      eq\n      tag_18\n      jumpi\n      mload(0x40)\n      swap2\n      pop\n      and(add(returndatasize, 0x3f), not(0x1f))\n      dup3\n      add\n      0x40\n      mstore\n      returndatasize\n      dup3\n      mstore\n      returndatasize\n      0x00\n      0x20\n      dup5\n      add\n      returndatacopy\n      jump(tag_17)\n    tag_18:\n      0x60\n      swap2\n      pop\n    tag_17:\n      pop\n        /* \"contracts/Activity2_Day8.sol\":755:817  (bool success, ) = payable(msg.sender).call{value: amount}(\"\") */\n      pop\n      swap1\n      pop\n        /* \"contracts/Activity2_Day8.sol\":836:843  success */\n      dup1\n        /* \"contracts/Activity2_Day8.sol\":828:863  require(success, \"Withdraw failed\") */\n      tag_19\n      jumpi\n      mload(0x40)\n      0x08c379a000000000000000000000000000000000000000000000000000000000\n      dup2\n      mstore\n      0x04\n      add\n      tag_20\n      swap1\n      tag_21\n      jump\t// in\n    tag_20:\n      mload(0x40)\n      dup1\n      swap2\n      sub\n      swap1\n      revert\n    tag_19:\n        /* \"contracts/Activity2_Day8.sol\":891:901  msg.sender */\n      caller\n        /* \"contracts/Activity2_Day8.sol\":881:910  Withdrawn(msg.sender, amount) */\n      0xffffffffffffffffffffffffffffffffffffffff\n      and\n      0x7084f5476618d8e60b11ef0d7d3f06914655adb8793e28ff7f018d4c76d505d5\n        /* \"contracts/Activity2_Day8.sol\":903:909  amount */\n      dup4\n        /* \"contracts/Activity2_Day8.sol\":881:910  Withdrawn(msg.sender, amount) */\n      mload(0x40)\n      tag_22\n      swap2\n      swap1\n      tag_23\n      jump\t// in\n    tag_22:\n      mload(0x40)\n      dup1\n      swap2\n      sub\n      swap1\n      log2\n        /* \"contracts/Activity2_Day8.sol\":631:918  {... */\n      pop\n        /* \"contracts/Activity2_Day8.sol\":592:918  function withdraw(uint amount) external{... */\n      pop\n      jump\t// out\n        /* \"#utility.yul\":88:205   */\n    tag_25:\n        /* \"#utility.yul\":197:198   */\n      0x00\n        /* \"#utility.yul\":194:195   */\n      0x00\n        /* \"#utility.yul\":187:199   */\n      revert\n        /* \"#utility.yul\":334:411   */\n    tag_27:\n        /* \"#utility.yul\":371:378   */\n      0x00\n        /* \"#utility.yul\":400:405   */\n      dup2\n        /* \"#utility.yul\":389:405   */\n      swap1\n      pop\n        /* \"#utility.yul\":334:411   */\n      swap2\n      swap1\n      pop\n      jump\t// out\n        /* \"#utility.yul\":417:539   */\n    tag_28:\n        /* \"#utility.yul\":490:514   */\n      tag_46\n        /* \"#utility.yul\":508:513   */\n      dup2\n        /* \"#utility.yul\":490:514   */\n      tag_27\n      jump\t// in\n    tag_46:\n        /* \"#utility.yul\":483:488   */\n      dup2\n        /* \"#utility.yul\":480:515   */\n      eq\n        /* \"#utility.yul\":470:533   */\n      tag_47\n      jumpi\n        /* \"#utility.yul\":529:530   */\n      0x00\n        /* \"#utility.yul\":526:527   */\n      0x00\n        /* \"#utility.yul\":519:531   */\n      revert\n        /* \"#utility.yul\":470:533   */\n    tag_47:\n        /* \"#utility.yul\":417:539   */\n      pop\n      jump\t// out\n        /* \"#utility.yul\":545:684   */\n    tag_29:\n        /* \"#utility.yul\":591:596   */\n      0x00\n        /* \"#utility.yul\":629:635   */\n      dup2\n        /* \"#utility.yul\":616:636   */\n      calldataload\n        /* \"#utility.yul\":607:636   */\n      swap1\n      pop\n        /* \"#utility.yul\":645:678   */\n      tag_49\n        /* \"#utility.yul\":672:677   */\n      dup2\n        /* \"#utility.yul\":645:678   */\n      tag_28\n      jump\t// in\n    tag_49:\n        /* \"#utility.yul\":545:684   */\n      swap3\n      swap2\n      pop\n      pop\n      jump\t// out\n        /* \"#utility.yul\":690:1019   */\n    tag_6:\n        /* \"#utility.yul\":749:755   */\n      0x00\n        /* \"#utility.yul\":798:800   */\n      0x20\n        /* \"#utility.yul\":786:795   */\n      dup3\n        /* \"#utility.yul\":777:784   */\n      dup5\n        /* \"#utility.yul\":773:796   */\n      sub\n        /* \"#utility.yul\":769:801   */\n      slt\n        /* \"#utility.yul\":766:885   */\n      iszero\n      tag_51\n      jumpi\n        /* \"#utility.yul\":804:883   */\n      tag_52\n      tag_25\n      jump\t// in\n    tag_52:\n        /* \"#utility.yul\":766:885   */\n    tag_51:\n        /* \"#utility.yul\":924:925   */\n      0x00\n        /* \"#utility.yul\":949:1002   */\n      tag_53\n        /* \"#utility.yul\":994:1001   */\n      dup5\n        /* \"#utility.yul\":985:991   */\n      dup3\n        /* \"#utility.yul\":974:983   */\n      dup6\n        /* \"#utility.yul\":970:992   */\n      add\n        /* \"#utility.yul\":949:1002   */\n      tag_29\n      jump\t// in\n    tag_53:\n        /* \"#utility.yul\":939:1002   */\n      swap2\n      pop\n        /* \"#utility.yul\":895:1012   */\n      pop\n        /* \"#utility.yul\":690:1019   */\n      swap3\n      swap2\n      pop\n      pop\n      jump\t// out\n        /* \"#utility.yul\":1025:1194   */\n    tag_30:\n        /* \"#utility.yul\":1109:1120   */\n      0x00\n        /* \"#utility.yul\":1143:1149   */\n      dup3\n        /* \"#utility.yul\":1138:1141   */\n      dup3\n        /* \"#utility.yul\":1131:1150   */\n      mstore\n        /* \"#utility.yul\":1183:1187   */\n      0x20\n        /* \"#utility.yul\":1178:1181   */\n      dup3\n        /* \"#utility.yul\":1174:1188   */\n      add\n        /* \"#utility.yul\":1159:1188   */\n      swap1\n      pop\n        /* \"#utility.yul\":1025:1194   */\n      swap3\n      swap2\n      pop\n      pop\n      jump\t// out\n        /* \"#utility.yul\":1200:1368   */\n    tag_31:\n        /* \"#utility.yul\":1340:1360   */\n      0x4e6f7420656e6f7567682062616c616e63650000000000000000000000000000\n        /* \"#utility.yul\":1336:1337   */\n      0x00\n        /* \"#utility.yul\":1328:1334   */\n      dup3\n        /* \"#utility.yul\":1324:1338   */\n      add\n        /* \"#utility.yul\":1317:1361   */\n      mstore\n        /* \"#utility.yul\":1200:1368   */\n      pop\n      jump\t// out\n        /* \"#utility.yul\":1374:1740   */\n    tag_32:\n        /* \"#utility.yul\":1516:1519   */\n      0x00\n        /* \"#utility.yul\":1537:1604   */\n      tag_57\n        /* \"#utility.yul\":1601:1603   */\n      0x12\n        /* \"#utility.yul\":1596:1599   */\n      dup4\n        /* \"#utility.yul\":1537:1604   */\n      tag_30\n      jump\t// in\n    tag_57:\n        /* \"#utility.yul\":1530:1604   */\n      swap2\n      pop\n        /* \"#utility.yul\":1613:1706   */\n      tag_58\n        /* \"#utility.yul\":1702:1705   */\n      dup3\n        /* \"#utility.yul\":1613:1706   */\n      tag_31\n      jump\t// in\n    tag_58:\n        /* \"#utility.yul\":1731:1733   */\n      0x20\n        /* \"#utility.yul\":1726:1729   */\n      dup3\n        /* \"#utility.yul\":1722:1734   */\n      add\n        /* \"#utility.yul\":1715:1734   */\n      swap1\n      pop\n        /* \"#utility.yul\":1374:1740   */\n      swap2\n      swap1\n      pop\n      jump\t// out\n        /* \"#utility.yul\":1746:2165   */\n    tag_11:\n        /* \"#utility.yul\":1912:1916   */\n      0x00\n        /* \"#utility.yul\":1950:1952   */\n      0x20\n        /* \"#utility.yul\":1939:1948   */\n      dup3\n        /* \"#utility.yul\":1935:1953   */\n      add\n        /* \"#utility.yul\":1927:1953   */\n      swap1\n      pop\n        /* \"#utility.yul\":1999:2008   */\n      dup2\n        /* \"#utility.yul\":1993:1997   */\n      dup2\n        /* \"#utility.yul\":1989:2009   */\n      sub\n        /* \"#utility.yul\":1985:1986   */\n      0x00\n        /* \"#utility.yul\":1974:1983   */\n      dup4\n        /* \"#utility.yul\":1970:1987   */\n      add\n        /* \"#utility.yul\":1963:2010   */\n      mstore\n        /* \"#utility.yul\":2027:2158   */\n      tag_60\n        /* \"#utility.yul\":2153:2157   */\n      dup2\n        /* \"#utility.yul\":2027:2158   */\n      tag_32\n      jump\t// in\n    tag_60:\n        /* \"#utility.yul\":2019:2158   */\n      swap1\n      pop\n        /* \"#utility.yul\":1746:2165   */\n      swap2\n      swap1\n      pop\n      jump\t// out\n        /* \"#utility.yul\":2171:2351   */\n    tag_33:\n        /* \"#utility.yul\":2219:2296   */\n      0x4e487b7100000000000000000000000000000000000000000000000000000000\n        /* \"#utility.yul\":2216:2217   */\n      0x00\n        /* \"#utility.yul\":2209:2297   */\n      mstore\n        /* \"#utility.yul\":2316:2320   */\n      0x11\n        /* \"#utility.yul\":2313:2314   */\n      0x04\n        /* \"#utility.yul\":2306:2321   */\n      mstore\n        /* \"#utility.yul\":2340:2344   */\n      0x24\n        /* \"#utility.yul\":2337:2338   */\n      0x00\n        /* \"#utility.yul\":2330:2345   */\n      revert\n        /* \"#utility.yul\":2357:2551   */\n    tag_13:\n        /* \"#utility.yul\":2397:2401   */\n      0x00\n        /* \"#utility.yul\":2417:2437   */\n      tag_63\n        /* \"#utility.yul\":2435:2436   */\n      dup3\n        /* \"#utility.yul\":2417:2437   */\n      tag_27\n      jump\t// in\n    tag_63:\n        /* \"#utility.yul\":2412:2437   */\n      swap2\n      pop\n        /* \"#utility.yul\":2451:2471   */\n      tag_64\n        /* \"#utility.yul\":2469:2470   */\n      dup4\n        /* \"#utility.yul\":2451:2471   */\n      tag_27\n      jump\t// in\n    tag_64:\n        /* \"#utility.yul\":2446:2471   */\n      swap3\n      pop\n        /* \"#utility.yul\":2495:2496   */\n      dup3\n        /* \"#utility.yul\":2492:2493   */\n      dup3\n        /* \"#utility.yul\":2488:2497   */\n      sub\n        /* \"#utility.yul\":2480:2497   */\n      swap1\n      pop\n        /* \"#utility.yul\":2519:2520   */\n      dup2\n        /* \"#utility.yul\":2513:2517   */\n      dup2\n        /* \"#utility.yul\":2510:2521   */\n      gt\n        /* \"#utility.yul\":2507:2544   */\n      iszero\n      tag_65\n      jumpi\n        /* \"#utility.yul\":2524:2542   */\n      tag_66\n      tag_33\n      jump\t// in\n    tag_66:\n        /* \"#utility.yul\":2507:2544   */\n    tag_65:\n        /* \"#utility.yul\":2357:2551   */\n      swap3\n      swap2\n      pop\n      pop\n      jump\t// out\n        /* \"#utility.yul\":2557:2704   */\n    tag_34:\n        /* \"#utility.yul\":2658:2669   */\n      0x00\n        /* \"#utility.yul\":2695:2698   */\n      dup2\n        /* \"#utility.yul\":2680:2698   */\n      swap1\n      pop\n        /* \"#utility.yul\":2557:2704   */\n      swap3\n      swap2\n      pop\n      pop\n      jump\t// out\n        /* \"#utility.yul\":2710:2824   */\n    tag_35:\n      pop\n      jump\t// out\n        /* \"#utility.yul\":2830:3228   */\n    tag_36:\n        /* \"#utility.yul\":2989:2992   */\n      0x00\n        /* \"#utility.yul\":3010:3093   */\n      tag_70\n        /* \"#utility.yul\":3091:3092   */\n      0x00\n        /* \"#utility.yul\":3086:3089   */\n      dup4\n        /* \"#utility.yul\":3010:3093   */\n      tag_34\n      jump\t// in\n    tag_70:\n        /* \"#utility.yul\":3003:3093   */\n      swap2\n      pop\n        /* \"#utility.yul\":3102:3195   */\n      tag_71\n        /* \"#utility.yul\":3191:3194   */\n      dup3\n        /* \"#utility.yul\":3102:3195   */\n      tag_35\n      jump\t// in\n    tag_71:\n        /* \"#utility.yul\":3220:3221   */\n      0x00\n        /* \"#utility.yul\":3215:3218   */\n      dup3\n        /* \"#utility.yul\":3211:3222   */\n      add\n        /* \"#utility.yul\":3204:3222   */\n      swap1\n      pop\n        /* \"#utility.yul\":2830:3228   */\n      swap2\n      swap1\n      pop\n      jump\t// out\n        /* \"#utility.yul\":3234:3613   */\n    tag_15:\n        /* \"#utility.yul\":3418:3421   */\n      0x00\n        /* \"#utility.yul\":3440:3587   */\n      tag_73\n        /* \"#utility.yul\":3583:3586   */\n      dup3\n        /* \"#utility.yul\":3440:3587   */\n      tag_36\n      jump\t// in\n    tag_73:\n        /* \"#utility.yul\":3433:3587   */\n      swap2\n      pop\n        /* \"#utility.yul\":3604:3607   */\n      dup2\n        /* \"#utility.yul\":3597:3607   */\n      swap1\n      pop\n        /* \"#utility.yul\":3234:3613   */\n      swap2\n      swap1\n      pop\n      jump\t// out\n        /* \"#utility.yul\":3619:3784   */\n    tag_37:\n        /* \"#utility.yul\":3759:3776   */\n      0x5769746864726177206661696c65640000000000000000000000000000000000\n        /* \"#utility.yul\":3755:3756   */\n      0x00\n        /* \"#utility.yul\":3747:3753   */\n      dup3\n        /* \"#utility.yul\":3743:3757   */\n      add\n        /* \"#utility.yul\":3736:3777   */\n      mstore\n        /* \"#utility.yul\":3619:3784   */\n      pop\n      jump\t// out\n        /* \"#utility.yul\":3790:4156   */\n    tag_38:\n        /* \"#utility.yul\":3932:3935   */\n      0x00\n        /* \"#utility.yul\":3953:4020   */\n      tag_76\n        /* \"#utility.yul\":4017:4019   */\n      0x0f\n        /* \"#utility.yul\":4012:4015   */\n      dup4\n        /* \"#utility.yul\":3953:4020   */\n      tag_30\n      jump\t// in\n    tag_76:\n        /* \"#utility.yul\":3946:4020   */\n      swap2\n      pop\n        /* \"#utility.yul\":4029:4122   */\n      tag_77\n        /* \"#utility.yul\":4118:4121   */\n      dup3\n        /* \"#utility.yul\":4029:4122   */\n      tag_37\n      jump\t// in\n    tag_77:\n        /* \"#utility.yul\":4147:4149   */\n      0x20\n        /* \"#utility.yul\":4142:4145   */\n      dup3\n        /* \"#utility.yul\":4138:4150   */\n      add\n        /* \"#utility.yul\":4131:4150   */\n      swap1\n      pop\n        /* \"#utility.yul\":3790:4156   */\n      swap2\n      swap1\n      pop\n      jump\t// out\n        /* \"#utility.yul\":4162:4581   */\n    tag_21:\n        /* \"#utility.yul\":4328:4332   */\n      0x00\n        /* \"#utility.yul\":4366:4368   */\n      0x20\n        /* \"#utility.yul\":4355:4364   */\n      dup3\n        /* \"#utility.yul\":4351:4369   */\n      add\n        /* \"#utility.yul\":4343:4369   */\n      swap1\n      pop\n        /* \"#utility.yul\":4415:4424   */\n      dup2\n        /* \"#utility.yul\":4409:4413   */\n      dup2\n        /* \"#utility.yul\":4405:4425   */\n      sub\n        /* \"#utility.yul\":4401:4402   */\n      0x00\n        /* \"#utility.yul\":4390:4399   */\n      dup4\n        /* \"#utility.yul\":4386:4403   */\n      add\n        /* \"#utility.yul\":4379:4426   */\n      mstore\n        /* \"#utility.yul\":4443:4574   */\n      tag_79\n        /* \"#utility.yul\":4569:4573   */\n      dup2\n        /* \"#utility.yul\":4443:4574   */\n      tag_38\n      jump\t// in\n    tag_79:\n        /* \"#utility.yul\":4435:4574   */\n      swap1\n      pop\n        /* \"#utility.yul\":4162:4581   */\n      swap2\n      swap1\n      pop\n      jump\t// out\n        /* \"#utility.yul\":4587:4705   */\n    tag_39:\n        /* \"#utility.yul\":4674:4698   */\n      tag_81\n        /* \"#utility.yul\":4692:4697   */\n      dup2\n        /* \"#utility.yul\":4674:4698   */\n      tag_27\n      jump\t// in\n    tag_81:\n        /* \"#utility.yul\":4669:4672   */\n      dup3\n        /* \"#utility.yul\":4662:4699   */\n      mstore\n        /* \"#utility.yul\":4587:4705   */\n      pop\n      pop\n      jump\t// out\n        /* \"#utility.yul\":4711:4933   */\n    tag_23:\n        /* \"#utility.yul\":4804:4808   */\n      0x00\n        /* \"#utility.yul\":4842:4844   */\n      0x20\n        /* \"#utility.yul\":4831:4840   */\n      dup3\n        /* \"#utility.yul\":4827:4845   */\n      add\n        /* \"#utility.yul\":4819:4845   */\n      swap1\n      pop\n        /* \"#utility.yul\":4855:4926   */\n      tag_83\n        /* \"#utility.yul\":4923:4924   */\n      0x00\n        /* \"#utility.yul\":4912:4921   */\n      dup4\n        /* \"#utility.yul\":4908:4925   */\n      add\n        /* \"#utility.yul\":4899:4905   */\n      dup5\n        /* \"#utility.yul\":4855:4926   */\n      tag_39\n      jump\t// in\n    tag_83:\n        /* \"#utility.yul\":4711:4933   */\n      swap3\n      swap2\n      pop\n      pop\n      jump\t// out\n\n    auxdata: 0xa2646970667358221220303d484d52914fa3aad7acc3e3608b31c81c4a1fa5b728b1d11789095dbed7c264736f6c634300081e0033\n}\n",
				"bytecode": {
					"linkReferences": {},
					"object": "6080604052348015600e575f5ffd5b506104558061001c5f395ff3fe608060405234801561000f575f5ffd5b5060043610610029575f3560e01c80632e1a7d4d1461002d575b5f5ffd5b6100476004803603810190610042919061024b565b610049565b005b805f5f3373ffffffffffffffffffffffffffffffffffffffff1673ffffffffffffffffffffffffffffffffffffffff1681526020019081526020015f205410156100c8576040517f08c379a00000000000000000000000000000000000000000000000000000000081526004016100bf906102d0565b60405180910390fd5b805f5f3373ffffffffffffffffffffffffffffffffffffffff1673ffffffffffffffffffffffffffffffffffffffff1681526020019081526020015f205f828254610113919061031b565b925050819055505f3373ffffffffffffffffffffffffffffffffffffffff168260405161013f9061037b565b5f6040518083038185875af1925050503d805f8114610179576040519150601f19603f3d011682016040523d82523d5f602084013e61017e565b606091505b50509050806101c2576040517f08c379a00000000000000000000000000000000000000000000000000000000081526004016101b9906103d9565b60405180910390fd5b3373ffffffffffffffffffffffffffffffffffffffff167f7084f5476618d8e60b11ef0d7d3f06914655adb8793e28ff7f018d4c76d505d5836040516102089190610406565b60405180910390a25050565b5f5ffd5b5f819050919050565b61022a81610218565b8114610234575f5ffd5b50565b5f8135905061024581610221565b92915050565b5f602082840312156102605761025f610214565b5b5f61026d84828501610237565b91505092915050565b5f82825260208201905092915050565b7f4e6f7420656e6f7567682062616c616e636500000000000000000000000000005f82015250565b5f6102ba601283610276565b91506102c582610286565b602082019050919050565b5f6020820190508181035f8301526102e7816102ae565b9050919050565b7f4e487b71000000000000000000000000000000000000000000000000000000005f52601160045260245ffd5b5f61032582610218565b915061033083610218565b9250828203905081811115610348576103476102ee565b5b92915050565b5f81905092915050565b50565b5f6103665f8361034e565b915061037182610358565b5f82019050919050565b5f6103858261035b565b9150819050919050565b7f5769746864726177206661696c656400000000000000000000000000000000005f82015250565b5f6103c3600f83610276565b91506103ce8261038f565b602082019050919050565b5f6020820190508181035f8301526103f0816103b7565b9050919050565b61040081610218565b82525050565b5f6020820190506104195f8301846103f7565b9291505056fea2646970667358221220303d484d52914fa3aad7acc3e3608b31c81c4a1fa5b728b1d11789095dbed7c264736f6c634300081e0033",
					"opcodes": "PUSH1 0x80 PUSH1 0x40 MSTORE CALLVALUE DUP1 ISZERO PUSH1 0xE JUMPI PUSH0 PUSH0 REVERT JUMPDEST POP PUSH2 0x455 DUP1 PUSH2 0x1C PUSH0 CODECOPY PUSH0 RETURN INVALID PUSH1 0x80 PUSH1 0x40 MSTORE CALLVALUE DUP1 ISZERO PUSH2 0xF JUMPI PUSH0 PUSH0 REVERT JUMPDEST POP PUSH1 0x4 CALLDATASIZE LT PUSH2 0x29 JUMPI PUSH0 CALLDATALOAD PUSH1 0xE0 SHR DUP1 PUSH4 0x2E1A7D4D EQ PUSH2 0x2D JUMPI JUMPDEST PUSH0 PUSH0 REVERT JUMPDEST PUSH2 0x47 PUSH1 0x4 DUP1 CALLDATASIZE SUB DUP2 ADD SWAP1 PUSH2 0x42 SWAP2 SWAP1 PUSH2 0x24B JUMP JUMPDEST PUSH2 0x49 JUMP JUMPDEST STOP JUMPDEST DUP1 PUSH0 PUSH0 CALLER PUSH20 0xFFFFFFFFFFFFFFFFFFFFFFFFFFFFFFFFFFFFFFFF AND PUSH20 0xFFFFFFFFFFFFFFFFFFFFFFFFFFFFFFFFFFFFFFFF AND DUP2 MSTORE PUSH1 0x20 ADD SWAP1 DUP2 MSTORE PUSH1 0x20 ADD PUSH0 KECCAK256 SLOAD LT ISZERO PUSH2 0xC8 JUMPI PUSH1 0x40 MLOAD PUSH32 0x8C379A000000000000000000000000000000000000000000000000000000000 DUP2 MSTORE PUSH1 0x4 ADD PUSH2 0xBF SWAP1 PUSH2 0x2D0 JUMP JUMPDEST PUSH1 0x40 MLOAD DUP1 SWAP2 SUB SWAP1 REVERT JUMPDEST DUP1 PUSH0 PUSH0 CALLER PUSH20 0xFFFFFFFFFFFFFFFFFFFFFFFFFFFFFFFFFFFFFFFF AND PUSH20 0xFFFFFFFFFFFFFFFFFFFFFFFFFFFFFFFFFFFFFFFF AND DUP2 MSTORE PUSH1 0x20 ADD SWAP1 DUP2 MSTORE PUSH1 0x20 ADD PUSH0 KECCAK256 PUSH0 DUP3 DUP3 SLOAD PUSH2 0x113 SWAP2 SWAP1 PUSH2 0x31B JUMP JUMPDEST SWAP3 POP POP DUP2 SWAP1 SSTORE POP PUSH0 CALLER PUSH20 0xFFFFFFFFFFFFFFFFFFFFFFFFFFFFFFFFFFFFFFFF AND DUP3 PUSH1 0x40 MLOAD PUSH2 0x13F SWAP1 PUSH2 0x37B JUMP JUMPDEST PUSH0 PUSH1 0x40 MLOAD DUP1 DUP4 SUB DUP2 DUP6 DUP8 GAS CALL SWAP3 POP POP POP RETURNDATASIZE DUP1 PUSH0 DUP2 EQ PUSH2 0x179 JUMPI PUSH1 0x40 MLOAD SWAP2 POP PUSH1 0x1F NOT PUSH1 0x3F RETURNDATASIZE ADD AND DUP3 ADD PUSH1 0x40 MSTORE RETURNDATASIZE DUP3 MSTORE RETURNDATASIZE PUSH0 PUSH1 0x20 DUP5 ADD RETURNDATACOPY PUSH2 0x17E JUMP JUMPDEST PUSH1 0x60 SWAP2 POP JUMPDEST POP POP SWAP1 POP DUP1 PUSH2 0x1C2 JUMPI PUSH1 0x40 MLOAD PUSH32 0x8C379A000000000000000000000000000000000000000000000000000000000 DUP2 MSTORE PUSH1 0x4 ADD PUSH2 0x1B9 SWAP1 PUSH2 0x3D9 JUMP JUMPDEST PUSH1 0x40 MLOAD DUP1 SWAP2 SUB SWAP1 REVERT JUMPDEST CALLER PUSH20 0xFFFFFFFFFFFFFFFFFFFFFFFFFFFFFFFFFFFFFFFF AND PUSH32 0x7084F5476618D8E60B11EF0D7D3F06914655ADB8793E28FF7F018D4C76D505D5 DUP4 PUSH1 0x40 MLOAD PUSH2 0x208 SWAP2 SWAP1 PUSH2 0x406 JUMP JUMPDEST PUSH1 0x40 MLOAD DUP1 SWAP2 SUB SWAP1 LOG2 POP POP JUMP JUMPDEST PUSH0 PUSH0 REVERT JUMPDEST PUSH0 DUP2 SWAP1 POP SWAP2 SWAP1 POP JUMP JUMPDEST PUSH2 0x22A DUP2 PUSH2 0x218 JUMP JUMPDEST DUP2 EQ PUSH2 0x234 JUMPI PUSH0 PUSH0 REVERT JUMPDEST POP JUMP JUMPDEST PUSH0 DUP2 CALLDATALOAD SWAP1 POP PUSH2 0x245 DUP2 PUSH2 0x221 JUMP JUMPDEST SWAP3 SWAP2 POP POP JUMP JUMPDEST PUSH0 PUSH1 0x20 DUP3 DUP5 SUB SLT ISZERO PUSH2 0x260 JUMPI PUSH2 0x25F PUSH2 0x214 JUMP JUMPDEST JUMPDEST PUSH0 PUSH2 0x26D DUP5 DUP3 DUP6 ADD PUSH2 0x237 JUMP JUMPDEST SWAP2 POP POP SWAP3 SWAP2 POP POP JUMP JUMPDEST PUSH0 DUP3 DUP3 MSTORE PUSH1 0x20 DUP3 ADD SWAP1 POP SWAP3 SWAP2 POP POP JUMP JUMPDEST PUSH32 0x4E6F7420656E6F7567682062616C616E63650000000000000000000000000000 PUSH0 DUP3 ADD MSTORE POP JUMP JUMPDEST PUSH0 PUSH2 0x2BA PUSH1 0x12 DUP4 PUSH2 0x276 JUMP JUMPDEST SWAP2 POP PUSH2 0x2C5 DUP3 PUSH2 0x286 JUMP JUMPDEST PUSH1 0x20 DUP3 ADD SWAP1 POP SWAP2 SWAP1 POP JUMP JUMPDEST PUSH0 PUSH1 0x20 DUP3 ADD SWAP1 POP DUP2 DUP2 SUB PUSH0 DUP4 ADD MSTORE PUSH2 0x2E7 DUP2 PUSH2 0x2AE JUMP JUMPDEST SWAP1 POP SWAP2 SWAP1 POP JUMP JUMPDEST PUSH32 0x4E487B7100000000000000000000000000000000000000000000000000000000 PUSH0 MSTORE PUSH1 0x11 PUSH1 0x4 MSTORE PUSH1 0x24 PUSH0 REVERT JUMPDEST PUSH0 PUSH2 0x325 DUP3 PUSH2 0x218 JUMP JUMPDEST SWAP2 POP PUSH2 0x330 DUP4 PUSH2 0x218 JUMP JUMPDEST SWAP3 POP DUP3 DUP3 SUB SWAP1 POP DUP2 DUP2 GT ISZERO PUSH2 0x348 JUMPI PUSH2 0x347 PUSH2 0x2EE JUMP JUMPDEST JUMPDEST SWAP3 SWAP2 POP POP JUMP JUMPDEST PUSH0 DUP2 SWAP1 POP SWAP3 SWAP2 POP POP JUMP JUMPDEST POP JUMP JUMPDEST PUSH0 PUSH2 0x366 PUSH0 DUP4 PUSH2 0x34E JUMP JUMPDEST SWAP2 POP PUSH2 0x371 DUP3 PUSH2 0x358 JUMP JUMPDEST PUSH0 DUP3 ADD SWAP1 POP SWAP2 SWAP1 POP JUMP JUMPDEST PUSH0 PUSH2 0x385 DUP3 PUSH2 0x35B JUMP JUMPDEST SWAP2 POP DUP2 SWAP1 POP SWAP2 SWAP1 POP JUMP JUMPDEST PUSH32 0x5769746864726177206661696C65640000000000000000000000000000000000 PUSH0 DUP3 ADD MSTORE POP JUMP JUMPDEST PUSH0 PUSH2 0x3C3 PUSH1 0xF DUP4 PUSH2 0x276 JUMP JUMPDEST SWAP2 POP PUSH2 0x3CE DUP3 PUSH2 0x38F JUMP JUMPDEST PUSH1 0x20 DUP3 ADD SWAP1 POP SWAP2 SWAP1 POP JUMP JUMPDEST PUSH0 PUSH1 0x20 DUP3 ADD SWAP1 POP DUP2 DUP2 SUB PUSH0 DUP4 ADD MSTORE PUSH2 0x3F0 DUP2 PUSH2 0x3B7 JUMP JUMPDEST SWAP1 POP SWAP2 SWAP1 POP JUMP JUMPDEST PUSH2 0x400 DUP2 PUSH2 0x218 JUMP JUMPDEST DUP3 MSTORE POP POP JUMP JUMPDEST PUSH0 PUSH1 0x20 DUP3 ADD SWAP1 POP PUSH2 0x419 PUSH0 DUP4 ADD DUP5 PUSH2 0x3F7 JUMP JUMPDEST SWAP3 SWAP2 POP POP JUMP INVALID LOG2 PUSH5 0x6970667358 0x22 SLT KECCAK256 ADDRESS RETURNDATASIZE BASEFEE 0x4D MSTORE SWAP2 0x4F LOG3 0xAA 0xD7 0xAC 0xC3 CALLF 0x608B BALANCE 0xC8 SHR BLOBBASEFEE 0x1F 0xA5 0xB7 0x28 0xB1 DATALOADN 0x1789 MULMOD TSTORE 0xBE 0xD7 0xC2 PUSH5 0x736F6C6343 STOP ADDMOD 0x1E STOP CALLER "
				},
				"gasEstimates": {
					"creation": {
						"codeDepositCost": "221800",
						"executionCost": "261",
						"totalCost": "222061"
					},
					"external": {
						"withdraw(uint256)": "infinite"
					}
				},
				"methodIdentifiers": {
					"withdraw(uint256)": "2e1a7d4d"
				}
			},
			"storageLayout": {
				"storage": [
					{
						"astId": 5,
						"contract": "contracts/Activity2_Day8.sol:Activity2_Day8",
						"label": "balances",
						"offset": 0,
						"slot": "0",
						"type": "t_mapping(t_address,t_uint256)"
					}
				],
				"types": {
					"t_address": {
						"encoding": "inplace",
						"label": "address",
						"numberOfBytes": "20"
					},
					"t_mapping(t_address,t_uint256)": {
						"encoding": "mapping",
						"key": "t_address",
						"label": "mapping(address => uint256)",
						"numberOfBytes": "32",
						"value": "t_uint256"
					},
					"t_uint256": {
						"encoding": "inplace",
						"label": "uint256",
						"numberOfBytes": "32"
					}
				}
			},
			"userdoc": {
				"kind": "user",
				"methods": {},
				"version": 1
			}
		}
	}
}