{
	"contracts/Activity_Day8.sol": {
		"Activity_Day8": {
			"abi": [
				{
					"anonymous": false,
					"inputs": [
						{
							"indexed": true,
							"internalType": "address",
							"name": "sender",
							"type": "address"
						},
						{
							"indexed": false,
							"internalType": "uint256",
							"name": "amount",
							"type": "uint256"
						}
					],
					"name": "Deposited",
					"type": "event"
				},
				{
					"anonymous": false,
					"inputs": [
						{
							"indexed": true,
							"internalType": "address",
							"name": "recipient",
							"type": "address"
						},
						{
							"indexed": false,
							"internalType": "uint256",
							"name": "amount",
							"type": "uint256"
						}
					],
					"name": "Withdrawn",
					"type": "event"
				},
				{
					"inputs": [],
					"name": "deposit",
					"outputs": [],
					"stateMutability": "payable",
					"type": "function"
				},
				{
					"inputs": [],
					"name": "getBalance",
					"outputs": [
						{
							"internalType": "uint256",
							"name": "",
							"type": "uint256"
						}
					],
					"stateMutability": "view",
					"type": "function"
				},
				{
					"inputs": [
						{
							"internalType": "uint256",
							"name": "amount",
							"type": "uint256"
						}
					],
					"name": "withdraw",
					"outputs": [],
					"stateMutability": "nonpayable",
					"type": "function"
				}
			],
			"devdoc": {
				"kind": "dev",
				"methods": {},
				"version": 1
			},
			"evm": {
				"assembly": "    /* \"contracts/Activity_Day8.sol\":61:930  contract Activity_Day8{... */\n  mstore(0x40, 0x80)\n  callvalue\n  dup1\n  iszero\n  tag_1\n  jumpi\n  revert(0x00, 0x00)\ntag_1:\n  pop\n  dataSize(sub_0)\n  dup1\n  dataOffset(sub_0)\n  0x00\n  codecopy\n  0x00\n  return\nstop\n\nsub_0: assembly {\n        /* \"contracts/Activity_Day8.sol\":61:930  contract Activity_Day8{... */\n      mstore(0x40, 0x80)\n      jumpi(tag_1, lt(calldatasize, 0x04))\n      shr(0xe0, calldataload(0x00))\n      dup1\n      0x12065fe0\n      eq\n      tag_2\n      jumpi\n      dup1\n      0x2e1a7d4d\n      eq\n      tag_3\n      jumpi\n      dup1\n      0xd0e30db0\n      eq\n      tag_4\n      jumpi\n    tag_1:\n      revert(0x00, 0x00)\n        /* \"contracts/Activity_Day8.sol\":479:575  function getBalance() public view returns (uint) {... */\n    tag_2:\n      callvalue\n      dup1\n      iszero\n      tag_5\n      jumpi\n      revert(0x00, 0x00)\n    tag_5:\n      pop\n      tag_6\n      tag_7\n      jump\t// in\n    tag_6:\n      mload(0x40)\n      tag_8\n      swap2\n      swap1\n      tag_9\n      jump\t// in\n    tag_8:\n      mload(0x40)\n      dup1\n      swap2\n      sub\n      swap1\n      return\n        /* \"contracts/Activity_Day8.sol\":601:927  function withdraw(uint amount) external{... */\n    tag_3:\n      callvalue\n      dup1\n      iszero\n      tag_10\n      jumpi\n      revert(0x00, 0x00)\n    tag_10:\n      pop\n      tag_11\n      0x04\n      dup1\n      calldatasize\n      sub\n      dup2\n      add\n      swap1\n      tag_12\n      swap2\n      swap1\n      tag_13\n      jump\t// in\n    tag_12:\n      tag_14\n      jump\t// in\n    tag_11:\n      stop\n        /* \"contracts/Activity_Day8.sol\":281:471  function deposit() external payable{... */\n    tag_4:\n      tag_15\n      tag_16\n      jump\t// in\n    tag_15:\n      stop\n        /* \"contracts/Activity_Day8.sol\":479:575  function getBalance() public view returns (uint) {... */\n    tag_7:\n        /* \"contracts/Activity_Day8.sol\":522:526  uint */\n      0x00\n        /* \"contracts/Activity_Day8.sol\":546:554  balances */\n      0x00\n        /* \"contracts/Activity_Day8.sol\":546:566  balances[msg.sender] */\n      0x00\n        /* \"contracts/Activity_Day8.sol\":555:565  msg.sender */\n      caller\n        /* \"contracts/Activity_Day8.sol\":546:566  balances[msg.sender] */\n      0xffffffffffffffffffffffffffffffffffffffff\n      and\n      0xffffffffffffffffffffffffffffffffffffffff\n      and\n      dup2\n      mstore\n      0x20\n      add\n      swap1\n      dup2\n      mstore\n      0x20\n      add\n      0x00\n      keccak256\n      sload\n        /* \"contracts/Activity_Day8.sol\":539:566  return balances[msg.sender] */\n      swap1\n      pop\n        /* \"contracts/Activity_Day8.sol\":479:575  function getBalance() public view returns (uint) {... */\n      swap1\n      jump\t// out\n        /* \"contracts/Activity_Day8.sol\":601:927  function withdraw(uint amount) external{... */\n    tag_14:\n        /* \"contracts/Activity_Day8.sol\":683:689  amount */\n      dup1\n        /* \"contracts/Activity_Day8.sol\":659:667  balances */\n      0x00\n        /* \"contracts/Activity_Day8.sol\":659:679  balances[msg.sender] */\n      0x00\n        /* \"contracts/Activity_Day8.sol\":668:678  msg.sender */\n      caller\n        /* \"contracts/Activity_Day8.sol\":659:679  balances[msg.sender] */\n      0xffffffffffffffffffffffffffffffffffffffff\n      and\n      0xffffffffffffffffffffffffffffffffffffffff\n      and\n      dup2\n      mstore\n      0x20\n      add\n      swap1\n      dup2\n      mstore\n      0x20\n      add\n      0x00\n      keccak256\n      sload\n        /* \"contracts/Activity_Day8.sol\":659:689  balances[msg.sender] >= amount */\n      lt\n      iszero\n        /* \"contracts/Activity_Day8.sol\":651:712  require(balances[msg.sender] >= amount, \"Not enough balance\") */\n      tag_19\n      jumpi\n      mload(0x40)\n      0x08c379a000000000000000000000000000000000000000000000000000000000\n      dup2\n      mstore\n      0x04\n      add\n      tag_20\n      swap1\n      tag_21\n      jump\t// in\n    tag_20:\n      mload(0x40)\n      dup1\n      swap2\n      sub\n      swap1\n      revert\n    tag_19:\n        /* \"contracts/Activity_Day8.sol\":747:753  amount */\n      dup1\n        /* \"contracts/Activity_Day8.sol\":723:731  balances */\n      0x00\n        /* \"contracts/Activity_Day8.sol\":723:743  balances[msg.sender] */\n      0x00\n        /* \"contracts/Activity_Day8.sol\":732:742  msg.sender */\n      caller\n        /* \"contracts/Activity_Day8.sol\":723:743  balances[msg.sender] */\n      0xffffffffffffffffffffffffffffffffffffffff\n      and\n      0xffffffffffffffffffffffffffffffffffffffff\n      and\n      dup2\n      mstore\n      0x20\n      add\n      swap1\n      dup2\n      mstore\n      0x20\n      add\n      0x00\n      keccak256\n      0x00\n        /* \"contracts/Activity_Day8.sol\":723:753  balances[msg.sender] -= amount */\n      dup3\n      dup3\n      sload\n      tag_22\n      swap2\n      swap1\n      tag_23\n      jump\t// in\n    tag_22:\n      swap3\n      pop\n      pop\n      dup2\n      swap1\n      sstore\n      pop\n        /* \"contracts/Activity_Day8.sol\":765:777  bool success */\n      0x00\n        /* \"contracts/Activity_Day8.sol\":791:801  msg.sender */\n      caller\n        /* \"contracts/Activity_Day8.sol\":783:807  payable(msg.sender).call */\n      0xffffffffffffffffffffffffffffffffffffffff\n      and\n        /* \"contracts/Activity_Day8.sol\":815:821  amount */\n      dup3\n        /* \"contracts/Activity_Day8.sol\":783:826  payable(msg.sender).call{value: amount}(\"\") */\n      mload(0x40)\n      tag_24\n      swap1\n      tag_25\n      jump\t// in\n    tag_24:\n      0x00\n      mload(0x40)\n      dup1\n      dup4\n      sub\n      dup2\n      dup6\n      dup8\n      gas\n      call\n      swap3\n      pop\n      pop\n      pop\n      returndatasize\n      dup1\n      0x00\n      dup2\n      eq\n      tag_28\n      jumpi\n      mload(0x40)\n      swap2\n      pop\n      and(add(returndatasize, 0x3f), not(0x1f))\n      dup3\n      add\n      0x40\n      mstore\n      returndatasize\n      dup3\n      mstore\n      returndatasize\n      0x00\n      0x20\n      dup5\n      add\n      returndatacopy\n      jump(tag_27)\n    tag_28:\n      0x60\n      swap2\n      pop\n    tag_27:\n      pop\n        /* \"contracts/Activity_Day8.sol\":764:826  (bool success, ) = payable(msg.sender).call{value: amount}(\"\") */\n      pop\n      swap1\n      pop\n        /* \"contracts/Activity_Day8.sol\":845:852  success */\n      dup1\n        /* \"contracts/Activity_Day8.sol\":837:872  require(success, \"Withdraw failed\") */\n      tag_29\n      jumpi\n      mload(0x40)\n      0x08c379a000000000000000000000000000000000000000000000000000000000\n      dup2\n      mstore\n      0x04\n      add\n      tag_30\n      swap1\n      tag_31\n      jump\t// in\n    tag_30:\n      mload(0x40)\n      dup1\n      swap2\n      sub\n      swap1\n      revert\n    tag_29:\n        /* \"contracts/Activity_Day8.sol\":900:910  msg.sender */\n      caller\n        /* \"contracts/Activity_Day8.sol\":890:919  Withdrawn(msg.sender, amount) */\n      0xffffffffffffffffffffffffffffffffffffffff\n      and\n      0x7084f5476618d8e60b11ef0d7d3f06914655adb8793e28ff7f018d4c76d505d5\n        /* \"contracts/Activity_Day8.sol\":912:918  amount */\n      dup4\n        /* \"contracts/Activity_Day8.sol\":890:919  Withdrawn(msg.sender, amount) */\n      mload(0x40)\n      tag_32\n      swap2\n      swap1\n      tag_9\n      jump\t// in\n    tag_32:\n      mload(0x40)\n      dup1\n      swap2\n      sub\n      swap1\n      log2\n        /* \"contracts/Activity_Day8.sol\":640:927  {... */\n      pop\n        /* \"contracts/Activity_Day8.sol\":601:927  function withdraw(uint amount) external{... */\n      pop\n      jump\t// out\n        /* \"contracts/Activity_Day8.sol\":281:471  function deposit() external payable{... */\n    tag_16:\n        /* \"contracts/Activity_Day8.sol\":347:348  0 */\n      0x00\n        /* \"contracts/Activity_Day8.sol\":335:344  msg.value */\n      callvalue\n        /* \"contracts/Activity_Day8.sol\":335:348  msg.value > 0 */\n      gt\n        /* \"contracts/Activity_Day8.sol\":327:371  require(msg.value > 0, \"Must send some ETH\") */\n      tag_34\n      jumpi\n      mload(0x40)\n      0x08c379a000000000000000000000000000000000000000000000000000000000\n      dup2\n      mstore\n      0x04\n      add\n      tag_35\n      swap1\n      tag_36\n      jump\t// in\n    tag_35:\n      mload(0x40)\n      dup1\n      swap2\n      sub\n      swap1\n      revert\n    tag_34:\n        /* \"contracts/Activity_Day8.sol\":406:415  msg.value */\n      callvalue\n        /* \"contracts/Activity_Day8.sol\":382:390  balances */\n      0x00\n        /* \"contracts/Activity_Day8.sol\":382:402  balances[msg.sender] */\n      0x00\n        /* \"contracts/Activity_Day8.sol\":391:401  msg.sender */\n      caller\n        /* \"contracts/Activity_Day8.sol\":382:402  balances[msg.sender] */\n      0xffffffffffffffffffffffffffffffffffffffff\n      and\n      0xffffffffffffffffffffffffffffffffffffffff\n      and\n      dup2\n      mstore\n      0x20\n      add\n      swap1\n      dup2\n      mstore\n      0x20\n      add\n      0x00\n      keccak256\n      0x00\n        /* \"contracts/Activity_Day8.sol\":382:415  balances[msg.sender] += msg.value */\n      dup3\n      dup3\n      sload\n      tag_37\n      swap2\n      swap1\n      tag_38\n      jump\t// in\n    tag_37:\n      swap3\n      pop\n      pop\n      dup2\n      swap1\n      sstore\n      pop\n        /* \"contracts/Activity_Day8.sol\":441:451  msg.sender */\n      caller\n        /* \"contracts/Activity_Day8.sol\":431:463  Deposited(msg.sender, msg.value) */\n      0xffffffffffffffffffffffffffffffffffffffff\n      and\n      0x2da466a7b24304f47e87fa2e1e5a81b9831ce54fec19055ce277ca2f39ba42c4\n        /* \"contracts/Activity_Day8.sol\":453:462  msg.value */\n      callvalue\n        /* \"contracts/Activity_Day8.sol\":431:463  Deposited(msg.sender, msg.value) */\n      mload(0x40)\n      tag_39\n      swap2\n      swap1\n      tag_9\n      jump\t// in\n    tag_39:\n      mload(0x40)\n      dup1\n      swap2\n      sub\n      swap1\n      log2\n        /* \"contracts/Activity_Day8.sol\":281:471  function deposit() external payable{... */\n      jump\t// out\n        /* \"#utility.yul\":7:84   */\n    tag_40:\n        /* \"#utility.yul\":44:51   */\n      0x00\n        /* \"#utility.yul\":73:78   */\n      dup2\n        /* \"#utility.yul\":62:78   */\n      swap1\n      pop\n        /* \"#utility.yul\":7:84   */\n      swap2\n      swap1\n      pop\n      jump\t// out\n        /* \"#utility.yul\":90:208   */\n    tag_41:\n        /* \"#utility.yul\":177:201   */\n      tag_61\n        /* \"#utility.yul\":195:200   */\n      dup2\n        /* \"#utility.yul\":177:201   */\n      tag_40\n      jump\t// in\n    tag_61:\n        /* \"#utility.yul\":172:175   */\n      dup3\n        /* \"#utility.yul\":165:202   */\n      mstore\n        /* \"#utility.yul\":90:208   */\n      pop\n      pop\n      jump\t// out\n        /* \"#utility.yul\":214:436   */\n    tag_9:\n        /* \"#utility.yul\":307:311   */\n      0x00\n        /* \"#utility.yul\":345:347   */\n      0x20\n        /* \"#utility.yul\":334:343   */\n      dup3\n        /* \"#utility.yul\":330:348   */\n      add\n        /* \"#utility.yul\":322:348   */\n      swap1\n      pop\n        /* \"#utility.yul\":358:429   */\n      tag_63\n        /* \"#utility.yul\":426:427   */\n      0x00\n        /* \"#utility.yul\":415:424   */\n      dup4\n        /* \"#utility.yul\":411:428   */\n      add\n        /* \"#utility.yul\":402:408   */\n      dup5\n        /* \"#utility.yul\":358:429   */\n      tag_41\n      jump\t// in\n    tag_63:\n        /* \"#utility.yul\":214:436   */\n      swap3\n      swap2\n      pop\n      pop\n      jump\t// out\n        /* \"#utility.yul\":523:640   */\n    tag_43:\n        /* \"#utility.yul\":632:633   */\n      0x00\n        /* \"#utility.yul\":629:630   */\n      0x00\n        /* \"#utility.yul\":622:634   */\n      revert\n        /* \"#utility.yul\":769:891   */\n    tag_45:\n        /* \"#utility.yul\":842:866   */\n      tag_68\n        /* \"#utility.yul\":860:865   */\n      dup2\n        /* \"#utility.yul\":842:866   */\n      tag_40\n      jump\t// in\n    tag_68:\n        /* \"#utility.yul\":835:840   */\n      dup2\n        /* \"#utility.yul\":832:867   */\n      eq\n        /* \"#utility.yul\":822:885   */\n      tag_69\n      jumpi\n        /* \"#utility.yul\":881:882   */\n      0x00\n        /* \"#utility.yul\":878:879   */\n      0x00\n        /* \"#utility.yul\":871:883   */\n      revert\n        /* \"#utility.yul\":822:885   */\n    tag_69:\n        /* \"#utility.yul\":769:891   */\n      pop\n      jump\t// out\n        /* \"#utility.yul\":897:1036   */\n    tag_46:\n        /* \"#utility.yul\":943:948   */\n      0x00\n        /* \"#utility.yul\":981:987   */\n      dup2\n        /* \"#utility.yul\":968:988   */\n      calldataload\n        /* \"#utility.yul\":959:988   */\n      swap1\n      pop\n        /* \"#utility.yul\":997:1030   */\n      tag_71\n        /* \"#utility.yul\":1024:1029   */\n      dup2\n        /* \"#utility.yul\":997:1030   */\n      tag_45\n      jump\t// in\n    tag_71:\n        /* \"#utility.yul\":897:1036   */\n      swap3\n      swap2\n      pop\n      pop\n      jump\t// out\n        /* \"#utility.yul\":1042:1371   */\n    tag_13:\n        /* \"#utility.yul\":1101:1107   */\n      0x00\n        /* \"#utility.yul\":1150:1152   */\n      0x20\n        /* \"#utility.yul\":1138:1147   */\n      dup3\n        /* \"#utility.yul\":1129:1136   */\n      dup5\n        /* \"#utility.yul\":1125:1148   */\n      sub\n        /* \"#utility.yul\":1121:1153   */\n      slt\n        /* \"#utility.yul\":1118:1237   */\n      iszero\n      tag_73\n      jumpi\n        /* \"#utility.yul\":1156:1235   */\n      tag_74\n      tag_43\n      jump\t// in\n    tag_74:\n        /* \"#utility.yul\":1118:1237   */\n    tag_73:\n        /* \"#utility.yul\":1276:1277   */\n      0x00\n        /* \"#utility.yul\":1301:1354   */\n      tag_75\n        /* \"#utility.yul\":1346:1353   */\n      dup5\n        /* \"#utility.yul\":1337:1343   */\n      dup3\n        /* \"#utility.yul\":1326:1335   */\n      dup6\n        /* \"#utility.yul\":1322:1344   */\n      add\n        /* \"#utility.yul\":1301:1354   */\n      tag_46\n      jump\t// in\n    tag_75:\n        /* \"#utility.yul\":1291:1354   */\n      swap2\n      pop\n        /* \"#utility.yul\":1247:1364   */\n      pop\n        /* \"#utility.yul\":1042:1371   */\n      swap3\n      swap2\n      pop\n      pop\n      jump\t// out\n        /* \"#utility.yul\":1377:1546   */\n    tag_47:\n        /* \"#utility.yul\":1461:1472   */\n      0x00\n        /* \"#utility.yul\":1495:1501   */\n      dup3\n        /* \"#utility.yul\":1490:1493   */\n      dup3\n        /* \"#utility.yul\":1483:1502   */\n      mstore\n        /* \"#utility.yul\":1535:1539   */\n      0x20\n        /* \"#utility.yul\":1530:1533   */\n      dup3\n        /* \"#utility.yul\":1526:1540   */\n      add\n        /* \"#utility.yul\":1511:1540   */\n      swap1\n      pop\n        /* \"#utility.yul\":1377:1546   */\n      swap3\n      swap2\n      pop\n      pop\n      jump\t// out\n        /* \"#utility.yul\":1552:1720   */\n    tag_48:\n        /* \"#utility.yul\":1692:1712   */\n      0x4e6f7420656e6f7567682062616c616e63650000000000000000000000000000\n        /* \"#utility.yul\":1688:1689   */\n      0x00\n        /* \"#utility.yul\":1680:1686   */\n      dup3\n        /* \"#utility.yul\":1676:1690   */\n      add\n        /* \"#utility.yul\":1669:1713   */\n      mstore\n        /* \"#utility.yul\":1552:1720   */\n      pop\n      jump\t// out\n        /* \"#utility.yul\":1726:2092   */\n    tag_49:\n        /* \"#utility.yul\":1868:1871   */\n      0x00\n        /* \"#utility.yul\":1889:1956   */\n      tag_79\n        /* \"#utility.yul\":1953:1955   */\n      0x12\n        /* \"#utility.yul\":1948:1951   */\n      dup4\n        /* \"#utility.yul\":1889:1956   */\n      tag_47\n      jump\t// in\n    tag_79:\n        /* \"#utility.yul\":1882:1956   */\n      swap2\n      pop\n        /* \"#utility.yul\":1965:2058   */\n      tag_80\n        /* \"#utility.yul\":2054:2057   */\n      dup3\n        /* \"#utility.yul\":1965:2058   */\n      tag_48\n      jump\t// in\n    tag_80:\n        /* \"#utility.yul\":2083:2085   */\n      0x20\n        /* \"#utility.yul\":2078:2081   */\n      dup3\n        /* \"#utility.yul\":2074:2086   */\n      add\n        /* \"#utility.yul\":2067:2086   */\n      swap1\n      pop\n        /* \"#utility.yul\":1726:2092   */\n      swap2\n      swap1\n      pop\n      jump\t// out\n        /* \"#utility.yul\":2098:2517   */\n    tag_21:\n        /* \"#utility.yul\":2264:2268   */\n      0x00\n        /* \"#utility.yul\":2302:2304   */\n      0x20\n        /* \"#utility.yul\":2291:2300   */\n      dup3\n        /* \"#utility.yul\":2287:2305   */\n      add\n        /* \"#utility.yul\":2279:2305   */\n      swap1\n      pop\n        /* \"#utility.yul\":2351:2360   */\n      dup2\n        /* \"#utility.yul\":2345:2349   */\n      dup2\n        /* \"#utility.yul\":2341:2361   */\n      sub\n        /* \"#utility.yul\":2337:2338   */\n      0x00\n        /* \"#utility.yul\":2326:2335   */\n      dup4\n        /* \"#utility.yul\":2322:2339   */\n      add\n        /* \"#utility.yul\":2315:2362   */\n      mstore\n        /* \"#utility.yul\":2379:2510   */\n      tag_82\n        /* \"#utility.yul\":2505:2509   */\n      dup2\n        /* \"#utility.yul\":2379:2510   */\n      tag_49\n      jump\t// in\n    tag_82:\n        /* \"#utility.yul\":2371:2510   */\n      swap1\n      pop\n        /* \"#utility.yul\":2098:2517   */\n      swap2\n      swap1\n      pop\n      jump\t// out\n        /* \"#utility.yul\":2523:2703   */\n    tag_50:\n        /* \"#utility.yul\":2571:2648   */\n      0x4e487b7100000000000000000000000000000000000000000000000000000000\n        /* \"#utility.yul\":2568:2569   */\n      0x00\n        /* \"#utility.yul\":2561:2649   */\n      mstore\n        /* \"#utility.yul\":2668:2672   */\n      0x11\n        /* \"#utility.yul\":2665:2666   */\n      0x04\n        /* \"#utility.yul\":2658:2673   */\n      mstore\n        /* \"#utility.yul\":2692:2696   */\n      0x24\n        /* \"#utility.yul\":2689:2690   */\n      0x00\n        /* \"#utility.yul\":2682:2697   */\n      revert\n        /* \"#utility.yul\":2709:2903   */\n    tag_23:\n        /* \"#utility.yul\":2749:2753   */\n      0x00\n        /* \"#utility.yul\":2769:2789   */\n      tag_85\n        /* \"#utility.yul\":2787:2788   */\n      dup3\n        /* \"#utility.yul\":2769:2789   */\n      tag_40\n      jump\t// in\n    tag_85:\n        /* \"#utility.yul\":2764:2789   */\n      swap2\n      pop\n        /* \"#utility.yul\":2803:2823   */\n      tag_86\n        /* \"#utility.yul\":2821:2822   */\n      dup4\n        /* \"#utility.yul\":2803:2823   */\n      tag_40\n      jump\t// in\n    tag_86:\n        /* \"#utility.yul\":2798:2823   */\n      swap3\n      pop\n        /* \"#utility.yul\":2847:2848   */\n      dup3\n        /* \"#utility.yul\":2844:2845   */\n      dup3\n        /* \"#utility.yul\":2840:2849   */\n      sub\n        /* \"#utility.yul\":2832:2849   */\n      swap1\n      pop\n        /* \"#utility.yul\":2871:2872   */\n      dup2\n        /* \"#utility.yul\":2865:2869   */\n      dup2\n        /* \"#utility.yul\":2862:2873   */\n      gt\n        /* \"#utility.yul\":2859:2896   */\n      iszero\n      tag_87\n      jumpi\n        /* \"#utility.yul\":2876:2894   */\n      tag_88\n      tag_50\n      jump\t// in\n    tag_88:\n        /* \"#utility.yul\":2859:2896   */\n    tag_87:\n        /* \"#utility.yul\":2709:2903   */\n      swap3\n      swap2\n      pop\n      pop\n      jump\t// out\n        /* \"#utility.yul\":2909:3056   */\n    tag_51:\n        /* \"#utility.yul\":3010:3021   */\n      0x00\n        /* \"#utility.yul\":3047:3050   */\n      dup2\n        /* \"#utility.yul\":3032:3050   */\n      swap1\n      pop\n        /* \"#utility.yul\":2909:3056   */\n      swap3\n      swap2\n      pop\n      pop\n      jump\t// out\n        /* \"#utility.yul\":3062:3176   */\n    tag_52:\n      pop\n      jump\t// out\n        /* \"#utility.yul\":3182:3580   */\n    tag_53:\n        /* \"#utility.yul\":3341:3344   */\n      0x00\n        /* \"#utility.yul\":3362:3445   */\n      tag_92\n        /* \"#utility.yul\":3443:3444   */\n      0x00\n        /* \"#utility.yul\":3438:3441   */\n      dup4\n        /* \"#utility.yul\":3362:3445   */\n      tag_51\n      jump\t// in\n    tag_92:\n        /* \"#utility.yul\":3355:3445   */\n      swap2\n      pop\n        /* \"#utility.yul\":3454:3547   */\n      tag_93\n        /* \"#utility.yul\":3543:3546   */\n      dup3\n        /* \"#utility.yul\":3454:3547   */\n      tag_52\n      jump\t// in\n    tag_93:\n        /* \"#utility.yul\":3572:3573   */\n      0x00\n        /* \"#utility.yul\":3567:3570   */\n      dup3\n        /* \"#utility.yul\":3563:3574   */\n      add\n        /* \"#utility.yul\":3556:3574   */\n      swap1\n      pop\n        /* \"#utility.yul\":3182:3580   */\n      swap2\n      swap1\n      pop\n      jump\t// out\n        /* \"#utility.yul\":3586:3965   */\n    tag_25:\n        /* \"#utility.yul\":3770:3773   */\n      0x00\n        /* \"#utility.yul\":3792:3939   */\n      tag_95\n        /* \"#utility.yul\":3935:3938   */\n      dup3\n        /* \"#utility.yul\":3792:3939   */\n      tag_53\n      jump\t// in\n    tag_95:\n        /* \"#utility.yul\":3785:3939   */\n      swap2\n      pop\n        /* \"#utility.yul\":3956:3959   */\n      dup2\n        /* \"#utility.yul\":3949:3959   */\n      swap1\n      pop\n        /* \"#utility.yul\":3586:3965   */\n      swap2\n      swap1\n      pop\n      jump\t// out\n        /* \"#utility.yul\":3971:4136   */\n    tag_54:\n        /* \"#utility.yul\":4111:4128   */\n      0x5769746864726177206661696c65640000000000000000000000000000000000\n        /* \"#utility.yul\":4107:4108   */\n      0x00\n        /* \"#utility.yul\":4099:4105   */\n      dup3\n        /* \"#utility.yul\":4095:4109   */\n      add\n        /* \"#utility.yul\":4088:4129   */\n      mstore\n        /* \"#utility.yul\":3971:4136   */\n      pop\n      jump\t// out\n        /* \"#utility.yul\":4142:4508   */\n    tag_55:\n        /* \"#utility.yul\":4284:4287   */\n      0x00\n        /* \"#utility.yul\":4305:4372   */\n      tag_98\n        /* \"#utility.yul\":4369:4371   */\n      0x0f\n        /* \"#utility.yul\":4364:4367   */\n      dup4\n        /* \"#utility.yul\":4305:4372   */\n      tag_47\n      jump\t// in\n    tag_98:\n        /* \"#utility.yul\":4298:4372   */\n      swap2\n      pop\n        /* \"#utility.yul\":4381:4474   */\n      tag_99\n        /* \"#utility.yul\":4470:4473   */\n      dup3\n        /* \"#utility.yul\":4381:4474   */\n      tag_54\n      jump\t// in\n    tag_99:\n        /* \"#utility.yul\":4499:4501   */\n      0x20\n        /* \"#utility.yul\":4494:4497   */\n      dup3\n        /* \"#utility.yul\":4490:4502   */\n      add\n        /* \"#utility.yul\":4483:4502   */\n      swap1\n      pop\n        /* \"#utility.yul\":4142:4508   */\n      swap2\n      swap1\n      pop\n      jump\t// out\n        /* \"#utility.yul\":4514:4933   */\n    tag_31:\n        /* \"#utility.yul\":4680:4684   */\n      0x00\n        /* \"#utility.yul\":4718:4720   */\n      0x20\n        /* \"#utility.yul\":4707:4716   */\n      dup3\n        /* \"#utility.yul\":4703:4721   */\n      add\n        /* \"#utility.yul\":4695:4721   */\n      swap1\n      pop\n        /* \"#utility.yul\":4767:4776   */\n      dup2\n        /* \"#utility.yul\":4761:4765   */\n      dup2\n        /* \"#utility.yul\":4757:4777   */\n      sub\n        /* \"#utility.yul\":4753:4754   */\n      0x00\n        /* \"#utility.yul\":4742:4751   */\n      dup4\n        /* \"#utility.yul\":4738:4755   */\n      add\n        /* \"#utility.yul\":4731:4778   */\n      mstore\n        /* \"#utility.yul\":4795:4926   */\n      tag_101\n        /* \"#utility.yul\":4921:4925   */\n      dup2\n        /* \"#utility.yul\":4795:4926   */\n      tag_55\n      jump\t// in\n    tag_101:\n        /* \"#utility.yul\":4787:4926   */\n      swap1\n      pop\n        /* \"#utility.yul\":4514:4933   */\n      swap2\n      swap1\n      pop\n      jump\t// out\n        /* \"#utility.yul\":4939:5107   */\n    tag_56:\n        /* \"#utility.yul\":5079:5099   */\n      0x4d7573742073656e6420736f6d65204554480000000000000000000000000000\n        /* \"#utility.yul\":5075:5076   */\n      0x00\n        /* \"#utility.yul\":5067:5073   */\n      dup3\n        /* \"#utility.yul\":5063:5077   */\n      add\n        /* \"#utility.yul\":5056:5100   */\n      mstore\n        /* \"#utility.yul\":4939:5107   */\n      pop\n      jump\t// out\n        /* \"#utility.yul\":5113:5479   */\n    tag_57:\n        /* \"#utility.yul\":5255:5258   */\n      0x00\n        /* \"#utility.yul\":5276:5343   */\n      tag_104\n        /* \"#utility.yul\":5340:5342   */\n      0x12\n        /* \"#utility.yul\":5335:5338   */\n      dup4\n        /* \"#utility.yul\":5276:5343   */\n      tag_47\n      jump\t// in\n    tag_104:\n        /* \"#utility.yul\":5269:5343   */\n      swap2\n      pop\n        /* \"#utility.yul\":5352:5445   */\n      tag_105\n        /* \"#utility.yul\":5441:5444   */\n      dup3\n        /* \"#utility.yul\":5352:5445   */\n      tag_56\n      jump\t// in\n    tag_105:\n        /* \"#utility.yul\":5470:5472   */\n      0x20\n        /* \"#utility.yul\":5465:5468   */\n      dup3\n        /* \"#utility.yul\":5461:5473   */\n      add\n        /* \"#utility.yul\":5454:5473   */\n      swap1\n      pop\n        /* \"#utility.yul\":5113:5479   */\n      swap2\n      swap1\n      pop\n      jump\t// out\n        /* \"#utility.yul\":5485:5904   */\n    tag_36:\n        /* \"#utility.yul\":5651:5655   */\n      0x00\n        /* \"#utility.yul\":5689:5691   */\n      0x20\n        /* \"#utility.yul\":5678:5687   */\n      dup3\n        /* \"#utility.yul\":5674:5692   */\n      add\n        /* \"#utility.yul\":5666:5692   */\n      swap1\n      pop\n        /* \"#utility.yul\":5738:5747   */\n      dup2\n        /* \"#utility.yul\":5732:5736   */\n      dup2\n        /* \"#utility.yul\":5728:5748   */\n      sub\n        /* \"#utility.yul\":5724:5725   */\n      0x00\n        /* \"#utility.yul\":5713:5722   */\n      dup4\n        /* \"#utility.yul\":5709:5726   */\n      add\n        /* \"#utility.yul\":5702:5749   */\n      mstore\n        /* \"#utility.yul\":5766:5897   */\n      tag_107\n        /* \"#utility.yul\":5892:5896   */\n      dup2\n        /* \"#utility.yul\":5766:5897   */\n      tag_57\n      jump\t// in\n    tag_107:\n        /* \"#utility.yul\":5758:5897   */\n      swap1\n      pop\n        /* \"#utility.yul\":5485:5904   */\n      swap2\n      swap1\n      pop\n      jump\t// out\n        /* \"#utility.yul\":5910:6101   */\n    tag_38:\n        /* \"#utility.yul\":5950:5953   */\n      0x00\n        /* \"#utility.yul\":5969:5989   */\n      tag_109\n        /* \"#utility.yul\":5987:5988   */\n      dup3\n        /* \"#utility.yul\":5969:5989   */\n      tag_40\n      jump\t// in\n    tag_109:\n        /* \"#utility.yul\":5964:5989   */\n      swap2\n      pop\n        /* \"#utility.yul\":6003:6023   */\n      tag_110\n        /* \"#utility.yul\":6021:6022   */\n      dup4\n        /* \"#utility.yul\":6003:6023   */\n      tag_40\n      jump\t// in\n    tag_110:\n        /* \"#utility.yul\":5998:6023   */\n      swap3\n      pop\n        /* \"#utility.yul\":6046:6047   */\n      dup3\n        /* \"#utility.yul\":6043:6044   */\n      dup3\n        /* \"#utility.yul\":6039:6048   */\n      add\n        /* \"#utility.yul\":6032:6048   */\n      swap1\n      pop\n        /* \"#utility.yul\":6067:6070   */\n      dup1\n        /* \"#utility.yul\":6064:6065   */\n      dup3\n        /* \"#utility.yul\":6061:6071   */\n      gt\n        /* \"#utility.yul\":6058:6094   */\n      iszero\n      tag_111\n      jumpi\n        /* \"#utility.yul\":6074:6092   */\n      tag_112\n      tag_50\n      jump\t// in\n    tag_112:\n        /* \"#utility.yul\":6058:6094   */\n    tag_111:\n        /* \"#utility.yul\":5910:6101   */\n      swap3\n      swap2\n      pop\n      pop\n      jump\t// out\n\n    auxdata: 0xa26469706673582212200f1fa0fbbdd0ffb6c30384c77851b2cce37191a247cba1a4dda53c21736f43fe64736f6c634300081e0033\n}\n",
				"bytecode": {
					"linkReferences": {},
					"object": "6080604052348015600e575f5ffd5b506106618061001c5f395ff3fe608060405260043610610033575f3560e01c806312065fe0146100375780632e1a7d4d14610061578063d0e30db014610089575b5f5ffd5b348015610042575f5ffd5b5061004b610093565b604051610058919061039d565b60405180910390f35b34801561006c575f5ffd5b50610087600480360381019061008291906103e4565b6100d6565b005b6100916102a1565b005b5f5f5f3373ffffffffffffffffffffffffffffffffffffffff1673ffffffffffffffffffffffffffffffffffffffff1681526020019081526020015f2054905090565b805f5f3373ffffffffffffffffffffffffffffffffffffffff1673ffffffffffffffffffffffffffffffffffffffff1681526020019081526020015f20541015610155576040517f08c379a000000000000000000000000000000000000000000000000000000000815260040161014c90610469565b60405180910390fd5b805f5f3373ffffffffffffffffffffffffffffffffffffffff1673ffffffffffffffffffffffffffffffffffffffff1681526020019081526020015f205f8282546101a091906104b4565b925050819055505f3373ffffffffffffffffffffffffffffffffffffffff16826040516101cc90610514565b5f6040518083038185875af1925050503d805f8114610206576040519150601f19603f3d011682016040523d82523d5f602084013e61020b565b606091505b505090508061024f576040517f08c379a000000000000000000000000000000000000000000000000000000000815260040161024690610572565b60405180910390fd5b3373ffffffffffffffffffffffffffffffffffffffff167f7084f5476618d8e60b11ef0d7d3f06914655adb8793e28ff7f018d4c76d505d583604051610295919061039d565b60405180910390a25050565b5f34116102e3576040517f08c379a00000000000000000000000000000000000000000000000000000000081526004016102da906105da565b60405180910390fd5b345f5f3373ffffffffffffffffffffffffffffffffffffffff1673ffffffffffffffffffffffffffffffffffffffff1681526020019081526020015f205f82825461032e91906105f8565b925050819055503373ffffffffffffffffffffffffffffffffffffffff167f2da466a7b24304f47e87fa2e1e5a81b9831ce54fec19055ce277ca2f39ba42c43460405161037b919061039d565b60405180910390a2565b5f819050919050565b61039781610385565b82525050565b5f6020820190506103b05f83018461038e565b92915050565b5f5ffd5b6103c381610385565b81146103cd575f5ffd5b50565b5f813590506103de816103ba565b92915050565b5f602082840312156103f9576103f86103b6565b5b5f610406848285016103d0565b91505092915050565b5f82825260208201905092915050565b7f4e6f7420656e6f7567682062616c616e636500000000000000000000000000005f82015250565b5f61045360128361040f565b915061045e8261041f565b602082019050919050565b5f6020820190508181035f83015261048081610447565b9050919050565b7f4e487b71000000000000000000000000000000000000000000000000000000005f52601160045260245ffd5b5f6104be82610385565b91506104c983610385565b92508282039050818111156104e1576104e0610487565b5b92915050565b5f81905092915050565b50565b5f6104ff5f836104e7565b915061050a826104f1565b5f82019050919050565b5f61051e826104f4565b9150819050919050565b7f5769746864726177206661696c656400000000000000000000000000000000005f82015250565b5f61055c600f8361040f565b915061056782610528565b602082019050919050565b5f6020820190508181035f83015261058981610550565b9050919050565b7f4d7573742073656e6420736f6d652045544800000000000000000000000000005f82015250565b5f6105c460128361040f565b91506105cf82610590565b602082019050919050565b5f6020820190508181035f8301526105f1816105b8565b9050919050565b5f61060282610385565b915061060d83610385565b925082820190508082111561062557610624610487565b5b9291505056fea26469706673582212200f1fa0fbbdd0ffb6c30384c77851b2cce37191a247cba1a4dda53c21736f43fe64736f6c634300081e0033",
					"opcodes": "PUSH1 0x80 PUSH1 0x40 MSTORE CALLVALUE DUP1 ISZERO PUSH1 0xE JUMPI PUSH0 PUSH0 REVERT JUMPDEST POP PUSH2 0x661 DUP1 PUSH2 0x1C PUSH0 CODECOPY PUSH0 RETURN INVALID PUSH1 0x80 PUSH1 0x40 MSTORE PUSH1 0x4 CALLDATASIZE LT PUSH2 0x33 JUMPI PUSH0 CALLDATALOAD PUSH1 0xE0 SHR DUP1 PUSH4 0x12065FE0 EQ PUSH2 0x37 JUMPI DUP1 PUSH4 0x2E1A7D4D EQ PUSH2 0x61 JUMPI DUP1 PUSH4 0xD0E30DB0 EQ PUSH2 0x89 JUMPI JUMPDEST PUSH0 PUSH0 REVERT JUMPDEST CALLVALUE DUP1 ISZERO PUSH2 0x42 JUMPI PUSH0 PUSH0 REVERT JUMPDEST POP PUSH2 0x4B PUSH2 0x93 JUMP JUMPDEST PUSH1 0x40 MLOAD PUSH2 0x58 SWAP2 SWAP1 PUSH2 0x39D JUMP JUMPDEST PUSH1 0x40 MLOAD DUP1 SWAP2 SUB SWAP1 RETURN JUMPDEST CALLVALUE DUP1 ISZERO PUSH2 0x6C JUMPI PUSH0 PUSH0 REVERT JUMPDEST POP PUSH2 0x87 PUSH1 0x4 DUP1 CALLDATASIZE SUB DUP2 ADD SWAP1 PUSH2 0x82 SWAP2 SWAP1 PUSH2 0x3E4 JUMP JUMPDEST PUSH2 0xD6 JUMP JUMPDEST STOP JUMPDEST PUSH2 0x91 PUSH2 0x2A1 JUMP JUMPDEST STOP JUMPDEST PUSH0 PUSH0 PUSH0 CALLER PUSH20 0xFFFFFFFFFFFFFFFFFFFFFFFFFFFFFFFFFFFFFFFF AND PUSH20 0xFFFFFFFFFFFFFFFFFFFFFFFFFFFFFFFFFFFFFFFF AND DUP2 MSTORE PUSH1 0x20 ADD SWAP1 DUP2 MSTORE PUSH1 0x20 ADD PUSH0 KECCAK256 SLOAD SWAP1 POP SWAP1 JUMP JUMPDEST DUP1 PUSH0 PUSH0 CALLER PUSH20 0xFFFFFFFFFFFFFFFFFFFFFFFFFFFFFFFFFFFFFFFF AND PUSH20 0xFFFFFFFFFFFFFFFFFFFFFFFFFFFFFFFFFFFFFFFF AND DUP2 MSTORE PUSH1 0x20 ADD SWAP1 DUP2 MSTORE PUSH1 0x20 ADD PUSH0 KECCAK256 SLOAD LT ISZERO PUSH2 0x155 JUMPI PUSH1 0x40 MLOAD PUSH32 0x8C379A000000000000000000000000000000000000000000000000000000000 DUP2 MSTORE PUSH1 0x4 ADD PUSH2 0x14C SWAP1 PUSH2 0x469 JUMP JUMPDEST PUSH1 0x40 MLOAD DUP1 SWAP2 SUB SWAP1 REVERT JUMPDEST DUP1 PUSH0 PUSH0 CALLER PUSH20 0xFFFFFFFFFFFFFFFFFFFFFFFFFFFFFFFFFFFFFFFF AND PUSH20 0xFFFFFFFFFFFFFFFFFFFFFFFFFFFFFFFFFFFFFFFF AND DUP2 MSTORE PUSH1 0x20 ADD SWAP1 DUP2 MSTORE PUSH1 0x20 ADD PUSH0 KECCAK256 PUSH0 DUP3 DUP3 SLOAD PUSH2 0x1A0 SWAP2 SWAP1 PUSH2 0x4B4 JUMP JUMPDEST SWAP3 POP POP DUP2 SWAP1 SSTORE POP PUSH0 CALLER PUSH20 0xFFFFFFFFFFFFFFFFFFFFFFFFFFFFFFFFFFFFFFFF AND DUP3 PUSH1 0x40 MLOAD PUSH2 0x1CC SWAP1 PUSH2 0x514 JUMP JUMPDEST PUSH0 PUSH1 0x40 MLOAD DUP1 DUP4 SUB DUP2 DUP6 DUP8 GAS CALL SWAP3 POP POP POP RETURNDATASIZE DUP1 PUSH0 DUP2 EQ PUSH2 0x206 JUMPI PUSH1 0x40 MLOAD SWAP2 POP PUSH1 0x1F NOT PUSH1 0x3F RETURNDATASIZE ADD AND DUP3 ADD PUSH1 0x40 MSTORE RETURNDATASIZE DUP3 MSTORE RETURNDATASIZE PUSH0 PUSH1 0x20 DUP5 ADD RETURNDATACOPY PUSH2 0x20B JUMP JUMPDEST PUSH1 0x60 SWAP2 POP JUMPDEST POP POP SWAP1 POP DUP1 PUSH2 0x24F JUMPI PUSH1 0x40 MLOAD PUSH32 0x8C379A000000000000000000000000000000000000000000000000000000000 DUP2 MSTORE PUSH1 0x4 ADD PUSH2 0x246 SWAP1 PUSH2 0x572 JUMP JUMPDEST PUSH1 0x40 MLOAD DUP1 SWAP2 SUB SWAP1 REVERT JUMPDEST CALLER PUSH20 0xFFFFFFFFFFFFFFFFFFFFFFFFFFFFFFFFFFFFFFFF AND PUSH32 0x7084F5476618D8E60B11EF0D7D3F06914655ADB8793E28FF7F018D4C76D505D5 DUP4 PUSH1 0x40 MLOAD PUSH2 0x295 SWAP2 SWAP1 PUSH2 0x39D JUMP JUMPDEST PUSH1 0x40 MLOAD DUP1 SWAP2 SUB SWAP1 LOG2 POP POP JUMP JUMPDEST PUSH0 CALLVALUE GT PUSH2 0x2E3 JUMPI PUSH1 0x40 MLOAD PUSH32 0x8C379A000000000000000000000000000000000000000000000000000000000 DUP2 MSTORE PUSH1 0x4 ADD PUSH2 0x2DA SWAP1 PUSH2 0x5DA JUMP JUMPDEST PUSH1 0x40 MLOAD DUP1 SWAP2 SUB SWAP1 REVERT JUMPDEST CALLVALUE PUSH0 PUSH0 CALLER PUSH20 0xFFFFFFFFFFFFFFFFFFFFFFFFFFFFFFFFFFFFFFFF AND PUSH20 0xFFFFFFFFFFFFFFFFFFFFFFFFFFFFFFFFFFFFFFFF AND DUP2 MSTORE PUSH1 0x20 ADD SWAP1 DUP2 MSTORE PUSH1 0x20 ADD PUSH0 KECCAK256 PUSH0 DUP3 DUP3 SLOAD PUSH2 0x32E SWAP2 SWAP1 PUSH2 0x5F8 JUMP JUMPDEST SWAP3 POP POP DUP2 SWAP1 SSTORE POP CALLER PUSH20 0xFFFFFFFFFFFFFFFFFFFFFFFFFFFFFFFFFFFFFFFF AND PUSH32 0x2DA466A7B24304F47E87FA2E1E5A81B9831CE54FEC19055CE277CA2F39BA42C4 CALLVALUE PUSH1 0x40 MLOAD PUSH2 0x37B SWAP2 SWAP1 PUSH2 0x39D JUMP JUMPDEST PUSH1 0x40 MLOAD DUP1 SWAP2 SUB SWAP1 LOG2 JUMP JUMPDEST PUSH0 DUP2 SWAP1 POP SWAP2 SWAP1 POP JUMP JUMPDEST PUSH2 0x397 DUP2 PUSH2 0x385 JUMP JUMPDEST DUP3 MSTORE POP POP JUMP JUMPDEST PUSH0 PUSH1 0x20 DUP3 ADD SWAP1 POP PUSH2 0x3B0 PUSH0 DUP4 ADD DUP5 PUSH2 0x38E JUMP JUMPDEST SWAP3 SWAP2 POP POP JUMP JUMPDEST PUSH0 PUSH0 REVERT JUMPDEST PUSH2 0x3C3 DUP2 PUSH2 0x385 JUMP JUMPDEST DUP2 EQ PUSH2 0x3CD JUMPI PUSH0 PUSH0 REVERT JUMPDEST POP JUMP JUMPDEST PUSH0 DUP2 CALLDATALOAD SWAP1 POP PUSH2 0x3DE DUP2 PUSH2 0x3BA JUMP JUMPDEST SWAP3 SWAP2 POP POP JUMP JUMPDEST PUSH0 PUSH1 0x20 DUP3 DUP5 SUB SLT ISZERO PUSH2 0x3F9 JUMPI PUSH2 0x3F8 PUSH2 0x3B6 JUMP JUMPDEST JUMPDEST PUSH0 PUSH2 0x406 DUP5 DUP3 DUP6 ADD PUSH2 0x3D0 JUMP JUMPDEST SWAP2 POP POP SWAP3 SWAP2 POP POP JUMP JUMPDEST PUSH0 DUP3 DUP3 MSTORE PUSH1 0x20 DUP3 ADD SWAP1 POP SWAP3 SWAP2 POP POP JUMP JUMPDEST PUSH32 0x4E6F7420656E6F7567682062616C616E63650000000000000000000000000000 PUSH0 DUP3 ADD MSTORE POP JUMP JUMPDEST PUSH0 PUSH2 0x453 PUSH1 0x12 DUP4 PUSH2 0x40F JUMP JUMPDEST SWAP2 POP PUSH2 0x45E DUP3 PUSH2 0x41F JUMP JUMPDEST PUSH1 0x20 DUP3 ADD SWAP1 POP SWAP2 SWAP1 POP JUMP JUMPDEST PUSH0 PUSH1 0x20 DUP3 ADD SWAP1 POP DUP2 DUP2 SUB PUSH0 DUP4 ADD MSTORE PUSH2 0x480 DUP2 PUSH2 0x447 JUMP JUMPDEST SWAP1 POP SWAP2 SWAP1 POP JUMP JUMPDEST PUSH32 0x4E487B7100000000000000000000000000000000000000000000000000000000 PUSH0 MSTORE PUSH1 0x11 PUSH1 0x4 MSTORE PUSH1 0x24 PUSH0 REVERT JUMPDEST PUSH0 PUSH2 0x4BE DUP3 PUSH2 0x385 JUMP JUMPDEST SWAP2 POP PUSH2 0x4C9 DUP4 PUSH2 0x385 JUMP JUMPDEST SWAP3 POP DUP3 DUP3 SUB SWAP1 POP DUP2 DUP2 GT ISZERO PUSH2 0x4E1 JUMPI PUSH2 0x4E0 PUSH2 0x487 JUMP JUMPDEST JUMPDEST SWAP3 SWAP2 POP POP JUMP JUMPDEST PUSH0 DUP2 SWAP1 POP SWAP3 SWAP2 POP POP JUMP JUMPDEST POP JUMP JUMPDEST PUSH0 PUSH2 0x4FF PUSH0 DUP4 PUSH2 0x4E7 JUMP JUMPDEST SWAP2 POP PUSH2 0x50A DUP3 PUSH2 0x4F1 JUMP JUMPDEST PUSH0 DUP3 ADD SWAP1 POP SWAP2 SWAP1 POP JUMP JUMPDEST PUSH0 PUSH2 0x51E DUP3 PUSH2 0x4F4 JUMP JUMPDEST SWAP2 POP DUP2 SWAP1 POP SWAP2 SWAP1 POP JUMP JUMPDEST PUSH32 0x5769746864726177206661696C65640000000000000000000000000000000000 PUSH0 DUP3 ADD MSTORE POP JUMP JUMPDEST PUSH0 PUSH2 0x55C PUSH1 0xF DUP4 PUSH2 0x40F JUMP JUMPDEST SWAP2 POP PUSH2 0x567 DUP3 PUSH2 0x528 JUMP JUMPDEST PUSH1 0x20 DUP3 ADD SWAP1 POP SWAP2 SWAP1 POP JUMP JUMPDEST PUSH0 PUSH1 0x20 DUP3 ADD SWAP1 POP DUP2 DUP2 SUB PUSH0 DUP4 ADD MSTORE PUSH2 0x589 DUP2 PUSH2 0x550 JUMP JUMPDEST SWAP1 POP SWAP2 SWAP1 POP JUMP JUMPDEST PUSH32 0x4D7573742073656E6420736F6D65204554480000000000000000000000000000 PUSH0 DUP3 ADD MSTORE POP JUMP JUMPDEST PUSH0 PUSH2 0x5C4 PUSH1 0x12 DUP4 PUSH2 0x40F JUMP JUMPDEST SWAP2 POP PUSH2 0x5CF DUP3 PUSH2 0x590 JUMP JUMPDEST PUSH1 0x20 DUP3 ADD SWAP1 POP SWAP2 SWAP1 POP JUMP JUMPDEST PUSH0 PUSH1 0x20 DUP3 ADD SWAP1 POP DUP2 DUP2 SUB PUSH0 DUP4 ADD MSTORE PUSH2 0x5F1 DUP2 PUSH2 0x5B8 JUMP JUMPDEST SWAP1 POP SWAP2 SWAP1 POP JUMP JUMPDEST PUSH0 PUSH2 0x602 DUP3 PUSH2 0x385 JUMP JUMPDEST SWAP2 POP PUSH2 0x60D DUP4 PUSH2 0x385 JUMP JUMPDEST SWAP3 POP DUP3 DUP3 ADD SWAP1 POP DUP1 DUP3 GT ISZERO PUSH2 0x625 JUMPI PUSH2 0x624 PUSH2 0x487 JUMP JUMPDEST JUMPDEST SWAP3 SWAP2 POP POP JUMP INVALID LOG2 PUSH5 0x6970667358 0x22 SLT KECCAK256 0xF 0x1F LOG0 EXTSTATICCALL 0xBD 0xD0 SELFDESTRUCT 0xB6 0xC3 SUB DUP5 0xC7 PUSH25 0x51B2CCE37191A247CBA1A4DDA53C21736F43FE64736F6C6343 STOP ADDMOD 0x1E STOP CALLER "
				},
				"gasEstimates": {
					"creation": {
						"codeDepositCost": "326600",
						"executionCost": "366",
						"totalCost": "326966"
					},
					"external": {
						"deposit()": "infinite",
						"getBalance()": "2496",
						"withdraw(uint256)": "infinite"
					}
				},
				"methodIdentifiers": {
					"deposit()": "d0e30db0",
					"getBalance()": "12065fe0",
					"withdraw(uint256)": "2e1a7d4d"
				}
			},
			"storageLayout": {
				"storage": [
					{
						"astId": 5,
						"contract": "contracts/Activity_Day8.sol:Activity_Day8",
						"label": "balances",
						"offset": 0,
						"slot": "0",
						"type": "t_mapping(t_address,t_uint256)"
					}
				],
				"types": {
					"t_address": {
						"encoding": "inplace",
						"label": "address",
						"numberOfBytes": "20"
					},
					"t_mapping(t_address,t_uint256)": {
						"encoding": "mapping",
						"key": "t_address",
						"label": "mapping(address => uint256)",
						"numberOfBytes": "32",
						"value": "t_uint256"
					},
					"t_uint256": {
						"encoding": "inplace",
						"label": "uint256",
						"numberOfBytes": "32"
					}
				}
			},
			"userdoc": {
				"kind": "user",
				"methods": {},
				"version": 1
			}
		}
	}
}