{
	"contracts/Loops.sol": {
		"Loops": {
			"abi": [
				{
					"inputs": [
						{
							"internalType": "uint256",
							"name": "n",
							"type": "uint256"
						}
					],
					"name": "countWhile",
					"outputs": [
						{
							"internalType": "uint256",
							"name": "count",
							"type": "uint256"
						}
					],
					"stateMutability": "pure",
					"type": "function"
				},
				{
					"inputs": [],
					"name": "runOnce",
					"outputs": [
						{
							"internalType": "uint256",
							"name": "sum",
							"type": "uint256"
						}
					],
					"stateMutability": "pure",
					"type": "function"
				},
				{
					"inputs": [
						{
							"internalType": "uint256",
							"name": "n",
							"type": "uint256"
						}
					],
					"name": "sumFor",
					"outputs": [
						{
							"internalType": "uint256",
							"name": "sum",
							"type": "uint256"
						}
					],
					"stateMutability": "pure",
					"type": "function"
				}
			],
			"devdoc": {
				"kind": "dev",
				"methods": {},
				"version": 1
			},
			"evm": {
				"assembly": "    /* \"contracts/Loops.sol\":61:518  contract Loops {... */\n  mstore(0x40, 0x80)\n  callvalue\n  dup1\n  iszero\n  tag_1\n  jumpi\n  revert(0x00, 0x00)\ntag_1:\n  pop\n  dataSize(sub_0)\n  dup1\n  dataOffset(sub_0)\n  0x00\n  codecopy\n  0x00\n  return\nstop\n\nsub_0: assembly {\n        /* \"contracts/Loops.sol\":61:518  contract Loops {... */\n      mstore(0x40, 0x80)\n      callvalue\n      dup1\n      iszero\n      tag_1\n      jumpi\n      revert(0x00, 0x00)\n    tag_1:\n      pop\n      jumpi(tag_2, lt(calldatasize, 0x04))\n      shr(0xe0, calldataload(0x00))\n      dup1\n      0x6e5009a5\n      eq\n      tag_3\n      jumpi\n      dup1\n      0xa0950f71\n      eq\n      tag_4\n      jumpi\n      dup1\n      0xe4e05ee0\n      eq\n      tag_5\n      jumpi\n    tag_2:\n      revert(0x00, 0x00)\n        /* \"contracts/Loops.sol\":225:390  function countWhile (uint n) public pure returns (uint count){... */\n    tag_3:\n      tag_6\n      0x04\n      dup1\n      calldatasize\n      sub\n      dup2\n      add\n      swap1\n      tag_7\n      swap2\n      swap1\n      tag_8\n      jump\t// in\n    tag_7:\n      tag_9\n      jump\t// in\n    tag_6:\n      mload(0x40)\n      tag_10\n      swap2\n      swap1\n      tag_11\n      jump\t// in\n    tag_10:\n      mload(0x40)\n      dup1\n      swap2\n      sub\n      swap1\n      return\n        /* \"contracts/Loops.sol\":398:515  function runOnce() public pure returns (uint sum){... */\n    tag_4:\n      tag_12\n      tag_13\n      jump\t// in\n    tag_12:\n      mload(0x40)\n      tag_14\n      swap2\n      swap1\n      tag_11\n      jump\t// in\n    tag_14:\n      mload(0x40)\n      dup1\n      swap2\n      sub\n      swap1\n      return\n        /* \"contracts/Loops.sol\":83:217  function sumFor(uint n) public pure returns (uint sum){... */\n    tag_5:\n      tag_15\n      0x04\n      dup1\n      calldatasize\n      sub\n      dup2\n      add\n      swap1\n      tag_16\n      swap2\n      swap1\n      tag_8\n      jump\t// in\n    tag_16:\n      tag_17\n      jump\t// in\n    tag_15:\n      mload(0x40)\n      tag_18\n      swap2\n      swap1\n      tag_11\n      jump\t// in\n    tag_18:\n      mload(0x40)\n      dup1\n      swap2\n      sub\n      swap1\n      return\n        /* \"contracts/Loops.sol\":225:390  function countWhile (uint n) public pure returns (uint count){... */\n    tag_9:\n        /* \"contracts/Loops.sol\":275:285  uint count */\n      0x00\n        /* \"contracts/Loops.sol\":297:303  uint i */\n      0x00\n        /* \"contracts/Loops.sol\":306:307  0 */\n      0x00\n        /* \"contracts/Loops.sol\":297:307  uint i = 0 */\n      swap1\n      pop\n        /* \"contracts/Loops.sol\":318:383  while (i < n){... */\n    tag_20:\n        /* \"contracts/Loops.sol\":329:330  n */\n      dup3\n        /* \"contracts/Loops.sol\":325:326  i */\n      dup2\n        /* \"contracts/Loops.sol\":325:330  i < n */\n      lt\n        /* \"contracts/Loops.sol\":318:383  while (i < n){... */\n      iszero\n      tag_21\n      jumpi\n        /* \"contracts/Loops.sol\":346:353  count++ */\n      dup2\n      dup1\n      tag_22\n      swap1\n      tag_23\n      jump\t// in\n    tag_22:\n      swap3\n      pop\n      pop\n        /* \"contracts/Loops.sol\":368:371  i++ */\n      dup1\n      dup1\n      tag_24\n      swap1\n      tag_23\n      jump\t// in\n    tag_24:\n      swap2\n      pop\n      pop\n        /* \"contracts/Loops.sol\":318:383  while (i < n){... */\n      jump(tag_20)\n    tag_21:\n        /* \"contracts/Loops.sol\":286:390  {... */\n      pop\n        /* \"contracts/Loops.sol\":225:390  function countWhile (uint n) public pure returns (uint count){... */\n      swap2\n      swap1\n      pop\n      jump\t// out\n        /* \"contracts/Loops.sol\":398:515  function runOnce() public pure returns (uint sum){... */\n    tag_13:\n        /* \"contracts/Loops.sol\":438:446  uint sum */\n      0x00\n        /* \"contracts/Loops.sol\":458:508  do {... */\n    tag_26:\n        /* \"contracts/Loops.sol\":476:481  sum++ */\n      dup1\n      dup1\n      tag_29\n      swap1\n      tag_23\n      jump\t// in\n    tag_29:\n      swap2\n      pop\n      pop\n        /* \"contracts/Loops.sol\":501:506  false */\n      0x00\n        /* \"contracts/Loops.sol\":458:508  do {... */\n      tag_26\n      jumpi\n        /* \"contracts/Loops.sol\":398:515  function runOnce() public pure returns (uint sum){... */\n      swap1\n      jump\t// out\n        /* \"contracts/Loops.sol\":83:217  function sumFor(uint n) public pure returns (uint sum){... */\n    tag_17:\n        /* \"contracts/Loops.sol\":128:136  uint sum */\n      0x00\n        /* \"contracts/Loops.sol\":153:159  uint i */\n      0x00\n        /* \"contracts/Loops.sol\":162:163  1 */\n      0x01\n        /* \"contracts/Loops.sol\":153:163  uint i = 1 */\n      swap1\n      pop\n        /* \"contracts/Loops.sol\":148:210  for (uint i = 1; i <= n ; i++){... */\n    tag_31:\n        /* \"contracts/Loops.sol\":170:171  n */\n      dup3\n        /* \"contracts/Loops.sol\":165:166  i */\n      dup2\n        /* \"contracts/Loops.sol\":165:171  i <= n */\n      gt\n        /* \"contracts/Loops.sol\":148:210  for (uint i = 1; i <= n ; i++){... */\n      tag_32\n      jumpi\n        /* \"contracts/Loops.sol\":193:198  sum++ */\n      dup2\n      dup1\n      tag_34\n      swap1\n      tag_23\n      jump\t// in\n    tag_34:\n      swap3\n      pop\n      pop\n        /* \"contracts/Loops.sol\":174:177  i++ */\n      dup1\n      dup1\n      tag_35\n      swap1\n      tag_23\n      jump\t// in\n    tag_35:\n      swap2\n      pop\n      pop\n        /* \"contracts/Loops.sol\":148:210  for (uint i = 1; i <= n ; i++){... */\n      jump(tag_31)\n    tag_32:\n      pop\n        /* \"contracts/Loops.sol\":83:217  function sumFor(uint n) public pure returns (uint sum){... */\n      swap2\n      swap1\n      pop\n      jump\t// out\n        /* \"#utility.yul\":88:205   */\n    tag_37:\n        /* \"#utility.yul\":197:198   */\n      0x00\n        /* \"#utility.yul\":194:195   */\n      0x00\n        /* \"#utility.yul\":187:199   */\n      revert\n        /* \"#utility.yul\":334:411   */\n    tag_39:\n        /* \"#utility.yul\":371:378   */\n      0x00\n        /* \"#utility.yul\":400:405   */\n      dup2\n        /* \"#utility.yul\":389:405   */\n      swap1\n      pop\n        /* \"#utility.yul\":334:411   */\n      swap2\n      swap1\n      pop\n      jump\t// out\n        /* \"#utility.yul\":417:539   */\n    tag_40:\n        /* \"#utility.yul\":490:514   */\n      tag_50\n        /* \"#utility.yul\":508:513   */\n      dup2\n        /* \"#utility.yul\":490:514   */\n      tag_39\n      jump\t// in\n    tag_50:\n        /* \"#utility.yul\":483:488   */\n      dup2\n        /* \"#utility.yul\":480:515   */\n      eq\n        /* \"#utility.yul\":470:533   */\n      tag_51\n      jumpi\n        /* \"#utility.yul\":529:530   */\n      0x00\n        /* \"#utility.yul\":526:527   */\n      0x00\n        /* \"#utility.yul\":519:531   */\n      revert\n        /* \"#utility.yul\":470:533   */\n    tag_51:\n        /* \"#utility.yul\":417:539   */\n      pop\n      jump\t// out\n        /* \"#utility.yul\":545:684   */\n    tag_41:\n        /* \"#utility.yul\":591:596   */\n      0x00\n        /* \"#utility.yul\":629:635   */\n      dup2\n        /* \"#utility.yul\":616:636   */\n      calldataload\n        /* \"#utility.yul\":607:636   */\n      swap1\n      pop\n        /* \"#utility.yul\":645:678   */\n      tag_53\n        /* \"#utility.yul\":672:677   */\n      dup2\n        /* \"#utility.yul\":645:678   */\n      tag_40\n      jump\t// in\n    tag_53:\n        /* \"#utility.yul\":545:684   */\n      swap3\n      swap2\n      pop\n      pop\n      jump\t// out\n        /* \"#utility.yul\":690:1019   */\n    tag_8:\n        /* \"#utility.yul\":749:755   */\n      0x00\n        /* \"#utility.yul\":798:800   */\n      0x20\n        /* \"#utility.yul\":786:795   */\n      dup3\n        /* \"#utility.yul\":777:784   */\n      dup5\n        /* \"#utility.yul\":773:796   */\n      sub\n        /* \"#utility.yul\":769:801   */\n      slt\n        /* \"#utility.yul\":766:885   */\n      iszero\n      tag_55\n      jumpi\n        /* \"#utility.yul\":804:883   */\n      tag_56\n      tag_37\n      jump\t// in\n    tag_56:\n        /* \"#utility.yul\":766:885   */\n    tag_55:\n        /* \"#utility.yul\":924:925   */\n      0x00\n        /* \"#utility.yul\":949:1002   */\n      tag_57\n        /* \"#utility.yul\":994:1001   */\n      dup5\n        /* \"#utility.yul\":985:991   */\n      dup3\n        /* \"#utility.yul\":974:983   */\n      dup6\n        /* \"#utility.yul\":970:992   */\n      add\n        /* \"#utility.yul\":949:1002   */\n      tag_41\n      jump\t// in\n    tag_57:\n        /* \"#utility.yul\":939:1002   */\n      swap2\n      pop\n        /* \"#utility.yul\":895:1012   */\n      pop\n        /* \"#utility.yul\":690:1019   */\n      swap3\n      swap2\n      pop\n      pop\n      jump\t// out\n        /* \"#utility.yul\":1025:1143   */\n    tag_42:\n        /* \"#utility.yul\":1112:1136   */\n      tag_59\n        /* \"#utility.yul\":1130:1135   */\n      dup2\n        /* \"#utility.yul\":1112:1136   */\n      tag_39\n      jump\t// in\n    tag_59:\n        /* \"#utility.yul\":1107:1110   */\n      dup3\n        /* \"#utility.yul\":1100:1137   */\n      mstore\n        /* \"#utility.yul\":1025:1143   */\n      pop\n      pop\n      jump\t// out\n        /* \"#utility.yul\":1149:1371   */\n    tag_11:\n        /* \"#utility.yul\":1242:1246   */\n      0x00\n        /* \"#utility.yul\":1280:1282   */\n      0x20\n        /* \"#utility.yul\":1269:1278   */\n      dup3\n        /* \"#utility.yul\":1265:1283   */\n      add\n        /* \"#utility.yul\":1257:1283   */\n      swap1\n      pop\n        /* \"#utility.yul\":1293:1364   */\n      tag_61\n        /* \"#utility.yul\":1361:1362   */\n      0x00\n        /* \"#utility.yul\":1350:1359   */\n      dup4\n        /* \"#utility.yul\":1346:1363   */\n      add\n        /* \"#utility.yul\":1337:1343   */\n      dup5\n        /* \"#utility.yul\":1293:1364   */\n      tag_42\n      jump\t// in\n    tag_61:\n        /* \"#utility.yul\":1149:1371   */\n      swap3\n      swap2\n      pop\n      pop\n      jump\t// out\n        /* \"#utility.yul\":1377:1557   */\n    tag_43:\n        /* \"#utility.yul\":1425:1502   */\n      0x4e487b7100000000000000000000000000000000000000000000000000000000\n        /* \"#utility.yul\":1422:1423   */\n      0x00\n        /* \"#utility.yul\":1415:1503   */\n      mstore\n        /* \"#utility.yul\":1522:1526   */\n      0x11\n        /* \"#utility.yul\":1519:1520   */\n      0x04\n        /* \"#utility.yul\":1512:1527   */\n      mstore\n        /* \"#utility.yul\":1546:1550   */\n      0x24\n        /* \"#utility.yul\":1543:1544   */\n      0x00\n        /* \"#utility.yul\":1536:1551   */\n      revert\n        /* \"#utility.yul\":1563:1796   */\n    tag_23:\n        /* \"#utility.yul\":1602:1605   */\n      0x00\n        /* \"#utility.yul\":1625:1649   */\n      tag_64\n        /* \"#utility.yul\":1643:1648   */\n      dup3\n        /* \"#utility.yul\":1625:1649   */\n      tag_39\n      jump\t// in\n    tag_64:\n        /* \"#utility.yul\":1616:1649   */\n      swap2\n      pop\n        /* \"#utility.yul\":1671:1737   */\n      0xffffffffffffffffffffffffffffffffffffffffffffffffffffffffffffffff\n        /* \"#utility.yul\":1664:1669   */\n      dup3\n        /* \"#utility.yul\":1661:1738   */\n      sub\n        /* \"#utility.yul\":1658:1761   */\n      tag_65\n      jumpi\n        /* \"#utility.yul\":1741:1759   */\n      tag_66\n      tag_43\n      jump\t// in\n    tag_66:\n        /* \"#utility.yul\":1658:1761   */\n    tag_65:\n        /* \"#utility.yul\":1788:1789   */\n      0x01\n        /* \"#utility.yul\":1781:1786   */\n      dup3\n        /* \"#utility.yul\":1777:1790   */\n      add\n        /* \"#utility.yul\":1770:1790   */\n      swap1\n      pop\n        /* \"#utility.yul\":1563:1796   */\n      swap2\n      swap1\n      pop\n      jump\t// out\n\n    auxdata: 0xa2646970667358221220209e97a5d6598819e35b3e52efe694e193a2df0c333c64b32ed6db577b6616f464736f6c634300081e0033\n}\n",
				"bytecode": {
					"linkReferences": {},
					"object": "6080604052348015600e575f5ffd5b506102778061001c5f395ff3fe608060405234801561000f575f5ffd5b506004361061003f575f3560e01c80636e5009a514610043578063a0950f7114610073578063e4e05ee014610091575b5f5ffd5b61005d6004803603810190610058919061017a565b6100c1565b60405161006a91906101b4565b60405180910390f35b61007b6100f6565b60405161008891906101b4565b60405180910390f35b6100ab60048036038101906100a6919061017a565b61010e565b6040516100b891906101b4565b60405180910390f35b5f5f5f90505b828110156100f05781806100da906101fa565b92505080806100e8906101fa565b9150506100c7565b50919050565b5f5b8080610103906101fa565b9150505f6100f85790565b5f5f600190505b82811161013d578180610127906101fa565b9250508080610135906101fa565b915050610115565b50919050565b5f5ffd5b5f819050919050565b61015981610147565b8114610163575f5ffd5b50565b5f8135905061017481610150565b92915050565b5f6020828403121561018f5761018e610143565b5b5f61019c84828501610166565b91505092915050565b6101ae81610147565b82525050565b5f6020820190506101c75f8301846101a5565b92915050565b7f4e487b71000000000000000000000000000000000000000000000000000000005f52601160045260245ffd5b5f61020482610147565b91507fffffffffffffffffffffffffffffffffffffffffffffffffffffffffffffffff8203610236576102356101cd565b5b60018201905091905056fea2646970667358221220209e97a5d6598819e35b3e52efe694e193a2df0c333c64b32ed6db577b6616f464736f6c634300081e0033",
					"opcodes": "PUSH1 0x80 PUSH1 0x40 MSTORE CALLVALUE DUP1 ISZERO PUSH1 0xE JUMPI PUSH0 PUSH0 REVERT JUMPDEST POP PUSH2 0x277 DUP1 PUSH2 0x1C PUSH0 CODECOPY PUSH0 RETURN INVALID PUSH1 0x80 PUSH1 0x40 MSTORE CALLVALUE DUP1 ISZERO PUSH2 0xF JUMPI PUSH0 PUSH0 REVERT JUMPDEST POP PUSH1 0x4 CALLDATASIZE LT PUSH2 0x3F JUMPI PUSH0 CALLDATALOAD PUSH1 0xE0 SHR DUP1 PUSH4 0x6E5009A5 EQ PUSH2 0x43 JUMPI DUP1 PUSH4 0xA0950F71 EQ PUSH2 0x73 JUMPI DUP1 PUSH4 0xE4E05EE0 EQ PUSH2 0x91 JUMPI JUMPDEST PUSH0 PUSH0 REVERT JUMPDEST PUSH2 0x5D PUSH1 0x4 DUP1 CALLDATASIZE SUB DUP2 ADD SWAP1 PUSH2 0x58 SWAP2 SWAP1 PUSH2 0x17A JUMP JUMPDEST PUSH2 0xC1 JUMP JUMPDEST PUSH1 0x40 MLOAD PUSH2 0x6A SWAP2 SWAP1 PUSH2 0x1B4 JUMP JUMPDEST PUSH1 0x40 MLOAD DUP1 SWAP2 SUB SWAP1 RETURN JUMPDEST PUSH2 0x7B PUSH2 0xF6 JUMP JUMPDEST PUSH1 0x40 MLOAD PUSH2 0x88 SWAP2 SWAP1 PUSH2 0x1B4 JUMP JUMPDEST PUSH1 0x40 MLOAD DUP1 SWAP2 SUB SWAP1 RETURN JUMPDEST PUSH2 0xAB PUSH1 0x4 DUP1 CALLDATASIZE SUB DUP2 ADD SWAP1 PUSH2 0xA6 SWAP2 SWAP1 PUSH2 0x17A JUMP JUMPDEST PUSH2 0x10E JUMP JUMPDEST PUSH1 0x40 MLOAD PUSH2 0xB8 SWAP2 SWAP1 PUSH2 0x1B4 JUMP JUMPDEST PUSH1 0x40 MLOAD DUP1 SWAP2 SUB SWAP1 RETURN JUMPDEST PUSH0 PUSH0 PUSH0 SWAP1 POP JUMPDEST DUP3 DUP2 LT ISZERO PUSH2 0xF0 JUMPI DUP2 DUP1 PUSH2 0xDA SWAP1 PUSH2 0x1FA JUMP JUMPDEST SWAP3 POP POP DUP1 DUP1 PUSH2 0xE8 SWAP1 PUSH2 0x1FA JUMP JUMPDEST SWAP2 POP POP PUSH2 0xC7 JUMP JUMPDEST POP SWAP2 SWAP1 POP JUMP JUMPDEST PUSH0 JUMPDEST DUP1 DUP1 PUSH2 0x103 SWAP1 PUSH2 0x1FA JUMP JUMPDEST SWAP2 POP POP PUSH0 PUSH2 0xF8 JUMPI SWAP1 JUMP JUMPDEST PUSH0 PUSH0 PUSH1 0x1 SWAP1 POP JUMPDEST DUP3 DUP2 GT PUSH2 0x13D JUMPI DUP2 DUP1 PUSH2 0x127 SWAP1 PUSH2 0x1FA JUMP JUMPDEST SWAP3 POP POP DUP1 DUP1 PUSH2 0x135 SWAP1 PUSH2 0x1FA JUMP JUMPDEST SWAP2 POP POP PUSH2 0x115 JUMP JUMPDEST POP SWAP2 SWAP1 POP JUMP JUMPDEST PUSH0 PUSH0 REVERT JUMPDEST PUSH0 DUP2 SWAP1 POP SWAP2 SWAP1 POP JUMP JUMPDEST PUSH2 0x159 DUP2 PUSH2 0x147 JUMP JUMPDEST DUP2 EQ PUSH2 0x163 JUMPI PUSH0 PUSH0 REVERT JUMPDEST POP JUMP JUMPDEST PUSH0 DUP2 CALLDATALOAD SWAP1 POP PUSH2 0x174 DUP2 PUSH2 0x150 JUMP JUMPDEST SWAP3 SWAP2 POP POP JUMP JUMPDEST PUSH0 PUSH1 0x20 DUP3 DUP5 SUB SLT ISZERO PUSH2 0x18F JUMPI PUSH2 0x18E PUSH2 0x143 JUMP JUMPDEST JUMPDEST PUSH0 PUSH2 0x19C DUP5 DUP3 DUP6 ADD PUSH2 0x166 JUMP JUMPDEST SWAP2 POP POP SWAP3 SWAP2 POP POP JUMP JUMPDEST PUSH2 0x1AE DUP2 PUSH2 0x147 JUMP JUMPDEST DUP3 MSTORE POP POP JUMP JUMPDEST PUSH0 PUSH1 0x20 DUP3 ADD SWAP1 POP PUSH2 0x1C7 PUSH0 DUP4 ADD DUP5 PUSH2 0x1A5 JUMP JUMPDEST SWAP3 SWAP2 POP POP JUMP JUMPDEST PUSH32 0x4E487B7100000000000000000000000000000000000000000000000000000000 PUSH0 MSTORE PUSH1 0x11 PUSH1 0x4 MSTORE PUSH1 0x24 PUSH0 REVERT JUMPDEST PUSH0 PUSH2 0x204 DUP3 PUSH2 0x147 JUMP JUMPDEST SWAP2 POP PUSH32 0xFFFFFFFFFFFFFFFFFFFFFFFFFFFFFFFFFFFFFFFFFFFFFFFFFFFFFFFFFFFFFFFF DUP3 SUB PUSH2 0x236 JUMPI PUSH2 0x235 PUSH2 0x1CD JUMP JUMPDEST JUMPDEST PUSH1 0x1 DUP3 ADD SWAP1 POP SWAP2 SWAP1 POP JUMP INVALID LOG2 PUSH5 0x6970667358 0x22 SLT KECCAK256 KECCAK256 SWAP15 SWAP8 0xA5 0xD6 MSIZE DUP9 NOT CALLF 0x5B3E MSTORE 0xEF DUPN 0x94 RJUMPI 0x93A2 0xDF 0xC CALLER EXTCODECOPY PUSH5 0xB32ED6DB57 PUSH28 0x6616F464736F6C634300081E00330000000000000000000000000000 "
				},
				"gasEstimates": {
					"creation": {
						"codeDepositCost": "126200",
						"executionCost": "169",
						"totalCost": "126369"
					},
					"external": {
						"countWhile(uint256)": "infinite",
						"runOnce()": "infinite",
						"sumFor(uint256)": "infinite"
					}
				},
				"methodIdentifiers": {
					"countWhile(uint256)": "6e5009a5",
					"runOnce()": "a0950f71",
					"sumFor(uint256)": "e4e05ee0"
				}
			},
			"storageLayout": {
				"storage": [],
				"types": null
			},
			"userdoc": {
				"kind": "user",
				"methods": {},
				"version": 1
			}
		}
	}
}