{
	"contracts/Return.sol": {
		"Return": {
			"abi": [
				{
					"inputs": [],
					"name": "multipleReturns",
					"outputs": [
						{
							"internalType": "uint256",
							"name": "",
							"type": "uint256"
						},
						{
							"internalType": "uint256",
							"name": "",
							"type": "uint256"
						},
						{
							"internalType": "string",
							"name": "",
							"type": "string"
						}
					],
					"stateMutability": "pure",
					"type": "function"
				}
			],
			"devdoc": {
				"kind": "dev",
				"methods": {},
				"version": 1
			},
			"evm": {
				"assembly": "    /* \"contracts/Return.sol\":60:342  contract Return {... */\n  mstore(0x40, 0x80)\n  callvalue\n  dup1\n  iszero\n  tag_1\n  jumpi\n  revert(0x00, 0x00)\ntag_1:\n  pop\n  dataSize(sub_0)\n  dup1\n  dataOffset(sub_0)\n  0x00\n  codecopy\n  0x00\n  return\nstop\n\nsub_0: assembly {\n        /* \"contracts/Return.sol\":60:342  contract Return {... */\n      mstore(0x40, 0x80)\n      callvalue\n      dup1\n      iszero\n      tag_1\n      jumpi\n      revert(0x00, 0x00)\n    tag_1:\n      pop\n      jumpi(tag_2, lt(calldatasize, 0x04))\n      shr(0xe0, calldataload(0x00))\n      dup1\n      0xd40a8f12\n      eq\n      tag_3\n      jumpi\n    tag_2:\n      revert(0x00, 0x00)\n        /* \"contracts/Return.sol\":83:339  function multipleReturns() public pure returns (uint, uint, string memory){... */\n    tag_3:\n      tag_4\n      tag_5\n      jump\t// in\n    tag_4:\n      mload(0x40)\n      tag_6\n      swap4\n      swap3\n      swap2\n      swap1\n      tag_7\n      jump\t// in\n    tag_6:\n      mload(0x40)\n      dup1\n      swap2\n      sub\n      swap1\n      return\n    tag_5:\n        /* \"contracts/Return.sol\":131:135  uint */\n      0x00\n        /* \"contracts/Return.sol\":137:141  uint */\n      0x00\n        /* \"contracts/Return.sol\":143:156  string memory */\n      0x60\n        /* \"contracts/Return.sol\":168:179  uint numOne */\n      0x00\n        /* \"contracts/Return.sol\":182:184  10 */\n      0x0a\n        /* \"contracts/Return.sol\":168:184  uint numOne = 10 */\n      swap1\n      pop\n        /* \"contracts/Return.sol\":220:231  uint numTwo */\n      0x00\n        /* \"contracts/Return.sol\":234:236  20 */\n      0x14\n        /* \"contracts/Return.sol\":220:236  uint numTwo = 20 */\n      swap1\n      pop\n        /* \"contracts/Return.sol\":247:269  string memory theHello */\n      0x00\n        /* \"contracts/Return.sol\":247:285  string memory theHello = \"Hello World\" */\n      mload(0x40)\n      dup1\n      0x40\n      add\n      0x40\n      mstore\n      dup1\n      0x0b\n      dup2\n      mstore\n      0x20\n      add\n      0x48656c6c6f20576f726c64000000000000000000000000000000000000000000\n      dup2\n      mstore\n      pop\n      swap1\n      pop\n        /* \"contracts/Return.sol\":306:312  numOne */\n      dup3\n        /* \"contracts/Return.sol\":314:320  numTwo */\n      dup3\n        /* \"contracts/Return.sol\":322:330  theHello */\n      dup3\n        /* \"contracts/Return.sol\":298:331  return (numOne, numTwo, theHello) */\n      swap6\n      pop\n      swap6\n      pop\n      swap6\n      pop\n      pop\n      pop\n      pop\n        /* \"contracts/Return.sol\":83:339  function multipleReturns() public pure returns (uint, uint, string memory){... */\n      swap1\n      swap2\n      swap3\n      jump\t// out\n        /* \"#utility.yul\":7:84   */\n    tag_9:\n        /* \"#utility.yul\":44:51   */\n      0x00\n        /* \"#utility.yul\":73:78   */\n      dup2\n        /* \"#utility.yul\":62:78   */\n      swap1\n      pop\n        /* \"#utility.yul\":7:84   */\n      swap2\n      swap1\n      pop\n      jump\t// out\n        /* \"#utility.yul\":90:208   */\n    tag_10:\n        /* \"#utility.yul\":177:201   */\n      tag_19\n        /* \"#utility.yul\":195:200   */\n      dup2\n        /* \"#utility.yul\":177:201   */\n      tag_9\n      jump\t// in\n    tag_19:\n        /* \"#utility.yul\":172:175   */\n      dup3\n        /* \"#utility.yul\":165:202   */\n      mstore\n        /* \"#utility.yul\":90:208   */\n      pop\n      pop\n      jump\t// out\n        /* \"#utility.yul\":214:313   */\n    tag_11:\n        /* \"#utility.yul\":266:272   */\n      0x00\n        /* \"#utility.yul\":300:305   */\n      dup2\n        /* \"#utility.yul\":294:306   */\n      mload\n        /* \"#utility.yul\":284:306   */\n      swap1\n      pop\n        /* \"#utility.yul\":214:313   */\n      swap2\n      swap1\n      pop\n      jump\t// out\n        /* \"#utility.yul\":319:488   */\n    tag_12:\n        /* \"#utility.yul\":403:414   */\n      0x00\n        /* \"#utility.yul\":437:443   */\n      dup3\n        /* \"#utility.yul\":432:435   */\n      dup3\n        /* \"#utility.yul\":425:444   */\n      mstore\n        /* \"#utility.yul\":477:481   */\n      0x20\n        /* \"#utility.yul\":472:475   */\n      dup3\n        /* \"#utility.yul\":468:482   */\n      add\n        /* \"#utility.yul\":453:482   */\n      swap1\n      pop\n        /* \"#utility.yul\":319:488   */\n      swap3\n      swap2\n      pop\n      pop\n      jump\t// out\n        /* \"#utility.yul\":494:633   */\n    tag_13:\n        /* \"#utility.yul\":583:589   */\n      dup3\n        /* \"#utility.yul\":578:581   */\n      dup2\n        /* \"#utility.yul\":573:576   */\n      dup4\n        /* \"#utility.yul\":567:590   */\n      mcopy\n        /* \"#utility.yul\":624:625   */\n      0x00\n        /* \"#utility.yul\":615:621   */\n      dup4\n        /* \"#utility.yul\":610:613   */\n      dup4\n        /* \"#utility.yul\":606:622   */\n      add\n        /* \"#utility.yul\":599:626   */\n      mstore\n        /* \"#utility.yul\":494:633   */\n      pop\n      pop\n      pop\n      jump\t// out\n        /* \"#utility.yul\":639:741   */\n    tag_14:\n        /* \"#utility.yul\":680:686   */\n      0x00\n        /* \"#utility.yul\":731:733   */\n      0x1f\n        /* \"#utility.yul\":727:734   */\n      not\n        /* \"#utility.yul\":722:724   */\n      0x1f\n        /* \"#utility.yul\":715:720   */\n      dup4\n        /* \"#utility.yul\":711:725   */\n      add\n        /* \"#utility.yul\":707:735   */\n      and\n        /* \"#utility.yul\":697:735   */\n      swap1\n      pop\n        /* \"#utility.yul\":639:741   */\n      swap2\n      swap1\n      pop\n      jump\t// out\n        /* \"#utility.yul\":747:1124   */\n    tag_15:\n        /* \"#utility.yul\":835:838   */\n      0x00\n        /* \"#utility.yul\":863:902   */\n      tag_25\n        /* \"#utility.yul\":896:901   */\n      dup3\n        /* \"#utility.yul\":863:902   */\n      tag_11\n      jump\t// in\n    tag_25:\n        /* \"#utility.yul\":918:989   */\n      tag_26\n        /* \"#utility.yul\":982:988   */\n      dup2\n        /* \"#utility.yul\":977:980   */\n      dup6\n        /* \"#utility.yul\":918:989   */\n      tag_12\n      jump\t// in\n    tag_26:\n        /* \"#utility.yul\":911:989   */\n      swap4\n      pop\n        /* \"#utility.yul\":998:1063   */\n      tag_27\n        /* \"#utility.yul\":1056:1062   */\n      dup2\n        /* \"#utility.yul\":1051:1054   */\n      dup6\n        /* \"#utility.yul\":1044:1048   */\n      0x20\n        /* \"#utility.yul\":1037:1042   */\n      dup7\n        /* \"#utility.yul\":1033:1049   */\n      add\n        /* \"#utility.yul\":998:1063   */\n      tag_13\n      jump\t// in\n    tag_27:\n        /* \"#utility.yul\":1088:1117   */\n      tag_28\n        /* \"#utility.yul\":1110:1116   */\n      dup2\n        /* \"#utility.yul\":1088:1117   */\n      tag_14\n      jump\t// in\n    tag_28:\n        /* \"#utility.yul\":1083:1086   */\n      dup5\n        /* \"#utility.yul\":1079:1118   */\n      add\n        /* \"#utility.yul\":1072:1118   */\n      swap2\n      pop\n        /* \"#utility.yul\":839:1124   */\n      pop\n        /* \"#utility.yul\":747:1124   */\n      swap3\n      swap2\n      pop\n      pop\n      jump\t// out\n        /* \"#utility.yul\":1130:1663   */\n    tag_7:\n        /* \"#utility.yul\":1299:1303   */\n      0x00\n        /* \"#utility.yul\":1337:1339   */\n      0x60\n        /* \"#utility.yul\":1326:1335   */\n      dup3\n        /* \"#utility.yul\":1322:1340   */\n      add\n        /* \"#utility.yul\":1314:1340   */\n      swap1\n      pop\n        /* \"#utility.yul\":1350:1421   */\n      tag_30\n        /* \"#utility.yul\":1418:1419   */\n      0x00\n        /* \"#utility.yul\":1407:1416   */\n      dup4\n        /* \"#utility.yul\":1403:1420   */\n      add\n        /* \"#utility.yul\":1394:1400   */\n      dup7\n        /* \"#utility.yul\":1350:1421   */\n      tag_10\n      jump\t// in\n    tag_30:\n        /* \"#utility.yul\":1431:1503   */\n      tag_31\n        /* \"#utility.yul\":1499:1501   */\n      0x20\n        /* \"#utility.yul\":1488:1497   */\n      dup4\n        /* \"#utility.yul\":1484:1502   */\n      add\n        /* \"#utility.yul\":1475:1481   */\n      dup6\n        /* \"#utility.yul\":1431:1503   */\n      tag_10\n      jump\t// in\n    tag_31:\n        /* \"#utility.yul\":1550:1559   */\n      dup2\n        /* \"#utility.yul\":1544:1548   */\n      dup2\n        /* \"#utility.yul\":1540:1560   */\n      sub\n        /* \"#utility.yul\":1535:1537   */\n      0x40\n        /* \"#utility.yul\":1524:1533   */\n      dup4\n        /* \"#utility.yul\":1520:1538   */\n      add\n        /* \"#utility.yul\":1513:1561   */\n      mstore\n        /* \"#utility.yul\":1578:1656   */\n      tag_32\n        /* \"#utility.yul\":1651:1655   */\n      dup2\n        /* \"#utility.yul\":1642:1648   */\n      dup5\n        /* \"#utility.yul\":1578:1656   */\n      tag_15\n      jump\t// in\n    tag_32:\n        /* \"#utility.yul\":1570:1656   */\n      swap1\n      pop\n        /* \"#utility.yul\":1130:1663   */\n      swap5\n      swap4\n      pop\n      pop\n      pop\n      pop\n      jump\t// out\n\n    auxdata: 0xa2646970667358221220512d73044ef400999258517fdec83acafe510ee26a411dc4731e14f45297849364736f6c634300081e0033\n}\n",
				"bytecode": {
					"linkReferences": {},
					"object": "6080604052348015600e575f5ffd5b5061019f8061001c5f395ff3fe608060405234801561000f575f5ffd5b5060043610610029575f3560e01c8063d40a8f121461002d575b5f5ffd5b61003561004d565b6040516100449392919061012d565b60405180910390f35b5f5f60605f600a90505f601490505f6040518060400160405280600b81526020017f48656c6c6f20576f726c640000000000000000000000000000000000000000008152509050828282955095509550505050909192565b5f819050919050565b6100b7816100a5565b82525050565b5f81519050919050565b5f82825260208201905092915050565b8281835e5f83830152505050565b5f601f19601f8301169050919050565b5f6100ff826100bd565b61010981856100c7565b93506101198185602086016100d7565b610122816100e5565b840191505092915050565b5f6060820190506101405f8301866100ae565b61014d60208301856100ae565b818103604083015261015f81846100f5565b905094935050505056fea2646970667358221220512d73044ef400999258517fdec83acafe510ee26a411dc4731e14f45297849364736f6c634300081e0033",
					"opcodes": "PUSH1 0x80 PUSH1 0x40 MSTORE CALLVALUE DUP1 ISZERO PUSH1 0xE JUMPI PUSH0 PUSH0 REVERT JUMPDEST POP PUSH2 0x19F DUP1 PUSH2 0x1C PUSH0 CODECOPY PUSH0 RETURN INVALID PUSH1 0x80 PUSH1 0x40 MSTORE CALLVALUE DUP1 ISZERO PUSH2 0xF JUMPI PUSH0 PUSH0 REVERT JUMPDEST POP PUSH1 0x4 CALLDATASIZE LT PUSH2 0x29 JUMPI PUSH0 CALLDATALOAD PUSH1 0xE0 SHR DUP1 PUSH4 0xD40A8F12 EQ PUSH2 0x2D JUMPI JUMPDEST PUSH0 PUSH0 REVERT JUMPDEST PUSH2 0x35 PUSH2 0x4D JUMP JUMPDEST PUSH1 0x40 MLOAD PUSH2 0x44 SWAP4 SWAP3 SWAP2 SWAP1 PUSH2 0x12D JUMP JUMPDEST PUSH1 0x40 MLOAD DUP1 SWAP2 SUB SWAP1 RETURN JUMPDEST PUSH0 PUSH0 PUSH1 0x60 PUSH0 PUSH1 0xA SWAP1 POP PUSH0 PUSH1 0x14 SWAP1 POP PUSH0 PUSH1 0x40 MLOAD DUP1 PUSH1 0x40 ADD PUSH1 0x40 MSTORE DUP1 PUSH1 0xB DUP2 MSTORE PUSH1 0x20 ADD PUSH32 0x48656C6C6F20576F726C64000000000000000000000000000000000000000000 DUP2 MSTORE POP SWAP1 POP DUP3 DUP3 DUP3 SWAP6 POP SWAP6 POP SWAP6 POP POP POP POP SWAP1 SWAP2 SWAP3 JUMP JUMPDEST PUSH0 DUP2 SWAP1 POP SWAP2 SWAP1 POP JUMP JUMPDEST PUSH2 0xB7 DUP2 PUSH2 0xA5 JUMP JUMPDEST DUP3 MSTORE POP POP JUMP JUMPDEST PUSH0 DUP2 MLOAD SWAP1 POP SWAP2 SWAP1 POP JUMP JUMPDEST PUSH0 DUP3 DUP3 MSTORE PUSH1 0x20 DUP3 ADD SWAP1 POP SWAP3 SWAP2 POP POP JUMP JUMPDEST DUP3 DUP2 DUP4 MCOPY PUSH0 DUP4 DUP4 ADD MSTORE POP POP POP JUMP JUMPDEST PUSH0 PUSH1 0x1F NOT PUSH1 0x1F DUP4 ADD AND SWAP1 POP SWAP2 SWAP1 POP JUMP JUMPDEST PUSH0 PUSH2 0xFF DUP3 PUSH2 0xBD JUMP JUMPDEST PUSH2 0x109 DUP2 DUP6 PUSH2 0xC7 JUMP JUMPDEST SWAP4 POP PUSH2 0x119 DUP2 DUP6 PUSH1 0x20 DUP7 ADD PUSH2 0xD7 JUMP JUMPDEST PUSH2 0x122 DUP2 PUSH2 0xE5 JUMP JUMPDEST DUP5 ADD SWAP2 POP POP SWAP3 SWAP2 POP POP JUMP JUMPDEST PUSH0 PUSH1 0x60 DUP3 ADD SWAP1 POP PUSH2 0x140 PUSH0 DUP4 ADD DUP7 PUSH2 0xAE JUMP JUMPDEST PUSH2 0x14D PUSH1 0x20 DUP4 ADD DUP6 PUSH2 0xAE JUMP JUMPDEST DUP2 DUP2 SUB PUSH1 0x40 DUP4 ADD MSTORE PUSH2 0x15F DUP2 DUP5 PUSH2 0xF5 JUMP JUMPDEST SWAP1 POP SWAP5 SWAP4 POP POP POP POP JUMP INVALID LOG2 PUSH5 0x6970667358 0x22 SLT KECCAK256 MLOAD 0x2D PUSH20 0x44EF400999258517FDEC83ACAFE510EE26A411D 0xC4 PUSH20 0x1E14F45297849364736F6C634300081E00330000 "
				},
				"gasEstimates": {
					"creation": {
						"codeDepositCost": "83000",
						"executionCost": "127",
						"totalCost": "83127"
					},
					"external": {
						"multipleReturns()": "infinite"
					}
				},
				"methodIdentifiers": {
					"multipleReturns()": "d40a8f12"
				}
			},
			"storageLayout": {
				"storage": [],
				"types": null
			},
			"userdoc": {
				"kind": "user",
				"methods": {},
				"version": 1
			}
		}
	}
}