{
	"contracts/StudentRegistry.sol": {
		"StudentRegistry": {
			"abi": [
				{
					"anonymous": false,
					"inputs": [
						{
							"indexed": false,
							"internalType": "uint256",
							"name": "studentId",
							"type": "uint256"
						},
						{
							"indexed": false,
							"internalType": "string",
							"name": "name",
							"type": "string"
						},
						{
							"indexed": false,
							"internalType": "address",
							"name": "wallet",
							"type": "address"
						}
					],
					"name": "StudentRegistered",
					"type": "event"
				},
				{
					"inputs": [
						{
							"internalType": "uint256",
							"name": "studentId",
							"type": "uint256"
						},
						{
							"internalType": "string",
							"name": "name",
							"type": "string"
						},
						{
							"internalType": "address",
							"name": "wallet",
							"type": "address"
						}
					],
					"name": "registerStudent",
					"outputs": [],
					"stateMutability": "nonpayable",
					"type": "function"
				},
				{
					"inputs": [
						{
							"internalType": "uint256",
							"name": "",
							"type": "uint256"
						}
					],
					"name": "studentName",
					"outputs": [
						{
							"internalType": "string",
							"name": "",
							"type": "string"
						}
					],
					"stateMutability": "view",
					"type": "function"
				}
			],
			"devdoc": {
				"kind": "dev",
				"methods": {},
				"version": 1
			},
			"evm": {
				"assembly": "    /* \"contracts/StudentRegistry.sol\":61:417  contract StudentRegistry {... */\n  mstore(0x40, 0x80)\n  callvalue\n  dup1\n  iszero\n  tag_1\n  jumpi\n  revert(0x00, 0x00)\ntag_1:\n  pop\n  dataSize(sub_0)\n  dup1\n  dataOffset(sub_0)\n  0x00\n  codecopy\n  0x00\n  return\nstop\n\nsub_0: assembly {\n        /* \"contracts/StudentRegistry.sol\":61:417  contract StudentRegistry {... */\n      mstore(0x40, 0x80)\n      callvalue\n      dup1\n      iszero\n      tag_1\n      jumpi\n      revert(0x00, 0x00)\n    tag_1:\n      pop\n      jumpi(tag_2, lt(calldatasize, 0x04))\n      shr(0xe0, calldataload(0x00))\n      dup1\n      0xa031fc56\n      eq\n      tag_3\n      jumpi\n      dup1\n      0xaf331f79\n      eq\n      tag_4\n      jumpi\n    tag_2:\n      revert(0x00, 0x00)\n        /* \"contracts/StudentRegistry.sol\":170:213  mapping (uint => string) public studentName */\n    tag_3:\n      tag_5\n      0x04\n      dup1\n      calldatasize\n      sub\n      dup2\n      add\n      swap1\n      tag_6\n      swap2\n      swap1\n      tag_7\n      jump\t// in\n    tag_6:\n      tag_8\n      jump\t// in\n    tag_5:\n      mload(0x40)\n      tag_9\n      swap2\n      swap1\n      tag_10\n      jump\t// in\n    tag_9:\n      mload(0x40)\n      dup1\n      swap2\n      sub\n      swap1\n      return\n        /* \"contracts/StudentRegistry.sol\":222:414  function registerStudent(uint studentId, string memory name, address wallet) external {... */\n    tag_4:\n      tag_11\n      0x04\n      dup1\n      calldatasize\n      sub\n      dup2\n      add\n      swap1\n      tag_12\n      swap2\n      swap1\n      tag_13\n      jump\t// in\n    tag_12:\n      tag_14\n      jump\t// in\n    tag_11:\n      stop\n        /* \"contracts/StudentRegistry.sol\":170:213  mapping (uint => string) public studentName */\n    tag_8:\n      mstore(0x20, 0x00)\n      dup1\n      0x00\n      mstore\n      keccak256(0x00, 0x40)\n      0x00\n      swap2\n      pop\n      swap1\n      pop\n      dup1\n      sload\n      tag_15\n      swap1\n      tag_16\n      jump\t// in\n    tag_15:\n      dup1\n      0x1f\n      add\n      0x20\n      dup1\n      swap2\n      div\n      mul\n      0x20\n      add\n      mload(0x40)\n      swap1\n      dup2\n      add\n      0x40\n      mstore\n      dup1\n      swap3\n      swap2\n      swap1\n      dup2\n      dup2\n      mstore\n      0x20\n      add\n      dup3\n      dup1\n      sload\n      tag_17\n      swap1\n      tag_16\n      jump\t// in\n    tag_17:\n      dup1\n      iszero\n      tag_18\n      jumpi\n      dup1\n      0x1f\n      lt\n      tag_19\n      jumpi\n      0x0100\n      dup1\n      dup4\n      sload\n      div\n      mul\n      dup4\n      mstore\n      swap2\n      0x20\n      add\n      swap2\n      jump(tag_18)\n    tag_19:\n      dup3\n      add\n      swap2\n      swap1\n      0x00\n      mstore\n      keccak256(0x00, 0x20)\n      swap1\n    tag_20:\n      dup2\n      sload\n      dup2\n      mstore\n      swap1\n      0x01\n      add\n      swap1\n      0x20\n      add\n      dup1\n      dup4\n      gt\n      tag_20\n      jumpi\n      dup3\n      swap1\n      sub\n      0x1f\n      and\n      dup3\n      add\n      swap2\n    tag_18:\n      pop\n      pop\n      pop\n      pop\n      pop\n      dup2\n      jump\t// out\n        /* \"contracts/StudentRegistry.sol\":222:414  function registerStudent(uint studentId, string memory name, address wallet) external {... */\n    tag_14:\n        /* \"contracts/StudentRegistry.sol\":344:348  name */\n      dup2\n        /* \"contracts/StudentRegistry.sol\":319:330  studentName */\n      0x00\n        /* \"contracts/StudentRegistry.sol\":319:341  studentName[studentId] */\n      0x00\n        /* \"contracts/StudentRegistry.sol\":331:340  studentId */\n      dup6\n        /* \"contracts/StudentRegistry.sol\":319:341  studentName[studentId] */\n      dup2\n      mstore\n      0x20\n      add\n      swap1\n      dup2\n      mstore\n      0x20\n      add\n      0x00\n      keccak256\n        /* \"contracts/StudentRegistry.sol\":319:348  studentName[studentId] = name */\n      swap1\n      dup2\n      tag_22\n      swap2\n      swap1\n      tag_23\n      jump\t// in\n    tag_22:\n      pop\n        /* \"contracts/StudentRegistry.sol\":364:406  StudentRegistered(studentId, name, wallet) */\n      0xe7355a114c82d9220dc5a07dd1d8da1d12753cb8320d9059ddb4cdd2145a1e\n        /* \"contracts/StudentRegistry.sol\":382:391  studentId */\n      dup4\n        /* \"contracts/StudentRegistry.sol\":393:397  name */\n      dup4\n        /* \"contracts/StudentRegistry.sol\":399:405  wallet */\n      dup4\n        /* \"contracts/StudentRegistry.sol\":364:406  StudentRegistered(studentId, name, wallet) */\n      mload(0x40)\n      tag_24\n      swap4\n      swap3\n      swap2\n      swap1\n      tag_25\n      jump\t// in\n    tag_24:\n      mload(0x40)\n      dup1\n      swap2\n      sub\n      swap1\n      log1\n        /* \"contracts/StudentRegistry.sol\":222:414  function registerStudent(uint studentId, string memory name, address wallet) external {... */\n      pop\n      pop\n      pop\n      jump\t// out\n        /* \"#utility.yul\":7:82   */\n    tag_26:\n        /* \"#utility.yul\":40:46   */\n      0x00\n        /* \"#utility.yul\":73:75   */\n      0x40\n        /* \"#utility.yul\":67:76   */\n      mload\n        /* \"#utility.yul\":57:76   */\n      swap1\n      pop\n        /* \"#utility.yul\":7:82   */\n      swap1\n      jump\t// out\n        /* \"#utility.yul\":88:205   */\n    tag_27:\n        /* \"#utility.yul\":197:198   */\n      0x00\n        /* \"#utility.yul\":194:195   */\n      0x00\n        /* \"#utility.yul\":187:199   */\n      revert\n        /* \"#utility.yul\":211:328   */\n    tag_28:\n        /* \"#utility.yul\":320:321   */\n      0x00\n        /* \"#utility.yul\":317:318   */\n      0x00\n        /* \"#utility.yul\":310:322   */\n      revert\n        /* \"#utility.yul\":334:411   */\n    tag_29:\n        /* \"#utility.yul\":371:378   */\n      0x00\n        /* \"#utility.yul\":400:405   */\n      dup2\n        /* \"#utility.yul\":389:405   */\n      swap1\n      pop\n        /* \"#utility.yul\":334:411   */\n      swap2\n      swap1\n      pop\n      jump\t// out\n        /* \"#utility.yul\":417:539   */\n    tag_30:\n        /* \"#utility.yul\":490:514   */\n      tag_74\n        /* \"#utility.yul\":508:513   */\n      dup2\n        /* \"#utility.yul\":490:514   */\n      tag_29\n      jump\t// in\n    tag_74:\n        /* \"#utility.yul\":483:488   */\n      dup2\n        /* \"#utility.yul\":480:515   */\n      eq\n        /* \"#utility.yul\":470:533   */\n      tag_75\n      jumpi\n        /* \"#utility.yul\":529:530   */\n      0x00\n        /* \"#utility.yul\":526:527   */\n      0x00\n        /* \"#utility.yul\":519:531   */\n      revert\n        /* \"#utility.yul\":470:533   */\n    tag_75:\n        /* \"#utility.yul\":417:539   */\n      pop\n      jump\t// out\n        /* \"#utility.yul\":545:684   */\n    tag_31:\n        /* \"#utility.yul\":591:596   */\n      0x00\n        /* \"#utility.yul\":629:635   */\n      dup2\n        /* \"#utility.yul\":616:636   */\n      calldataload\n        /* \"#utility.yul\":607:636   */\n      swap1\n      pop\n        /* \"#utility.yul\":645:678   */\n      tag_77\n        /* \"#utility.yul\":672:677   */\n      dup2\n        /* \"#utility.yul\":645:678   */\n      tag_30\n      jump\t// in\n    tag_77:\n        /* \"#utility.yul\":545:684   */\n      swap3\n      swap2\n      pop\n      pop\n      jump\t// out\n        /* \"#utility.yul\":690:1019   */\n    tag_7:\n        /* \"#utility.yul\":749:755   */\n      0x00\n        /* \"#utility.yul\":798:800   */\n      0x20\n        /* \"#utility.yul\":786:795   */\n      dup3\n        /* \"#utility.yul\":777:784   */\n      dup5\n        /* \"#utility.yul\":773:796   */\n      sub\n        /* \"#utility.yul\":769:801   */\n      slt\n        /* \"#utility.yul\":766:885   */\n      iszero\n      tag_79\n      jumpi\n        /* \"#utility.yul\":804:883   */\n      tag_80\n      tag_27\n      jump\t// in\n    tag_80:\n        /* \"#utility.yul\":766:885   */\n    tag_79:\n        /* \"#utility.yul\":924:925   */\n      0x00\n        /* \"#utility.yul\":949:1002   */\n      tag_81\n        /* \"#utility.yul\":994:1001   */\n      dup5\n        /* \"#utility.yul\":985:991   */\n      dup3\n        /* \"#utility.yul\":974:983   */\n      dup6\n        /* \"#utility.yul\":970:992   */\n      add\n        /* \"#utility.yul\":949:1002   */\n      tag_31\n      jump\t// in\n    tag_81:\n        /* \"#utility.yul\":939:1002   */\n      swap2\n      pop\n        /* \"#utility.yul\":895:1012   */\n      pop\n        /* \"#utility.yul\":690:1019   */\n      swap3\n      swap2\n      pop\n      pop\n      jump\t// out\n        /* \"#utility.yul\":1025:1124   */\n    tag_32:\n        /* \"#utility.yul\":1077:1083   */\n      0x00\n        /* \"#utility.yul\":1111:1116   */\n      dup2\n        /* \"#utility.yul\":1105:1117   */\n      mload\n        /* \"#utility.yul\":1095:1117   */\n      swap1\n      pop\n        /* \"#utility.yul\":1025:1124   */\n      swap2\n      swap1\n      pop\n      jump\t// out\n        /* \"#utility.yul\":1130:1299   */\n    tag_33:\n        /* \"#utility.yul\":1214:1225   */\n      0x00\n        /* \"#utility.yul\":1248:1254   */\n      dup3\n        /* \"#utility.yul\":1243:1246   */\n      dup3\n        /* \"#utility.yul\":1236:1255   */\n      mstore\n        /* \"#utility.yul\":1288:1292   */\n      0x20\n        /* \"#utility.yul\":1283:1286   */\n      dup3\n        /* \"#utility.yul\":1279:1293   */\n      add\n        /* \"#utility.yul\":1264:1293   */\n      swap1\n      pop\n        /* \"#utility.yul\":1130:1299   */\n      swap3\n      swap2\n      pop\n      pop\n      jump\t// out\n        /* \"#utility.yul\":1305:1444   */\n    tag_34:\n        /* \"#utility.yul\":1394:1400   */\n      dup3\n        /* \"#utility.yul\":1389:1392   */\n      dup2\n        /* \"#utility.yul\":1384:1387   */\n      dup4\n        /* \"#utility.yul\":1378:1401   */\n      mcopy\n        /* \"#utility.yul\":1435:1436   */\n      0x00\n        /* \"#utility.yul\":1426:1432   */\n      dup4\n        /* \"#utility.yul\":1421:1424   */\n      dup4\n        /* \"#utility.yul\":1417:1433   */\n      add\n        /* \"#utility.yul\":1410:1437   */\n      mstore\n        /* \"#utility.yul\":1305:1444   */\n      pop\n      pop\n      pop\n      jump\t// out\n        /* \"#utility.yul\":1450:1552   */\n    tag_35:\n        /* \"#utility.yul\":1491:1497   */\n      0x00\n        /* \"#utility.yul\":1542:1544   */\n      0x1f\n        /* \"#utility.yul\":1538:1545   */\n      not\n        /* \"#utility.yul\":1533:1535   */\n      0x1f\n        /* \"#utility.yul\":1526:1531   */\n      dup4\n        /* \"#utility.yul\":1522:1536   */\n      add\n        /* \"#utility.yul\":1518:1546   */\n      and\n        /* \"#utility.yul\":1508:1546   */\n      swap1\n      pop\n        /* \"#utility.yul\":1450:1552   */\n      swap2\n      swap1\n      pop\n      jump\t// out\n        /* \"#utility.yul\":1558:1935   */\n    tag_36:\n        /* \"#utility.yul\":1646:1649   */\n      0x00\n        /* \"#utility.yul\":1674:1713   */\n      tag_87\n        /* \"#utility.yul\":1707:1712   */\n      dup3\n        /* \"#utility.yul\":1674:1713   */\n      tag_32\n      jump\t// in\n    tag_87:\n        /* \"#utility.yul\":1729:1800   */\n      tag_88\n        /* \"#utility.yul\":1793:1799   */\n      dup2\n        /* \"#utility.yul\":1788:1791   */\n      dup6\n        /* \"#utility.yul\":1729:1800   */\n      tag_33\n      jump\t// in\n    tag_88:\n        /* \"#utility.yul\":1722:1800   */\n      swap4\n      pop\n        /* \"#utility.yul\":1809:1874   */\n      tag_89\n        /* \"#utility.yul\":1867:1873   */\n      dup2\n        /* \"#utility.yul\":1862:1865   */\n      dup6\n        /* \"#utility.yul\":1855:1859   */\n      0x20\n        /* \"#utility.yul\":1848:1853   */\n      dup7\n        /* \"#utility.yul\":1844:1860   */\n      add\n        /* \"#utility.yul\":1809:1874   */\n      tag_34\n      jump\t// in\n    tag_89:\n        /* \"#utility.yul\":1899:1928   */\n      tag_90\n        /* \"#utility.yul\":1921:1927   */\n      dup2\n        /* \"#utility.yul\":1899:1928   */\n      tag_35\n      jump\t// in\n    tag_90:\n        /* \"#utility.yul\":1894:1897   */\n      dup5\n        /* \"#utility.yul\":1890:1929   */\n      add\n        /* \"#utility.yul\":1883:1929   */\n      swap2\n      pop\n        /* \"#utility.yul\":1650:1935   */\n      pop\n        /* \"#utility.yul\":1558:1935   */\n      swap3\n      swap2\n      pop\n      pop\n      jump\t// out\n        /* \"#utility.yul\":1941:2254   */\n    tag_10:\n        /* \"#utility.yul\":2054:2058   */\n      0x00\n        /* \"#utility.yul\":2092:2094   */\n      0x20\n        /* \"#utility.yul\":2081:2090   */\n      dup3\n        /* \"#utility.yul\":2077:2095   */\n      add\n        /* \"#utility.yul\":2069:2095   */\n      swap1\n      pop\n        /* \"#utility.yul\":2141:2150   */\n      dup2\n        /* \"#utility.yul\":2135:2139   */\n      dup2\n        /* \"#utility.yul\":2131:2151   */\n      sub\n        /* \"#utility.yul\":2127:2128   */\n      0x00\n        /* \"#utility.yul\":2116:2125   */\n      dup4\n        /* \"#utility.yul\":2112:2129   */\n      add\n        /* \"#utility.yul\":2105:2152   */\n      mstore\n        /* \"#utility.yul\":2169:2247   */\n      tag_92\n        /* \"#utility.yul\":2242:2246   */\n      dup2\n        /* \"#utility.yul\":2233:2239   */\n      dup5\n        /* \"#utility.yul\":2169:2247   */\n      tag_36\n      jump\t// in\n    tag_92:\n        /* \"#utility.yul\":2161:2247   */\n      swap1\n      pop\n        /* \"#utility.yul\":1941:2254   */\n      swap3\n      swap2\n      pop\n      pop\n      jump\t// out\n        /* \"#utility.yul\":2260:2377   */\n    tag_37:\n        /* \"#utility.yul\":2369:2370   */\n      0x00\n        /* \"#utility.yul\":2366:2367   */\n      0x00\n        /* \"#utility.yul\":2359:2371   */\n      revert\n        /* \"#utility.yul\":2383:2500   */\n    tag_38:\n        /* \"#utility.yul\":2492:2493   */\n      0x00\n        /* \"#utility.yul\":2489:2490   */\n      0x00\n        /* \"#utility.yul\":2482:2494   */\n      revert\n        /* \"#utility.yul\":2506:2686   */\n    tag_39:\n        /* \"#utility.yul\":2554:2631   */\n      0x4e487b7100000000000000000000000000000000000000000000000000000000\n        /* \"#utility.yul\":2551:2552   */\n      0x00\n        /* \"#utility.yul\":2544:2632   */\n      mstore\n        /* \"#utility.yul\":2651:2655   */\n      0x41\n        /* \"#utility.yul\":2648:2649   */\n      0x04\n        /* \"#utility.yul\":2641:2656   */\n      mstore\n        /* \"#utility.yul\":2675:2679   */\n      0x24\n        /* \"#utility.yul\":2672:2673   */\n      0x00\n        /* \"#utility.yul\":2665:2680   */\n      revert\n        /* \"#utility.yul\":2692:2973   */\n    tag_40:\n        /* \"#utility.yul\":2775:2802   */\n      tag_97\n        /* \"#utility.yul\":2797:2801   */\n      dup3\n        /* \"#utility.yul\":2775:2802   */\n      tag_35\n      jump\t// in\n    tag_97:\n        /* \"#utility.yul\":2767:2773   */\n      dup2\n        /* \"#utility.yul\":2763:2803   */\n      add\n        /* \"#utility.yul\":2905:2911   */\n      dup2\n        /* \"#utility.yul\":2893:2903   */\n      dup2\n        /* \"#utility.yul\":2890:2912   */\n      lt\n        /* \"#utility.yul\":2869:2887   */\n      0xffffffffffffffff\n        /* \"#utility.yul\":2857:2867   */\n      dup3\n        /* \"#utility.yul\":2854:2888   */\n      gt\n        /* \"#utility.yul\":2851:2913   */\n      or\n        /* \"#utility.yul\":2848:2936   */\n      iszero\n      tag_98\n      jumpi\n        /* \"#utility.yul\":2916:2934   */\n      tag_99\n      tag_39\n      jump\t// in\n    tag_99:\n        /* \"#utility.yul\":2848:2936   */\n    tag_98:\n        /* \"#utility.yul\":2956:2966   */\n      dup1\n        /* \"#utility.yul\":2952:2954   */\n      0x40\n        /* \"#utility.yul\":2945:2967   */\n      mstore\n        /* \"#utility.yul\":2735:2973   */\n      pop\n        /* \"#utility.yul\":2692:2973   */\n      pop\n      pop\n      jump\t// out\n        /* \"#utility.yul\":2979:3108   */\n    tag_41:\n        /* \"#utility.yul\":3013:3019   */\n      0x00\n        /* \"#utility.yul\":3040:3060   */\n      tag_101\n      tag_26\n      jump\t// in\n    tag_101:\n        /* \"#utility.yul\":3030:3060   */\n      swap1\n      pop\n        /* \"#utility.yul\":3069:3102   */\n      tag_102\n        /* \"#utility.yul\":3097:3101   */\n      dup3\n        /* \"#utility.yul\":3089:3095   */\n      dup3\n        /* \"#utility.yul\":3069:3102   */\n      tag_40\n      jump\t// in\n    tag_102:\n        /* \"#utility.yul\":2979:3108   */\n      swap2\n      swap1\n      pop\n      jump\t// out\n        /* \"#utility.yul\":3114:3422   */\n    tag_42:\n        /* \"#utility.yul\":3176:3180   */\n      0x00\n        /* \"#utility.yul\":3266:3284   */\n      0xffffffffffffffff\n        /* \"#utility.yul\":3258:3264   */\n      dup3\n        /* \"#utility.yul\":3255:3285   */\n      gt\n        /* \"#utility.yul\":3252:3308   */\n      iszero\n      tag_104\n      jumpi\n        /* \"#utility.yul\":3288:3306   */\n      tag_105\n      tag_39\n      jump\t// in\n    tag_105:\n        /* \"#utility.yul\":3252:3308   */\n    tag_104:\n        /* \"#utility.yul\":3326:3355   */\n      tag_106\n        /* \"#utility.yul\":3348:3354   */\n      dup3\n        /* \"#utility.yul\":3326:3355   */\n      tag_35\n      jump\t// in\n    tag_106:\n        /* \"#utility.yul\":3318:3355   */\n      swap1\n      pop\n        /* \"#utility.yul\":3410:3414   */\n      0x20\n        /* \"#utility.yul\":3404:3408   */\n      dup2\n        /* \"#utility.yul\":3400:3415   */\n      add\n        /* \"#utility.yul\":3392:3415   */\n      swap1\n      pop\n        /* \"#utility.yul\":3114:3422   */\n      swap2\n      swap1\n      pop\n      jump\t// out\n        /* \"#utility.yul\":3428:3576   */\n    tag_43:\n        /* \"#utility.yul\":3526:3532   */\n      dup3\n        /* \"#utility.yul\":3521:3524   */\n      dup2\n        /* \"#utility.yul\":3516:3519   */\n      dup4\n        /* \"#utility.yul\":3503:3533   */\n      calldatacopy\n        /* \"#utility.yul\":3567:3568   */\n      0x00\n        /* \"#utility.yul\":3558:3564   */\n      dup4\n        /* \"#utility.yul\":3553:3556   */\n      dup4\n        /* \"#utility.yul\":3549:3565   */\n      add\n        /* \"#utility.yul\":3542:3569   */\n      mstore\n        /* \"#utility.yul\":3428:3576   */\n      pop\n      pop\n      pop\n      jump\t// out\n        /* \"#utility.yul\":3582:4007   */\n    tag_44:\n        /* \"#utility.yul\":3660:3665   */\n      0x00\n        /* \"#utility.yul\":3685:3751   */\n      tag_109\n        /* \"#utility.yul\":3701:3750   */\n      tag_110\n        /* \"#utility.yul\":3743:3749   */\n      dup5\n        /* \"#utility.yul\":3701:3750   */\n      tag_42\n      jump\t// in\n    tag_110:\n        /* \"#utility.yul\":3685:3751   */\n      tag_41\n      jump\t// in\n    tag_109:\n        /* \"#utility.yul\":3676:3751   */\n      swap1\n      pop\n        /* \"#utility.yul\":3774:3780   */\n      dup3\n        /* \"#utility.yul\":3767:3772   */\n      dup2\n        /* \"#utility.yul\":3760:3781   */\n      mstore\n        /* \"#utility.yul\":3812:3816   */\n      0x20\n        /* \"#utility.yul\":3805:3810   */\n      dup2\n        /* \"#utility.yul\":3801:3817   */\n      add\n        /* \"#utility.yul\":3850:3853   */\n      dup5\n        /* \"#utility.yul\":3841:3847   */\n      dup5\n        /* \"#utility.yul\":3836:3839   */\n      dup5\n        /* \"#utility.yul\":3832:3848   */\n      add\n        /* \"#utility.yul\":3829:3854   */\n      gt\n        /* \"#utility.yul\":3826:3938   */\n      iszero\n      tag_111\n      jumpi\n        /* \"#utility.yul\":3857:3936   */\n      tag_112\n      tag_38\n      jump\t// in\n    tag_112:\n        /* \"#utility.yul\":3826:3938   */\n    tag_111:\n        /* \"#utility.yul\":3947:4001   */\n      tag_113\n        /* \"#utility.yul\":3994:4000   */\n      dup5\n        /* \"#utility.yul\":3989:3992   */\n      dup3\n        /* \"#utility.yul\":3984:3987   */\n      dup6\n        /* \"#utility.yul\":3947:4001   */\n      tag_43\n      jump\t// in\n    tag_113:\n        /* \"#utility.yul\":3666:4007   */\n      pop\n        /* \"#utility.yul\":3582:4007   */\n      swap4\n      swap3\n      pop\n      pop\n      pop\n      jump\t// out\n        /* \"#utility.yul\":4027:4367   */\n    tag_45:\n        /* \"#utility.yul\":4083:4088   */\n      0x00\n        /* \"#utility.yul\":4132:4135   */\n      dup3\n        /* \"#utility.yul\":4125:4129   */\n      0x1f\n        /* \"#utility.yul\":4117:4123   */\n      dup4\n        /* \"#utility.yul\":4113:4130   */\n      add\n        /* \"#utility.yul\":4109:4136   */\n      slt\n        /* \"#utility.yul\":4099:4221   */\n      tag_115\n      jumpi\n        /* \"#utility.yul\":4140:4219   */\n      tag_116\n      tag_37\n      jump\t// in\n    tag_116:\n        /* \"#utility.yul\":4099:4221   */\n    tag_115:\n        /* \"#utility.yul\":4257:4263   */\n      dup2\n        /* \"#utility.yul\":4244:4264   */\n      calldataload\n        /* \"#utility.yul\":4282:4361   */\n      tag_117\n        /* \"#utility.yul\":4357:4360   */\n      dup5\n        /* \"#utility.yul\":4349:4355   */\n      dup3\n        /* \"#utility.yul\":4342:4346   */\n      0x20\n        /* \"#utility.yul\":4334:4340   */\n      dup7\n        /* \"#utility.yul\":4330:4347   */\n      add\n        /* \"#utility.yul\":4282:4361   */\n      tag_44\n      jump\t// in\n    tag_117:\n        /* \"#utility.yul\":4273:4361   */\n      swap2\n      pop\n        /* \"#utility.yul\":4089:4367   */\n      pop\n        /* \"#utility.yul\":4027:4367   */\n      swap3\n      swap2\n      pop\n      pop\n      jump\t// out\n        /* \"#utility.yul\":4373:4499   */\n    tag_46:\n        /* \"#utility.yul\":4410:4417   */\n      0x00\n        /* \"#utility.yul\":4450:4492   */\n      0xffffffffffffffffffffffffffffffffffffffff\n        /* \"#utility.yul\":4443:4448   */\n      dup3\n        /* \"#utility.yul\":4439:4493   */\n      and\n        /* \"#utility.yul\":4428:4493   */\n      swap1\n      pop\n        /* \"#utility.yul\":4373:4499   */\n      swap2\n      swap1\n      pop\n      jump\t// out\n        /* \"#utility.yul\":4505:4601   */\n    tag_47:\n        /* \"#utility.yul\":4542:4549   */\n      0x00\n        /* \"#utility.yul\":4571:4595   */\n      tag_120\n        /* \"#utility.yul\":4589:4594   */\n      dup3\n        /* \"#utility.yul\":4571:4595   */\n      tag_46\n      jump\t// in\n    tag_120:\n        /* \"#utility.yul\":4560:4595   */\n      swap1\n      pop\n        /* \"#utility.yul\":4505:4601   */\n      swap2\n      swap1\n      pop\n      jump\t// out\n        /* \"#utility.yul\":4607:4729   */\n    tag_48:\n        /* \"#utility.yul\":4680:4704   */\n      tag_122\n        /* \"#utility.yul\":4698:4703   */\n      dup2\n        /* \"#utility.yul\":4680:4704   */\n      tag_47\n      jump\t// in\n    tag_122:\n        /* \"#utility.yul\":4673:4678   */\n      dup2\n        /* \"#utility.yul\":4670:4705   */\n      eq\n        /* \"#utility.yul\":4660:4723   */\n      tag_123\n      jumpi\n        /* \"#utility.yul\":4719:4720   */\n      0x00\n        /* \"#utility.yul\":4716:4717   */\n      0x00\n        /* \"#utility.yul\":4709:4721   */\n      revert\n        /* \"#utility.yul\":4660:4723   */\n    tag_123:\n        /* \"#utility.yul\":4607:4729   */\n      pop\n      jump\t// out\n        /* \"#utility.yul\":4735:4874   */\n    tag_49:\n        /* \"#utility.yul\":4781:4786   */\n      0x00\n        /* \"#utility.yul\":4819:4825   */\n      dup2\n        /* \"#utility.yul\":4806:4826   */\n      calldataload\n        /* \"#utility.yul\":4797:4826   */\n      swap1\n      pop\n        /* \"#utility.yul\":4835:4868   */\n      tag_125\n        /* \"#utility.yul\":4862:4867   */\n      dup2\n        /* \"#utility.yul\":4835:4868   */\n      tag_48\n      jump\t// in\n    tag_125:\n        /* \"#utility.yul\":4735:4874   */\n      swap3\n      swap2\n      pop\n      pop\n      jump\t// out\n        /* \"#utility.yul\":4880:5679   */\n    tag_13:\n        /* \"#utility.yul\":4967:4973   */\n      0x00\n        /* \"#utility.yul\":4975:4981   */\n      0x00\n        /* \"#utility.yul\":4983:4989   */\n      0x00\n        /* \"#utility.yul\":5032:5034   */\n      0x60\n        /* \"#utility.yul\":5020:5029   */\n      dup5\n        /* \"#utility.yul\":5011:5018   */\n      dup7\n        /* \"#utility.yul\":5007:5030   */\n      sub\n        /* \"#utility.yul\":5003:5035   */\n      slt\n        /* \"#utility.yul\":5000:5119   */\n      iszero\n      tag_127\n      jumpi\n        /* \"#utility.yul\":5038:5117   */\n      tag_128\n      tag_27\n      jump\t// in\n    tag_128:\n        /* \"#utility.yul\":5000:5119   */\n    tag_127:\n        /* \"#utility.yul\":5158:5159   */\n      0x00\n        /* \"#utility.yul\":5183:5236   */\n      tag_129\n        /* \"#utility.yul\":5228:5235   */\n      dup7\n        /* \"#utility.yul\":5219:5225   */\n      dup3\n        /* \"#utility.yul\":5208:5217   */\n      dup8\n        /* \"#utility.yul\":5204:5226   */\n      add\n        /* \"#utility.yul\":5183:5236   */\n      tag_31\n      jump\t// in\n    tag_129:\n        /* \"#utility.yul\":5173:5236   */\n      swap4\n      pop\n        /* \"#utility.yul\":5129:5246   */\n      pop\n        /* \"#utility.yul\":5313:5315   */\n      0x20\n        /* \"#utility.yul\":5302:5311   */\n      dup5\n        /* \"#utility.yul\":5298:5316   */\n      add\n        /* \"#utility.yul\":5285:5317   */\n      calldataload\n        /* \"#utility.yul\":5344:5362   */\n      0xffffffffffffffff\n        /* \"#utility.yul\":5336:5342   */\n      dup2\n        /* \"#utility.yul\":5333:5363   */\n      gt\n        /* \"#utility.yul\":5330:5447   */\n      iszero\n      tag_130\n      jumpi\n        /* \"#utility.yul\":5366:5445   */\n      tag_131\n      tag_28\n      jump\t// in\n    tag_131:\n        /* \"#utility.yul\":5330:5447   */\n    tag_130:\n        /* \"#utility.yul\":5471:5534   */\n      tag_132\n        /* \"#utility.yul\":5526:5533   */\n      dup7\n        /* \"#utility.yul\":5517:5523   */\n      dup3\n        /* \"#utility.yul\":5506:5515   */\n      dup8\n        /* \"#utility.yul\":5502:5524   */\n      add\n        /* \"#utility.yul\":5471:5534   */\n      tag_45\n      jump\t// in\n    tag_132:\n        /* \"#utility.yul\":5461:5534   */\n      swap3\n      pop\n        /* \"#utility.yul\":5256:5544   */\n      pop\n        /* \"#utility.yul\":5583:5585   */\n      0x40\n        /* \"#utility.yul\":5609:5662   */\n      tag_133\n        /* \"#utility.yul\":5654:5661   */\n      dup7\n        /* \"#utility.yul\":5645:5651   */\n      dup3\n        /* \"#utility.yul\":5634:5643   */\n      dup8\n        /* \"#utility.yul\":5630:5652   */\n      add\n        /* \"#utility.yul\":5609:5662   */\n      tag_49\n      jump\t// in\n    tag_133:\n        /* \"#utility.yul\":5599:5662   */\n      swap2\n      pop\n        /* \"#utility.yul\":5554:5672   */\n      pop\n        /* \"#utility.yul\":4880:5679   */\n      swap3\n      pop\n      swap3\n      pop\n      swap3\n      jump\t// out\n        /* \"#utility.yul\":5685:5865   */\n    tag_50:\n        /* \"#utility.yul\":5733:5810   */\n      0x4e487b7100000000000000000000000000000000000000000000000000000000\n        /* \"#utility.yul\":5730:5731   */\n      0x00\n        /* \"#utility.yul\":5723:5811   */\n      mstore\n        /* \"#utility.yul\":5830:5834   */\n      0x22\n        /* \"#utility.yul\":5827:5828   */\n      0x04\n        /* \"#utility.yul\":5820:5835   */\n      mstore\n        /* \"#utility.yul\":5854:5858   */\n      0x24\n        /* \"#utility.yul\":5851:5852   */\n      0x00\n        /* \"#utility.yul\":5844:5859   */\n      revert\n        /* \"#utility.yul\":5871:6191   */\n    tag_16:\n        /* \"#utility.yul\":5915:5921   */\n      0x00\n        /* \"#utility.yul\":5952:5953   */\n      0x02\n        /* \"#utility.yul\":5946:5950   */\n      dup3\n        /* \"#utility.yul\":5942:5954   */\n      div\n        /* \"#utility.yul\":5932:5954   */\n      swap1\n      pop\n        /* \"#utility.yul\":5999:6000   */\n      0x01\n        /* \"#utility.yul\":5993:5997   */\n      dup3\n        /* \"#utility.yul\":5989:6001   */\n      and\n        /* \"#utility.yul\":6020:6038   */\n      dup1\n        /* \"#utility.yul\":6010:6091   */\n      tag_136\n      jumpi\n        /* \"#utility.yul\":6076:6080   */\n      0x7f\n        /* \"#utility.yul\":6068:6074   */\n      dup3\n        /* \"#utility.yul\":6064:6081   */\n      and\n        /* \"#utility.yul\":6054:6081   */\n      swap2\n      pop\n        /* \"#utility.yul\":6010:6091   */\n    tag_136:\n        /* \"#utility.yul\":6138:6140   */\n      0x20\n        /* \"#utility.yul\":6130:6136   */\n      dup3\n        /* \"#utility.yul\":6127:6141   */\n      lt\n        /* \"#utility.yul\":6107:6125   */\n      dup2\n        /* \"#utility.yul\":6104:6142   */\n      sub\n        /* \"#utility.yul\":6101:6185   */\n      tag_137\n      jumpi\n        /* \"#utility.yul\":6157:6175   */\n      tag_138\n      tag_50\n      jump\t// in\n    tag_138:\n        /* \"#utility.yul\":6101:6185   */\n    tag_137:\n        /* \"#utility.yul\":5922:6191   */\n      pop\n        /* \"#utility.yul\":5871:6191   */\n      swap2\n      swap1\n      pop\n      jump\t// out\n        /* \"#utility.yul\":6197:6338   */\n    tag_51:\n        /* \"#utility.yul\":6246:6250   */\n      0x00\n        /* \"#utility.yul\":6269:6272   */\n      dup2\n        /* \"#utility.yul\":6261:6272   */\n      swap1\n      pop\n        /* \"#utility.yul\":6292:6295   */\n      dup2\n        /* \"#utility.yul\":6289:6290   */\n      0x00\n        /* \"#utility.yul\":6282:6296   */\n      mstore\n        /* \"#utility.yul\":6326:6330   */\n      0x20\n        /* \"#utility.yul\":6323:6324   */\n      0x00\n        /* \"#utility.yul\":6313:6331   */\n      keccak256\n        /* \"#utility.yul\":6305:6331   */\n      swap1\n      pop\n        /* \"#utility.yul\":6197:6338   */\n      swap2\n      swap1\n      pop\n      jump\t// out\n        /* \"#utility.yul\":6344:6437   */\n    tag_52:\n        /* \"#utility.yul\":6381:6387   */\n      0x00\n        /* \"#utility.yul\":6428:6430   */\n      0x20\n        /* \"#utility.yul\":6423:6425   */\n      0x1f\n        /* \"#utility.yul\":6416:6421   */\n      dup4\n        /* \"#utility.yul\":6412:6426   */\n      add\n        /* \"#utility.yul\":6408:6431   */\n      div\n        /* \"#utility.yul\":6398:6431   */\n      swap1\n      pop\n        /* \"#utility.yul\":6344:6437   */\n      swap2\n      swap1\n      pop\n      jump\t// out\n        /* \"#utility.yul\":6443:6550   */\n    tag_53:\n        /* \"#utility.yul\":6487:6495   */\n      0x00\n        /* \"#utility.yul\":6537:6542   */\n      dup3\n        /* \"#utility.yul\":6531:6535   */\n      dup3\n        /* \"#utility.yul\":6527:6543   */\n      shl\n        /* \"#utility.yul\":6506:6543   */\n      swap1\n      pop\n        /* \"#utility.yul\":6443:6550   */\n      swap3\n      swap2\n      pop\n      pop\n      jump\t// out\n        /* \"#utility.yul\":6556:6949   */\n    tag_54:\n        /* \"#utility.yul\":6625:6631   */\n      0x00\n        /* \"#utility.yul\":6675:6676   */\n      0x08\n        /* \"#utility.yul\":6663:6673   */\n      dup4\n        /* \"#utility.yul\":6659:6677   */\n      mul\n        /* \"#utility.yul\":6698:6795   */\n      tag_143\n        /* \"#utility.yul\":6728:6794   */\n      0xffffffffffffffffffffffffffffffffffffffffffffffffffffffffffffffff\n        /* \"#utility.yul\":6717:6726   */\n      dup3\n        /* \"#utility.yul\":6698:6795   */\n      tag_53\n      jump\t// in\n    tag_143:\n        /* \"#utility.yul\":6816:6855   */\n      tag_144\n        /* \"#utility.yul\":6846:6854   */\n      dup7\n        /* \"#utility.yul\":6835:6844   */\n      dup4\n        /* \"#utility.yul\":6816:6855   */\n      tag_53\n      jump\t// in\n    tag_144:\n        /* \"#utility.yul\":6804:6855   */\n      swap6\n      pop\n        /* \"#utility.yul\":6888:6892   */\n      dup1\n        /* \"#utility.yul\":6884:6893   */\n      not\n        /* \"#utility.yul\":6877:6882   */\n      dup5\n        /* \"#utility.yul\":6873:6894   */\n      and\n        /* \"#utility.yul\":6864:6894   */\n      swap4\n      pop\n        /* \"#utility.yul\":6937:6941   */\n      dup1\n        /* \"#utility.yul\":6927:6935   */\n      dup7\n        /* \"#utility.yul\":6923:6942   */\n      and\n        /* \"#utility.yul\":6916:6921   */\n      dup5\n        /* \"#utility.yul\":6913:6943   */\n      or\n        /* \"#utility.yul\":6903:6943   */\n      swap3\n      pop\n        /* \"#utility.yul\":6632:6949   */\n      pop\n      pop\n        /* \"#utility.yul\":6556:6949   */\n      swap4\n      swap3\n      pop\n      pop\n      pop\n      jump\t// out\n        /* \"#utility.yul\":6955:7015   */\n    tag_55:\n        /* \"#utility.yul\":6983:6986   */\n      0x00\n        /* \"#utility.yul\":7004:7009   */\n      dup2\n        /* \"#utility.yul\":6997:7009   */\n      swap1\n      pop\n        /* \"#utility.yul\":6955:7015   */\n      swap2\n      swap1\n      pop\n      jump\t// out\n        /* \"#utility.yul\":7021:7163   */\n    tag_56:\n        /* \"#utility.yul\":7071:7080   */\n      0x00\n        /* \"#utility.yul\":7104:7157   */\n      tag_147\n        /* \"#utility.yul\":7122:7156   */\n      tag_148\n        /* \"#utility.yul\":7131:7155   */\n      tag_149\n        /* \"#utility.yul\":7149:7154   */\n      dup5\n        /* \"#utility.yul\":7131:7155   */\n      tag_29\n      jump\t// in\n    tag_149:\n        /* \"#utility.yul\":7122:7156   */\n      tag_55\n      jump\t// in\n    tag_148:\n        /* \"#utility.yul\":7104:7157   */\n      tag_29\n      jump\t// in\n    tag_147:\n        /* \"#utility.yul\":7091:7157   */\n      swap1\n      pop\n        /* \"#utility.yul\":7021:7163   */\n      swap2\n      swap1\n      pop\n      jump\t// out\n        /* \"#utility.yul\":7169:7244   */\n    tag_57:\n        /* \"#utility.yul\":7212:7215   */\n      0x00\n        /* \"#utility.yul\":7233:7238   */\n      dup2\n        /* \"#utility.yul\":7226:7238   */\n      swap1\n      pop\n        /* \"#utility.yul\":7169:7244   */\n      swap2\n      swap1\n      pop\n      jump\t// out\n        /* \"#utility.yul\":7250:7519   */\n    tag_58:\n        /* \"#utility.yul\":7360:7399   */\n      tag_152\n        /* \"#utility.yul\":7391:7398   */\n      dup4\n        /* \"#utility.yul\":7360:7399   */\n      tag_56\n      jump\t// in\n    tag_152:\n        /* \"#utility.yul\":7421:7512   */\n      tag_153\n        /* \"#utility.yul\":7470:7511   */\n      tag_154\n        /* \"#utility.yul\":7494:7510   */\n      dup3\n        /* \"#utility.yul\":7470:7511   */\n      tag_57\n      jump\t// in\n    tag_154:\n        /* \"#utility.yul\":7462:7468   */\n      dup5\n        /* \"#utility.yul\":7455:7459   */\n      dup5\n        /* \"#utility.yul\":7449:7460   */\n      sload\n        /* \"#utility.yul\":7421:7512   */\n      tag_54\n      jump\t// in\n    tag_153:\n        /* \"#utility.yul\":7415:7419   */\n      dup3\n        /* \"#utility.yul\":7408:7513   */\n      sstore\n        /* \"#utility.yul\":7326:7519   */\n      pop\n        /* \"#utility.yul\":7250:7519   */\n      pop\n      pop\n      pop\n      jump\t// out\n        /* \"#utility.yul\":7525:7598   */\n    tag_59:\n        /* \"#utility.yul\":7570:7573   */\n      0x00\n        /* \"#utility.yul\":7591:7592   */\n      0x00\n        /* \"#utility.yul\":7584:7592   */\n      swap1\n      pop\n        /* \"#utility.yul\":7525:7598   */\n      swap1\n      jump\t// out\n        /* \"#utility.yul\":7604:7793   */\n    tag_60:\n        /* \"#utility.yul\":7681:7713   */\n      tag_157\n      tag_59\n      jump\t// in\n    tag_157:\n        /* \"#utility.yul\":7722:7787   */\n      tag_158\n        /* \"#utility.yul\":7780:7786   */\n      dup2\n        /* \"#utility.yul\":7772:7778   */\n      dup5\n        /* \"#utility.yul\":7766:7770   */\n      dup5\n        /* \"#utility.yul\":7722:7787   */\n      tag_58\n      jump\t// in\n    tag_158:\n        /* \"#utility.yul\":7657:7793   */\n      pop\n        /* \"#utility.yul\":7604:7793   */\n      pop\n      pop\n      jump\t// out\n        /* \"#utility.yul\":7799:7985   */\n    tag_61:\n        /* \"#utility.yul\":7859:7979   */\n    tag_160:\n        /* \"#utility.yul\":7876:7879   */\n      dup2\n        /* \"#utility.yul\":7869:7874   */\n      dup2\n        /* \"#utility.yul\":7866:7880   */\n      lt\n        /* \"#utility.yul\":7859:7979   */\n      iszero\n      tag_162\n      jumpi\n        /* \"#utility.yul\":7930:7969   */\n      tag_163\n        /* \"#utility.yul\":7967:7968   */\n      0x00\n        /* \"#utility.yul\":7960:7965   */\n      dup3\n        /* \"#utility.yul\":7930:7969   */\n      tag_60\n      jump\t// in\n    tag_163:\n        /* \"#utility.yul\":7903:7904   */\n      0x01\n        /* \"#utility.yul\":7896:7901   */\n      dup2\n        /* \"#utility.yul\":7892:7905   */\n      add\n        /* \"#utility.yul\":7883:7905   */\n      swap1\n      pop\n        /* \"#utility.yul\":7859:7979   */\n      jump(tag_160)\n    tag_162:\n        /* \"#utility.yul\":7799:7985   */\n      pop\n      pop\n      jump\t// out\n        /* \"#utility.yul\":7991:8534   */\n    tag_62:\n        /* \"#utility.yul\":8092:8094   */\n      0x1f\n        /* \"#utility.yul\":8087:8090   */\n      dup3\n        /* \"#utility.yul\":8084:8095   */\n      gt\n        /* \"#utility.yul\":8081:8527   */\n      iszero\n      tag_165\n      jumpi\n        /* \"#utility.yul\":8126:8164   */\n      tag_166\n        /* \"#utility.yul\":8158:8163   */\n      dup2\n        /* \"#utility.yul\":8126:8164   */\n      tag_51\n      jump\t// in\n    tag_166:\n        /* \"#utility.yul\":8210:8239   */\n      tag_167\n        /* \"#utility.yul\":8228:8238   */\n      dup5\n        /* \"#utility.yul\":8210:8239   */\n      tag_52\n      jump\t// in\n    tag_167:\n        /* \"#utility.yul\":8200:8208   */\n      dup2\n        /* \"#utility.yul\":8196:8240   */\n      add\n        /* \"#utility.yul\":8393:8395   */\n      0x20\n        /* \"#utility.yul\":8381:8391   */\n      dup6\n        /* \"#utility.yul\":8378:8396   */\n      lt\n        /* \"#utility.yul\":8375:8424   */\n      iszero\n      tag_168\n      jumpi\n        /* \"#utility.yul\":8414:8422   */\n      dup2\n        /* \"#utility.yul\":8399:8422   */\n      swap1\n      pop\n        /* \"#utility.yul\":8375:8424   */\n    tag_168:\n        /* \"#utility.yul\":8437:8517   */\n      tag_169\n        /* \"#utility.yul\":8493:8515   */\n      tag_170\n        /* \"#utility.yul\":8511:8514   */\n      dup6\n        /* \"#utility.yul\":8493:8515   */\n      tag_52\n      jump\t// in\n    tag_170:\n        /* \"#utility.yul\":8483:8491   */\n      dup4\n        /* \"#utility.yul\":8479:8516   */\n      add\n        /* \"#utility.yul\":8466:8477   */\n      dup3\n        /* \"#utility.yul\":8437:8517   */\n      tag_61\n      jump\t// in\n    tag_169:\n        /* \"#utility.yul\":8096:8527   */\n      pop\n      pop\n        /* \"#utility.yul\":8081:8527   */\n    tag_165:\n        /* \"#utility.yul\":7991:8534   */\n      pop\n      pop\n      pop\n      jump\t// out\n        /* \"#utility.yul\":8540:8657   */\n    tag_63:\n        /* \"#utility.yul\":8594:8602   */\n      0x00\n        /* \"#utility.yul\":8644:8649   */\n      dup3\n        /* \"#utility.yul\":8638:8642   */\n      dup3\n        /* \"#utility.yul\":8634:8650   */\n      shr\n        /* \"#utility.yul\":8613:8650   */\n      swap1\n      pop\n        /* \"#utility.yul\":8540:8657   */\n      swap3\n      swap2\n      pop\n      pop\n      jump\t// out\n        /* \"#utility.yul\":8663:8832   */\n    tag_64:\n        /* \"#utility.yul\":8707:8713   */\n      0x00\n        /* \"#utility.yul\":8740:8791   */\n      tag_173\n        /* \"#utility.yul\":8788:8789   */\n      0x00\n        /* \"#utility.yul\":8784:8790   */\n      not\n        /* \"#utility.yul\":8776:8781   */\n      dup5\n        /* \"#utility.yul\":8773:8774   */\n      0x08\n        /* \"#utility.yul\":8769:8782   */\n      mul\n        /* \"#utility.yul\":8740:8791   */\n      tag_63\n      jump\t// in\n    tag_173:\n        /* \"#utility.yul\":8736:8792   */\n      not\n        /* \"#utility.yul\":8821:8825   */\n      dup1\n        /* \"#utility.yul\":8815:8819   */\n      dup4\n        /* \"#utility.yul\":8811:8826   */\n      and\n        /* \"#utility.yul\":8801:8826   */\n      swap2\n      pop\n        /* \"#utility.yul\":8714:8832   */\n      pop\n        /* \"#utility.yul\":8663:8832   */\n      swap3\n      swap2\n      pop\n      pop\n      jump\t// out\n        /* \"#utility.yul\":8837:9132   */\n    tag_65:\n        /* \"#utility.yul\":8913:8917   */\n      0x00\n        /* \"#utility.yul\":9059:9088   */\n      tag_175\n        /* \"#utility.yul\":9084:9087   */\n      dup4\n        /* \"#utility.yul\":9078:9082   */\n      dup4\n        /* \"#utility.yul\":9059:9088   */\n      tag_64\n      jump\t// in\n    tag_175:\n        /* \"#utility.yul\":9051:9088   */\n      swap2\n      pop\n        /* \"#utility.yul\":9121:9124   */\n      dup3\n        /* \"#utility.yul\":9118:9119   */\n      0x02\n        /* \"#utility.yul\":9114:9125   */\n      mul\n        /* \"#utility.yul\":9108:9112   */\n      dup3\n        /* \"#utility.yul\":9105:9126   */\n      or\n        /* \"#utility.yul\":9097:9126   */\n      swap1\n      pop\n        /* \"#utility.yul\":8837:9132   */\n      swap3\n      swap2\n      pop\n      pop\n      jump\t// out\n        /* \"#utility.yul\":9137:10532   */\n    tag_23:\n        /* \"#utility.yul\":9254:9291   */\n      tag_177\n        /* \"#utility.yul\":9287:9290   */\n      dup3\n        /* \"#utility.yul\":9254:9291   */\n      tag_32\n      jump\t// in\n    tag_177:\n        /* \"#utility.yul\":9356:9374   */\n      0xffffffffffffffff\n        /* \"#utility.yul\":9348:9354   */\n      dup2\n        /* \"#utility.yul\":9345:9375   */\n      gt\n        /* \"#utility.yul\":9342:9398   */\n      iszero\n      tag_178\n      jumpi\n        /* \"#utility.yul\":9378:9396   */\n      tag_179\n      tag_39\n      jump\t// in\n    tag_179:\n        /* \"#utility.yul\":9342:9398   */\n    tag_178:\n        /* \"#utility.yul\":9422:9460   */\n      tag_180\n        /* \"#utility.yul\":9454:9458   */\n      dup3\n        /* \"#utility.yul\":9448:9459   */\n      sload\n        /* \"#utility.yul\":9422:9460   */\n      tag_16\n      jump\t// in\n    tag_180:\n        /* \"#utility.yul\":9507:9574   */\n      tag_181\n        /* \"#utility.yul\":9567:9573   */\n      dup3\n        /* \"#utility.yul\":9559:9565   */\n      dup3\n        /* \"#utility.yul\":9553:9557   */\n      dup6\n        /* \"#utility.yul\":9507:9574   */\n      tag_62\n      jump\t// in\n    tag_181:\n        /* \"#utility.yul\":9601:9602   */\n      0x00\n        /* \"#utility.yul\":9625:9629   */\n      0x20\n        /* \"#utility.yul\":9612:9629   */\n      swap1\n      pop\n        /* \"#utility.yul\":9657:9659   */\n      0x1f\n        /* \"#utility.yul\":9649:9655   */\n      dup4\n        /* \"#utility.yul\":9646:9660   */\n      gt\n        /* \"#utility.yul\":9674:9675   */\n      0x01\n        /* \"#utility.yul\":9669:10287   */\n      dup2\n      eq\n      tag_183\n      jumpi\n        /* \"#utility.yul\":10331:10332   */\n      0x00\n        /* \"#utility.yul\":10348:10354   */\n      dup5\n        /* \"#utility.yul\":10345:10422   */\n      iszero\n      tag_184\n      jumpi\n        /* \"#utility.yul\":10397:10406   */\n      dup3\n        /* \"#utility.yul\":10392:10395   */\n      dup8\n        /* \"#utility.yul\":10388:10407   */\n      add\n        /* \"#utility.yul\":10382:10408   */\n      mload\n        /* \"#utility.yul\":10373:10408   */\n      swap1\n      pop\n        /* \"#utility.yul\":10345:10422   */\n    tag_184:\n        /* \"#utility.yul\":10448:10515   */\n      tag_185\n        /* \"#utility.yul\":10508:10514   */\n      dup6\n        /* \"#utility.yul\":10501:10506   */\n      dup3\n        /* \"#utility.yul\":10448:10515   */\n      tag_65\n      jump\t// in\n    tag_185:\n        /* \"#utility.yul\":10442:10446   */\n      dup7\n        /* \"#utility.yul\":10435:10516   */\n      sstore\n        /* \"#utility.yul\":10304:10526   */\n      pop\n        /* \"#utility.yul\":9639:10526   */\n      jump(tag_182)\n        /* \"#utility.yul\":9669:10287   */\n    tag_183:\n        /* \"#utility.yul\":9721:9725   */\n      0x1f\n        /* \"#utility.yul\":9717:9726   */\n      not\n        /* \"#utility.yul\":9709:9715   */\n      dup5\n        /* \"#utility.yul\":9705:9727   */\n      and\n        /* \"#utility.yul\":9755:9792   */\n      tag_186\n        /* \"#utility.yul\":9787:9791   */\n      dup7\n        /* \"#utility.yul\":9755:9792   */\n      tag_51\n      jump\t// in\n    tag_186:\n        /* \"#utility.yul\":9814:9815   */\n      0x00\n        /* \"#utility.yul\":9828:10036   */\n    tag_187:\n        /* \"#utility.yul\":9842:9849   */\n      dup3\n        /* \"#utility.yul\":9839:9840   */\n      dup2\n        /* \"#utility.yul\":9836:9850   */\n      lt\n        /* \"#utility.yul\":9828:10036   */\n      iszero\n      tag_189\n      jumpi\n        /* \"#utility.yul\":9921:9930   */\n      dup5\n        /* \"#utility.yul\":9916:9919   */\n      dup10\n        /* \"#utility.yul\":9912:9931   */\n      add\n        /* \"#utility.yul\":9906:9932   */\n      mload\n        /* \"#utility.yul\":9898:9904   */\n      dup3\n        /* \"#utility.yul\":9891:9933   */\n      sstore\n        /* \"#utility.yul\":9972:9973   */\n      0x01\n        /* \"#utility.yul\":9964:9970   */\n      dup3\n        /* \"#utility.yul\":9960:9974   */\n      add\n        /* \"#utility.yul\":9950:9974   */\n      swap2\n      pop\n        /* \"#utility.yul\":10019:10021   */\n      0x20\n        /* \"#utility.yul\":10008:10017   */\n      dup6\n        /* \"#utility.yul\":10004:10022   */\n      add\n        /* \"#utility.yul\":9991:10022   */\n      swap5\n      pop\n        /* \"#utility.yul\":9865:9869   */\n      0x20\n        /* \"#utility.yul\":9862:9863   */\n      dup2\n        /* \"#utility.yul\":9858:9870   */\n      add\n        /* \"#utility.yul\":9853:9870   */\n      swap1\n      pop\n        /* \"#utility.yul\":9828:10036   */\n      jump(tag_187)\n    tag_189:\n        /* \"#utility.yul\":10064:10070   */\n      dup7\n        /* \"#utility.yul\":10055:10062   */\n      dup4\n        /* \"#utility.yul\":10052:10071   */\n      lt\n        /* \"#utility.yul\":10049:10228   */\n      iszero\n      tag_190\n      jumpi\n        /* \"#utility.yul\":10122:10131   */\n      dup5\n        /* \"#utility.yul\":10117:10120   */\n      dup10\n        /* \"#utility.yul\":10113:10132   */\n      add\n        /* \"#utility.yul\":10107:10133   */\n      mload\n        /* \"#utility.yul\":10165:10213   */\n      tag_191\n        /* \"#utility.yul\":10207:10211   */\n      0x1f\n        /* \"#utility.yul\":10199:10205   */\n      dup10\n        /* \"#utility.yul\":10195:10212   */\n      and\n        /* \"#utility.yul\":10184:10193   */\n      dup3\n        /* \"#utility.yul\":10165:10213   */\n      tag_64\n      jump\t// in\n    tag_191:\n        /* \"#utility.yul\":10157:10163   */\n      dup4\n        /* \"#utility.yul\":10150:10214   */\n      sstore\n        /* \"#utility.yul\":10072:10228   */\n      pop\n        /* \"#utility.yul\":10049:10228   */\n    tag_190:\n        /* \"#utility.yul\":10274:10275   */\n      0x01\n        /* \"#utility.yul\":10270:10271   */\n      0x02\n        /* \"#utility.yul\":10262:10268   */\n      dup9\n        /* \"#utility.yul\":10258:10272   */\n      mul\n        /* \"#utility.yul\":10254:10276   */\n      add\n        /* \"#utility.yul\":10248:10252   */\n      dup9\n        /* \"#utility.yul\":10241:10277   */\n      sstore\n        /* \"#utility.yul\":9676:10287   */\n      pop\n      pop\n      pop\n        /* \"#utility.yul\":9639:10526   */\n    tag_182:\n      pop\n        /* \"#utility.yul\":9229:10532   */\n      pop\n      pop\n      pop\n        /* \"#utility.yul\":9137:10532   */\n      pop\n      pop\n      jump\t// out\n        /* \"#utility.yul\":10538:10656   */\n    tag_66:\n        /* \"#utility.yul\":10625:10649   */\n      tag_193\n        /* \"#utility.yul\":10643:10648   */\n      dup2\n        /* \"#utility.yul\":10625:10649   */\n      tag_29\n      jump\t// in\n    tag_193:\n        /* \"#utility.yul\":10620:10623   */\n      dup3\n        /* \"#utility.yul\":10613:10650   */\n      mstore\n        /* \"#utility.yul\":10538:10656   */\n      pop\n      pop\n      jump\t// out\n        /* \"#utility.yul\":10662:10780   */\n    tag_67:\n        /* \"#utility.yul\":10749:10773   */\n      tag_195\n        /* \"#utility.yul\":10767:10772   */\n      dup2\n        /* \"#utility.yul\":10749:10773   */\n      tag_47\n      jump\t// in\n    tag_195:\n        /* \"#utility.yul\":10744:10747   */\n      dup3\n        /* \"#utility.yul\":10737:10774   */\n      mstore\n        /* \"#utility.yul\":10662:10780   */\n      pop\n      pop\n      jump\t// out\n        /* \"#utility.yul\":10786:11319   */\n    tag_25:\n        /* \"#utility.yul\":10955:10959   */\n      0x00\n        /* \"#utility.yul\":10993:10995   */\n      0x60\n        /* \"#utility.yul\":10982:10991   */\n      dup3\n        /* \"#utility.yul\":10978:10996   */\n      add\n        /* \"#utility.yul\":10970:10996   */\n      swap1\n      pop\n        /* \"#utility.yul\":11006:11077   */\n      tag_197\n        /* \"#utility.yul\":11074:11075   */\n      0x00\n        /* \"#utility.yul\":11063:11072   */\n      dup4\n        /* \"#utility.yul\":11059:11076   */\n      add\n        /* \"#utility.yul\":11050:11056   */\n      dup7\n        /* \"#utility.yul\":11006:11077   */\n      tag_66\n      jump\t// in\n    tag_197:\n        /* \"#utility.yul\":11124:11133   */\n      dup2\n        /* \"#utility.yul\":11118:11122   */\n      dup2\n        /* \"#utility.yul\":11114:11134   */\n      sub\n        /* \"#utility.yul\":11109:11111   */\n      0x20\n        /* \"#utility.yul\":11098:11107   */\n      dup4\n        /* \"#utility.yul\":11094:11112   */\n      add\n        /* \"#utility.yul\":11087:11135   */\n      mstore\n        /* \"#utility.yul\":11152:11230   */\n      tag_198\n        /* \"#utility.yul\":11225:11229   */\n      dup2\n        /* \"#utility.yul\":11216:11222   */\n      dup6\n        /* \"#utility.yul\":11152:11230   */\n      tag_36\n      jump\t// in\n    tag_198:\n        /* \"#utility.yul\":11144:11230   */\n      swap1\n      pop\n        /* \"#utility.yul\":11240:11312   */\n      tag_199\n        /* \"#utility.yul\":11308:11310   */\n      0x40\n        /* \"#utility.yul\":11297:11306   */\n      dup4\n        /* \"#utility.yul\":11293:11311   */\n      add\n        /* \"#utility.yul\":11284:11290   */\n      dup5\n        /* \"#utility.yul\":11240:11312   */\n      tag_67\n      jump\t// in\n    tag_199:\n        /* \"#utility.yul\":10786:11319   */\n      swap5\n      swap4\n      pop\n      pop\n      pop\n      pop\n      jump\t// out\n\n    auxdata: 0xa2646970667358221220d23719ca364a720b13f089d99dd19bad2b79dafa745b78a8535688c3acd0da2364736f6c634300081e0033\n}\n",
				"bytecode": {
					"linkReferences": {},
					"object": "6080604052348015600e575f5ffd5b506107c88061001c5f395ff3fe608060405234801561000f575f5ffd5b5060043610610034575f3560e01c8063a031fc5614610038578063af331f7914610068575b5f5ffd5b610052600480360381019061004d91906101bf565b610084565b60405161005f919061025a565b60405180910390f35b610082600480360381019061007d9190610400565b61011e565b005b5f602052805f5260405f205f91509050805461009f90610499565b80601f01602080910402602001604051908101604052809291908181526020018280546100cb90610499565b80156101165780601f106100ed57610100808354040283529160200191610116565b820191905f5260205f20905b8154815290600101906020018083116100f957829003601f168201915b505050505081565b815f5f8581526020019081526020015f20908161013b9190610669565b507ee7355a114c82d9220dc5a07dd1d8da1d12753cb8320d9059ddb4cdd2145a1e83838360405161016e93929190610756565b60405180910390a1505050565b5f604051905090565b5f5ffd5b5f5ffd5b5f819050919050565b61019e8161018c565b81146101a8575f5ffd5b50565b5f813590506101b981610195565b92915050565b5f602082840312156101d4576101d3610184565b5b5f6101e1848285016101ab565b91505092915050565b5f81519050919050565b5f82825260208201905092915050565b8281835e5f83830152505050565b5f601f19601f8301169050919050565b5f61022c826101ea565b61023681856101f4565b9350610246818560208601610204565b61024f81610212565b840191505092915050565b5f6020820190508181035f8301526102728184610222565b905092915050565b5f5ffd5b5f5ffd5b7f4e487b71000000000000000000000000000000000000000000000000000000005f52604160045260245ffd5b6102b882610212565b810181811067ffffffffffffffff821117156102d7576102d6610282565b5b80604052505050565b5f6102e961017b565b90506102f582826102af565b919050565b5f67ffffffffffffffff82111561031457610313610282565b5b61031d82610212565b9050602081019050919050565b828183375f83830152505050565b5f61034a610345846102fa565b6102e0565b9050828152602081018484840111156103665761036561027e565b5b61037184828561032a565b509392505050565b5f82601f83011261038d5761038c61027a565b5b813561039d848260208601610338565b91505092915050565b5f73ffffffffffffffffffffffffffffffffffffffff82169050919050565b5f6103cf826103a6565b9050919050565b6103df816103c5565b81146103e9575f5ffd5b50565b5f813590506103fa816103d6565b92915050565b5f5f5f6060848603121561041757610416610184565b5b5f610424868287016101ab565b935050602084013567ffffffffffffffff81111561044557610444610188565b5b61045186828701610379565b9250506040610462868287016103ec565b9150509250925092565b7f4e487b71000000000000000000000000000000000000000000000000000000005f52602260045260245ffd5b5f60028204905060018216806104b057607f821691505b6020821081036104c3576104c261046c565b5b50919050565b5f819050815f5260205f209050919050565b5f6020601f8301049050919050565b5f82821b905092915050565b5f600883026105257fffffffffffffffffffffffffffffffffffffffffffffffffffffffffffffffff826104ea565b61052f86836104ea565b95508019841693508086168417925050509392505050565b5f819050919050565b5f61056a6105656105608461018c565b610547565b61018c565b9050919050565b5f819050919050565b61058383610550565b61059761058f82610571565b8484546104f6565b825550505050565b5f5f905090565b6105ae61059f565b6105b981848461057a565b505050565b5b818110156105dc576105d15f826105a6565b6001810190506105bf565b5050565b601f821115610621576105f2816104c9565b6105fb846104db565b8101602085101561060a578190505b61061e610616856104db565b8301826105be565b50505b505050565b5f82821c905092915050565b5f6106415f1984600802610626565b1980831691505092915050565b5f6106598383610632565b9150826002028217905092915050565b610672826101ea565b67ffffffffffffffff81111561068b5761068a610282565b5b6106958254610499565b6106a08282856105e0565b5f60209050601f8311600181146106d1575f84156106bf578287015190505b6106c9858261064e565b865550610730565b601f1984166106df866104c9565b5f5b82811015610706578489015182556001820191506020850194506020810190506106e1565b86831015610723578489015161071f601f891682610632565b8355505b6001600288020188555050505b505050505050565b6107418161018c565b82525050565b610750816103c5565b82525050565b5f6060820190506107695f830186610738565b818103602083015261077b8185610222565b905061078a6040830184610747565b94935050505056fea2646970667358221220d23719ca364a720b13f089d99dd19bad2b79dafa745b78a8535688c3acd0da2364736f6c634300081e0033",
					"opcodes": "PUSH1 0x80 PUSH1 0x40 MSTORE CALLVALUE DUP1 ISZERO PUSH1 0xE JUMPI PUSH0 PUSH0 REVERT JUMPDEST POP PUSH2 0x7C8 DUP1 PUSH2 0x1C PUSH0 CODECOPY PUSH0 RETURN INVALID PUSH1 0x80 PUSH1 0x40 MSTORE CALLVALUE DUP1 ISZERO PUSH2 0xF JUMPI PUSH0 PUSH0 REVERT JUMPDEST POP PUSH1 0x4 CALLDATASIZE LT PUSH2 0x34 JUMPI PUSH0 CALLDATALOAD PUSH1 0xE0 SHR DUP1 PUSH4 0xA031FC56 EQ PUSH2 0x38 JUMPI DUP1 PUSH4 0xAF331F79 EQ PUSH2 0x68 JUMPI JUMPDEST PUSH0 PUSH0 REVERT JUMPDEST PUSH2 0x52 PUSH1 0x4 DUP1 CALLDATASIZE SUB DUP2 ADD SWAP1 PUSH2 0x4D SWAP2 SWAP1 PUSH2 0x1BF JUMP JUMPDEST PUSH2 0x84 JUMP JUMPDEST PUSH1 0x40 MLOAD PUSH2 0x5F SWAP2 SWAP1 PUSH2 0x25A JUMP JUMPDEST PUSH1 0x40 MLOAD DUP1 SWAP2 SUB SWAP1 RETURN JUMPDEST PUSH2 0x82 PUSH1 0x4 DUP1 CALLDATASIZE SUB DUP2 ADD SWAP1 PUSH2 0x7D SWAP2 SWAP1 PUSH2 0x400 JUMP JUMPDEST PUSH2 0x11E JUMP JUMPDEST STOP JUMPDEST PUSH0 PUSH1 0x20 MSTORE DUP1 PUSH0 MSTORE PUSH1 0x40 PUSH0 KECCAK256 PUSH0 SWAP2 POP SWAP1 POP DUP1 SLOAD PUSH2 0x9F SWAP1 PUSH2 0x499 JUMP JUMPDEST DUP1 PUSH1 0x1F ADD PUSH1 0x20 DUP1 SWAP2 DIV MUL PUSH1 0x20 ADD PUSH1 0x40 MLOAD SWAP1 DUP2 ADD PUSH1 0x40 MSTORE DUP1 SWAP3 SWAP2 SWAP1 DUP2 DUP2 MSTORE PUSH1 0x20 ADD DUP3 DUP1 SLOAD PUSH2 0xCB SWAP1 PUSH2 0x499 JUMP JUMPDEST DUP1 ISZERO PUSH2 0x116 JUMPI DUP1 PUSH1 0x1F LT PUSH2 0xED JUMPI PUSH2 0x100 DUP1 DUP4 SLOAD DIV MUL DUP4 MSTORE SWAP2 PUSH1 0x20 ADD SWAP2 PUSH2 0x116 JUMP JUMPDEST DUP3 ADD SWAP2 SWAP1 PUSH0 MSTORE PUSH1 0x20 PUSH0 KECCAK256 SWAP1 JUMPDEST DUP2 SLOAD DUP2 MSTORE SWAP1 PUSH1 0x1 ADD SWAP1 PUSH1 0x20 ADD DUP1 DUP4 GT PUSH2 0xF9 JUMPI DUP3 SWAP1 SUB PUSH1 0x1F AND DUP3 ADD SWAP2 JUMPDEST POP POP POP POP POP DUP2 JUMP JUMPDEST DUP2 PUSH0 PUSH0 DUP6 DUP2 MSTORE PUSH1 0x20 ADD SWAP1 DUP2 MSTORE PUSH1 0x20 ADD PUSH0 KECCAK256 SWAP1 DUP2 PUSH2 0x13B SWAP2 SWAP1 PUSH2 0x669 JUMP JUMPDEST POP PUSH31 0xE7355A114C82D9220DC5A07DD1D8DA1D12753CB8320D9059DDB4CDD2145A1E DUP4 DUP4 DUP4 PUSH1 0x40 MLOAD PUSH2 0x16E SWAP4 SWAP3 SWAP2 SWAP1 PUSH2 0x756 JUMP JUMPDEST PUSH1 0x40 MLOAD DUP1 SWAP2 SUB SWAP1 LOG1 POP POP POP JUMP JUMPDEST PUSH0 PUSH1 0x40 MLOAD SWAP1 POP SWAP1 JUMP JUMPDEST PUSH0 PUSH0 REVERT JUMPDEST PUSH0 PUSH0 REVERT JUMPDEST PUSH0 DUP2 SWAP1 POP SWAP2 SWAP1 POP JUMP JUMPDEST PUSH2 0x19E DUP2 PUSH2 0x18C JUMP JUMPDEST DUP2 EQ PUSH2 0x1A8 JUMPI PUSH0 PUSH0 REVERT JUMPDEST POP JUMP JUMPDEST PUSH0 DUP2 CALLDATALOAD SWAP1 POP PUSH2 0x1B9 DUP2 PUSH2 0x195 JUMP JUMPDEST SWAP3 SWAP2 POP POP JUMP JUMPDEST PUSH0 PUSH1 0x20 DUP3 DUP5 SUB SLT ISZERO PUSH2 0x1D4 JUMPI PUSH2 0x1D3 PUSH2 0x184 JUMP JUMPDEST JUMPDEST PUSH0 PUSH2 0x1E1 DUP5 DUP3 DUP6 ADD PUSH2 0x1AB JUMP JUMPDEST SWAP2 POP POP SWAP3 SWAP2 POP POP JUMP JUMPDEST PUSH0 DUP2 MLOAD SWAP1 POP SWAP2 SWAP1 POP JUMP JUMPDEST PUSH0 DUP3 DUP3 MSTORE PUSH1 0x20 DUP3 ADD SWAP1 POP SWAP3 SWAP2 POP POP JUMP JUMPDEST DUP3 DUP2 DUP4 MCOPY PUSH0 DUP4 DUP4 ADD MSTORE POP POP POP JUMP JUMPDEST PUSH0 PUSH1 0x1F NOT PUSH1 0x1F DUP4 ADD AND SWAP1 POP SWAP2 SWAP1 POP JUMP JUMPDEST PUSH0 PUSH2 0x22C DUP3 PUSH2 0x1EA JUMP JUMPDEST PUSH2 0x236 DUP2 DUP6 PUSH2 0x1F4 JUMP JUMPDEST SWAP4 POP PUSH2 0x246 DUP2 DUP6 PUSH1 0x20 DUP7 ADD PUSH2 0x204 JUMP JUMPDEST PUSH2 0x24F DUP2 PUSH2 0x212 JUMP JUMPDEST DUP5 ADD SWAP2 POP POP SWAP3 SWAP2 POP POP JUMP JUMPDEST PUSH0 PUSH1 0x20 DUP3 ADD SWAP1 POP DUP2 DUP2 SUB PUSH0 DUP4 ADD MSTORE PUSH2 0x272 DUP2 DUP5 PUSH2 0x222 JUMP JUMPDEST SWAP1 POP SWAP3 SWAP2 POP POP JUMP JUMPDEST PUSH0 PUSH0 REVERT JUMPDEST PUSH0 PUSH0 REVERT JUMPDEST PUSH32 0x4E487B7100000000000000000000000000000000000000000000000000000000 PUSH0 MSTORE PUSH1 0x41 PUSH1 0x4 MSTORE PUSH1 0x24 PUSH0 REVERT JUMPDEST PUSH2 0x2B8 DUP3 PUSH2 0x212 JUMP JUMPDEST DUP2 ADD DUP2 DUP2 LT PUSH8 0xFFFFFFFFFFFFFFFF DUP3 GT OR ISZERO PUSH2 0x2D7 JUMPI PUSH2 0x2D6 PUSH2 0x282 JUMP JUMPDEST JUMPDEST DUP1 PUSH1 0x40 MSTORE POP POP POP JUMP JUMPDEST PUSH0 PUSH2 0x2E9 PUSH2 0x17B JUMP JUMPDEST SWAP1 POP PUSH2 0x2F5 DUP3 DUP3 PUSH2 0x2AF JUMP JUMPDEST SWAP2 SWAP1 POP JUMP JUMPDEST PUSH0 PUSH8 0xFFFFFFFFFFFFFFFF DUP3 GT ISZERO PUSH2 0x314 JUMPI PUSH2 0x313 PUSH2 0x282 JUMP JUMPDEST JUMPDEST PUSH2 0x31D DUP3 PUSH2 0x212 JUMP JUMPDEST SWAP1 POP PUSH1 0x20 DUP2 ADD SWAP1 POP SWAP2 SWAP1 POP JUMP JUMPDEST DUP3 DUP2 DUP4 CALLDATACOPY PUSH0 DUP4 DUP4 ADD MSTORE POP POP POP JUMP JUMPDEST PUSH0 PUSH2 0x34A PUSH2 0x345 DUP5 PUSH2 0x2FA JUMP JUMPDEST PUSH2 0x2E0 JUMP JUMPDEST SWAP1 POP DUP3 DUP2 MSTORE PUSH1 0x20 DUP2 ADD DUP5 DUP5 DUP5 ADD GT ISZERO PUSH2 0x366 JUMPI PUSH2 0x365 PUSH2 0x27E JUMP JUMPDEST JUMPDEST PUSH2 0x371 DUP5 DUP3 DUP6 PUSH2 0x32A JUMP JUMPDEST POP SWAP4 SWAP3 POP POP POP JUMP JUMPDEST PUSH0 DUP3 PUSH1 0x1F DUP4 ADD SLT PUSH2 0x38D JUMPI PUSH2 0x38C PUSH2 0x27A JUMP JUMPDEST JUMPDEST DUP2 CALLDATALOAD PUSH2 0x39D DUP5 DUP3 PUSH1 0x20 DUP7 ADD PUSH2 0x338 JUMP JUMPDEST SWAP2 POP POP SWAP3 SWAP2 POP POP JUMP JUMPDEST PUSH0 PUSH20 0xFFFFFFFFFFFFFFFFFFFFFFFFFFFFFFFFFFFFFFFF DUP3 AND SWAP1 POP SWAP2 SWAP1 POP JUMP JUMPDEST PUSH0 PUSH2 0x3CF DUP3 PUSH2 0x3A6 JUMP JUMPDEST SWAP1 POP SWAP2 SWAP1 POP JUMP JUMPDEST PUSH2 0x3DF DUP2 PUSH2 0x3C5 JUMP JUMPDEST DUP2 EQ PUSH2 0x3E9 JUMPI PUSH0 PUSH0 REVERT JUMPDEST POP JUMP JUMPDEST PUSH0 DUP2 CALLDATALOAD SWAP1 POP PUSH2 0x3FA DUP2 PUSH2 0x3D6 JUMP JUMPDEST SWAP3 SWAP2 POP POP JUMP JUMPDEST PUSH0 PUSH0 PUSH0 PUSH1 0x60 DUP5 DUP7 SUB SLT ISZERO PUSH2 0x417 JUMPI PUSH2 0x416 PUSH2 0x184 JUMP JUMPDEST JUMPDEST PUSH0 PUSH2 0x424 DUP7 DUP3 DUP8 ADD PUSH2 0x1AB JUMP JUMPDEST SWAP4 POP POP PUSH1 0x20 DUP5 ADD CALLDATALOAD PUSH8 0xFFFFFFFFFFFFFFFF DUP2 GT ISZERO PUSH2 0x445 JUMPI PUSH2 0x444 PUSH2 0x188 JUMP JUMPDEST JUMPDEST PUSH2 0x451 DUP7 DUP3 DUP8 ADD PUSH2 0x379 JUMP JUMPDEST SWAP3 POP POP PUSH1 0x40 PUSH2 0x462 DUP7 DUP3 DUP8 ADD PUSH2 0x3EC JUMP JUMPDEST SWAP2 POP POP SWAP3 POP SWAP3 POP SWAP3 JUMP JUMPDEST PUSH32 0x4E487B7100000000000000000000000000000000000000000000000000000000 PUSH0 MSTORE PUSH1 0x22 PUSH1 0x4 MSTORE PUSH1 0x24 PUSH0 REVERT JUMPDEST PUSH0 PUSH1 0x2 DUP3 DIV SWAP1 POP PUSH1 0x1 DUP3 AND DUP1 PUSH2 0x4B0 JUMPI PUSH1 0x7F DUP3 AND SWAP2 POP JUMPDEST PUSH1 0x20 DUP3 LT DUP2 SUB PUSH2 0x4C3 JUMPI PUSH2 0x4C2 PUSH2 0x46C JUMP JUMPDEST JUMPDEST POP SWAP2 SWAP1 POP JUMP JUMPDEST PUSH0 DUP2 SWAP1 POP DUP2 PUSH0 MSTORE PUSH1 0x20 PUSH0 KECCAK256 SWAP1 POP SWAP2 SWAP1 POP JUMP JUMPDEST PUSH0 PUSH1 0x20 PUSH1 0x1F DUP4 ADD DIV SWAP1 POP SWAP2 SWAP1 POP JUMP JUMPDEST PUSH0 DUP3 DUP3 SHL SWAP1 POP SWAP3 SWAP2 POP POP JUMP JUMPDEST PUSH0 PUSH1 0x8 DUP4 MUL PUSH2 0x525 PUSH32 0xFFFFFFFFFFFFFFFFFFFFFFFFFFFFFFFFFFFFFFFFFFFFFFFFFFFFFFFFFFFFFFFF DUP3 PUSH2 0x4EA JUMP JUMPDEST PUSH2 0x52F DUP7 DUP4 PUSH2 0x4EA JUMP JUMPDEST SWAP6 POP DUP1 NOT DUP5 AND SWAP4 POP DUP1 DUP7 AND DUP5 OR SWAP3 POP POP POP SWAP4 SWAP3 POP POP POP JUMP JUMPDEST PUSH0 DUP2 SWAP1 POP SWAP2 SWAP1 POP JUMP JUMPDEST PUSH0 PUSH2 0x56A PUSH2 0x565 PUSH2 0x560 DUP5 PUSH2 0x18C JUMP JUMPDEST PUSH2 0x547 JUMP JUMPDEST PUSH2 0x18C JUMP JUMPDEST SWAP1 POP SWAP2 SWAP1 POP JUMP JUMPDEST PUSH0 DUP2 SWAP1 POP SWAP2 SWAP1 POP JUMP JUMPDEST PUSH2 0x583 DUP4 PUSH2 0x550 JUMP JUMPDEST PUSH2 0x597 PUSH2 0x58F DUP3 PUSH2 0x571 JUMP JUMPDEST DUP5 DUP5 SLOAD PUSH2 0x4F6 JUMP JUMPDEST DUP3 SSTORE POP POP POP POP JUMP JUMPDEST PUSH0 PUSH0 SWAP1 POP SWAP1 JUMP JUMPDEST PUSH2 0x5AE PUSH2 0x59F JUMP JUMPDEST PUSH2 0x5B9 DUP2 DUP5 DUP5 PUSH2 0x57A JUMP JUMPDEST POP POP POP JUMP JUMPDEST JUMPDEST DUP2 DUP2 LT ISZERO PUSH2 0x5DC JUMPI PUSH2 0x5D1 PUSH0 DUP3 PUSH2 0x5A6 JUMP JUMPDEST PUSH1 0x1 DUP2 ADD SWAP1 POP PUSH2 0x5BF JUMP JUMPDEST POP POP JUMP JUMPDEST PUSH1 0x1F DUP3 GT ISZERO PUSH2 0x621 JUMPI PUSH2 0x5F2 DUP2 PUSH2 0x4C9 JUMP JUMPDEST PUSH2 0x5FB DUP5 PUSH2 0x4DB JUMP JUMPDEST DUP2 ADD PUSH1 0x20 DUP6 LT ISZERO PUSH2 0x60A JUMPI DUP2 SWAP1 POP JUMPDEST PUSH2 0x61E PUSH2 0x616 DUP6 PUSH2 0x4DB JUMP JUMPDEST DUP4 ADD DUP3 PUSH2 0x5BE JUMP JUMPDEST POP POP JUMPDEST POP POP POP JUMP JUMPDEST PUSH0 DUP3 DUP3 SHR SWAP1 POP SWAP3 SWAP2 POP POP JUMP JUMPDEST PUSH0 PUSH2 0x641 PUSH0 NOT DUP5 PUSH1 0x8 MUL PUSH2 0x626 JUMP JUMPDEST NOT DUP1 DUP4 AND SWAP2 POP POP SWAP3 SWAP2 POP POP JUMP JUMPDEST PUSH0 PUSH2 0x659 DUP4 DUP4 PUSH2 0x632 JUMP JUMPDEST SWAP2 POP DUP3 PUSH1 0x2 MUL DUP3 OR SWAP1 POP SWAP3 SWAP2 POP POP JUMP JUMPDEST PUSH2 0x672 DUP3 PUSH2 0x1EA JUMP JUMPDEST PUSH8 0xFFFFFFFFFFFFFFFF DUP2 GT ISZERO PUSH2 0x68B JUMPI PUSH2 0x68A PUSH2 0x282 JUMP JUMPDEST JUMPDEST PUSH2 0x695 DUP3 SLOAD PUSH2 0x499 JUMP JUMPDEST PUSH2 0x6A0 DUP3 DUP3 DUP6 PUSH2 0x5E0 JUMP JUMPDEST PUSH0 PUSH1 0x20 SWAP1 POP PUSH1 0x1F DUP4 GT PUSH1 0x1 DUP2 EQ PUSH2 0x6D1 JUMPI PUSH0 DUP5 ISZERO PUSH2 0x6BF JUMPI DUP3 DUP8 ADD MLOAD SWAP1 POP JUMPDEST PUSH2 0x6C9 DUP6 DUP3 PUSH2 0x64E JUMP JUMPDEST DUP7 SSTORE POP PUSH2 0x730 JUMP JUMPDEST PUSH1 0x1F NOT DUP5 AND PUSH2 0x6DF DUP7 PUSH2 0x4C9 JUMP JUMPDEST PUSH0 JUMPDEST DUP3 DUP2 LT ISZERO PUSH2 0x706 JUMPI DUP5 DUP10 ADD MLOAD DUP3 SSTORE PUSH1 0x1 DUP3 ADD SWAP2 POP PUSH1 0x20 DUP6 ADD SWAP5 POP PUSH1 0x20 DUP2 ADD SWAP1 POP PUSH2 0x6E1 JUMP JUMPDEST DUP7 DUP4 LT ISZERO PUSH2 0x723 JUMPI DUP5 DUP10 ADD MLOAD PUSH2 0x71F PUSH1 0x1F DUP10 AND DUP3 PUSH2 0x632 JUMP JUMPDEST DUP4 SSTORE POP JUMPDEST PUSH1 0x1 PUSH1 0x2 DUP9 MUL ADD DUP9 SSTORE POP POP POP JUMPDEST POP POP POP POP POP POP JUMP JUMPDEST PUSH2 0x741 DUP2 PUSH2 0x18C JUMP JUMPDEST DUP3 MSTORE POP POP JUMP JUMPDEST PUSH2 0x750 DUP2 PUSH2 0x3C5 JUMP JUMPDEST DUP3 MSTORE POP POP JUMP JUMPDEST PUSH0 PUSH1 0x60 DUP3 ADD SWAP1 POP PUSH2 0x769 PUSH0 DUP4 ADD DUP7 PUSH2 0x738 JUMP JUMPDEST DUP2 DUP2 SUB PUSH1 0x20 DUP4 ADD MSTORE PUSH2 0x77B DUP2 DUP6 PUSH2 0x222 JUMP JUMPDEST SWAP1 POP PUSH2 0x78A PUSH1 0x40 DUP4 ADD DUP5 PUSH2 0x747 JUMP JUMPDEST SWAP5 SWAP4 POP POP POP POP JUMP INVALID LOG2 PUSH5 0x6970667358 0x22 SLT KECCAK256 0xD2 CALLDATACOPY NOT 0xCA CALLDATASIZE BLOBBASEFEE PUSH19 0xB13F089D99DD19BAD2B79DAFA745B78A85356 DUP9 0xC3 0xAC 0xD0 0xDA 0x23 PUSH5 0x736F6C6343 STOP ADDMOD 0x1E STOP CALLER "
				},
				"gasEstimates": {
					"creation": {
						"codeDepositCost": "398400",
						"executionCost": "434",
						"totalCost": "398834"
					},
					"external": {
						"registerStudent(uint256,string,address)": "infinite",
						"studentName(uint256)": "infinite"
					}
				},
				"methodIdentifiers": {
					"registerStudent(uint256,string,address)": "af331f79",
					"studentName(uint256)": "a031fc56"
				}
			},
			"storageLayout": {
				"storage": [
					{
						"astId": 13,
						"contract": "contracts/StudentRegistry.sol:StudentRegistry",
						"label": "studentName",
						"offset": 0,
						"slot": "0",
						"type": "t_mapping(t_uint256,t_string_storage)"
					}
				],
				"types": {
					"t_mapping(t_uint256,t_string_storage)": {
						"encoding": "mapping",
						"key": "t_uint256",
						"label": "mapping(uint256 => string)",
						"numberOfBytes": "32",
						"value": "t_string_storage"
					},
					"t_string_storage": {
						"encoding": "bytes",
						"label": "string",
						"numberOfBytes": "32"
					},
					"t_uint256": {
						"encoding": "inplace",
						"label": "uint256",
						"numberOfBytes": "32"
					}
				}
			},
			"userdoc": {
				"kind": "user",
				"methods": {},
				"version": 1
			}
		}
	}
}