{
	"contracts/Fixed.sol": {
		"Fixed": {
			"abi": [
				{
					"inputs": [],
					"name": "getLength",
					"outputs": [
						{
							"internalType": "uint256",
							"name": "",
							"type": "uint256"
						}
					],
					"stateMutability": "view",
					"type": "function"
				},
				{
					"inputs": [
						{
							"internalType": "uint256",
							"name": "index",
							"type": "uint256"
						}
					],
					"name": "getValue",
					"outputs": [
						{
							"internalType": "uint256",
							"name": "",
							"type": "uint256"
						}
					],
					"stateMutability": "view",
					"type": "function"
				},
				{
					"inputs": [
						{
							"internalType": "uint256",
							"name": "",
							"type": "uint256"
						}
					],
					"name": "numbers",
					"outputs": [
						{
							"internalType": "uint256",
							"name": "",
							"type": "uint256"
						}
					],
					"stateMutability": "view",
					"type": "function"
				},
				{
					"inputs": [
						{
							"internalType": "uint256",
							"name": "index",
							"type": "uint256"
						},
						{
							"internalType": "uint256",
							"name": "value",
							"type": "uint256"
						}
					],
					"name": "setValue",
					"outputs": [],
					"stateMutability": "nonpayable",
					"type": "function"
				}
			],
			"devdoc": {
				"kind": "dev",
				"methods": {},
				"version": 1
			},
			"evm": {
				"assembly": "    /* \"contracts/Fixed.sol\":61:564  contract Fixed {... */\n  mstore(0x40, 0x80)\n    /* \"contracts/Fixed.sol\":85:125  uint[3] public numbers = [uint (1), 2,3] */\n  mload(0x40)\n  dup1\n  0x60\n  add\n  0x40\n  mstore\n  dup1\n    /* \"contracts/Fixed.sol\":117:118  1 */\n  0x01\n    /* \"contracts/Fixed.sol\":85:125  uint[3] public numbers = [uint (1), 2,3] */\n  dup2\n  mstore\n  0x20\n  add\n    /* \"contracts/Fixed.sol\":121:122  2 */\n  0x02\n    /* \"contracts/Fixed.sol\":85:125  uint[3] public numbers = [uint (1), 2,3] */\n  dup2\n  mstore\n  0x20\n  add\n    /* \"contracts/Fixed.sol\":123:124  3 */\n  0x03\n    /* \"contracts/Fixed.sol\":85:125  uint[3] public numbers = [uint (1), 2,3] */\n  dup2\n  mstore\n  pop\n  0x00\n  swap1\n  0x03\n  tag_1\n  swap3\n  swap2\n  swap1\n  tag_2\n  jump\t// in\ntag_1:\n  pop\n    /* \"contracts/Fixed.sol\":61:564  contract Fixed {... */\n  callvalue\n  dup1\n  iszero\n  tag_3\n  jumpi\n  revert(0x00, 0x00)\ntag_3:\n  pop\n  jump(tag_4)\ntag_2:\n  dup3\n  0x03\n  dup2\n  add\n  swap3\n  dup3\n  iszero\n  tag_5\n  jumpi\n  swap2\n  0x20\n  mul\n  dup3\n  add\ntag_6:\n  dup3\n  dup2\n  gt\n  iszero\n  tag_7\n  jumpi\n  dup3\n  mload\n  dup3\n  sstore\n  swap2\n  0x20\n  add\n  swap2\n  swap1\n  0x01\n  add\n  swap1\n  jump(tag_6)\ntag_7:\ntag_5:\n  pop\n  swap1\n  pop\n  tag_8\n  swap2\n  swap1\n  tag_9\n  jump\t// in\ntag_8:\n  pop\n  swap1\n  jump\t// out\ntag_9:\ntag_10:\n  dup1\n  dup3\n  gt\n  iszero\n  tag_11\n  jumpi\n  0x00\n  dup2\n  0x00\n  swap1\n  sstore\n  pop\n  0x01\n  add\n  jump(tag_10)\ntag_11:\n  pop\n  swap1\n  jump\t// out\ntag_4:\n  dataSize(sub_0)\n  dup1\n  dataOffset(sub_0)\n  0x00\n  codecopy\n  0x00\n  return\nstop\n\nsub_0: assembly {\n        /* \"contracts/Fixed.sol\":61:564  contract Fixed {... */\n      mstore(0x40, 0x80)\n      callvalue\n      dup1\n      iszero\n      tag_1\n      jumpi\n      revert(0x00, 0x00)\n    tag_1:\n      pop\n      jumpi(tag_2, lt(calldatasize, 0x04))\n      shr(0xe0, calldataload(0x00))\n      dup1\n      0x0ff4c916\n      eq\n      tag_3\n      jumpi\n      dup1\n      0x7b8d56e3\n      eq\n      tag_4\n      jumpi\n      dup1\n      0xbe1c766b\n      eq\n      tag_5\n      jumpi\n      dup1\n      0xd39fa233\n      eq\n      tag_6\n      jumpi\n    tag_2:\n      revert(0x00, 0x00)\n        /* \"contracts/Fixed.sol\":134:298  function getValue(uint index) external view returns (uint) {... */\n    tag_3:\n      tag_7\n      0x04\n      dup1\n      calldatasize\n      sub\n      dup2\n      add\n      swap1\n      tag_8\n      swap2\n      swap1\n      tag_9\n      jump\t// in\n    tag_8:\n      tag_10\n      jump\t// in\n    tag_7:\n      mload(0x40)\n      tag_11\n      swap2\n      swap1\n      tag_12\n      jump\t// in\n    tag_11:\n      mload(0x40)\n      dup1\n      swap2\n      sub\n      swap1\n      return\n        /* \"contracts/Fixed.sol\":306:463  function setValue(uint index, uint value) external {... */\n    tag_4:\n      tag_13\n      0x04\n      dup1\n      calldatasize\n      sub\n      dup2\n      add\n      swap1\n      tag_14\n      swap2\n      swap1\n      tag_15\n      jump\t// in\n    tag_14:\n      tag_16\n      jump\t// in\n    tag_13:\n      stop\n        /* \"contracts/Fixed.sol\":471:561  function getLength() external view returns (uint) {... */\n    tag_5:\n      tag_17\n      tag_18\n      jump\t// in\n    tag_17:\n      mload(0x40)\n      tag_19\n      swap2\n      swap1\n      tag_12\n      jump\t// in\n    tag_19:\n      mload(0x40)\n      dup1\n      swap2\n      sub\n      swap1\n      return\n        /* \"contracts/Fixed.sol\":85:125  uint[3] public numbers = [uint (1), 2,3] */\n    tag_6:\n      tag_20\n      0x04\n      dup1\n      calldatasize\n      sub\n      dup2\n      add\n      swap1\n      tag_21\n      swap2\n      swap1\n      tag_9\n      jump\t// in\n    tag_21:\n      tag_22\n      jump\t// in\n    tag_20:\n      mload(0x40)\n      tag_23\n      swap2\n      swap1\n      tag_12\n      jump\t// in\n    tag_23:\n      mload(0x40)\n      dup1\n      swap2\n      sub\n      swap1\n      return\n        /* \"contracts/Fixed.sol\":134:298  function getValue(uint index) external view returns (uint) {... */\n    tag_10:\n        /* \"contracts/Fixed.sol\":187:191  uint */\n      0x00\n        /* \"contracts/Fixed.sol\":220:234  numbers.length */\n      0x03\n        /* \"contracts/Fixed.sol\":212:217  index */\n      dup3\n        /* \"contracts/Fixed.sol\":212:234  index < numbers.length */\n      lt\n        /* \"contracts/Fixed.sol\":204:258  require(index < numbers.length, \"Index out of bounds\") */\n      tag_25\n      jumpi\n      mload(0x40)\n      0x08c379a000000000000000000000000000000000000000000000000000000000\n      dup2\n      mstore\n      0x04\n      add\n      tag_26\n      swap1\n      tag_27\n      jump\t// in\n    tag_26:\n      mload(0x40)\n      dup1\n      swap2\n      sub\n      swap1\n      revert\n    tag_25:\n        /* \"contracts/Fixed.sol\":276:283  numbers */\n      0x00\n        /* \"contracts/Fixed.sol\":284:289  index */\n      dup3\n        /* \"contracts/Fixed.sol\":276:290  numbers[index] */\n      0x03\n      dup2\n      lt\n      tag_28\n      jumpi\n      tag_29\n      tag_30\n      jump\t// in\n    tag_29:\n    tag_28:\n      add\n      sload\n        /* \"contracts/Fixed.sol\":269:290  return numbers[index] */\n      swap1\n      pop\n        /* \"contracts/Fixed.sol\":134:298  function getValue(uint index) external view returns (uint) {... */\n      swap2\n      swap1\n      pop\n      jump\t// out\n        /* \"contracts/Fixed.sol\":306:463  function setValue(uint index, uint value) external {... */\n    tag_16:\n        /* \"contracts/Fixed.sol\":384:398  numbers.length */\n      0x03\n        /* \"contracts/Fixed.sol\":376:381  index */\n      dup3\n        /* \"contracts/Fixed.sol\":376:398  index < numbers.length */\n      lt\n        /* \"contracts/Fixed.sol\":368:422  require(index < numbers.length, \"Index out of bounds\") */\n      tag_33\n      jumpi\n      mload(0x40)\n      0x08c379a000000000000000000000000000000000000000000000000000000000\n      dup2\n      mstore\n      0x04\n      add\n      tag_34\n      swap1\n      tag_27\n      jump\t// in\n    tag_34:\n      mload(0x40)\n      dup1\n      swap2\n      sub\n      swap1\n      revert\n    tag_33:\n        /* \"contracts/Fixed.sol\":450:455  value */\n      dup1\n        /* \"contracts/Fixed.sol\":433:440  numbers */\n      0x00\n        /* \"contracts/Fixed.sol\":441:446  index */\n      dup4\n        /* \"contracts/Fixed.sol\":433:447  numbers[index] */\n      0x03\n      dup2\n      lt\n      tag_35\n      jumpi\n      tag_36\n      tag_30\n      jump\t// in\n    tag_36:\n    tag_35:\n      add\n        /* \"contracts/Fixed.sol\":433:455  numbers[index] = value */\n      dup2\n      swap1\n      sstore\n      pop\n        /* \"contracts/Fixed.sol\":306:463  function setValue(uint index, uint value) external {... */\n      pop\n      pop\n      jump\t// out\n        /* \"contracts/Fixed.sol\":471:561  function getLength() external view returns (uint) {... */\n    tag_18:\n        /* \"contracts/Fixed.sol\":515:519  uint */\n      0x00\n        /* \"contracts/Fixed.sol\":539:553  numbers.length */\n      0x03\n        /* \"contracts/Fixed.sol\":532:553  return numbers.length */\n      swap1\n      pop\n        /* \"contracts/Fixed.sol\":471:561  function getLength() external view returns (uint) {... */\n      swap1\n      jump\t// out\n        /* \"contracts/Fixed.sol\":85:125  uint[3] public numbers = [uint (1), 2,3] */\n    tag_22:\n      0x00\n      dup2\n      0x03\n      dup2\n      lt\n      tag_39\n      jumpi\n      0x00\n      dup1\n      revert\n    tag_39:\n      add\n      0x00\n      swap2\n      pop\n      swap1\n      pop\n      sload\n      dup2\n      jump\t// out\n        /* \"#utility.yul\":88:205   */\n    tag_42:\n        /* \"#utility.yul\":197:198   */\n      0x00\n        /* \"#utility.yul\":194:195   */\n      0x00\n        /* \"#utility.yul\":187:199   */\n      revert\n        /* \"#utility.yul\":334:411   */\n    tag_44:\n        /* \"#utility.yul\":371:378   */\n      0x00\n        /* \"#utility.yul\":400:405   */\n      dup2\n        /* \"#utility.yul\":389:405   */\n      swap1\n      pop\n        /* \"#utility.yul\":334:411   */\n      swap2\n      swap1\n      pop\n      jump\t// out\n        /* \"#utility.yul\":417:539   */\n    tag_45:\n        /* \"#utility.yul\":490:514   */\n      tag_57\n        /* \"#utility.yul\":508:513   */\n      dup2\n        /* \"#utility.yul\":490:514   */\n      tag_44\n      jump\t// in\n    tag_57:\n        /* \"#utility.yul\":483:488   */\n      dup2\n        /* \"#utility.yul\":480:515   */\n      eq\n        /* \"#utility.yul\":470:533   */\n      tag_58\n      jumpi\n        /* \"#utility.yul\":529:530   */\n      0x00\n        /* \"#utility.yul\":526:527   */\n      0x00\n        /* \"#utility.yul\":519:531   */\n      revert\n        /* \"#utility.yul\":470:533   */\n    tag_58:\n        /* \"#utility.yul\":417:539   */\n      pop\n      jump\t// out\n        /* \"#utility.yul\":545:684   */\n    tag_46:\n        /* \"#utility.yul\":591:596   */\n      0x00\n        /* \"#utility.yul\":629:635   */\n      dup2\n        /* \"#utility.yul\":616:636   */\n      calldataload\n        /* \"#utility.yul\":607:636   */\n      swap1\n      pop\n        /* \"#utility.yul\":645:678   */\n      tag_60\n        /* \"#utility.yul\":672:677   */\n      dup2\n        /* \"#utility.yul\":645:678   */\n      tag_45\n      jump\t// in\n    tag_60:\n        /* \"#utility.yul\":545:684   */\n      swap3\n      swap2\n      pop\n      pop\n      jump\t// out\n        /* \"#utility.yul\":690:1019   */\n    tag_9:\n        /* \"#utility.yul\":749:755   */\n      0x00\n        /* \"#utility.yul\":798:800   */\n      0x20\n        /* \"#utility.yul\":786:795   */\n      dup3\n        /* \"#utility.yul\":777:784   */\n      dup5\n        /* \"#utility.yul\":773:796   */\n      sub\n        /* \"#utility.yul\":769:801   */\n      slt\n        /* \"#utility.yul\":766:885   */\n      iszero\n      tag_62\n      jumpi\n        /* \"#utility.yul\":804:883   */\n      tag_63\n      tag_42\n      jump\t// in\n    tag_63:\n        /* \"#utility.yul\":766:885   */\n    tag_62:\n        /* \"#utility.yul\":924:925   */\n      0x00\n        /* \"#utility.yul\":949:1002   */\n      tag_64\n        /* \"#utility.yul\":994:1001   */\n      dup5\n        /* \"#utility.yul\":985:991   */\n      dup3\n        /* \"#utility.yul\":974:983   */\n      dup6\n        /* \"#utility.yul\":970:992   */\n      add\n        /* \"#utility.yul\":949:1002   */\n      tag_46\n      jump\t// in\n    tag_64:\n        /* \"#utility.yul\":939:1002   */\n      swap2\n      pop\n        /* \"#utility.yul\":895:1012   */\n      pop\n        /* \"#utility.yul\":690:1019   */\n      swap3\n      swap2\n      pop\n      pop\n      jump\t// out\n        /* \"#utility.yul\":1025:1143   */\n    tag_47:\n        /* \"#utility.yul\":1112:1136   */\n      tag_66\n        /* \"#utility.yul\":1130:1135   */\n      dup2\n        /* \"#utility.yul\":1112:1136   */\n      tag_44\n      jump\t// in\n    tag_66:\n        /* \"#utility.yul\":1107:1110   */\n      dup3\n        /* \"#utility.yul\":1100:1137   */\n      mstore\n        /* \"#utility.yul\":1025:1143   */\n      pop\n      pop\n      jump\t// out\n        /* \"#utility.yul\":1149:1371   */\n    tag_12:\n        /* \"#utility.yul\":1242:1246   */\n      0x00\n        /* \"#utility.yul\":1280:1282   */\n      0x20\n        /* \"#utility.yul\":1269:1278   */\n      dup3\n        /* \"#utility.yul\":1265:1283   */\n      add\n        /* \"#utility.yul\":1257:1283   */\n      swap1\n      pop\n        /* \"#utility.yul\":1293:1364   */\n      tag_68\n        /* \"#utility.yul\":1361:1362   */\n      0x00\n        /* \"#utility.yul\":1350:1359   */\n      dup4\n        /* \"#utility.yul\":1346:1363   */\n      add\n        /* \"#utility.yul\":1337:1343   */\n      dup5\n        /* \"#utility.yul\":1293:1364   */\n      tag_47\n      jump\t// in\n    tag_68:\n        /* \"#utility.yul\":1149:1371   */\n      swap3\n      swap2\n      pop\n      pop\n      jump\t// out\n        /* \"#utility.yul\":1377:1851   */\n    tag_15:\n        /* \"#utility.yul\":1445:1451   */\n      0x00\n        /* \"#utility.yul\":1453:1459   */\n      0x00\n        /* \"#utility.yul\":1502:1504   */\n      0x40\n        /* \"#utility.yul\":1490:1499   */\n      dup4\n        /* \"#utility.yul\":1481:1488   */\n      dup6\n        /* \"#utility.yul\":1477:1500   */\n      sub\n        /* \"#utility.yul\":1473:1505   */\n      slt\n        /* \"#utility.yul\":1470:1589   */\n      iszero\n      tag_70\n      jumpi\n        /* \"#utility.yul\":1508:1587   */\n      tag_71\n      tag_42\n      jump\t// in\n    tag_71:\n        /* \"#utility.yul\":1470:1589   */\n    tag_70:\n        /* \"#utility.yul\":1628:1629   */\n      0x00\n        /* \"#utility.yul\":1653:1706   */\n      tag_72\n        /* \"#utility.yul\":1698:1705   */\n      dup6\n        /* \"#utility.yul\":1689:1695   */\n      dup3\n        /* \"#utility.yul\":1678:1687   */\n      dup7\n        /* \"#utility.yul\":1674:1696   */\n      add\n        /* \"#utility.yul\":1653:1706   */\n      tag_46\n      jump\t// in\n    tag_72:\n        /* \"#utility.yul\":1643:1706   */\n      swap3\n      pop\n        /* \"#utility.yul\":1599:1716   */\n      pop\n        /* \"#utility.yul\":1755:1757   */\n      0x20\n        /* \"#utility.yul\":1781:1834   */\n      tag_73\n        /* \"#utility.yul\":1826:1833   */\n      dup6\n        /* \"#utility.yul\":1817:1823   */\n      dup3\n        /* \"#utility.yul\":1806:1815   */\n      dup7\n        /* \"#utility.yul\":1802:1824   */\n      add\n        /* \"#utility.yul\":1781:1834   */\n      tag_46\n      jump\t// in\n    tag_73:\n        /* \"#utility.yul\":1771:1834   */\n      swap2\n      pop\n        /* \"#utility.yul\":1726:1844   */\n      pop\n        /* \"#utility.yul\":1377:1851   */\n      swap3\n      pop\n      swap3\n      swap1\n      pop\n      jump\t// out\n        /* \"#utility.yul\":1857:2026   */\n    tag_48:\n        /* \"#utility.yul\":1941:1952   */\n      0x00\n        /* \"#utility.yul\":1975:1981   */\n      dup3\n        /* \"#utility.yul\":1970:1973   */\n      dup3\n        /* \"#utility.yul\":1963:1982   */\n      mstore\n        /* \"#utility.yul\":2015:2019   */\n      0x20\n        /* \"#utility.yul\":2010:2013   */\n      dup3\n        /* \"#utility.yul\":2006:2020   */\n      add\n        /* \"#utility.yul\":1991:2020   */\n      swap1\n      pop\n        /* \"#utility.yul\":1857:2026   */\n      swap3\n      swap2\n      pop\n      pop\n      jump\t// out\n        /* \"#utility.yul\":2032:2201   */\n    tag_49:\n        /* \"#utility.yul\":2172:2193   */\n      0x496e646578206f7574206f6620626f756e647300000000000000000000000000\n        /* \"#utility.yul\":2168:2169   */\n      0x00\n        /* \"#utility.yul\":2160:2166   */\n      dup3\n        /* \"#utility.yul\":2156:2170   */\n      add\n        /* \"#utility.yul\":2149:2194   */\n      mstore\n        /* \"#utility.yul\":2032:2201   */\n      pop\n      jump\t// out\n        /* \"#utility.yul\":2207:2573   */\n    tag_50:\n        /* \"#utility.yul\":2349:2352   */\n      0x00\n        /* \"#utility.yul\":2370:2437   */\n      tag_77\n        /* \"#utility.yul\":2434:2436   */\n      0x13\n        /* \"#utility.yul\":2429:2432   */\n      dup4\n        /* \"#utility.yul\":2370:2437   */\n      tag_48\n      jump\t// in\n    tag_77:\n        /* \"#utility.yul\":2363:2437   */\n      swap2\n      pop\n        /* \"#utility.yul\":2446:2539   */\n      tag_78\n        /* \"#utility.yul\":2535:2538   */\n      dup3\n        /* \"#utility.yul\":2446:2539   */\n      tag_49\n      jump\t// in\n    tag_78:\n        /* \"#utility.yul\":2564:2566   */\n      0x20\n        /* \"#utility.yul\":2559:2562   */\n      dup3\n        /* \"#utility.yul\":2555:2567   */\n      add\n        /* \"#utility.yul\":2548:2567   */\n      swap1\n      pop\n        /* \"#utility.yul\":2207:2573   */\n      swap2\n      swap1\n      pop\n      jump\t// out\n        /* \"#utility.yul\":2579:2998   */\n    tag_27:\n        /* \"#utility.yul\":2745:2749   */\n      0x00\n        /* \"#utility.yul\":2783:2785   */\n      0x20\n        /* \"#utility.yul\":2772:2781   */\n      dup3\n        /* \"#utility.yul\":2768:2786   */\n      add\n        /* \"#utility.yul\":2760:2786   */\n      swap1\n      pop\n        /* \"#utility.yul\":2832:2841   */\n      dup2\n        /* \"#utility.yul\":2826:2830   */\n      dup2\n        /* \"#utility.yul\":2822:2842   */\n      sub\n        /* \"#utility.yul\":2818:2819   */\n      0x00\n        /* \"#utility.yul\":2807:2816   */\n      dup4\n        /* \"#utility.yul\":2803:2820   */\n      add\n        /* \"#utility.yul\":2796:2843   */\n      mstore\n        /* \"#utility.yul\":2860:2991   */\n      tag_80\n        /* \"#utility.yul\":2986:2990   */\n      dup2\n        /* \"#utility.yul\":2860:2991   */\n      tag_50\n      jump\t// in\n    tag_80:\n        /* \"#utility.yul\":2852:2991   */\n      swap1\n      pop\n        /* \"#utility.yul\":2579:2998   */\n      swap2\n      swap1\n      pop\n      jump\t// out\n        /* \"#utility.yul\":3004:3184   */\n    tag_30:\n        /* \"#utility.yul\":3052:3129   */\n      0x4e487b7100000000000000000000000000000000000000000000000000000000\n        /* \"#utility.yul\":3049:3050   */\n      0x00\n        /* \"#utility.yul\":3042:3130   */\n      mstore\n        /* \"#utility.yul\":3149:3153   */\n      0x32\n        /* \"#utility.yul\":3146:3147   */\n      0x04\n        /* \"#utility.yul\":3139:3154   */\n      mstore\n        /* \"#utility.yul\":3173:3177   */\n      0x24\n        /* \"#utility.yul\":3170:3171   */\n      0x00\n        /* \"#utility.yul\":3163:3178   */\n      revert\n\n    auxdata: 0xa2646970667358221220aea2bcfe8ccc853ab6b5c6f419e1e05001a20434a1e7d662355c5998e75a330664736f6c634300081e0033\n}\n",
				"bytecode": {
					"linkReferences": {},
					"object": "60806040526040518060600160405280600181526020016002815260200160038152505f906003602f929190603f565b50348015603a575f5ffd5b506093565b8260038101928215606b579160200282015b82811115606a5782518255916020019190600101906051565b5b50905060769190607a565b5090565b5b80821115608f575f815f905550600101607b565b5090565b61036b806100a05f395ff3fe608060405234801561000f575f5ffd5b506004361061004a575f3560e01c80630ff4c9161461004e5780637b8d56e31461007e578063be1c766b1461009a578063d39fa233146100b8575b5f5ffd5b610068600480360381019061006391906101ff565b6100e8565b6040516100759190610239565b60405180910390f35b61009860048036038101906100939190610252565b610148565b005b6100a26101a8565b6040516100af9190610239565b60405180910390f35b6100d260048036038101906100cd91906101ff565b6101b0565b6040516100df9190610239565b60405180910390f35b5f6003821061012c576040517f08c379a0000000000000000000000000000000000000000000000000000000008152600401610123906102ea565b60405180910390fd5b5f826003811061013f5761013e610308565b5b01549050919050565b6003821061018b576040517f08c379a0000000000000000000000000000000000000000000000000000000008152600401610182906102ea565b60405180910390fd5b805f836003811061019f5761019e610308565b5b01819055505050565b5f6003905090565b5f81600381106101be575f80fd5b015f915090505481565b5f5ffd5b5f819050919050565b6101de816101cc565b81146101e8575f5ffd5b50565b5f813590506101f9816101d5565b92915050565b5f60208284031215610214576102136101c8565b5b5f610221848285016101eb565b91505092915050565b610233816101cc565b82525050565b5f60208201905061024c5f83018461022a565b92915050565b5f5f60408385031215610268576102676101c8565b5b5f610275858286016101eb565b9250506020610286858286016101eb565b9150509250929050565b5f82825260208201905092915050565b7f496e646578206f7574206f6620626f756e6473000000000000000000000000005f82015250565b5f6102d4601383610290565b91506102df826102a0565b602082019050919050565b5f6020820190508181035f830152610301816102c8565b9050919050565b7f4e487b71000000000000000000000000000000000000000000000000000000005f52603260045260245ffdfea2646970667358221220aea2bcfe8ccc853ab6b5c6f419e1e05001a20434a1e7d662355c5998e75a330664736f6c634300081e0033",
					"opcodes": "PUSH1 0x80 PUSH1 0x40 MSTORE PUSH1 0x40 MLOAD DUP1 PUSH1 0x60 ADD PUSH1 0x40 MSTORE DUP1 PUSH1 0x1 DUP2 MSTORE PUSH1 0x20 ADD PUSH1 0x2 DUP2 MSTORE PUSH1 0x20 ADD PUSH1 0x3 DUP2 MSTORE POP PUSH0 SWAP1 PUSH1 0x3 PUSH1 0x2F SWAP3 SWAP2 SWAP1 PUSH1 0x3F JUMP JUMPDEST POP CALLVALUE DUP1 ISZERO PUSH1 0x3A JUMPI PUSH0 PUSH0 REVERT JUMPDEST POP PUSH1 0x93 JUMP JUMPDEST DUP3 PUSH1 0x3 DUP2 ADD SWAP3 DUP3 ISZERO PUSH1 0x6B JUMPI SWAP2 PUSH1 0x20 MUL DUP3 ADD JUMPDEST DUP3 DUP2 GT ISZERO PUSH1 0x6A JUMPI DUP3 MLOAD DUP3 SSTORE SWAP2 PUSH1 0x20 ADD SWAP2 SWAP1 PUSH1 0x1 ADD SWAP1 PUSH1 0x51 JUMP JUMPDEST JUMPDEST POP SWAP1 POP PUSH1 0x76 SWAP2 SWAP1 PUSH1 0x7A JUMP JUMPDEST POP SWAP1 JUMP JUMPDEST JUMPDEST DUP1 DUP3 GT ISZERO PUSH1 0x8F JUMPI PUSH0 DUP2 PUSH0 SWAP1 SSTORE POP PUSH1 0x1 ADD PUSH1 0x7B JUMP JUMPDEST POP SWAP1 JUMP JUMPDEST PUSH2 0x36B DUP1 PUSH2 0xA0 PUSH0 CODECOPY PUSH0 RETURN INVALID PUSH1 0x80 PUSH1 0x40 MSTORE CALLVALUE DUP1 ISZERO PUSH2 0xF JUMPI PUSH0 PUSH0 REVERT JUMPDEST POP PUSH1 0x4 CALLDATASIZE LT PUSH2 0x4A JUMPI PUSH0 CALLDATALOAD PUSH1 0xE0 SHR DUP1 PUSH4 0xFF4C916 EQ PUSH2 0x4E JUMPI DUP1 PUSH4 0x7B8D56E3 EQ PUSH2 0x7E JUMPI DUP1 PUSH4 0xBE1C766B EQ PUSH2 0x9A JUMPI DUP1 PUSH4 0xD39FA233 EQ PUSH2 0xB8 JUMPI JUMPDEST PUSH0 PUSH0 REVERT JUMPDEST PUSH2 0x68 PUSH1 0x4 DUP1 CALLDATASIZE SUB DUP2 ADD SWAP1 PUSH2 0x63 SWAP2 SWAP1 PUSH2 0x1FF JUMP JUMPDEST PUSH2 0xE8 JUMP JUMPDEST PUSH1 0x40 MLOAD PUSH2 0x75 SWAP2 SWAP1 PUSH2 0x239 JUMP JUMPDEST PUSH1 0x40 MLOAD DUP1 SWAP2 SUB SWAP1 RETURN JUMPDEST PUSH2 0x98 PUSH1 0x4 DUP1 CALLDATASIZE SUB DUP2 ADD SWAP1 PUSH2 0x93 SWAP2 SWAP1 PUSH2 0x252 JUMP JUMPDEST PUSH2 0x148 JUMP JUMPDEST STOP JUMPDEST PUSH2 0xA2 PUSH2 0x1A8 JUMP JUMPDEST PUSH1 0x40 MLOAD PUSH2 0xAF SWAP2 SWAP1 PUSH2 0x239 JUMP JUMPDEST PUSH1 0x40 MLOAD DUP1 SWAP2 SUB SWAP1 RETURN JUMPDEST PUSH2 0xD2 PUSH1 0x4 DUP1 CALLDATASIZE SUB DUP2 ADD SWAP1 PUSH2 0xCD SWAP2 SWAP1 PUSH2 0x1FF JUMP JUMPDEST PUSH2 0x1B0 JUMP JUMPDEST PUSH1 0x40 MLOAD PUSH2 0xDF SWAP2 SWAP1 PUSH2 0x239 JUMP JUMPDEST PUSH1 0x40 MLOAD DUP1 SWAP2 SUB SWAP1 RETURN JUMPDEST PUSH0 PUSH1 0x3 DUP3 LT PUSH2 0x12C JUMPI PUSH1 0x40 MLOAD PUSH32 0x8C379A000000000000000000000000000000000000000000000000000000000 DUP2 MSTORE PUSH1 0x4 ADD PUSH2 0x123 SWAP1 PUSH2 0x2EA JUMP JUMPDEST PUSH1 0x40 MLOAD DUP1 SWAP2 SUB SWAP1 REVERT JUMPDEST PUSH0 DUP3 PUSH1 0x3 DUP2 LT PUSH2 0x13F JUMPI PUSH2 0x13E PUSH2 0x308 JUMP JUMPDEST JUMPDEST ADD SLOAD SWAP1 POP SWAP2 SWAP1 POP JUMP JUMPDEST PUSH1 0x3 DUP3 LT PUSH2 0x18B JUMPI PUSH1 0x40 MLOAD PUSH32 0x8C379A000000000000000000000000000000000000000000000000000000000 DUP2 MSTORE PUSH1 0x4 ADD PUSH2 0x182 SWAP1 PUSH2 0x2EA JUMP JUMPDEST PUSH1 0x40 MLOAD DUP1 SWAP2 SUB SWAP1 REVERT JUMPDEST DUP1 PUSH0 DUP4 PUSH1 0x3 DUP2 LT PUSH2 0x19F JUMPI PUSH2 0x19E PUSH2 0x308 JUMP JUMPDEST JUMPDEST ADD DUP2 SWAP1 SSTORE POP POP POP JUMP JUMPDEST PUSH0 PUSH1 0x3 SWAP1 POP SWAP1 JUMP JUMPDEST PUSH0 DUP2 PUSH1 0x3 DUP2 LT PUSH2 0x1BE JUMPI PUSH0 DUP1 REVERT JUMPDEST ADD PUSH0 SWAP2 POP SWAP1 POP SLOAD DUP2 JUMP JUMPDEST PUSH0 PUSH0 REVERT JUMPDEST PUSH0 DUP2 SWAP1 POP SWAP2 SWAP1 POP JUMP JUMPDEST PUSH2 0x1DE DUP2 PUSH2 0x1CC JUMP JUMPDEST DUP2 EQ PUSH2 0x1E8 JUMPI PUSH0 PUSH0 REVERT JUMPDEST POP JUMP JUMPDEST PUSH0 DUP2 CALLDATALOAD SWAP1 POP PUSH2 0x1F9 DUP2 PUSH2 0x1D5 JUMP JUMPDEST SWAP3 SWAP2 POP POP JUMP JUMPDEST PUSH0 PUSH1 0x20 DUP3 DUP5 SUB SLT ISZERO PUSH2 0x214 JUMPI PUSH2 0x213 PUSH2 0x1C8 JUMP JUMPDEST JUMPDEST PUSH0 PUSH2 0x221 DUP5 DUP3 DUP6 ADD PUSH2 0x1EB JUMP JUMPDEST SWAP2 POP POP SWAP3 SWAP2 POP POP JUMP JUMPDEST PUSH2 0x233 DUP2 PUSH2 0x1CC JUMP JUMPDEST DUP3 MSTORE POP POP JUMP JUMPDEST PUSH0 PUSH1 0x20 DUP3 ADD SWAP1 POP PUSH2 0x24C PUSH0 DUP4 ADD DUP5 PUSH2 0x22A JUMP JUMPDEST SWAP3 SWAP2 POP POP JUMP JUMPDEST PUSH0 PUSH0 PUSH1 0x40 DUP4 DUP6 SUB SLT ISZERO PUSH2 0x268 JUMPI PUSH2 0x267 PUSH2 0x1C8 JUMP JUMPDEST JUMPDEST PUSH0 PUSH2 0x275 DUP6 DUP3 DUP7 ADD PUSH2 0x1EB JUMP JUMPDEST SWAP3 POP POP PUSH1 0x20 PUSH2 0x286 DUP6 DUP3 DUP7 ADD PUSH2 0x1EB JUMP JUMPDEST SWAP2 POP POP SWAP3 POP SWAP3 SWAP1 POP JUMP JUMPDEST PUSH0 DUP3 DUP3 MSTORE PUSH1 0x20 DUP3 ADD SWAP1 POP SWAP3 SWAP2 POP POP JUMP JUMPDEST PUSH32 0x496E646578206F7574206F6620626F756E647300000000000000000000000000 PUSH0 DUP3 ADD MSTORE POP JUMP JUMPDEST PUSH0 PUSH2 0x2D4 PUSH1 0x13 DUP4 PUSH2 0x290 JUMP JUMPDEST SWAP2 POP PUSH2 0x2DF DUP3 PUSH2 0x2A0 JUMP JUMPDEST PUSH1 0x20 DUP3 ADD SWAP1 POP SWAP2 SWAP1 POP JUMP JUMPDEST PUSH0 PUSH1 0x20 DUP3 ADD SWAP1 POP DUP2 DUP2 SUB PUSH0 DUP4 ADD MSTORE PUSH2 0x301 DUP2 PUSH2 0x2C8 JUMP JUMPDEST SWAP1 POP SWAP2 SWAP1 POP JUMP JUMPDEST PUSH32 0x4E487B7100000000000000000000000000000000000000000000000000000000 PUSH0 MSTORE PUSH1 0x32 PUSH1 0x4 MSTORE PUSH1 0x24 PUSH0 REVERT INVALID LOG2 PUSH5 0x6970667358 0x22 SLT KECCAK256 0xAE LOG2 0xBC INVALID DUP13 0xCC DUP6 GASPRICE 0xB6 0xB5 0xC6 DELEGATECALL NOT RJUMPI 0xE050 ADD LOG2 DIV CALLVALUE LOG1 SWAPN 0xD6 PUSH3 0x355C59 SWAP9 SWAPN 0x5A CALLER MOD PUSH5 0x736F6C6343 STOP ADDMOD 0x1E STOP CALLER "
				},
				"gasEstimates": {
					"creation": {
						"codeDepositCost": "175000",
						"executionCost": "infinite",
						"totalCost": "infinite"
					},
					"external": {
						"getLength()": "354",
						"getValue(uint256)": "infinite",
						"numbers(uint256)": "infinite",
						"setValue(uint256,uint256)": "infinite"
					}
				},
				"methodIdentifiers": {
					"getLength()": "be1c766b",
					"getValue(uint256)": "0ff4c916",
					"numbers(uint256)": "d39fa233",
					"setValue(uint256,uint256)": "7b8d56e3"
				}
			},
			"storageLayout": {
				"storage": [
					{
						"astId": 12,
						"contract": "contracts/Fixed.sol:Fixed",
						"label": "numbers",
						"offset": 0,
						"slot": "0",
						"type": "t_array(t_uint256)3_storage"
					}
				],
				"types": {
					"t_array(t_uint256)3_storage": {
						"base": "t_uint256",
						"encoding": "inplace",
						"label": "uint256[3]",
						"numberOfBytes": "96"
					},
					"t_uint256": {
						"encoding": "inplace",
						"label": "uint256",
						"numberOfBytes": "32"
					}
				}
			},
			"userdoc": {
				"kind": "user",
				"methods": {},
				"version": 1
			}
		}
	}
}