{
	"contracts/PayableTransfers.sol": {
		"PayableTransfers": {
			"abi": [
				{
					"anonymous": false,
					"inputs": [
						{
							"indexed": true,
							"internalType": "address",
							"name": "sender",
							"type": "address"
						},
						{
							"indexed": false,
							"internalType": "uint256",
							"name": "amount",
							"type": "uint256"
						}
					],
					"name": "Deposited",
					"type": "event"
				},
				{
					"anonymous": false,
					"inputs": [
						{
							"indexed": true,
							"internalType": "address",
							"name": "to",
							"type": "address"
						},
						{
							"indexed": false,
							"internalType": "uint256",
							"name": "amount",
							"type": "uint256"
						},
						{
							"indexed": false,
							"internalType": "bool",
							"name": "success",
							"type": "bool"
						}
					],
					"name": "Sent",
					"type": "event"
				},
				{
					"anonymous": false,
					"inputs": [
						{
							"indexed": true,
							"internalType": "address",
							"name": "recipient",
							"type": "address"
						},
						{
							"indexed": false,
							"internalType": "uint256",
							"name": "amount",
							"type": "uint256"
						}
					],
					"name": "Withdrawn",
					"type": "event"
				},
				{
					"stateMutability": "payable",
					"type": "fallback"
				},
				{
					"inputs": [
						{
							"internalType": "address",
							"name": "",
							"type": "address"
						}
					],
					"name": "balances",
					"outputs": [
						{
							"internalType": "uint256",
							"name": "",
							"type": "uint256"
						}
					],
					"stateMutability": "view",
					"type": "function"
				},
				{
					"inputs": [],
					"name": "deposit",
					"outputs": [],
					"stateMutability": "payable",
					"type": "function"
				},
				{
					"inputs": [
						{
							"internalType": "uint256",
							"name": "amount",
							"type": "uint256"
						}
					],
					"name": "withdraw",
					"outputs": [],
					"stateMutability": "nonpayable",
					"type": "function"
				},
				{
					"inputs": [
						{
							"internalType": "uint256",
							"name": "amount",
							"type": "uint256"
						}
					],
					"name": "withdrawViaSend",
					"outputs": [],
					"stateMutability": "nonpayable",
					"type": "function"
				},
				{
					"inputs": [
						{
							"internalType": "uint256",
							"name": "amount",
							"type": "uint256"
						}
					],
					"name": "withdrawViaTransfer",
					"outputs": [],
					"stateMutability": "nonpayable",
					"type": "function"
				},
				{
					"stateMutability": "payable",
					"type": "receive"
				}
			],
			"devdoc": {
				"kind": "dev",
				"methods": {},
				"version": 1
			},
			"evm": {
				"assembly": "    /* \"contracts/PayableTransfers.sol\":61:1845  contract PayableTransfers{... */\n  mstore(0x40, 0x80)\n  callvalue\n  dup1\n  iszero\n  tag_1\n  jumpi\n  revert(0x00, 0x00)\ntag_1:\n  pop\n  dataSize(sub_0)\n  dup1\n  dataOffset(sub_0)\n  0x00\n  codecopy\n  0x00\n  return\nstop\n\nsub_0: assembly {\n        /* \"contracts/PayableTransfers.sol\":61:1845  contract PayableTransfers{... */\n      mstore(0x40, 0x80)\n      jumpi(tag_1, lt(calldatasize, 0x04))\n      shr(0xe0, calldataload(0x00))\n      dup1\n      0x27e235e3\n      eq\n      tag_3\n      jumpi\n      dup1\n      0x2e1a7d4d\n      eq\n      tag_4\n      jumpi\n      dup1\n      0x33b4691e\n      eq\n      tag_5\n      jumpi\n      dup1\n      0xa5b58223\n      eq\n      tag_6\n      jumpi\n      dup1\n      0xd0e30db0\n      eq\n      tag_7\n      jumpi\n      jump(tag_2)\n    tag_1:\n      jumpi(tag_2, calldatasize)\n        /* \"contracts/PayableTransfers.sol\":596:597  0 */\n      0x00\n        /* \"contracts/PayableTransfers.sol\":584:593  msg.value */\n      callvalue\n        /* \"contracts/PayableTransfers.sol\":584:597  msg.value > 0 */\n      gt\n        /* \"contracts/PayableTransfers.sol\":576:620  require(msg.value > 0, \"Must send some ETH\") */\n      tag_10\n      jumpi\n      mload(0x40)\n      0x08c379a000000000000000000000000000000000000000000000000000000000\n      dup2\n      mstore\n      0x04\n      add\n      tag_11\n      swap1\n      tag_12\n      jump\t// in\n    tag_11:\n      mload(0x40)\n      dup1\n      swap2\n      sub\n      swap1\n      revert\n    tag_10:\n        /* \"contracts/PayableTransfers.sol\":655:664  msg.value */\n      callvalue\n        /* \"contracts/PayableTransfers.sol\":631:639  balances */\n      0x00\n        /* \"contracts/PayableTransfers.sol\":631:651  balances[msg.sender] */\n      0x00\n        /* \"contracts/PayableTransfers.sol\":640:650  msg.sender */\n      caller\n        /* \"contracts/PayableTransfers.sol\":631:651  balances[msg.sender] */\n      0xffffffffffffffffffffffffffffffffffffffff\n      and\n      0xffffffffffffffffffffffffffffffffffffffff\n      and\n      dup2\n      mstore\n      0x20\n      add\n      swap1\n      dup2\n      mstore\n      0x20\n      add\n      0x00\n      keccak256\n      0x00\n        /* \"contracts/PayableTransfers.sol\":631:664  balances[msg.sender] += msg.value */\n      dup3\n      dup3\n      sload\n      tag_13\n      swap2\n      swap1\n      tag_14\n      jump\t// in\n    tag_13:\n      swap3\n      pop\n      pop\n      dup2\n      swap1\n      sstore\n      pop\n        /* \"contracts/PayableTransfers.sol\":690:700  msg.sender */\n      caller\n        /* \"contracts/PayableTransfers.sol\":680:712  Deposited(msg.sender, msg.value) */\n      0xffffffffffffffffffffffffffffffffffffffff\n      and\n      0x2da466a7b24304f47e87fa2e1e5a81b9831ce54fec19055ce277ca2f39ba42c4\n        /* \"contracts/PayableTransfers.sol\":702:711  msg.value */\n      callvalue\n        /* \"contracts/PayableTransfers.sol\":680:712  Deposited(msg.sender, msg.value) */\n      mload(0x40)\n      tag_15\n      swap2\n      swap1\n      tag_16\n      jump\t// in\n    tag_15:\n      mload(0x40)\n      dup1\n      swap2\n      sub\n      swap1\n      log2\n        /* \"contracts/PayableTransfers.sol\":61:1845  contract PayableTransfers{... */\n      stop\n    tag_2:\n        /* \"contracts/PayableTransfers.sol\":787:788  0 */\n      0x00\n        /* \"contracts/PayableTransfers.sol\":775:784  msg.value */\n      callvalue\n        /* \"contracts/PayableTransfers.sol\":775:788  msg.value > 0 */\n      gt\n        /* \"contracts/PayableTransfers.sol\":767:811  require(msg.value > 0, \"Must send some ETH\") */\n      tag_19\n      jumpi\n      mload(0x40)\n      0x08c379a000000000000000000000000000000000000000000000000000000000\n      dup2\n      mstore\n      0x04\n      add\n      tag_20\n      swap1\n      tag_12\n      jump\t// in\n    tag_20:\n      mload(0x40)\n      dup1\n      swap2\n      sub\n      swap1\n      revert\n    tag_19:\n        /* \"contracts/PayableTransfers.sol\":846:855  msg.value */\n      callvalue\n        /* \"contracts/PayableTransfers.sol\":822:830  balances */\n      0x00\n        /* \"contracts/PayableTransfers.sol\":822:842  balances[msg.sender] */\n      0x00\n        /* \"contracts/PayableTransfers.sol\":831:841  msg.sender */\n      caller\n        /* \"contracts/PayableTransfers.sol\":822:842  balances[msg.sender] */\n      0xffffffffffffffffffffffffffffffffffffffff\n      and\n      0xffffffffffffffffffffffffffffffffffffffff\n      and\n      dup2\n      mstore\n      0x20\n      add\n      swap1\n      dup2\n      mstore\n      0x20\n      add\n      0x00\n      keccak256\n      0x00\n        /* \"contracts/PayableTransfers.sol\":822:855  balances[msg.sender] += msg.value */\n      dup3\n      dup3\n      sload\n      tag_21\n      swap2\n      swap1\n      tag_14\n      jump\t// in\n    tag_21:\n      swap3\n      pop\n      pop\n      dup2\n      swap1\n      sstore\n      pop\n        /* \"contracts/PayableTransfers.sol\":881:891  msg.sender */\n      caller\n        /* \"contracts/PayableTransfers.sol\":871:903  Deposited(msg.sender, msg.value) */\n      0xffffffffffffffffffffffffffffffffffffffff\n      and\n      0x2da466a7b24304f47e87fa2e1e5a81b9831ce54fec19055ce277ca2f39ba42c4\n        /* \"contracts/PayableTransfers.sol\":893:902  msg.value */\n      callvalue\n        /* \"contracts/PayableTransfers.sol\":871:903  Deposited(msg.sender, msg.value) */\n      mload(0x40)\n      tag_22\n      swap2\n      swap1\n      tag_16\n      jump\t// in\n    tag_22:\n      mload(0x40)\n      dup1\n      swap2\n      sub\n      swap1\n      log2\n        /* \"contracts/PayableTransfers.sol\":61:1845  contract PayableTransfers{... */\n      stop\n        /* \"contracts/PayableTransfers.sol\":99:139  mapping(address => uint) public balances */\n    tag_3:\n      callvalue\n      dup1\n      iszero\n      tag_23\n      jumpi\n      revert(0x00, 0x00)\n    tag_23:\n      pop\n      tag_24\n      0x04\n      dup1\n      calldatasize\n      sub\n      dup2\n      add\n      swap1\n      tag_25\n      swap2\n      swap1\n      tag_26\n      jump\t// in\n    tag_25:\n      tag_27\n      jump\t// in\n    tag_24:\n      mload(0x40)\n      tag_28\n      swap2\n      swap1\n      tag_16\n      jump\t// in\n    tag_28:\n      mload(0x40)\n      dup1\n      swap2\n      sub\n      swap1\n      return\n        /* \"contracts/PayableTransfers.sol\":919:1245  function withdraw(uint amount) external{... */\n    tag_4:\n      callvalue\n      dup1\n      iszero\n      tag_29\n      jumpi\n      revert(0x00, 0x00)\n    tag_29:\n      pop\n      tag_30\n      0x04\n      dup1\n      calldatasize\n      sub\n      dup2\n      add\n      swap1\n      tag_31\n      swap2\n      swap1\n      tag_32\n      jump\t// in\n    tag_31:\n      tag_33\n      jump\t// in\n    tag_30:\n      stop\n        /* \"contracts/PayableTransfers.sol\":1253:1518  function withdrawViaTransfer(uint amount) external{... */\n    tag_5:\n      callvalue\n      dup1\n      iszero\n      tag_34\n      jumpi\n      revert(0x00, 0x00)\n    tag_34:\n      pop\n      tag_35\n      0x04\n      dup1\n      calldatasize\n      sub\n      dup2\n      add\n      swap1\n      tag_36\n      swap2\n      swap1\n      tag_32\n      jump\t// in\n    tag_36:\n      tag_37\n      jump\t// in\n    tag_35:\n      stop\n        /* \"contracts/PayableTransfers.sol\":1526:1842  function withdrawViaSend(uint amount) external{... */\n    tag_6:\n      callvalue\n      dup1\n      iszero\n      tag_38\n      jumpi\n      revert(0x00, 0x00)\n    tag_38:\n      pop\n      tag_39\n      0x04\n      dup1\n      calldatasize\n      sub\n      dup2\n      add\n      swap1\n      tag_40\n      swap2\n      swap1\n      tag_32\n      jump\t// in\n    tag_40:\n      tag_41\n      jump\t// in\n    tag_39:\n      stop\n        /* \"contracts/PayableTransfers.sol\":335:525  function deposit() external payable{... */\n    tag_7:\n      tag_42\n      tag_43\n      jump\t// in\n    tag_42:\n      stop\n        /* \"contracts/PayableTransfers.sol\":99:139  mapping(address => uint) public balances */\n    tag_27:\n      mstore(0x20, 0x00)\n      dup1\n      0x00\n      mstore\n      keccak256(0x00, 0x40)\n      0x00\n      swap2\n      pop\n      swap1\n      pop\n      sload\n      dup2\n      jump\t// out\n        /* \"contracts/PayableTransfers.sol\":919:1245  function withdraw(uint amount) external{... */\n    tag_33:\n        /* \"contracts/PayableTransfers.sol\":1001:1007  amount */\n      dup1\n        /* \"contracts/PayableTransfers.sol\":977:985  balances */\n      0x00\n        /* \"contracts/PayableTransfers.sol\":977:997  balances[msg.sender] */\n      0x00\n        /* \"contracts/PayableTransfers.sol\":986:996  msg.sender */\n      caller\n        /* \"contracts/PayableTransfers.sol\":977:997  balances[msg.sender] */\n      0xffffffffffffffffffffffffffffffffffffffff\n      and\n      0xffffffffffffffffffffffffffffffffffffffff\n      and\n      dup2\n      mstore\n      0x20\n      add\n      swap1\n      dup2\n      mstore\n      0x20\n      add\n      0x00\n      keccak256\n      sload\n        /* \"contracts/PayableTransfers.sol\":977:1007  balances[msg.sender] >= amount */\n      lt\n      iszero\n        /* \"contracts/PayableTransfers.sol\":969:1030  require(balances[msg.sender] >= amount, \"Not enough balance\") */\n      tag_45\n      jumpi\n      mload(0x40)\n      0x08c379a000000000000000000000000000000000000000000000000000000000\n      dup2\n      mstore\n      0x04\n      add\n      tag_46\n      swap1\n      tag_47\n      jump\t// in\n    tag_46:\n      mload(0x40)\n      dup1\n      swap2\n      sub\n      swap1\n      revert\n    tag_45:\n        /* \"contracts/PayableTransfers.sol\":1065:1071  amount */\n      dup1\n        /* \"contracts/PayableTransfers.sol\":1041:1049  balances */\n      0x00\n        /* \"contracts/PayableTransfers.sol\":1041:1061  balances[msg.sender] */\n      0x00\n        /* \"contracts/PayableTransfers.sol\":1050:1060  msg.sender */\n      caller\n        /* \"contracts/PayableTransfers.sol\":1041:1061  balances[msg.sender] */\n      0xffffffffffffffffffffffffffffffffffffffff\n      and\n      0xffffffffffffffffffffffffffffffffffffffff\n      and\n      dup2\n      mstore\n      0x20\n      add\n      swap1\n      dup2\n      mstore\n      0x20\n      add\n      0x00\n      keccak256\n      0x00\n        /* \"contracts/PayableTransfers.sol\":1041:1071  balances[msg.sender] -= amount */\n      dup3\n      dup3\n      sload\n      tag_48\n      swap2\n      swap1\n      tag_49\n      jump\t// in\n    tag_48:\n      swap3\n      pop\n      pop\n      dup2\n      swap1\n      sstore\n      pop\n        /* \"contracts/PayableTransfers.sol\":1083:1095  bool success */\n      0x00\n        /* \"contracts/PayableTransfers.sol\":1109:1119  msg.sender */\n      caller\n        /* \"contracts/PayableTransfers.sol\":1101:1125  payable(msg.sender).call */\n      0xffffffffffffffffffffffffffffffffffffffff\n      and\n        /* \"contracts/PayableTransfers.sol\":1133:1139  amount */\n      dup3\n        /* \"contracts/PayableTransfers.sol\":1101:1144  payable(msg.sender).call{value: amount}(\"\") */\n      mload(0x40)\n      tag_50\n      swap1\n      tag_51\n      jump\t// in\n    tag_50:\n      0x00\n      mload(0x40)\n      dup1\n      dup4\n      sub\n      dup2\n      dup6\n      dup8\n      gas\n      call\n      swap3\n      pop\n      pop\n      pop\n      returndatasize\n      dup1\n      0x00\n      dup2\n      eq\n      tag_54\n      jumpi\n      mload(0x40)\n      swap2\n      pop\n      and(add(returndatasize, 0x3f), not(0x1f))\n      dup3\n      add\n      0x40\n      mstore\n      returndatasize\n      dup3\n      mstore\n      returndatasize\n      0x00\n      0x20\n      dup5\n      add\n      returndatacopy\n      jump(tag_53)\n    tag_54:\n      0x60\n      swap2\n      pop\n    tag_53:\n      pop\n        /* \"contracts/PayableTransfers.sol\":1082:1144  (bool success, ) = payable(msg.sender).call{value: amount}(\"\") */\n      pop\n      swap1\n      pop\n        /* \"contracts/PayableTransfers.sol\":1163:1170  success */\n      dup1\n        /* \"contracts/PayableTransfers.sol\":1155:1190  require(success, \"Withdraw failed\") */\n      tag_55\n      jumpi\n      mload(0x40)\n      0x08c379a000000000000000000000000000000000000000000000000000000000\n      dup2\n      mstore\n      0x04\n      add\n      tag_56\n      swap1\n      tag_57\n      jump\t// in\n    tag_56:\n      mload(0x40)\n      dup1\n      swap2\n      sub\n      swap1\n      revert\n    tag_55:\n        /* \"contracts/PayableTransfers.sol\":1218:1228  msg.sender */\n      caller\n        /* \"contracts/PayableTransfers.sol\":1208:1237  Withdrawn(msg.sender, amount) */\n      0xffffffffffffffffffffffffffffffffffffffff\n      and\n      0x7084f5476618d8e60b11ef0d7d3f06914655adb8793e28ff7f018d4c76d505d5\n        /* \"contracts/PayableTransfers.sol\":1230:1236  amount */\n      dup4\n        /* \"contracts/PayableTransfers.sol\":1208:1237  Withdrawn(msg.sender, amount) */\n      mload(0x40)\n      tag_58\n      swap2\n      swap1\n      tag_16\n      jump\t// in\n    tag_58:\n      mload(0x40)\n      dup1\n      swap2\n      sub\n      swap1\n      log2\n        /* \"contracts/PayableTransfers.sol\":958:1245  {... */\n      pop\n        /* \"contracts/PayableTransfers.sol\":919:1245  function withdraw(uint amount) external{... */\n      pop\n      jump\t// out\n        /* \"contracts/PayableTransfers.sol\":1253:1518  function withdrawViaTransfer(uint amount) external{... */\n    tag_37:\n        /* \"contracts/PayableTransfers.sol\":1346:1352  amount */\n      dup1\n        /* \"contracts/PayableTransfers.sol\":1322:1330  balances */\n      0x00\n        /* \"contracts/PayableTransfers.sol\":1322:1342  balances[msg.sender] */\n      0x00\n        /* \"contracts/PayableTransfers.sol\":1331:1341  msg.sender */\n      caller\n        /* \"contracts/PayableTransfers.sol\":1322:1342  balances[msg.sender] */\n      0xffffffffffffffffffffffffffffffffffffffff\n      and\n      0xffffffffffffffffffffffffffffffffffffffff\n      and\n      dup2\n      mstore\n      0x20\n      add\n      swap1\n      dup2\n      mstore\n      0x20\n      add\n      0x00\n      keccak256\n      sload\n        /* \"contracts/PayableTransfers.sol\":1322:1352  balances[msg.sender] >= amount */\n      lt\n      iszero\n        /* \"contracts/PayableTransfers.sol\":1314:1375  require(balances[msg.sender] >= amount, \"Not enough balance\") */\n      tag_60\n      jumpi\n      mload(0x40)\n      0x08c379a000000000000000000000000000000000000000000000000000000000\n      dup2\n      mstore\n      0x04\n      add\n      tag_61\n      swap1\n      tag_47\n      jump\t// in\n    tag_61:\n      mload(0x40)\n      dup1\n      swap2\n      sub\n      swap1\n      revert\n    tag_60:\n        /* \"contracts/PayableTransfers.sol\":1410:1416  amount */\n      dup1\n        /* \"contracts/PayableTransfers.sol\":1386:1394  balances */\n      0x00\n        /* \"contracts/PayableTransfers.sol\":1386:1406  balances[msg.sender] */\n      0x00\n        /* \"contracts/PayableTransfers.sol\":1395:1405  msg.sender */\n      caller\n        /* \"contracts/PayableTransfers.sol\":1386:1406  balances[msg.sender] */\n      0xffffffffffffffffffffffffffffffffffffffff\n      and\n      0xffffffffffffffffffffffffffffffffffffffff\n      and\n      dup2\n      mstore\n      0x20\n      add\n      swap1\n      dup2\n      mstore\n      0x20\n      add\n      0x00\n      keccak256\n      0x00\n        /* \"contracts/PayableTransfers.sol\":1386:1416  balances[msg.sender] -= amount */\n      dup3\n      dup3\n      sload\n      tag_62\n      swap2\n      swap1\n      tag_49\n      jump\t// in\n    tag_62:\n      swap3\n      pop\n      pop\n      dup2\n      swap1\n      sstore\n      pop\n        /* \"contracts/PayableTransfers.sol\":1435:1445  msg.sender */\n      caller\n        /* \"contracts/PayableTransfers.sol\":1427:1455  payable(msg.sender).transfer */\n      0xffffffffffffffffffffffffffffffffffffffff\n      and\n        /* \"contracts/PayableTransfers.sol\":1427:1463  payable(msg.sender).transfer(amount) */\n      0x08fc\n        /* \"contracts/PayableTransfers.sol\":1456:1462  amount */\n      dup3\n        /* \"contracts/PayableTransfers.sol\":1427:1463  payable(msg.sender).transfer(amount) */\n      swap1\n      dup2\n      iszero\n      mul\n      swap1\n      mload(0x40)\n      0x00\n      mload(0x40)\n      dup1\n      dup4\n      sub\n      dup2\n      dup6\n      dup9\n      dup9\n      call\n      swap4\n      pop\n      pop\n      pop\n      pop\n      iszero\n      dup1\n      iszero\n      tag_64\n      jumpi\n      returndatacopy(0x00, 0x00, returndatasize)\n      revert(0x00, returndatasize)\n    tag_64:\n      pop\n        /* \"contracts/PayableTransfers.sol\":1491:1501  msg.sender */\n      caller\n        /* \"contracts/PayableTransfers.sol\":1481:1510  Withdrawn(msg.sender, amount) */\n      0xffffffffffffffffffffffffffffffffffffffff\n      and\n      0x7084f5476618d8e60b11ef0d7d3f06914655adb8793e28ff7f018d4c76d505d5\n        /* \"contracts/PayableTransfers.sol\":1503:1509  amount */\n      dup3\n        /* \"contracts/PayableTransfers.sol\":1481:1510  Withdrawn(msg.sender, amount) */\n      mload(0x40)\n      tag_65\n      swap2\n      swap1\n      tag_16\n      jump\t// in\n    tag_65:\n      mload(0x40)\n      dup1\n      swap2\n      sub\n      swap1\n      log2\n        /* \"contracts/PayableTransfers.sol\":1253:1518  function withdrawViaTransfer(uint amount) external{... */\n      pop\n      jump\t// out\n        /* \"contracts/PayableTransfers.sol\":1526:1842  function withdrawViaSend(uint amount) external{... */\n    tag_41:\n        /* \"contracts/PayableTransfers.sol\":1615:1621  amount */\n      dup1\n        /* \"contracts/PayableTransfers.sol\":1591:1599  balances */\n      0x00\n        /* \"contracts/PayableTransfers.sol\":1591:1611  balances[msg.sender] */\n      0x00\n        /* \"contracts/PayableTransfers.sol\":1600:1610  msg.sender */\n      caller\n        /* \"contracts/PayableTransfers.sol\":1591:1611  balances[msg.sender] */\n      0xffffffffffffffffffffffffffffffffffffffff\n      and\n      0xffffffffffffffffffffffffffffffffffffffff\n      and\n      dup2\n      mstore\n      0x20\n      add\n      swap1\n      dup2\n      mstore\n      0x20\n      add\n      0x00\n      keccak256\n      sload\n        /* \"contracts/PayableTransfers.sol\":1591:1621  balances[msg.sender] >= amount */\n      lt\n      iszero\n        /* \"contracts/PayableTransfers.sol\":1583:1644  require(balances[msg.sender] >= amount, \"Not enough balance\") */\n      tag_67\n      jumpi\n      mload(0x40)\n      0x08c379a000000000000000000000000000000000000000000000000000000000\n      dup2\n      mstore\n      0x04\n      add\n      tag_68\n      swap1\n      tag_47\n      jump\t// in\n    tag_68:\n      mload(0x40)\n      dup1\n      swap2\n      sub\n      swap1\n      revert\n    tag_67:\n        /* \"contracts/PayableTransfers.sol\":1679:1685  amount */\n      dup1\n        /* \"contracts/PayableTransfers.sol\":1655:1663  balances */\n      0x00\n        /* \"contracts/PayableTransfers.sol\":1655:1675  balances[msg.sender] */\n      0x00\n        /* \"contracts/PayableTransfers.sol\":1664:1674  msg.sender */\n      caller\n        /* \"contracts/PayableTransfers.sol\":1655:1675  balances[msg.sender] */\n      0xffffffffffffffffffffffffffffffffffffffff\n      and\n      0xffffffffffffffffffffffffffffffffffffffff\n      and\n      dup2\n      mstore\n      0x20\n      add\n      swap1\n      dup2\n      mstore\n      0x20\n      add\n      0x00\n      keccak256\n      0x00\n        /* \"contracts/PayableTransfers.sol\":1655:1685  balances[msg.sender] -= amount */\n      dup3\n      dup3\n      sload\n      tag_69\n      swap2\n      swap1\n      tag_49\n      jump\t// in\n    tag_69:\n      swap3\n      pop\n      pop\n      dup2\n      swap1\n      sstore\n      pop\n        /* \"contracts/PayableTransfers.sol\":1696:1708  bool success */\n      0x00\n        /* \"contracts/PayableTransfers.sol\":1719:1729  msg.sender */\n      caller\n        /* \"contracts/PayableTransfers.sol\":1711:1735  payable(msg.sender).send */\n      0xffffffffffffffffffffffffffffffffffffffff\n      and\n        /* \"contracts/PayableTransfers.sol\":1711:1743  payable(msg.sender).send(amount) */\n      0x08fc\n        /* \"contracts/PayableTransfers.sol\":1736:1742  amount */\n      dup4\n        /* \"contracts/PayableTransfers.sol\":1711:1743  payable(msg.sender).send(amount) */\n      swap1\n      dup2\n      iszero\n      mul\n      swap1\n      mload(0x40)\n      0x00\n      mload(0x40)\n      dup1\n      dup4\n      sub\n      dup2\n      dup6\n      dup9\n      dup9\n      call\n      swap4\n      pop\n      pop\n      pop\n      pop\n        /* \"contracts/PayableTransfers.sol\":1696:1743  bool success = payable(msg.sender).send(amount) */\n      swap1\n      pop\n        /* \"contracts/PayableTransfers.sol\":1762:1769  success */\n      dup1\n        /* \"contracts/PayableTransfers.sol\":1754:1789  require(success, \"Withdraw failed\") */\n      tag_71\n      jumpi\n      mload(0x40)\n      0x08c379a000000000000000000000000000000000000000000000000000000000\n      dup2\n      mstore\n      0x04\n      add\n      tag_72\n      swap1\n      tag_57\n      jump\t// in\n    tag_72:\n      mload(0x40)\n      dup1\n      swap2\n      sub\n      swap1\n      revert\n    tag_71:\n        /* \"contracts/PayableTransfers.sol\":1815:1825  msg.sender */\n      caller\n        /* \"contracts/PayableTransfers.sol\":1805:1834  Withdrawn(msg.sender, amount) */\n      0xffffffffffffffffffffffffffffffffffffffff\n      and\n      0x7084f5476618d8e60b11ef0d7d3f06914655adb8793e28ff7f018d4c76d505d5\n        /* \"contracts/PayableTransfers.sol\":1827:1833  amount */\n      dup4\n        /* \"contracts/PayableTransfers.sol\":1805:1834  Withdrawn(msg.sender, amount) */\n      mload(0x40)\n      tag_73\n      swap2\n      swap1\n      tag_16\n      jump\t// in\n    tag_73:\n      mload(0x40)\n      dup1\n      swap2\n      sub\n      swap1\n      log2\n        /* \"contracts/PayableTransfers.sol\":1572:1842  {... */\n      pop\n        /* \"contracts/PayableTransfers.sol\":1526:1842  function withdrawViaSend(uint amount) external{... */\n      pop\n      jump\t// out\n        /* \"contracts/PayableTransfers.sol\":335:525  function deposit() external payable{... */\n    tag_43:\n        /* \"contracts/PayableTransfers.sol\":401:402  0 */\n      0x00\n        /* \"contracts/PayableTransfers.sol\":389:398  msg.value */\n      callvalue\n        /* \"contracts/PayableTransfers.sol\":389:402  msg.value > 0 */\n      gt\n        /* \"contracts/PayableTransfers.sol\":381:425  require(msg.value > 0, \"Must send some ETH\") */\n      tag_75\n      jumpi\n      mload(0x40)\n      0x08c379a000000000000000000000000000000000000000000000000000000000\n      dup2\n      mstore\n      0x04\n      add\n      tag_76\n      swap1\n      tag_12\n      jump\t// in\n    tag_76:\n      mload(0x40)\n      dup1\n      swap2\n      sub\n      swap1\n      revert\n    tag_75:\n        /* \"contracts/PayableTransfers.sol\":460:469  msg.value */\n      callvalue\n        /* \"contracts/PayableTransfers.sol\":436:444  balances */\n      0x00\n        /* \"contracts/PayableTransfers.sol\":436:456  balances[msg.sender] */\n      0x00\n        /* \"contracts/PayableTransfers.sol\":445:455  msg.sender */\n      caller\n        /* \"contracts/PayableTransfers.sol\":436:456  balances[msg.sender] */\n      0xffffffffffffffffffffffffffffffffffffffff\n      and\n      0xffffffffffffffffffffffffffffffffffffffff\n      and\n      dup2\n      mstore\n      0x20\n      add\n      swap1\n      dup2\n      mstore\n      0x20\n      add\n      0x00\n      keccak256\n      0x00\n        /* \"contracts/PayableTransfers.sol\":436:469  balances[msg.sender] += msg.value */\n      dup3\n      dup3\n      sload\n      tag_77\n      swap2\n      swap1\n      tag_14\n      jump\t// in\n    tag_77:\n      swap3\n      pop\n      pop\n      dup2\n      swap1\n      sstore\n      pop\n        /* \"contracts/PayableTransfers.sol\":495:505  msg.sender */\n      caller\n        /* \"contracts/PayableTransfers.sol\":485:517  Deposited(msg.sender, msg.value) */\n      0xffffffffffffffffffffffffffffffffffffffff\n      and\n      0x2da466a7b24304f47e87fa2e1e5a81b9831ce54fec19055ce277ca2f39ba42c4\n        /* \"contracts/PayableTransfers.sol\":507:516  msg.value */\n      callvalue\n        /* \"contracts/PayableTransfers.sol\":485:517  Deposited(msg.sender, msg.value) */\n      mload(0x40)\n      tag_78\n      swap2\n      swap1\n      tag_16\n      jump\t// in\n    tag_78:\n      mload(0x40)\n      dup1\n      swap2\n      sub\n      swap1\n      log2\n        /* \"contracts/PayableTransfers.sol\":335:525  function deposit() external payable{... */\n      jump\t// out\n        /* \"#utility.yul\":7:176   */\n    tag_79:\n        /* \"#utility.yul\":91:102   */\n      0x00\n        /* \"#utility.yul\":125:131   */\n      dup3\n        /* \"#utility.yul\":120:123   */\n      dup3\n        /* \"#utility.yul\":113:132   */\n      mstore\n        /* \"#utility.yul\":165:169   */\n      0x20\n        /* \"#utility.yul\":160:163   */\n      dup3\n        /* \"#utility.yul\":156:170   */\n      add\n        /* \"#utility.yul\":141:170   */\n      swap1\n      pop\n        /* \"#utility.yul\":7:176   */\n      swap3\n      swap2\n      pop\n      pop\n      jump\t// out\n        /* \"#utility.yul\":182:350   */\n    tag_80:\n        /* \"#utility.yul\":322:342   */\n      0x4d7573742073656e6420736f6d65204554480000000000000000000000000000\n        /* \"#utility.yul\":318:319   */\n      0x00\n        /* \"#utility.yul\":310:316   */\n      dup3\n        /* \"#utility.yul\":306:320   */\n      add\n        /* \"#utility.yul\":299:343   */\n      mstore\n        /* \"#utility.yul\":182:350   */\n      pop\n      jump\t// out\n        /* \"#utility.yul\":356:722   */\n    tag_81:\n        /* \"#utility.yul\":498:501   */\n      0x00\n        /* \"#utility.yul\":519:586   */\n      tag_105\n        /* \"#utility.yul\":583:585   */\n      0x12\n        /* \"#utility.yul\":578:581   */\n      dup4\n        /* \"#utility.yul\":519:586   */\n      tag_79\n      jump\t// in\n    tag_105:\n        /* \"#utility.yul\":512:586   */\n      swap2\n      pop\n        /* \"#utility.yul\":595:688   */\n      tag_106\n        /* \"#utility.yul\":684:687   */\n      dup3\n        /* \"#utility.yul\":595:688   */\n      tag_80\n      jump\t// in\n    tag_106:\n        /* \"#utility.yul\":713:715   */\n      0x20\n        /* \"#utility.yul\":708:711   */\n      dup3\n        /* \"#utility.yul\":704:716   */\n      add\n        /* \"#utility.yul\":697:716   */\n      swap1\n      pop\n        /* \"#utility.yul\":356:722   */\n      swap2\n      swap1\n      pop\n      jump\t// out\n        /* \"#utility.yul\":728:1147   */\n    tag_12:\n        /* \"#utility.yul\":894:898   */\n      0x00\n        /* \"#utility.yul\":932:934   */\n      0x20\n        /* \"#utility.yul\":921:930   */\n      dup3\n        /* \"#utility.yul\":917:935   */\n      add\n        /* \"#utility.yul\":909:935   */\n      swap1\n      pop\n        /* \"#utility.yul\":981:990   */\n      dup2\n        /* \"#utility.yul\":975:979   */\n      dup2\n        /* \"#utility.yul\":971:991   */\n      sub\n        /* \"#utility.yul\":967:968   */\n      0x00\n        /* \"#utility.yul\":956:965   */\n      dup4\n        /* \"#utility.yul\":952:969   */\n      add\n        /* \"#utility.yul\":945:992   */\n      mstore\n        /* \"#utility.yul\":1009:1140   */\n      tag_108\n        /* \"#utility.yul\":1135:1139   */\n      dup2\n        /* \"#utility.yul\":1009:1140   */\n      tag_81\n      jump\t// in\n    tag_108:\n        /* \"#utility.yul\":1001:1140   */\n      swap1\n      pop\n        /* \"#utility.yul\":728:1147   */\n      swap2\n      swap1\n      pop\n      jump\t// out\n        /* \"#utility.yul\":1153:1230   */\n    tag_82:\n        /* \"#utility.yul\":1190:1197   */\n      0x00\n        /* \"#utility.yul\":1219:1224   */\n      dup2\n        /* \"#utility.yul\":1208:1224   */\n      swap1\n      pop\n        /* \"#utility.yul\":1153:1230   */\n      swap2\n      swap1\n      pop\n      jump\t// out\n        /* \"#utility.yul\":1236:1416   */\n    tag_83:\n        /* \"#utility.yul\":1284:1361   */\n      0x4e487b7100000000000000000000000000000000000000000000000000000000\n        /* \"#utility.yul\":1281:1282   */\n      0x00\n        /* \"#utility.yul\":1274:1362   */\n      mstore\n        /* \"#utility.yul\":1381:1385   */\n      0x11\n        /* \"#utility.yul\":1378:1379   */\n      0x04\n        /* \"#utility.yul\":1371:1386   */\n      mstore\n        /* \"#utility.yul\":1405:1409   */\n      0x24\n        /* \"#utility.yul\":1402:1403   */\n      0x00\n        /* \"#utility.yul\":1395:1410   */\n      revert\n        /* \"#utility.yul\":1422:1613   */\n    tag_14:\n        /* \"#utility.yul\":1462:1465   */\n      0x00\n        /* \"#utility.yul\":1481:1501   */\n      tag_112\n        /* \"#utility.yul\":1499:1500   */\n      dup3\n        /* \"#utility.yul\":1481:1501   */\n      tag_82\n      jump\t// in\n    tag_112:\n        /* \"#utility.yul\":1476:1501   */\n      swap2\n      pop\n        /* \"#utility.yul\":1515:1535   */\n      tag_113\n        /* \"#utility.yul\":1533:1534   */\n      dup4\n        /* \"#utility.yul\":1515:1535   */\n      tag_82\n      jump\t// in\n    tag_113:\n        /* \"#utility.yul\":1510:1535   */\n      swap3\n      pop\n        /* \"#utility.yul\":1558:1559   */\n      dup3\n        /* \"#utility.yul\":1555:1556   */\n      dup3\n        /* \"#utility.yul\":1551:1560   */\n      add\n        /* \"#utility.yul\":1544:1560   */\n      swap1\n      pop\n        /* \"#utility.yul\":1579:1582   */\n      dup1\n        /* \"#utility.yul\":1576:1577   */\n      dup3\n        /* \"#utility.yul\":1573:1583   */\n      gt\n        /* \"#utility.yul\":1570:1606   */\n      iszero\n      tag_114\n      jumpi\n        /* \"#utility.yul\":1586:1604   */\n      tag_115\n      tag_83\n      jump\t// in\n    tag_115:\n        /* \"#utility.yul\":1570:1606   */\n    tag_114:\n        /* \"#utility.yul\":1422:1613   */\n      swap3\n      swap2\n      pop\n      pop\n      jump\t// out\n        /* \"#utility.yul\":1619:1737   */\n    tag_84:\n        /* \"#utility.yul\":1706:1730   */\n      tag_117\n        /* \"#utility.yul\":1724:1729   */\n      dup2\n        /* \"#utility.yul\":1706:1730   */\n      tag_82\n      jump\t// in\n    tag_117:\n        /* \"#utility.yul\":1701:1704   */\n      dup3\n        /* \"#utility.yul\":1694:1731   */\n      mstore\n        /* \"#utility.yul\":1619:1737   */\n      pop\n      pop\n      jump\t// out\n        /* \"#utility.yul\":1743:1965   */\n    tag_16:\n        /* \"#utility.yul\":1836:1840   */\n      0x00\n        /* \"#utility.yul\":1874:1876   */\n      0x20\n        /* \"#utility.yul\":1863:1872   */\n      dup3\n        /* \"#utility.yul\":1859:1877   */\n      add\n        /* \"#utility.yul\":1851:1877   */\n      swap1\n      pop\n        /* \"#utility.yul\":1887:1958   */\n      tag_119\n        /* \"#utility.yul\":1955:1956   */\n      0x00\n        /* \"#utility.yul\":1944:1953   */\n      dup4\n        /* \"#utility.yul\":1940:1957   */\n      add\n        /* \"#utility.yul\":1931:1937   */\n      dup5\n        /* \"#utility.yul\":1887:1958   */\n      tag_84\n      jump\t// in\n    tag_119:\n        /* \"#utility.yul\":1743:1965   */\n      swap3\n      swap2\n      pop\n      pop\n      jump\t// out\n        /* \"#utility.yul\":2052:2169   */\n    tag_86:\n        /* \"#utility.yul\":2161:2162   */\n      0x00\n        /* \"#utility.yul\":2158:2159   */\n      0x00\n        /* \"#utility.yul\":2151:2163   */\n      revert\n        /* \"#utility.yul\":2298:2424   */\n    tag_88:\n        /* \"#utility.yul\":2335:2342   */\n      0x00\n        /* \"#utility.yul\":2375:2417   */\n      0xffffffffffffffffffffffffffffffffffffffff\n        /* \"#utility.yul\":2368:2373   */\n      dup3\n        /* \"#utility.yul\":2364:2418   */\n      and\n        /* \"#utility.yul\":2353:2418   */\n      swap1\n      pop\n        /* \"#utility.yul\":2298:2424   */\n      swap2\n      swap1\n      pop\n      jump\t// out\n        /* \"#utility.yul\":2430:2526   */\n    tag_89:\n        /* \"#utility.yul\":2467:2474   */\n      0x00\n        /* \"#utility.yul\":2496:2520   */\n      tag_125\n        /* \"#utility.yul\":2514:2519   */\n      dup3\n        /* \"#utility.yul\":2496:2520   */\n      tag_88\n      jump\t// in\n    tag_125:\n        /* \"#utility.yul\":2485:2520   */\n      swap1\n      pop\n        /* \"#utility.yul\":2430:2526   */\n      swap2\n      swap1\n      pop\n      jump\t// out\n        /* \"#utility.yul\":2532:2654   */\n    tag_90:\n        /* \"#utility.yul\":2605:2629   */\n      tag_127\n        /* \"#utility.yul\":2623:2628   */\n      dup2\n        /* \"#utility.yul\":2605:2629   */\n      tag_89\n      jump\t// in\n    tag_127:\n        /* \"#utility.yul\":2598:2603   */\n      dup2\n        /* \"#utility.yul\":2595:2630   */\n      eq\n        /* \"#utility.yul\":2585:2648   */\n      tag_128\n      jumpi\n        /* \"#utility.yul\":2644:2645   */\n      0x00\n        /* \"#utility.yul\":2641:2642   */\n      0x00\n        /* \"#utility.yul\":2634:2646   */\n      revert\n        /* \"#utility.yul\":2585:2648   */\n    tag_128:\n        /* \"#utility.yul\":2532:2654   */\n      pop\n      jump\t// out\n        /* \"#utility.yul\":2660:2799   */\n    tag_91:\n        /* \"#utility.yul\":2706:2711   */\n      0x00\n        /* \"#utility.yul\":2744:2750   */\n      dup2\n        /* \"#utility.yul\":2731:2751   */\n      calldataload\n        /* \"#utility.yul\":2722:2751   */\n      swap1\n      pop\n        /* \"#utility.yul\":2760:2793   */\n      tag_130\n        /* \"#utility.yul\":2787:2792   */\n      dup2\n        /* \"#utility.yul\":2760:2793   */\n      tag_90\n      jump\t// in\n    tag_130:\n        /* \"#utility.yul\":2660:2799   */\n      swap3\n      swap2\n      pop\n      pop\n      jump\t// out\n        /* \"#utility.yul\":2805:3134   */\n    tag_26:\n        /* \"#utility.yul\":2864:2870   */\n      0x00\n        /* \"#utility.yul\":2913:2915   */\n      0x20\n        /* \"#utility.yul\":2901:2910   */\n      dup3\n        /* \"#utility.yul\":2892:2899   */\n      dup5\n        /* \"#utility.yul\":2888:2911   */\n      sub\n        /* \"#utility.yul\":2884:2916   */\n      slt\n        /* \"#utility.yul\":2881:3000   */\n      iszero\n      tag_132\n      jumpi\n        /* \"#utility.yul\":2919:2998   */\n      tag_133\n      tag_86\n      jump\t// in\n    tag_133:\n        /* \"#utility.yul\":2881:3000   */\n    tag_132:\n        /* \"#utility.yul\":3039:3040   */\n      0x00\n        /* \"#utility.yul\":3064:3117   */\n      tag_134\n        /* \"#utility.yul\":3109:3116   */\n      dup5\n        /* \"#utility.yul\":3100:3106   */\n      dup3\n        /* \"#utility.yul\":3089:3098   */\n      dup6\n        /* \"#utility.yul\":3085:3107   */\n      add\n        /* \"#utility.yul\":3064:3117   */\n      tag_91\n      jump\t// in\n    tag_134:\n        /* \"#utility.yul\":3054:3117   */\n      swap2\n      pop\n        /* \"#utility.yul\":3010:3127   */\n      pop\n        /* \"#utility.yul\":2805:3134   */\n      swap3\n      swap2\n      pop\n      pop\n      jump\t// out\n        /* \"#utility.yul\":3140:3262   */\n    tag_92:\n        /* \"#utility.yul\":3213:3237   */\n      tag_136\n        /* \"#utility.yul\":3231:3236   */\n      dup2\n        /* \"#utility.yul\":3213:3237   */\n      tag_82\n      jump\t// in\n    tag_136:\n        /* \"#utility.yul\":3206:3211   */\n      dup2\n        /* \"#utility.yul\":3203:3238   */\n      eq\n        /* \"#utility.yul\":3193:3256   */\n      tag_137\n      jumpi\n        /* \"#utility.yul\":3252:3253   */\n      0x00\n        /* \"#utility.yul\":3249:3250   */\n      0x00\n        /* \"#utility.yul\":3242:3254   */\n      revert\n        /* \"#utility.yul\":3193:3256   */\n    tag_137:\n        /* \"#utility.yul\":3140:3262   */\n      pop\n      jump\t// out\n        /* \"#utility.yul\":3268:3407   */\n    tag_93:\n        /* \"#utility.yul\":3314:3319   */\n      0x00\n        /* \"#utility.yul\":3352:3358   */\n      dup2\n        /* \"#utility.yul\":3339:3359   */\n      calldataload\n        /* \"#utility.yul\":3330:3359   */\n      swap1\n      pop\n        /* \"#utility.yul\":3368:3401   */\n      tag_139\n        /* \"#utility.yul\":3395:3400   */\n      dup2\n        /* \"#utility.yul\":3368:3401   */\n      tag_92\n      jump\t// in\n    tag_139:\n        /* \"#utility.yul\":3268:3407   */\n      swap3\n      swap2\n      pop\n      pop\n      jump\t// out\n        /* \"#utility.yul\":3413:3742   */\n    tag_32:\n        /* \"#utility.yul\":3472:3478   */\n      0x00\n        /* \"#utility.yul\":3521:3523   */\n      0x20\n        /* \"#utility.yul\":3509:3518   */\n      dup3\n        /* \"#utility.yul\":3500:3507   */\n      dup5\n        /* \"#utility.yul\":3496:3519   */\n      sub\n        /* \"#utility.yul\":3492:3524   */\n      slt\n        /* \"#utility.yul\":3489:3608   */\n      iszero\n      tag_141\n      jumpi\n        /* \"#utility.yul\":3527:3606   */\n      tag_142\n      tag_86\n      jump\t// in\n    tag_142:\n        /* \"#utility.yul\":3489:3608   */\n    tag_141:\n        /* \"#utility.yul\":3647:3648   */\n      0x00\n        /* \"#utility.yul\":3672:3725   */\n      tag_143\n        /* \"#utility.yul\":3717:3724   */\n      dup5\n        /* \"#utility.yul\":3708:3714   */\n      dup3\n        /* \"#utility.yul\":3697:3706   */\n      dup6\n        /* \"#utility.yul\":3693:3715   */\n      add\n        /* \"#utility.yul\":3672:3725   */\n      tag_93\n      jump\t// in\n    tag_143:\n        /* \"#utility.yul\":3662:3725   */\n      swap2\n      pop\n        /* \"#utility.yul\":3618:3735   */\n      pop\n        /* \"#utility.yul\":3413:3742   */\n      swap3\n      swap2\n      pop\n      pop\n      jump\t// out\n        /* \"#utility.yul\":3748:3916   */\n    tag_94:\n        /* \"#utility.yul\":3888:3908   */\n      0x4e6f7420656e6f7567682062616c616e63650000000000000000000000000000\n        /* \"#utility.yul\":3884:3885   */\n      0x00\n        /* \"#utility.yul\":3876:3882   */\n      dup3\n        /* \"#utility.yul\":3872:3886   */\n      add\n        /* \"#utility.yul\":3865:3909   */\n      mstore\n        /* \"#utility.yul\":3748:3916   */\n      pop\n      jump\t// out\n        /* \"#utility.yul\":3922:4288   */\n    tag_95:\n        /* \"#utility.yul\":4064:4067   */\n      0x00\n        /* \"#utility.yul\":4085:4152   */\n      tag_146\n        /* \"#utility.yul\":4149:4151   */\n      0x12\n        /* \"#utility.yul\":4144:4147   */\n      dup4\n        /* \"#utility.yul\":4085:4152   */\n      tag_79\n      jump\t// in\n    tag_146:\n        /* \"#utility.yul\":4078:4152   */\n      swap2\n      pop\n        /* \"#utility.yul\":4161:4254   */\n      tag_147\n        /* \"#utility.yul\":4250:4253   */\n      dup3\n        /* \"#utility.yul\":4161:4254   */\n      tag_94\n      jump\t// in\n    tag_147:\n        /* \"#utility.yul\":4279:4281   */\n      0x20\n        /* \"#utility.yul\":4274:4277   */\n      dup3\n        /* \"#utility.yul\":4270:4282   */\n      add\n        /* \"#utility.yul\":4263:4282   */\n      swap1\n      pop\n        /* \"#utility.yul\":3922:4288   */\n      swap2\n      swap1\n      pop\n      jump\t// out\n        /* \"#utility.yul\":4294:4713   */\n    tag_47:\n        /* \"#utility.yul\":4460:4464   */\n      0x00\n        /* \"#utility.yul\":4498:4500   */\n      0x20\n        /* \"#utility.yul\":4487:4496   */\n      dup3\n        /* \"#utility.yul\":4483:4501   */\n      add\n        /* \"#utility.yul\":4475:4501   */\n      swap1\n      pop\n        /* \"#utility.yul\":4547:4556   */\n      dup2\n        /* \"#utility.yul\":4541:4545   */\n      dup2\n        /* \"#utility.yul\":4537:4557   */\n      sub\n        /* \"#utility.yul\":4533:4534   */\n      0x00\n        /* \"#utility.yul\":4522:4531   */\n      dup4\n        /* \"#utility.yul\":4518:4535   */\n      add\n        /* \"#utility.yul\":4511:4558   */\n      mstore\n        /* \"#utility.yul\":4575:4706   */\n      tag_149\n        /* \"#utility.yul\":4701:4705   */\n      dup2\n        /* \"#utility.yul\":4575:4706   */\n      tag_95\n      jump\t// in\n    tag_149:\n        /* \"#utility.yul\":4567:4706   */\n      swap1\n      pop\n        /* \"#utility.yul\":4294:4713   */\n      swap2\n      swap1\n      pop\n      jump\t// out\n        /* \"#utility.yul\":4719:4913   */\n    tag_49:\n        /* \"#utility.yul\":4759:4763   */\n      0x00\n        /* \"#utility.yul\":4779:4799   */\n      tag_151\n        /* \"#utility.yul\":4797:4798   */\n      dup3\n        /* \"#utility.yul\":4779:4799   */\n      tag_82\n      jump\t// in\n    tag_151:\n        /* \"#utility.yul\":4774:4799   */\n      swap2\n      pop\n        /* \"#utility.yul\":4813:4833   */\n      tag_152\n        /* \"#utility.yul\":4831:4832   */\n      dup4\n        /* \"#utility.yul\":4813:4833   */\n      tag_82\n      jump\t// in\n    tag_152:\n        /* \"#utility.yul\":4808:4833   */\n      swap3\n      pop\n        /* \"#utility.yul\":4857:4858   */\n      dup3\n        /* \"#utility.yul\":4854:4855   */\n      dup3\n        /* \"#utility.yul\":4850:4859   */\n      sub\n        /* \"#utility.yul\":4842:4859   */\n      swap1\n      pop\n        /* \"#utility.yul\":4881:4882   */\n      dup2\n        /* \"#utility.yul\":4875:4879   */\n      dup2\n        /* \"#utility.yul\":4872:4883   */\n      gt\n        /* \"#utility.yul\":4869:4906   */\n      iszero\n      tag_153\n      jumpi\n        /* \"#utility.yul\":4886:4904   */\n      tag_154\n      tag_83\n      jump\t// in\n    tag_154:\n        /* \"#utility.yul\":4869:4906   */\n    tag_153:\n        /* \"#utility.yul\":4719:4913   */\n      swap3\n      swap2\n      pop\n      pop\n      jump\t// out\n        /* \"#utility.yul\":4919:5066   */\n    tag_96:\n        /* \"#utility.yul\":5020:5031   */\n      0x00\n        /* \"#utility.yul\":5057:5060   */\n      dup2\n        /* \"#utility.yul\":5042:5060   */\n      swap1\n      pop\n        /* \"#utility.yul\":4919:5066   */\n      swap3\n      swap2\n      pop\n      pop\n      jump\t// out\n        /* \"#utility.yul\":5072:5186   */\n    tag_97:\n      pop\n      jump\t// out\n        /* \"#utility.yul\":5192:5590   */\n    tag_98:\n        /* \"#utility.yul\":5351:5354   */\n      0x00\n        /* \"#utility.yul\":5372:5455   */\n      tag_158\n        /* \"#utility.yul\":5453:5454   */\n      0x00\n        /* \"#utility.yul\":5448:5451   */\n      dup4\n        /* \"#utility.yul\":5372:5455   */\n      tag_96\n      jump\t// in\n    tag_158:\n        /* \"#utility.yul\":5365:5455   */\n      swap2\n      pop\n        /* \"#utility.yul\":5464:5557   */\n      tag_159\n        /* \"#utility.yul\":5553:5556   */\n      dup3\n        /* \"#utility.yul\":5464:5557   */\n      tag_97\n      jump\t// in\n    tag_159:\n        /* \"#utility.yul\":5582:5583   */\n      0x00\n        /* \"#utility.yul\":5577:5580   */\n      dup3\n        /* \"#utility.yul\":5573:5584   */\n      add\n        /* \"#utility.yul\":5566:5584   */\n      swap1\n      pop\n        /* \"#utility.yul\":5192:5590   */\n      swap2\n      swap1\n      pop\n      jump\t// out\n        /* \"#utility.yul\":5596:5975   */\n    tag_51:\n        /* \"#utility.yul\":5780:5783   */\n      0x00\n        /* \"#utility.yul\":5802:5949   */\n      tag_161\n        /* \"#utility.yul\":5945:5948   */\n      dup3\n        /* \"#utility.yul\":5802:5949   */\n      tag_98\n      jump\t// in\n    tag_161:\n        /* \"#utility.yul\":5795:5949   */\n      swap2\n      pop\n        /* \"#utility.yul\":5966:5969   */\n      dup2\n        /* \"#utility.yul\":5959:5969   */\n      swap1\n      pop\n        /* \"#utility.yul\":5596:5975   */\n      swap2\n      swap1\n      pop\n      jump\t// out\n        /* \"#utility.yul\":5981:6146   */\n    tag_99:\n        /* \"#utility.yul\":6121:6138   */\n      0x5769746864726177206661696c65640000000000000000000000000000000000\n        /* \"#utility.yul\":6117:6118   */\n      0x00\n        /* \"#utility.yul\":6109:6115   */\n      dup3\n        /* \"#utility.yul\":6105:6119   */\n      add\n        /* \"#utility.yul\":6098:6139   */\n      mstore\n        /* \"#utility.yul\":5981:6146   */\n      pop\n      jump\t// out\n        /* \"#utility.yul\":6152:6518   */\n    tag_100:\n        /* \"#utility.yul\":6294:6297   */\n      0x00\n        /* \"#utility.yul\":6315:6382   */\n      tag_164\n        /* \"#utility.yul\":6379:6381   */\n      0x0f\n        /* \"#utility.yul\":6374:6377   */\n      dup4\n        /* \"#utility.yul\":6315:6382   */\n      tag_79\n      jump\t// in\n    tag_164:\n        /* \"#utility.yul\":6308:6382   */\n      swap2\n      pop\n        /* \"#utility.yul\":6391:6484   */\n      tag_165\n        /* \"#utility.yul\":6480:6483   */\n      dup3\n        /* \"#utility.yul\":6391:6484   */\n      tag_99\n      jump\t// in\n    tag_165:\n        /* \"#utility.yul\":6509:6511   */\n      0x20\n        /* \"#utility.yul\":6504:6507   */\n      dup3\n        /* \"#utility.yul\":6500:6512   */\n      add\n        /* \"#utility.yul\":6493:6512   */\n      swap1\n      pop\n        /* \"#utility.yul\":6152:6518   */\n      swap2\n      swap1\n      pop\n      jump\t// out\n        /* \"#utility.yul\":6524:6943   */\n    tag_57:\n        /* \"#utility.yul\":6690:6694   */\n      0x00\n        /* \"#utility.yul\":6728:6730   */\n      0x20\n        /* \"#utility.yul\":6717:6726   */\n      dup3\n        /* \"#utility.yul\":6713:6731   */\n      add\n        /* \"#utility.yul\":6705:6731   */\n      swap1\n      pop\n        /* \"#utility.yul\":6777:6786   */\n      dup2\n        /* \"#utility.yul\":6771:6775   */\n      dup2\n        /* \"#utility.yul\":6767:6787   */\n      sub\n        /* \"#utility.yul\":6763:6764   */\n      0x00\n        /* \"#utility.yul\":6752:6761   */\n      dup4\n        /* \"#utility.yul\":6748:6765   */\n      add\n        /* \"#utility.yul\":6741:6788   */\n      mstore\n        /* \"#utility.yul\":6805:6936   */\n      tag_167\n        /* \"#utility.yul\":6931:6935   */\n      dup2\n        /* \"#utility.yul\":6805:6936   */\n      tag_100\n      jump\t// in\n    tag_167:\n        /* \"#utility.yul\":6797:6936   */\n      swap1\n      pop\n        /* \"#utility.yul\":6524:6943   */\n      swap2\n      swap1\n      pop\n      jump\t// out\n\n    auxdata: 0xa264697066735822122095821b880b71c2322b1cfb09b026e49444f8c6aaa080d269d5a8e3b4d4f9eda164736f6c634300081e0033\n}\n",
				"bytecode": {
					"linkReferences": {},
					"object": "6080604052348015600e575f5ffd5b50610bfc8061001c5f395ff3fe60806040526004361061004d575f3560e01c806327e235e31461021a5780632e1a7d4d1461025657806333b4691e1461027e578063a5b58223146102a6578063d0e30db0146102ce57610136565b36610136575f3411610094576040517f08c379a000000000000000000000000000000000000000000000000000000000815260040161008b906108f5565b60405180910390fd5b345f5f3373ffffffffffffffffffffffffffffffffffffffff1673ffffffffffffffffffffffffffffffffffffffff1681526020019081526020015f205f8282546100df9190610949565b925050819055503373ffffffffffffffffffffffffffffffffffffffff167f2da466a7b24304f47e87fa2e1e5a81b9831ce54fec19055ce277ca2f39ba42c43460405161012c919061098b565b60405180910390a2005b5f3411610178576040517f08c379a000000000000000000000000000000000000000000000000000000000815260040161016f906108f5565b60405180910390fd5b345f5f3373ffffffffffffffffffffffffffffffffffffffff1673ffffffffffffffffffffffffffffffffffffffff1681526020019081526020015f205f8282546101c39190610949565b925050819055503373ffffffffffffffffffffffffffffffffffffffff167f2da466a7b24304f47e87fa2e1e5a81b9831ce54fec19055ce277ca2f39ba42c434604051610210919061098b565b60405180910390a2005b348015610225575f5ffd5b50610240600480360381019061023b9190610a02565b6102d8565b60405161024d919061098b565b60405180910390f35b348015610261575f5ffd5b5061027c60048036038101906102779190610a57565b6102ec565b005b348015610289575f5ffd5b506102a4600480360381019061029f9190610a57565b6104b7565b005b3480156102b1575f5ffd5b506102cc60048036038101906102c79190610a57565b61061d565b005b6102d66107b7565b005b5f602052805f5260405f205f915090505481565b805f5f3373ffffffffffffffffffffffffffffffffffffffff1673ffffffffffffffffffffffffffffffffffffffff1681526020019081526020015f2054101561036b576040517f08c379a000000000000000000000000000000000000000000000000000000000815260040161036290610acc565b60405180910390fd5b805f5f3373ffffffffffffffffffffffffffffffffffffffff1673ffffffffffffffffffffffffffffffffffffffff1681526020019081526020015f205f8282546103b69190610aea565b925050819055505f3373ffffffffffffffffffffffffffffffffffffffff16826040516103e290610b4a565b5f6040518083038185875af1925050503d805f811461041c576040519150601f19603f3d011682016040523d82523d5f602084013e610421565b606091505b5050905080610465576040517f08c379a000000000000000000000000000000000000000000000000000000000815260040161045c90610ba8565b60405180910390fd5b3373ffffffffffffffffffffffffffffffffffffffff167f7084f5476618d8e60b11ef0d7d3f06914655adb8793e28ff7f018d4c76d505d5836040516104ab919061098b565b60405180910390a25050565b805f5f3373ffffffffffffffffffffffffffffffffffffffff1673ffffffffffffffffffffffffffffffffffffffff1681526020019081526020015f20541015610536576040517f08c379a000000000000000000000000000000000000000000000000000000000815260040161052d90610acc565b60405180910390fd5b805f5f3373ffffffffffffffffffffffffffffffffffffffff1673ffffffffffffffffffffffffffffffffffffffff1681526020019081526020015f205f8282546105819190610aea565b925050819055503373ffffffffffffffffffffffffffffffffffffffff166108fc8290811502906040515f60405180830381858888f193505050501580156105cb573d5f5f3e3d5ffd5b503373ffffffffffffffffffffffffffffffffffffffff167f7084f5476618d8e60b11ef0d7d3f06914655adb8793e28ff7f018d4c76d505d582604051610612919061098b565b60405180910390a250565b805f5f3373ffffffffffffffffffffffffffffffffffffffff1673ffffffffffffffffffffffffffffffffffffffff1681526020019081526020015f2054101561069c576040517f08c379a000000000000000000000000000000000000000000000000000000000815260040161069390610acc565b60405180910390fd5b805f5f3373ffffffffffffffffffffffffffffffffffffffff1673ffffffffffffffffffffffffffffffffffffffff1681526020019081526020015f205f8282546106e79190610aea565b925050819055505f3373ffffffffffffffffffffffffffffffffffffffff166108fc8390811502906040515f60405180830381858888f19350505050905080610765576040517f08c379a000000000000000000000000000000000000000000000000000000000815260040161075c90610ba8565b60405180910390fd5b3373ffffffffffffffffffffffffffffffffffffffff167f7084f5476618d8e60b11ef0d7d3f06914655adb8793e28ff7f018d4c76d505d5836040516107ab919061098b565b60405180910390a25050565b5f34116107f9576040517f08c379a00000000000000000000000000000000000000000000000000000000081526004016107f0906108f5565b60405180910390fd5b345f5f3373ffffffffffffffffffffffffffffffffffffffff1673ffffffffffffffffffffffffffffffffffffffff1681526020019081526020015f205f8282546108449190610949565b925050819055503373ffffffffffffffffffffffffffffffffffffffff167f2da466a7b24304f47e87fa2e1e5a81b9831ce54fec19055ce277ca2f39ba42c434604051610891919061098b565b60405180910390a2565b5f82825260208201905092915050565b7f4d7573742073656e6420736f6d652045544800000000000000000000000000005f82015250565b5f6108df60128361089b565b91506108ea826108ab565b602082019050919050565b5f6020820190508181035f83015261090c816108d3565b9050919050565b5f819050919050565b7f4e487b71000000000000000000000000000000000000000000000000000000005f52601160045260245ffd5b5f61095382610913565b915061095e83610913565b92508282019050808211156109765761097561091c565b5b92915050565b61098581610913565b82525050565b5f60208201905061099e5f83018461097c565b92915050565b5f5ffd5b5f73ffffffffffffffffffffffffffffffffffffffff82169050919050565b5f6109d1826109a8565b9050919050565b6109e1816109c7565b81146109eb575f5ffd5b50565b5f813590506109fc816109d8565b92915050565b5f60208284031215610a1757610a166109a4565b5b5f610a24848285016109ee565b91505092915050565b610a3681610913565b8114610a40575f5ffd5b50565b5f81359050610a5181610a2d565b92915050565b5f60208284031215610a6c57610a6b6109a4565b5b5f610a7984828501610a43565b91505092915050565b7f4e6f7420656e6f7567682062616c616e636500000000000000000000000000005f82015250565b5f610ab660128361089b565b9150610ac182610a82565b602082019050919050565b5f6020820190508181035f830152610ae381610aaa565b9050919050565b5f610af482610913565b9150610aff83610913565b9250828203905081811115610b1757610b1661091c565b5b92915050565b5f81905092915050565b50565b5f610b355f83610b1d565b9150610b4082610b27565b5f82019050919050565b5f610b5482610b2a565b9150819050919050565b7f5769746864726177206661696c656400000000000000000000000000000000005f82015250565b5f610b92600f8361089b565b9150610b9d82610b5e565b602082019050919050565b5f6020820190508181035f830152610bbf81610b86565b905091905056fea264697066735822122095821b880b71c2322b1cfb09b026e49444f8c6aaa080d269d5a8e3b4d4f9eda164736f6c634300081e0033",
					"opcodes": "PUSH1 0x80 PUSH1 0x40 MSTORE CALLVALUE DUP1 ISZERO PUSH1 0xE JUMPI PUSH0 PUSH0 REVERT JUMPDEST POP PUSH2 0xBFC DUP1 PUSH2 0x1C PUSH0 CODECOPY PUSH0 RETURN INVALID PUSH1 0x80 PUSH1 0x40 MSTORE PUSH1 0x4 CALLDATASIZE LT PUSH2 0x4D JUMPI PUSH0 CALLDATALOAD PUSH1 0xE0 SHR DUP1 PUSH4 0x27E235E3 EQ PUSH2 0x21A JUMPI DUP1 PUSH4 0x2E1A7D4D EQ PUSH2 0x256 JUMPI DUP1 PUSH4 0x33B4691E EQ PUSH2 0x27E JUMPI DUP1 PUSH4 0xA5B58223 EQ PUSH2 0x2A6 JUMPI DUP1 PUSH4 0xD0E30DB0 EQ PUSH2 0x2CE JUMPI PUSH2 0x136 JUMP JUMPDEST CALLDATASIZE PUSH2 0x136 JUMPI PUSH0 CALLVALUE GT PUSH2 0x94 JUMPI PUSH1 0x40 MLOAD PUSH32 0x8C379A000000000000000000000000000000000000000000000000000000000 DUP2 MSTORE PUSH1 0x4 ADD PUSH2 0x8B SWAP1 PUSH2 0x8F5 JUMP JUMPDEST PUSH1 0x40 MLOAD DUP1 SWAP2 SUB SWAP1 REVERT JUMPDEST CALLVALUE PUSH0 PUSH0 CALLER PUSH20 0xFFFFFFFFFFFFFFFFFFFFFFFFFFFFFFFFFFFFFFFF AND PUSH20 0xFFFFFFFFFFFFFFFFFFFFFFFFFFFFFFFFFFFFFFFF AND DUP2 MSTORE PUSH1 0x20 ADD SWAP1 DUP2 MSTORE PUSH1 0x20 ADD PUSH0 KECCAK256 PUSH0 DUP3 DUP3 SLOAD PUSH2 0xDF SWAP2 SWAP1 PUSH2 0x949 JUMP JUMPDEST SWAP3 POP POP DUP2 SWAP1 SSTORE POP CALLER PUSH20 0xFFFFFFFFFFFFFFFFFFFFFFFFFFFFFFFFFFFFFFFF AND PUSH32 0x2DA466A7B24304F47E87FA2E1E5A81B9831CE54FEC19055CE277CA2F39BA42C4 CALLVALUE PUSH1 0x40 MLOAD PUSH2 0x12C SWAP2 SWAP1 PUSH2 0x98B JUMP JUMPDEST PUSH1 0x40 MLOAD DUP1 SWAP2 SUB SWAP1 LOG2 STOP JUMPDEST PUSH0 CALLVALUE GT PUSH2 0x178 JUMPI PUSH1 0x40 MLOAD PUSH32 0x8C379A000000000000000000000000000000000000000000000000000000000 DUP2 MSTORE PUSH1 0x4 ADD PUSH2 0x16F SWAP1 PUSH2 0x8F5 JUMP JUMPDEST PUSH1 0x40 MLOAD DUP1 SWAP2 SUB SWAP1 REVERT JUMPDEST CALLVALUE PUSH0 PUSH0 CALLER PUSH20 0xFFFFFFFFFFFFFFFFFFFFFFFFFFFFFFFFFFFFFFFF AND PUSH20 0xFFFFFFFFFFFFFFFFFFFFFFFFFFFFFFFFFFFFFFFF AND DUP2 MSTORE PUSH1 0x20 ADD SWAP1 DUP2 MSTORE PUSH1 0x20 ADD PUSH0 KECCAK256 PUSH0 DUP3 DUP3 SLOAD PUSH2 0x1C3 SWAP2 SWAP1 PUSH2 0x949 JUMP JUMPDEST SWAP3 POP POP DUP2 SWAP1 SSTORE POP CALLER PUSH20 0xFFFFFFFFFFFFFFFFFFFFFFFFFFFFFFFFFFFFFFFF AND PUSH32 0x2DA466A7B24304F47E87FA2E1E5A81B9831CE54FEC19055CE277CA2F39BA42C4 CALLVALUE PUSH1 0x40 MLOAD PUSH2 0x210 SWAP2 SWAP1 PUSH2 0x98B JUMP JUMPDEST PUSH1 0x40 MLOAD DUP1 SWAP2 SUB SWAP1 LOG2 STOP JUMPDEST CALLVALUE DUP1 ISZERO PUSH2 0x225 JUMPI PUSH0 PUSH0 REVERT JUMPDEST POP PUSH2 0x240 PUSH1 0x4 DUP1 CALLDATASIZE SUB DUP2 ADD SWAP1 PUSH2 0x23B SWAP2 SWAP1 PUSH2 0xA02 JUMP JUMPDEST PUSH2 0x2D8 JUMP JUMPDEST PUSH1 0x40 MLOAD PUSH2 0x24D SWAP2 SWAP1 PUSH2 0x98B JUMP JUMPDEST PUSH1 0x40 MLOAD DUP1 SWAP2 SUB SWAP1 RETURN JUMPDEST CALLVALUE DUP1 ISZERO PUSH2 0x261 JUMPI PUSH0 PUSH0 REVERT JUMPDEST POP PUSH2 0x27C PUSH1 0x4 DUP1 CALLDATASIZE SUB DUP2 ADD SWAP1 PUSH2 0x277 SWAP2 SWAP1 PUSH2 0xA57 JUMP JUMPDEST PUSH2 0x2EC JUMP JUMPDEST STOP JUMPDEST CALLVALUE DUP1 ISZERO PUSH2 0x289 JUMPI PUSH0 PUSH0 REVERT JUMPDEST POP PUSH2 0x2A4 PUSH1 0x4 DUP1 CALLDATASIZE SUB DUP2 ADD SWAP1 PUSH2 0x29F SWAP2 SWAP1 PUSH2 0xA57 JUMP JUMPDEST PUSH2 0x4B7 JUMP JUMPDEST STOP JUMPDEST CALLVALUE DUP1 ISZERO PUSH2 0x2B1 JUMPI PUSH0 PUSH0 REVERT JUMPDEST POP PUSH2 0x2CC PUSH1 0x4 DUP1 CALLDATASIZE SUB DUP2 ADD SWAP1 PUSH2 0x2C7 SWAP2 SWAP1 PUSH2 0xA57 JUMP JUMPDEST PUSH2 0x61D JUMP JUMPDEST STOP JUMPDEST PUSH2 0x2D6 PUSH2 0x7B7 JUMP JUMPDEST STOP JUMPDEST PUSH0 PUSH1 0x20 MSTORE DUP1 PUSH0 MSTORE PUSH1 0x40 PUSH0 KECCAK256 PUSH0 SWAP2 POP SWAP1 POP SLOAD DUP2 JUMP JUMPDEST DUP1 PUSH0 PUSH0 CALLER PUSH20 0xFFFFFFFFFFFFFFFFFFFFFFFFFFFFFFFFFFFFFFFF AND PUSH20 0xFFFFFFFFFFFFFFFFFFFFFFFFFFFFFFFFFFFFFFFF AND DUP2 MSTORE PUSH1 0x20 ADD SWAP1 DUP2 MSTORE PUSH1 0x20 ADD PUSH0 KECCAK256 SLOAD LT ISZERO PUSH2 0x36B JUMPI PUSH1 0x40 MLOAD PUSH32 0x8C379A000000000000000000000000000000000000000000000000000000000 DUP2 MSTORE PUSH1 0x4 ADD PUSH2 0x362 SWAP1 PUSH2 0xACC JUMP JUMPDEST PUSH1 0x40 MLOAD DUP1 SWAP2 SUB SWAP1 REVERT JUMPDEST DUP1 PUSH0 PUSH0 CALLER PUSH20 0xFFFFFFFFFFFFFFFFFFFFFFFFFFFFFFFFFFFFFFFF AND PUSH20 0xFFFFFFFFFFFFFFFFFFFFFFFFFFFFFFFFFFFFFFFF AND DUP2 MSTORE PUSH1 0x20 ADD SWAP1 DUP2 MSTORE PUSH1 0x20 ADD PUSH0 KECCAK256 PUSH0 DUP3 DUP3 SLOAD PUSH2 0x3B6 SWAP2 SWAP1 PUSH2 0xAEA JUMP JUMPDEST SWAP3 POP POP DUP2 SWAP1 SSTORE POP PUSH0 CALLER PUSH20 0xFFFFFFFFFFFFFFFFFFFFFFFFFFFFFFFFFFFFFFFF AND DUP3 PUSH1 0x40 MLOAD PUSH2 0x3E2 SWAP1 PUSH2 0xB4A JUMP JUMPDEST PUSH0 PUSH1 0x40 MLOAD DUP1 DUP4 SUB DUP2 DUP6 DUP8 GAS CALL SWAP3 POP POP POP RETURNDATASIZE DUP1 PUSH0 DUP2 EQ PUSH2 0x41C JUMPI PUSH1 0x40 MLOAD SWAP2 POP PUSH1 0x1F NOT PUSH1 0x3F RETURNDATASIZE ADD AND DUP3 ADD PUSH1 0x40 MSTORE RETURNDATASIZE DUP3 MSTORE RETURNDATASIZE PUSH0 PUSH1 0x20 DUP5 ADD RETURNDATACOPY PUSH2 0x421 JUMP JUMPDEST PUSH1 0x60 SWAP2 POP JUMPDEST POP POP SWAP1 POP DUP1 PUSH2 0x465 JUMPI PUSH1 0x40 MLOAD PUSH32 0x8C379A000000000000000000000000000000000000000000000000000000000 DUP2 MSTORE PUSH1 0x4 ADD PUSH2 0x45C SWAP1 PUSH2 0xBA8 JUMP JUMPDEST PUSH1 0x40 MLOAD DUP1 SWAP2 SUB SWAP1 REVERT JUMPDEST CALLER PUSH20 0xFFFFFFFFFFFFFFFFFFFFFFFFFFFFFFFFFFFFFFFF AND PUSH32 0x7084F5476618D8E60B11EF0D7D3F06914655ADB8793E28FF7F018D4C76D505D5 DUP4 PUSH1 0x40 MLOAD PUSH2 0x4AB SWAP2 SWAP1 PUSH2 0x98B JUMP JUMPDEST PUSH1 0x40 MLOAD DUP1 SWAP2 SUB SWAP1 LOG2 POP POP JUMP JUMPDEST DUP1 PUSH0 PUSH0 CALLER PUSH20 0xFFFFFFFFFFFFFFFFFFFFFFFFFFFFFFFFFFFFFFFF AND PUSH20 0xFFFFFFFFFFFFFFFFFFFFFFFFFFFFFFFFFFFFFFFF AND DUP2 MSTORE PUSH1 0x20 ADD SWAP1 DUP2 MSTORE PUSH1 0x20 ADD PUSH0 KECCAK256 SLOAD LT ISZERO PUSH2 0x536 JUMPI PUSH1 0x40 MLOAD PUSH32 0x8C379A000000000000000000000000000000000000000000000000000000000 DUP2 MSTORE PUSH1 0x4 ADD PUSH2 0x52D SWAP1 PUSH2 0xACC JUMP JUMPDEST PUSH1 0x40 MLOAD DUP1 SWAP2 SUB SWAP1 REVERT JUMPDEST DUP1 PUSH0 PUSH0 CALLER PUSH20 0xFFFFFFFFFFFFFFFFFFFFFFFFFFFFFFFFFFFFFFFF AND PUSH20 0xFFFFFFFFFFFFFFFFFFFFFFFFFFFFFFFFFFFFFFFF AND DUP2 MSTORE PUSH1 0x20 ADD SWAP1 DUP2 MSTORE PUSH1 0x20 ADD PUSH0 KECCAK256 PUSH0 DUP3 DUP3 SLOAD PUSH2 0x581 SWAP2 SWAP1 PUSH2 0xAEA JUMP JUMPDEST SWAP3 POP POP DUP2 SWAP1 SSTORE POP CALLER PUSH20 0xFFFFFFFFFFFFFFFFFFFFFFFFFFFFFFFFFFFFFFFF AND PUSH2 0x8FC DUP3 SWAP1 DUP2 ISZERO MUL SWAP1 PUSH1 0x40 MLOAD PUSH0 PUSH1 0x40 MLOAD DUP1 DUP4 SUB DUP2 DUP6 DUP9 DUP9 CALL SWAP4 POP POP POP POP ISZERO DUP1 ISZERO PUSH2 0x5CB JUMPI RETURNDATASIZE PUSH0 PUSH0 RETURNDATACOPY RETURNDATASIZE PUSH0 REVERT JUMPDEST POP CALLER PUSH20 0xFFFFFFFFFFFFFFFFFFFFFFFFFFFFFFFFFFFFFFFF AND PUSH32 0x7084F5476618D8E60B11EF0D7D3F06914655ADB8793E28FF7F018D4C76D505D5 DUP3 PUSH1 0x40 MLOAD PUSH2 0x612 SWAP2 SWAP1 PUSH2 0x98B JUMP JUMPDEST PUSH1 0x40 MLOAD DUP1 SWAP2 SUB SWAP1 LOG2 POP JUMP JUMPDEST DUP1 PUSH0 PUSH0 CALLER PUSH20 0xFFFFFFFFFFFFFFFFFFFFFFFFFFFFFFFFFFFFFFFF AND PUSH20 0xFFFFFFFFFFFFFFFFFFFFFFFFFFFFFFFFFFFFFFFF AND DUP2 MSTORE PUSH1 0x20 ADD SWAP1 DUP2 MSTORE PUSH1 0x20 ADD PUSH0 KECCAK256 SLOAD LT ISZERO PUSH2 0x69C JUMPI PUSH1 0x40 MLOAD PUSH32 0x8C379A000000000000000000000000000000000000000000000000000000000 DUP2 MSTORE PUSH1 0x4 ADD PUSH2 0x693 SWAP1 PUSH2 0xACC JUMP JUMPDEST PUSH1 0x40 MLOAD DUP1 SWAP2 SUB SWAP1 REVERT JUMPDEST DUP1 PUSH0 PUSH0 CALLER PUSH20 0xFFFFFFFFFFFFFFFFFFFFFFFFFFFFFFFFFFFFFFFF AND PUSH20 0xFFFFFFFFFFFFFFFFFFFFFFFFFFFFFFFFFFFFFFFF AND DUP2 MSTORE PUSH1 0x20 ADD SWAP1 DUP2 MSTORE PUSH1 0x20 ADD PUSH0 KECCAK256 PUSH0 DUP3 DUP3 SLOAD PUSH2 0x6E7 SWAP2 SWAP1 PUSH2 0xAEA JUMP JUMPDEST SWAP3 POP POP DUP2 SWAP1 SSTORE POP PUSH0 CALLER PUSH20 0xFFFFFFFFFFFFFFFFFFFFFFFFFFFFFFFFFFFFFFFF AND PUSH2 0x8FC DUP4 SWAP1 DUP2 ISZERO MUL SWAP1 PUSH1 0x40 MLOAD PUSH0 PUSH1 0x40 MLOAD DUP1 DUP4 SUB DUP2 DUP6 DUP9 DUP9 CALL SWAP4 POP POP POP POP SWAP1 POP DUP1 PUSH2 0x765 JUMPI PUSH1 0x40 MLOAD PUSH32 0x8C379A000000000000000000000000000000000000000000000000000000000 DUP2 MSTORE PUSH1 0x4 ADD PUSH2 0x75C SWAP1 PUSH2 0xBA8 JUMP JUMPDEST PUSH1 0x40 MLOAD DUP1 SWAP2 SUB SWAP1 REVERT JUMPDEST CALLER PUSH20 0xFFFFFFFFFFFFFFFFFFFFFFFFFFFFFFFFFFFFFFFF AND PUSH32 0x7084F5476618D8E60B11EF0D7D3F06914655ADB8793E28FF7F018D4C76D505D5 DUP4 PUSH1 0x40 MLOAD PUSH2 0x7AB SWAP2 SWAP1 PUSH2 0x98B JUMP JUMPDEST PUSH1 0x40 MLOAD DUP1 SWAP2 SUB SWAP1 LOG2 POP POP JUMP JUMPDEST PUSH0 CALLVALUE GT PUSH2 0x7F9 JUMPI PUSH1 0x40 MLOAD PUSH32 0x8C379A000000000000000000000000000000000000000000000000000000000 DUP2 MSTORE PUSH1 0x4 ADD PUSH2 0x7F0 SWAP1 PUSH2 0x8F5 JUMP JUMPDEST PUSH1 0x40 MLOAD DUP1 SWAP2 SUB SWAP1 REVERT JUMPDEST CALLVALUE PUSH0 PUSH0 CALLER PUSH20 0xFFFFFFFFFFFFFFFFFFFFFFFFFFFFFFFFFFFFFFFF AND PUSH20 0xFFFFFFFFFFFFFFFFFFFFFFFFFFFFFFFFFFFFFFFF AND DUP2 MSTORE PUSH1 0x20 ADD SWAP1 DUP2 MSTORE PUSH1 0x20 ADD PUSH0 KECCAK256 PUSH0 DUP3 DUP3 SLOAD PUSH2 0x844 SWAP2 SWAP1 PUSH2 0x949 JUMP JUMPDEST SWAP3 POP POP DUP2 SWAP1 SSTORE POP CALLER PUSH20 0xFFFFFFFFFFFFFFFFFFFFFFFFFFFFFFFFFFFFFFFF AND PUSH32 0x2DA466A7B24304F47E87FA2E1E5A81B9831CE54FEC19055CE277CA2F39BA42C4 CALLVALUE PUSH1 0x40 MLOAD PUSH2 0x891 SWAP2 SWAP1 PUSH2 0x98B JUMP JUMPDEST PUSH1 0x40 MLOAD DUP1 SWAP2 SUB SWAP1 LOG2 JUMP JUMPDEST PUSH0 DUP3 DUP3 MSTORE PUSH1 0x20 DUP3 ADD SWAP1 POP SWAP3 SWAP2 POP POP JUMP JUMPDEST PUSH32 0x4D7573742073656E6420736F6D65204554480000000000000000000000000000 PUSH0 DUP3 ADD MSTORE POP JUMP JUMPDEST PUSH0 PUSH2 0x8DF PUSH1 0x12 DUP4 PUSH2 0x89B JUMP JUMPDEST SWAP2 POP PUSH2 0x8EA DUP3 PUSH2 0x8AB JUMP JUMPDEST PUSH1 0x20 DUP3 ADD SWAP1 POP SWAP2 SWAP1 POP JUMP JUMPDEST PUSH0 PUSH1 0x20 DUP3 ADD SWAP1 POP DUP2 DUP2 SUB PUSH0 DUP4 ADD MSTORE PUSH2 0x90C DUP2 PUSH2 0x8D3 JUMP JUMPDEST SWAP1 POP SWAP2 SWAP1 POP JUMP JUMPDEST PUSH0 DUP2 SWAP1 POP SWAP2 SWAP1 POP JUMP JUMPDEST PUSH32 0x4E487B7100000000000000000000000000000000000000000000000000000000 PUSH0 MSTORE PUSH1 0x11 PUSH1 0x4 MSTORE PUSH1 0x24 PUSH0 REVERT JUMPDEST PUSH0 PUSH2 0x953 DUP3 PUSH2 0x913 JUMP JUMPDEST SWAP2 POP PUSH2 0x95E DUP4 PUSH2 0x913 JUMP JUMPDEST SWAP3 POP DUP3 DUP3 ADD SWAP1 POP DUP1 DUP3 GT ISZERO PUSH2 0x976 JUMPI PUSH2 0x975 PUSH2 0x91C JUMP JUMPDEST JUMPDEST SWAP3 SWAP2 POP POP JUMP JUMPDEST PUSH2 0x985 DUP2 PUSH2 0x913 JUMP JUMPDEST DUP3 MSTORE POP POP JUMP JUMPDEST PUSH0 PUSH1 0x20 DUP3 ADD SWAP1 POP PUSH2 0x99E PUSH0 DUP4 ADD DUP5 PUSH2 0x97C JUMP JUMPDEST SWAP3 SWAP2 POP POP JUMP JUMPDEST PUSH0 PUSH0 REVERT JUMPDEST PUSH0 PUSH20 0xFFFFFFFFFFFFFFFFFFFFFFFFFFFFFFFFFFFFFFFF DUP3 AND SWAP1 POP SWAP2 SWAP1 POP JUMP JUMPDEST PUSH0 PUSH2 0x9D1 DUP3 PUSH2 0x9A8 JUMP JUMPDEST SWAP1 POP SWAP2 SWAP1 POP JUMP JUMPDEST PUSH2 0x9E1 DUP2 PUSH2 0x9C7 JUMP JUMPDEST DUP2 EQ PUSH2 0x9EB JUMPI PUSH0 PUSH0 REVERT JUMPDEST POP JUMP JUMPDEST PUSH0 DUP2 CALLDATALOAD SWAP1 POP PUSH2 0x9FC DUP2 PUSH2 0x9D8 JUMP JUMPDEST SWAP3 SWAP2 POP POP JUMP JUMPDEST PUSH0 PUSH1 0x20 DUP3 DUP5 SUB SLT ISZERO PUSH2 0xA17 JUMPI PUSH2 0xA16 PUSH2 0x9A4 JUMP JUMPDEST JUMPDEST PUSH0 PUSH2 0xA24 DUP5 DUP3 DUP6 ADD PUSH2 0x9EE JUMP JUMPDEST SWAP2 POP POP SWAP3 SWAP2 POP POP JUMP JUMPDEST PUSH2 0xA36 DUP2 PUSH2 0x913 JUMP JUMPDEST DUP2 EQ PUSH2 0xA40 JUMPI PUSH0 PUSH0 REVERT JUMPDEST POP JUMP JUMPDEST PUSH0 DUP2 CALLDATALOAD SWAP1 POP PUSH2 0xA51 DUP2 PUSH2 0xA2D JUMP JUMPDEST SWAP3 SWAP2 POP POP JUMP JUMPDEST PUSH0 PUSH1 0x20 DUP3 DUP5 SUB SLT ISZERO PUSH2 0xA6C JUMPI PUSH2 0xA6B PUSH2 0x9A4 JUMP JUMPDEST JUMPDEST PUSH0 PUSH2 0xA79 DUP5 DUP3 DUP6 ADD PUSH2 0xA43 JUMP JUMPDEST SWAP2 POP POP SWAP3 SWAP2 POP POP JUMP JUMPDEST PUSH32 0x4E6F7420656E6F7567682062616C616E63650000000000000000000000000000 PUSH0 DUP3 ADD MSTORE POP JUMP JUMPDEST PUSH0 PUSH2 0xAB6 PUSH1 0x12 DUP4 PUSH2 0x89B JUMP JUMPDEST SWAP2 POP PUSH2 0xAC1 DUP3 PUSH2 0xA82 JUMP JUMPDEST PUSH1 0x20 DUP3 ADD SWAP1 POP SWAP2 SWAP1 POP JUMP JUMPDEST PUSH0 PUSH1 0x20 DUP3 ADD SWAP1 POP DUP2 DUP2 SUB PUSH0 DUP4 ADD MSTORE PUSH2 0xAE3 DUP2 PUSH2 0xAAA JUMP JUMPDEST SWAP1 POP SWAP2 SWAP1 POP JUMP JUMPDEST PUSH0 PUSH2 0xAF4 DUP3 PUSH2 0x913 JUMP JUMPDEST SWAP2 POP PUSH2 0xAFF DUP4 PUSH2 0x913 JUMP JUMPDEST SWAP3 POP DUP3 DUP3 SUB SWAP1 POP DUP2 DUP2 GT ISZERO PUSH2 0xB17 JUMPI PUSH2 0xB16 PUSH2 0x91C JUMP JUMPDEST JUMPDEST SWAP3 SWAP2 POP POP JUMP JUMPDEST PUSH0 DUP2 SWAP1 POP SWAP3 SWAP2 POP POP JUMP JUMPDEST POP JUMP JUMPDEST PUSH0 PUSH2 0xB35 PUSH0 DUP4 PUSH2 0xB1D JUMP JUMPDEST SWAP2 POP PUSH2 0xB40 DUP3 PUSH2 0xB27 JUMP JUMPDEST PUSH0 DUP3 ADD SWAP1 POP SWAP2 SWAP1 POP JUMP JUMPDEST PUSH0 PUSH2 0xB54 DUP3 PUSH2 0xB2A JUMP JUMPDEST SWAP2 POP DUP2 SWAP1 POP SWAP2 SWAP1 POP JUMP JUMPDEST PUSH32 0x5769746864726177206661696C65640000000000000000000000000000000000 PUSH0 DUP3 ADD MSTORE POP JUMP JUMPDEST PUSH0 PUSH2 0xB92 PUSH1 0xF DUP4 PUSH2 0x89B JUMP JUMPDEST SWAP2 POP PUSH2 0xB9D DUP3 PUSH2 0xB5E JUMP JUMPDEST PUSH1 0x20 DUP3 ADD SWAP1 POP SWAP2 SWAP1 POP JUMP JUMPDEST PUSH0 PUSH1 0x20 DUP3 ADD SWAP1 POP DUP2 DUP2 SUB PUSH0 DUP4 ADD MSTORE PUSH2 0xBBF DUP2 PUSH2 0xB86 JUMP JUMPDEST SWAP1 POP SWAP2 SWAP1 POP JUMP INVALID LOG2 PUSH5 0x6970667358 0x22 SLT KECCAK256 SWAP6 DUP3 SHL DUP9 SIGNEXTEND PUSH18 0xC2322B1CFB09B026E49444F8C6AAA080D269 0xD5 0xA8 CALLF 0xB4D4 EXTDELEGATECALL 0xED LOG1 PUSH5 0x736F6C6343 STOP ADDMOD 0x1E STOP CALLER "
				},
				"gasEstimates": {
					"creation": {
						"codeDepositCost": "613600",
						"executionCost": "643",
						"totalCost": "614243"
					},
					"external": {
						"": "infinite",
						"balances(address)": "2779",
						"deposit()": "infinite",
						"withdraw(uint256)": "infinite",
						"withdrawViaSend(uint256)": "infinite",
						"withdrawViaTransfer(uint256)": "infinite"
					}
				},
				"methodIdentifiers": {
					"balances(address)": "27e235e3",
					"deposit()": "d0e30db0",
					"withdraw(uint256)": "2e1a7d4d",
					"withdrawViaSend(uint256)": "a5b58223",
					"withdrawViaTransfer(uint256)": "33b4691e"
				}
			},
			"storageLayout": {
				"storage": [
					{
						"astId": 5,
						"contract": "contracts/PayableTransfers.sol:PayableTransfers",
						"label": "balances",
						"offset": 0,
						"slot": "0",
						"type": "t_mapping(t_address,t_uint256)"
					}
				],
				"types": {
					"t_address": {
						"encoding": "inplace",
						"label": "address",
						"numberOfBytes": "20"
					},
					"t_mapping(t_address,t_uint256)": {
						"encoding": "mapping",
						"key": "t_address",
						"label": "mapping(address => uint256)",
						"numberOfBytes": "32",
						"value": "t_uint256"
					},
					"t_uint256": {
						"encoding": "inplace",
						"label": "uint256",
						"numberOfBytes": "32"
					}
				}
			},
			"userdoc": {
				"kind": "user",
				"methods": {},
				"version": 1
			}
		}
	}
}