{
	"data": {
		"bytecode": {
			"linkReferences": {},
			"object": "6080604052348015600e575f5ffd5b506103b98061001c5f395ff3fe608060405234801561000f575f5ffd5b506004361061004a575f3560e01c8063493b4c051461004e57806388500bb61461007e578063d8a7c79d146100ae578063f00baf3e146100de575b5f5ffd5b610068600480360381019061006391906101e2565b61010e565b604051610075919061021c565b60405180910390f35b610098600480360381019061009391906101e2565b61013b565b6040516100a5919061021c565b60405180910390f35b6100c860048036038101906100c39190610235565b61015b565b6040516100d5919061021c565b60405180910390f35b6100f860048036038101906100f391906101e2565b610188565b604051610105919061021c565b60405180910390f35b5f6020600a60128461012091906102b2565b61012a9190610320565b6101349190610350565b9050919050565b5f603c808361014a91906102b2565b61015491906102b2565b9050919050565b5f600382848661016b9190610350565b6101759190610350565b61017f9190610320565b90509392505050565b5f60646204aa118361019a91906102b2565b6101a49190610320565b9050919050565b5f5ffd5b5f819050919050565b6101c1816101af565b81146101cb575f5ffd5b50565b5f813590506101dc816101b8565b92915050565b5f602082840312156101f7576101f66101ab565b5b5f610204848285016101ce565b91505092915050565b610216816101af565b82525050565b5f60208201905061022f5f83018461020d565b92915050565b5f5f5f6060848603121561024c5761024b6101ab565b5b5f610259868287016101ce565b935050602061026a868287016101ce565b925050604061027b868287016101ce565b9150509250925092565b7f4e487b71000000000000000000000000000000000000000000000000000000005f52601160045260245ffd5b5f6102bc826101af565b91506102c7836101af565b92508282026102d5816101af565b915082820484148315176102ec576102eb610285565b5b5092915050565b7f4e487b71000000000000000000000000000000000000000000000000000000005f52601260045260245ffd5b5f61032a826101af565b9150610335836101af565b925082610345576103446102f3565b5b828204905092915050565b5f61035a826101af565b9150610365836101af565b925082820190508082111561037d5761037c610285565b5b9291505056fea2646970667358221220f95567f93177ef3a6eb33e0e9b553cf978f5b791d5d83dfee363421773a19e8c64736f6c634300081e0033",
			"opcodes": "PUSH1 0x80 PUSH1 0x40 MSTORE CALLVALUE DUP1 ISZERO PUSH1 0xE JUMPI PUSH0 PUSH0 REVERT JUMPDEST POP PUSH2 0x3B9 DUP1 PUSH2 0x1C PUSH0 CODECOPY PUSH0 RETURN INVALID PUSH1 0x80 PUSH1 0x40 MSTORE CALLVALUE DUP1 ISZERO PUSH2 0xF JUMPI PUSH0 PUSH0 REVERT JUMPDEST POP PUSH1 0x4 CALLDATASIZE LT PUSH2 0x4A JUMPI PUSH0 CALLDATALOAD PUSH1 0xE0 SHR DUP1 PUSH4 0x493B4C05 EQ PUSH2 0x4E JUMPI DUP1 PUSH4 0x88500BB6 EQ PUSH2 0x7E JUMPI DUP1 PUSH4 0xD8A7C79D EQ PUSH2 0xAE JUMPI DUP1 PUSH4 0xF00BAF3E EQ PUSH2 0xDE JUMPI JUMPDEST PUSH0 PUSH0 REVERT JUMPDEST PUSH2 0x68 PUSH1 0x4 DUP1 CALLDATASIZE SUB DUP2 ADD SWAP1 PUSH2 0x63 SWAP2 SWAP1 PUSH2 0x1E2 JUMP JUMPDEST PUSH2 0x10E JUMP JUMPDEST PUSH1 0x40 MLOAD PUSH2 0x75 SWAP2 SWAP1 PUSH2 0x21C JUMP JUMPDEST PUSH1 0x40 MLOAD DUP1 SWAP2 SUB SWAP1 RETURN JUMPDEST PUSH2 0x98 PUSH1 0x4 DUP1 CALLDATASIZE SUB DUP2 ADD SWAP1 PUSH2 0x93 SWAP2 SWAP1 PUSH2 0x1E2 JUMP JUMPDEST PUSH2 0x13B JUMP JUMPDEST PUSH1 0x40 MLOAD PUSH2 0xA5 SWAP2 SWAP1 PUSH2 0x21C JUMP JUMPDEST PUSH1 0x40 MLOAD DUP1 SWAP2 SUB SWAP1 RETURN JUMPDEST PUSH2 0xC8 PUSH1 0x4 DUP1 CALLDATASIZE SUB DUP2 ADD SWAP1 PUSH2 0xC3 SWAP2 SWAP1 PUSH2 0x235 JUMP JUMPDEST PUSH2 0x15B JUMP JUMPDEST PUSH1 0x40 MLOAD PUSH2 0xD5 SWAP2 SWAP1 PUSH2 0x21C JUMP JUMPDEST PUSH1 0x40 MLOAD DUP1 SWAP2 SUB SWAP1 RETURN JUMPDEST PUSH2 0xF8 PUSH1 0x4 DUP1 CALLDATASIZE SUB DUP2 ADD SWAP1 PUSH2 0xF3 SWAP2 SWAP1 PUSH2 0x1E2 JUMP JUMPDEST PUSH2 0x188 JUMP JUMPDEST PUSH1 0x40 MLOAD PUSH2 0x105 SWAP2 SWAP1 PUSH2 0x21C JUMP JUMPDEST PUSH1 0x40 MLOAD DUP1 SWAP2 SUB SWAP1 RETURN JUMPDEST PUSH0 PUSH1 0x20 PUSH1 0xA PUSH1 0x12 DUP5 PUSH2 0x120 SWAP2 SWAP1 PUSH2 0x2B2 JUMP JUMPDEST PUSH2 0x12A SWAP2 SWAP1 PUSH2 0x320 JUMP JUMPDEST PUSH2 0x134 SWAP2 SWAP1 PUSH2 0x350 JUMP JUMPDEST SWAP1 POP SWAP2 SWAP1 POP JUMP JUMPDEST PUSH0 PUSH1 0x3C DUP1 DUP4 PUSH2 0x14A SWAP2 SWAP1 PUSH2 0x2B2 JUMP JUMPDEST PUSH2 0x154 SWAP2 SWAP1 PUSH2 0x2B2 JUMP JUMPDEST SWAP1 POP SWAP2 SWAP1 POP JUMP JUMPDEST PUSH0 PUSH1 0x3 DUP3 DUP5 DUP7 PUSH2 0x16B SWAP2 SWAP1 PUSH2 0x350 JUMP JUMPDEST PUSH2 0x175 SWAP2 SWAP1 PUSH2 0x350 JUMP JUMPDEST PUSH2 0x17F SWAP2 SWAP1 PUSH2 0x320 JUMP JUMPDEST SWAP1 POP SWAP4 SWAP3 POP POP POP JUMP JUMPDEST PUSH0 PUSH1 0x64 PUSH3 0x4AA11 DUP4 PUSH2 0x19A SWAP2 SWAP1 PUSH2 0x2B2 JUMP JUMPDEST PUSH2 0x1A4 SWAP2 SWAP1 PUSH2 0x320 JUMP JUMPDEST SWAP1 POP SWAP2 SWAP1 POP JUMP JUMPDEST PUSH0 PUSH0 REVERT JUMPDEST PUSH0 DUP2 SWAP1 POP SWAP2 SWAP1 POP JUMP JUMPDEST PUSH2 0x1C1 DUP2 PUSH2 0x1AF JUMP JUMPDEST DUP2 EQ PUSH2 0x1CB JUMPI PUSH0 PUSH0 REVERT JUMPDEST POP JUMP JUMPDEST PUSH0 DUP2 CALLDATALOAD SWAP1 POP PUSH2 0x1DC DUP2 PUSH2 0x1B8 JUMP JUMPDEST SWAP3 SWAP2 POP POP JUMP JUMPDEST PUSH0 PUSH1 0x20 DUP3 DUP5 SUB SLT ISZERO PUSH2 0x1F7 JUMPI PUSH2 0x1F6 PUSH2 0x1AB JUMP JUMPDEST JUMPDEST PUSH0 PUSH2 0x204 DUP5 DUP3 DUP6 ADD PUSH2 0x1CE JUMP JUMPDEST SWAP2 POP POP SWAP3 SWAP2 POP POP JUMP JUMPDEST PUSH2 0x216 DUP2 PUSH2 0x1AF JUMP JUMPDEST DUP3 MSTORE POP POP JUMP JUMPDEST PUSH0 PUSH1 0x20 DUP3 ADD SWAP1 POP PUSH2 0x22F PUSH0 DUP4 ADD DUP5 PUSH2 0x20D JUMP JUMPDEST SWAP3 SWAP2 POP POP JUMP JUMPDEST PUSH0 PUSH0 PUSH0 PUSH1 0x60 DUP5 DUP7 SUB SLT ISZERO PUSH2 0x24C JUMPI PUSH2 0x24B PUSH2 0x1AB JUMP JUMPDEST JUMPDEST PUSH0 PUSH2 0x259 DUP7 DUP3 DUP8 ADD PUSH2 0x1CE JUMP JUMPDEST SWAP4 POP POP PUSH1 0x20 PUSH2 0x26A DUP7 DUP3 DUP8 ADD PUSH2 0x1CE JUMP JUMPDEST SWAP3 POP POP PUSH1 0x40 PUSH2 0x27B DUP7 DUP3 DUP8 ADD PUSH2 0x1CE JUMP JUMPDEST SWAP2 POP POP SWAP3 POP SWAP3 POP SWAP3 JUMP JUMPDEST PUSH32 0x4E487B7100000000000000000000000000000000000000000000000000000000 PUSH0 MSTORE PUSH1 0x11 PUSH1 0x4 MSTORE PUSH1 0x24 PUSH0 REVERT JUMPDEST PUSH0 PUSH2 0x2BC DUP3 PUSH2 0x1AF JUMP JUMPDEST SWAP2 POP PUSH2 0x2C7 DUP4 PUSH2 0x1AF JUMP JUMPDEST SWAP3 POP DUP3 DUP3 MUL PUSH2 0x2D5 DUP2 PUSH2 0x1AF JUMP JUMPDEST SWAP2 POP DUP3 DUP3 DIV DUP5 EQ DUP4 ISZERO OR PUSH2 0x2EC JUMPI PUSH2 0x2EB PUSH2 0x285 JUMP JUMPDEST JUMPDEST POP SWAP3 SWAP2 POP POP JUMP JUMPDEST PUSH32 0x4E487B7100000000000000000000000000000000000000000000000000000000 PUSH0 MSTORE PUSH1 0x12 PUSH1 0x4 MSTORE PUSH1 0x24 PUSH0 REVERT JUMPDEST PUSH0 PUSH2 0x32A DUP3 PUSH2 0x1AF JUMP JUMPDEST SWAP2 POP PUSH2 0x335 DUP4 PUSH2 0x1AF JUMP JUMPDEST SWAP3 POP DUP3 PUSH2 0x345 JUMPI PUSH2 0x344 PUSH2 0x2F3 JUMP JUMPDEST JUMPDEST DUP3 DUP3 DIV SWAP1 POP SWAP3 SWAP2 POP POP JUMP JUMPDEST PUSH0 PUSH2 0x35A DUP3 PUSH2 0x1AF JUMP JUMPDEST SWAP2 POP PUSH2 0x365 DUP4 PUSH2 0x1AF JUMP JUMPDEST SWAP3 POP DUP3 DUP3 ADD SWAP1 POP DUP1 DUP3 GT ISZERO PUSH2 0x37D JUMPI PUSH2 0x37C PUSH2 0x285 JUMP JUMPDEST JUMPDEST SWAP3 SWAP2 POP POP JUMP INVALID LOG2 PUSH5 0x6970667358 0x22 SLT KECCAK256 EXTDELEGATECALL SSTORE PUSH8 0xF93177EF3A6EB33E 0xE SWAP12 SSTORE EXTCODECOPY EXTDELEGATECALL PUSH25 0xF5B791D5D83DFEE363421773A19E8C64736F6C634300081E00 CALLER "
		},
		"gasEstimates": {
			"creation": {
				"codeDepositCost": "190600",
				"executionCost": "230",
				"totalCost": "190830"
			},
			"external": {
				"computeAverage(uint256,uint256,uint256)": "infinite",
				"convertETH(uint256)": "infinite",
				"convertTemperature(uint256)": "infinite",
				"convertTime(uint256)": "infinite"
			}
		},
		"methodIdentifiers": {
			"computeAverage(uint256,uint256,uint256)": "d8a7c79d",
			"convertETH(uint256)": "f00baf3e",
			"convertTemperature(uint256)": "493b4c05",
			"convertTime(uint256)": "88500bb6"
		}
	},
	"abi": [
		{
			"inputs": [
				{
					"internalType": "uint256",
					"name": "fnum",
					"type": "uint256"
				},
				{
					"internalType": "uint256",
					"name": "snum",
					"type": "uint256"
				},
				{
					"internalType": "uint256",
					"name": "tnum",
					"type": "uint256"
				}
			],
			"name": "computeAverage",
			"outputs": [
				{
					"internalType": "uint256",
					"name": "",
					"type": "uint256"
				}
			],
			"stateMutability": "pure",
			"type": "function"
		},
		{
			"inputs": [
				{
					"internalType": "uint256",
					"name": "eth",
					"type": "uint256"
				}
			],
			"name": "convertETH",
			"outputs": [
				{
					"internalType": "uint256",
					"name": "",
					"type": "uint256"
				}
			],
			"stateMutability": "pure",
			"type": "function"
		},
		{
			"inputs": [
				{
					"internalType": "uint256",
					"name": "celsius",
					"type": "uint256"
				}
			],
			"name": "convertTemperature",
			"outputs": [
				{
					"internalType": "uint256",
					"name": "",
					"type": "uint256"
				}
			],
			"stateMutability": "pure",
			"type": "function"
		},
		{
			"inputs": [
				{
					"internalType": "uint256",
					"name": "hour",
					"type": "uint256"
				}
			],
			"name": "convertTime",
			"outputs": [
				{
					"internalType": "uint256",
					"name": "",
					"type": "uint256"
				}
			],
			"stateMutability": "pure",
			"type": "function"
		}
	]
}