{
	"data": {
		"bytecode": {
			"linkReferences": {},
			"object": "6080604052348015600e575f5ffd5b5061031c8061001c5f395ff3fe608060405234801561000f575f5ffd5b5060043610610029575f3560e01c80632aeb66ec1461002d575b5f5ffd5b610047600480360381019061004291906101fe565b61005d565b6040516100549190610299565b60405180910390f35b60605f6006811115610072576100716102b9565b5b826006811115610085576100846102b9565b5b036100c7576040518060400160405280601881526020017f49742773204d6f6e6461792c20676f20746f20776f726b21000000000000000081525090506101d2565b600160068111156100db576100da6102b9565b5b8260068111156100ee576100ed6102b9565b5b03610130576040518060400160405280601f81526020017f4974277320546575736461792e205354494c4c20474f20544f20574f524b210081525090506101d2565b60046006811115610144576101436102b9565b5b826006811115610157576101566102b9565b5b03610199576040518060400160405280601981526020017f5468616e6b20476f7773682c204974277320467269646179210000000000000081525090506101d2565b6040518060400160405280601881526020017f49742773206a757374206120726567756c61722064617921000000000000000081525090505b919050565b5f5ffd5b600781106101e7575f5ffd5b50565b5f813590506101f8816101db565b92915050565b5f60208284031215610213576102126101d7565b5b5f610220848285016101ea565b91505092915050565b5f81519050919050565b5f82825260208201905092915050565b8281835e5f83830152505050565b5f601f19601f8301169050919050565b5f61026b82610229565b6102758185610233565b9350610285818560208601610243565b61028e81610251565b840191505092915050565b5f6020820190508181035f8301526102b18184610261565b905092915050565b7f4e487b71000000000000000000000000000000000000000000000000000000005f52602160045260245ffdfea26469706673582212200124e17348cd003a0a118fb910af11a4fdd739eb59dd0b08c36c169fc86a912564736f6c634300081e0033",
			"opcodes": "PUSH1 0x80 PUSH1 0x40 MSTORE CALLVALUE DUP1 ISZERO PUSH1 0xE JUMPI PUSH0 PUSH0 REVERT JUMPDEST POP PUSH2 0x31C DUP1 PUSH2 0x1C PUSH0 CODECOPY PUSH0 RETURN INVALID PUSH1 0x80 PUSH1 0x40 MSTORE CALLVALUE DUP1 ISZERO PUSH2 0xF JUMPI PUSH0 PUSH0 REVERT JUMPDEST POP PUSH1 0x4 CALLDATASIZE LT PUSH2 0x29 JUMPI PUSH0 CALLDATALOAD PUSH1 0xE0 SHR DUP1 PUSH4 0x2AEB66EC EQ PUSH2 0x2D JUMPI JUMPDEST PUSH0 PUSH0 REVERT JUMPDEST PUSH2 0x47 PUSH1 0x4 DUP1 CALLDATASIZE SUB DUP2 ADD SWAP1 PUSH2 0x42 SWAP2 SWAP1 PUSH2 0x1FE JUMP JUMPDEST PUSH2 0x5D JUMP JUMPDEST PUSH1 0x40 MLOAD PUSH2 0x54 SWAP2 SWAP1 PUSH2 0x299 JUMP JUMPDEST PUSH1 0x40 MLOAD DUP1 SWAP2 SUB SWAP1 RETURN JUMPDEST PUSH1 0x60 PUSH0 PUSH1 0x6 DUP2 GT ISZERO PUSH2 0x72 JUMPI PUSH2 0x71 PUSH2 0x2B9 JUMP JUMPDEST JUMPDEST DUP3 PUSH1 0x6 DUP2 GT ISZERO PUSH2 0x85 JUMPI PUSH2 0x84 PUSH2 0x2B9 JUMP JUMPDEST JUMPDEST SUB PUSH2 0xC7 JUMPI PUSH1 0x40 MLOAD DUP1 PUSH1 0x40 ADD PUSH1 0x40 MSTORE DUP1 PUSH1 0x18 DUP2 MSTORE PUSH1 0x20 ADD PUSH32 0x49742773204D6F6E6461792C20676F20746F20776F726B210000000000000000 DUP2 MSTORE POP SWAP1 POP PUSH2 0x1D2 JUMP JUMPDEST PUSH1 0x1 PUSH1 0x6 DUP2 GT ISZERO PUSH2 0xDB JUMPI PUSH2 0xDA PUSH2 0x2B9 JUMP JUMPDEST JUMPDEST DUP3 PUSH1 0x6 DUP2 GT ISZERO PUSH2 0xEE JUMPI PUSH2 0xED PUSH2 0x2B9 JUMP JUMPDEST JUMPDEST SUB PUSH2 0x130 JUMPI PUSH1 0x40 MLOAD DUP1 PUSH1 0x40 ADD PUSH1 0x40 MSTORE DUP1 PUSH1 0x1F DUP2 MSTORE PUSH1 0x20 ADD PUSH32 0x4974277320546575736461792E205354494C4C20474F20544F20574F524B2100 DUP2 MSTORE POP SWAP1 POP PUSH2 0x1D2 JUMP JUMPDEST PUSH1 0x4 PUSH1 0x6 DUP2 GT ISZERO PUSH2 0x144 JUMPI PUSH2 0x143 PUSH2 0x2B9 JUMP JUMPDEST JUMPDEST DUP3 PUSH1 0x6 DUP2 GT ISZERO PUSH2 0x157 JUMPI PUSH2 0x156 PUSH2 0x2B9 JUMP JUMPDEST JUMPDEST SUB PUSH2 0x199 JUMPI PUSH1 0x40 MLOAD DUP1 PUSH1 0x40 ADD PUSH1 0x40 MSTORE DUP1 PUSH1 0x19 DUP2 MSTORE PUSH1 0x20 ADD PUSH32 0x5468616E6B20476F7773682C2049742773204672696461792100000000000000 DUP2 MSTORE POP SWAP1 POP PUSH2 0x1D2 JUMP JUMPDEST PUSH1 0x40 MLOAD DUP1 PUSH1 0x40 ADD PUSH1 0x40 MSTORE DUP1 PUSH1 0x18 DUP2 MSTORE PUSH1 0x20 ADD PUSH32 0x49742773206A757374206120726567756C617220646179210000000000000000 DUP2 MSTORE POP SWAP1 POP JUMPDEST SWAP2 SWAP1 POP JUMP JUMPDEST PUSH0 PUSH0 REVERT JUMPDEST PUSH1 0x7 DUP2 LT PUSH2 0x1E7 JUMPI PUSH0 PUSH0 REVERT JUMPDEST POP JUMP JUMPDEST PUSH0 DUP2 CALLDATALOAD SWAP1 POP PUSH2 0x1F8 DUP2 PUSH2 0x1DB JUMP JUMPDEST SWAP3 SWAP2 POP POP JUMP JUMPDEST PUSH0 PUSH1 0x20 DUP3 DUP5 SUB SLT ISZERO PUSH2 0x213 JUMPI PUSH2 0x212 PUSH2 0x1D7 JUMP JUMPDEST JUMPDEST PUSH0 PUSH2 0x220 DUP5 DUP3 DUP6 ADD PUSH2 0x1EA JUMP JUMPDEST SWAP2 POP POP SWAP3 SWAP2 POP POP JUMP JUMPDEST PUSH0 DUP2 MLOAD SWAP1 POP SWAP2 SWAP1 POP JUMP JUMPDEST PUSH0 DUP3 DUP3 MSTORE PUSH1 0x20 DUP3 ADD SWAP1 POP SWAP3 SWAP2 POP POP JUMP JUMPDEST DUP3 DUP2 DUP4 MCOPY PUSH0 DUP4 DUP4 ADD MSTORE POP POP POP JUMP JUMPDEST PUSH0 PUSH1 0x1F NOT PUSH1 0x1F DUP4 ADD AND SWAP1 POP SWAP2 SWAP1 POP JUMP JUMPDEST PUSH0 PUSH2 0x26B DUP3 PUSH2 0x229 JUMP JUMPDEST PUSH2 0x275 DUP2 DUP6 PUSH2 0x233 JUMP JUMPDEST SWAP4 POP PUSH2 0x285 DUP2 DUP6 PUSH1 0x20 DUP7 ADD PUSH2 0x243 JUMP JUMPDEST PUSH2 0x28E DUP2 PUSH2 0x251 JUMP JUMPDEST DUP5 ADD SWAP2 POP POP SWAP3 SWAP2 POP POP JUMP JUMPDEST PUSH0 PUSH1 0x20 DUP3 ADD SWAP1 POP DUP2 DUP2 SUB PUSH0 DUP4 ADD MSTORE PUSH2 0x2B1 DUP2 DUP5 PUSH2 0x261 JUMP JUMPDEST SWAP1 POP SWAP3 SWAP2 POP POP JUMP JUMPDEST PUSH32 0x4E487B7100000000000000000000000000000000000000000000000000000000 PUSH0 MSTORE PUSH1 0x21 PUSH1 0x4 MSTORE PUSH1 0x24 PUSH0 REVERT INVALID LOG2 PUSH5 0x6970667358 0x22 SLT KECCAK256 ADD 0x24 RJUMPI 0x7348 0xCD STOP GASPRICE EXP GT DUP16 0xB9 LT 0xAF GT LOG4 REVERT 0xD7 CODECOPY 0xEB MSIZE 0xDD SIGNEXTEND ADDMOD 0xC3 PUSH13 0x169FC86A912564736F6C634300 ADDMOD 0x1E STOP CALLER "
		},
		"gasEstimates": {
			"creation": {
				"codeDepositCost": "159200",
				"executionCost": "200",
				"totalCost": "159400"
			},
			"external": {
				"dayPlan(uint8)": "infinite"
			}
		},
		"methodIdentifiers": {
			"dayPlan(uint8)": "2aeb66ec"
		}
	},
	"abi": [
		{
			"inputs": [
				{
					"internalType": "enum IfElse.Day",
					"name": "today",
					"type": "uint8"
				}
			],
			"name": "dayPlan",
			"outputs": [
				{
					"internalType": "string",
					"name": "",
					"type": "string"
				}
			],
			"stateMutability": "pure",
			"type": "function"
		}
	]
}