{
	"data": {
		"bytecode": {
			"linkReferences": {},
			"object": "6080604052348015600e575f5ffd5b5060eb8061001b5f395ff3fe6080604052348015600e575f5ffd5b50600436106030575f3560e01c80632f3f470a1460345780635289186814604e575b5f5ffd5b603a6068565b60405160459190609e565b60405180910390f35b60546074565b604051605f9190609e565b60405180910390f35b5f606f6080565b905090565b5f607b6080565b905090565b5f6064905090565b5f819050919050565b6098816088565b82525050565b5f60208201905060af5f8301846091565b9291505056fea2646970667358221220c1a644b5142411ca382ca5484ad397e8a7fae03550be8844d5786efa8663ec9964736f6c634300081e0033",
			"opcodes": "PUSH1 0x80 PUSH1 0x40 MSTORE CALLVALUE DUP1 ISZERO PUSH1 0xE JUMPI PUSH0 PUSH0 REVERT JUMPDEST POP PUSH1 0xEB DUP1 PUSH2 0x1B PUSH0 CODECOPY PUSH0 RETURN INVALID PUSH1 0x80 PUSH1 0x40 MSTORE CALLVALUE DUP1 ISZERO PUSH1 0xE JUMPI PUSH0 PUSH0 REVERT JUMPDEST POP PUSH1 0x4 CALLDATASIZE LT PUSH1 0x30 JUMPI PUSH0 CALLDATALOAD PUSH1 0xE0 SHR DUP1 PUSH4 0x2F3F470A EQ PUSH1 0x34 JUMPI DUP1 PUSH4 0x52891868 EQ PUSH1 0x4E JUMPI JUMPDEST PUSH0 PUSH0 REVERT JUMPDEST PUSH1 0x3A PUSH1 0x68 JUMP JUMPDEST PUSH1 0x40 MLOAD PUSH1 0x45 SWAP2 SWAP1 PUSH1 0x9E JUMP JUMPDEST PUSH1 0x40 MLOAD DUP1 SWAP2 SUB SWAP1 RETURN JUMPDEST PUSH1 0x54 PUSH1 0x74 JUMP JUMPDEST PUSH1 0x40 MLOAD PUSH1 0x5F SWAP2 SWAP1 PUSH1 0x9E JUMP JUMPDEST PUSH1 0x40 MLOAD DUP1 SWAP2 SUB SWAP1 RETURN JUMPDEST PUSH0 PUSH1 0x6F PUSH1 0x80 JUMP JUMPDEST SWAP1 POP SWAP1 JUMP JUMPDEST PUSH0 PUSH1 0x7B PUSH1 0x80 JUMP JUMPDEST SWAP1 POP SWAP1 JUMP JUMPDEST PUSH0 PUSH1 0x64 SWAP1 POP SWAP1 JUMP JUMPDEST PUSH0 DUP2 SWAP1 POP SWAP2 SWAP1 POP JUMP JUMPDEST PUSH1 0x98 DUP2 PUSH1 0x88 JUMP JUMPDEST DUP3 MSTORE POP POP JUMP JUMPDEST PUSH0 PUSH1 0x20 DUP3 ADD SWAP1 POP PUSH1 0xAF PUSH0 DUP4 ADD DUP5 PUSH1 0x91 JUMP JUMPDEST SWAP3 SWAP2 POP POP JUMP INVALID LOG2 PUSH5 0x6970667358 0x22 SLT KECCAK256 0xC1 0xA6 PREVRANDAO 0xB5 EQ 0x24 GT 0xCA CODESIZE 0x2C 0xA5 BASEFEE BLOBBASEFEE 0xD3 SWAP8 0xE8 0xA7 STATICCALL RJUMP 0x3550 0xBE DUP9 PREVRANDAO 0xD5 PUSH25 0x6EFA8663EC9964736F6C634300081E00330000000000000000 "
		},
		"gasEstimates": {
			"creation": {
				"codeDepositCost": "47000",
				"executionCost": "97",
				"totalCost": "47097"
			},
			"external": {
				"helperTrigger()": "366",
				"useHelper()": "344"
			}
		},
		"methodIdentifiers": {
			"helperTrigger()": "52891868",
			"useHelper()": "2f3f470a"
		}
	},
	"abi": [
		{
			"inputs": [],
			"name": "helperTrigger",
			"outputs": [
				{
					"internalType": "uint256",
					"name": "",
					"type": "uint256"
				}
			],
			"stateMutability": "pure",
			"type": "function"
		},
		{
			"inputs": [],
			"name": "useHelper",
			"outputs": [
				{
					"internalType": "uint256",
					"name": "",
					"type": "uint256"
				}
			],
			"stateMutability": "pure",
			"type": "function"
		}
	]
}